{
  "_format": "hh-sol-artifact-1",
  "contractName": "NodeDIDRegistry",
  "sourceName": "contracts/NodeDIDRegistry.sol",
  "abi": [
    {
      "inputs": [
        {
          "internalType": "address",
          "name": "admin",
          "type": "address"
        },
        {
          "internalType": "address",
          "name": "_sensorResolver",
          "type": "address"
        }
      ],
      "stateMutability": "nonpayable",
      "type": "constructor"
    },
    {
      "inputs": [],
      "name": "AccessControlBadConfirmation",
      "type": "error"
    },
    {
      "inputs": [
        {
          "internalType": "address",
          "name": "account",
          "type": "address"
        },
        {
          "internalType": "bytes32",
          "name": "neededRole",
          "type": "bytes32"
        }
      ],
      "name": "AccessControlUnauthorizedAccount",
      "type": "error"
    },
    {
      "inputs": [],
      "name": "ArrayLengthMismatch",
      "type": "error"
    },
    {
      "inputs": [],
      "name": "ECDSAInvalidSignature",
      "type": "error"
    },
    {
      "inputs": [
        {
          "internalType": "uint256",
          "name": "length",
          "type": "uint256"
        }
      ],
      "name": "ECDSAInvalidSignatureLength",
      "type": "error"
    },
    {
      "inputs": [
        {
          "internalType": "bytes32",
          "name": "s",
          "type": "bytes32"
        }
      ],
      "name": "ECDSAInvalidSignatureS",
      "type": "error"
    },
    {
      "inputs": [],
      "name": "InvalidController",
      "type": "error"
    },
    {
      "inputs": [],
      "name": "InvalidNodeAddress",
      "type": "error"
    },
    {
      "inputs": [],
      "name": "InvalidShortString",
      "type": "error"
    },
    {
      "inputs": [],
      "name": "InvalidSignature",
      "type": "error"
    },
    {
      "inputs": [],
      "name": "NodeAlreadyRegistered",
      "type": "error"
    },
    {
      "inputs": [],
      "name": "NodeNotRegistered",
      "type": "error"
    },
    {
      "inputs": [],
      "name": "NodeTypeNotAllowed",
      "type": "error"
    },
    {
      "inputs": [
        {
          "internalType": "string",
          "name": "str",
          "type": "string"
        }
      ],
      "name": "StringTooLong",
      "type": "error"
    },
    {
      "inputs": [],
      "name": "Unauthorized",
      "type": "error"
    },
    {
      "anonymous": false,
      "inputs": [
        {
          "indexed": true,
          "internalType": "address",
          "name": "node",
          "type": "address"
        },
        {
          "indexed": false,
          "internalType": "address",
          "name": "newController",
          "type": "address"
        }
      ],
      "name": "ControllerChanged",
      "type": "event"
    },
    {
      "anonymous": false,
      "inputs": [],
      "name": "EIP712DomainChanged",
      "type": "event"
    },
    {
      "anonymous": false,
      "inputs": [
        {
          "indexed": true,
          "internalType": "address",
          "name": "node",
          "type": "address"
        },
        {
          "indexed": false,
          "internalType": "string",
          "name": "newURI",
          "type": "string"
        }
      ],
      "name": "MetadataURIUpdated",
      "type": "event"
    },
    {
      "anonymous": false,
      "inputs": [
        {
          "indexed": true,
          "internalType": "address",
          "name": "node",
          "type": "address"
        },
        {
          "indexed": true,
          "internalType": "uint8",
          "name": "nodeType",
          "type": "uint8"
        },
        {
          "indexed": false,
          "internalType": "address",
          "name": "controller",
          "type": "address"
        }
      ],
      "name": "NodeRegistered",
      "type": "event"
    },
    {
      "anonymous": false,
      "inputs": [
        {
          "indexed": true,
          "internalType": "address",
          "name": "node",
          "type": "address"
        },
        {
          "indexed": false,
          "internalType": "bool",
          "name": "active",
          "type": "bool"
        }
      ],
      "name": "NodeStatusChanged",
      "type": "event"
    },
    {
      "anonymous": false,
      "inputs": [
        {
          "indexed": true,
          "internalType": "bytes32",
          "name": "role",
          "type": "bytes32"
        },
        {
          "indexed": true,
          "internalType": "bytes32",
          "name": "previousAdminRole",
          "type": "bytes32"
        },
        {
          "indexed": true,
          "internalType": "bytes32",
          "name": "newAdminRole",
          "type": "bytes32"
        }
      ],
      "name": "RoleAdminChanged",
      "type": "event"
    },
    {
      "anonymous": false,
      "inputs": [
        {
          "indexed": true,
          "internalType": "bytes32",
          "name": "role",
          "type": "bytes32"
        },
        {
          "indexed": true,
          "internalType": "address",
          "name": "account",
          "type": "address"
        },
        {
          "indexed": true,
          "internalType": "address",
          "name": "sender",
          "type": "address"
        }
      ],
      "name": "RoleGranted",
      "type": "event"
    },
    {
      "anonymous": false,
      "inputs": [
        {
          "indexed": true,
          "internalType": "bytes32",
          "name": "role",
          "type": "bytes32"
        },
        {
          "indexed": true,
          "internalType": "address",
          "name": "account",
          "type": "address"
        },
        {
          "indexed": true,
          "internalType": "address",
          "name": "sender",
          "type": "address"
        }
      ],
      "name": "RoleRevoked",
      "type": "event"
    },
    {
      "inputs": [],
      "name": "DEFAULT_ADMIN_ROLE",
      "outputs": [
        {
          "internalType": "bytes32",
          "name": "",
          "type": "bytes32"
        }
      ],
      "stateMutability": "view",
      "type": "function"
    },
    {
      "inputs": [],
      "name": "MANAGER_ROLE",
      "outputs": [
        {
          "internalType": "bytes32",
          "name": "",
          "type": "bytes32"
        }
      ],
      "stateMutability": "view",
      "type": "function"
    },
    {
      "inputs": [
        {
          "internalType": "address",
          "name": "node",
          "type": "address"
        },
        {
          "internalType": "address",
          "name": "newController",
          "type": "address"
        }
      ],
      "name": "changeController",
      "outputs": [],
      "stateMutability": "nonpayable",
      "type": "function"
    },
    {
      "inputs": [
        {
          "internalType": "address",
          "name": "",
          "type": "address"
        }
      ],
      "name": "controllerOf",
      "outputs": [
        {
          "internalType": "address",
          "name": "",
          "type": "address"
        }
      ],
      "stateMutability": "view",
      "type": "function"
    },
    {
      "inputs": [],
      "name": "eip712Domain",
      "outputs": [
        {
          "internalType": "bytes1",
          "name": "fields",
          "type": "bytes1"
        },
        {
          "internalType": "string",
          "name": "name",
          "type": "string"
        },
        {
          "internalType": "string",
          "name": "version",
          "type": "string"
        },
        {
          "internalType": "uint256",
          "name": "chainId",
          "type": "uint256"
        },
        {
          "internalType": "address",
          "name": "verifyingContract",
          "type": "address"
        },
        {
          "internalType": "bytes32",
          "name": "salt",
          "type": "bytes32"
        },
        {
          "internalType": "uint256[]",
          "name": "extensions",
          "type": "uint256[]"
        }
      ],
      "stateMutability": "view",
      "type": "function"
    },
    {
      "inputs": [
        {
          "internalType": "address",
          "name": "node",
          "type": "address"
        }
      ],
      "name": "getController",
      "outputs": [
        {
          "internalType": "address",
          "name": "controller",
          "type": "address"
        }
      ],
      "stateMutability": "view",
      "type": "function"
    },
    {
      "inputs": [
        {
          "internalType": "address",
          "name": "node",
          "type": "address"
        }
      ],
      "name": "getControllerAndStatus",
      "outputs": [
        {
          "internalType": "address",
          "name": "controller",
          "type": "address"
        },
        {
          "internalType": "bool",
          "name": "active",
          "type": "bool"
        }
      ],
      "stateMutability": "view",
      "type": "function"
    },
    {
      "inputs": [
        {
          "internalType": "address",
          "name": "node",
          "type": "address"
        }
      ],
      "name": "getNodeData",
      "outputs": [
        {
          "components": [
            {
              "internalType": "uint8",
              "name": "nodeType",
              "type": "uint8"
            },
            {
              "internalType": "bool",
              "name": "active",
              "type": "bool"
            },
            {
              "internalType": "string",
              "name": "metadataURI",
              "type": "string"
            }
          ],
          "internalType": "struct NodeDIDRegistry.NodeData",
          "name": "data",
          "type": "tuple"
        }
      ],
      "stateMutability": "view",
      "type": "function"
    },
    {
      "inputs": [
        {
          "internalType": "bytes32",
          "name": "role",
          "type": "bytes32"
        }
      ],
      "name": "getRoleAdmin",
      "outputs": [
        {
          "internalType": "bytes32",
          "name": "",
          "type": "bytes32"
        }
      ],
      "stateMutability": "view",
      "type": "function"
    },
    {
      "inputs": [
        {
          "internalType": "bytes32",
          "name": "role",
          "type": "bytes32"
        },
        {
          "internalType": "address",
          "name": "account",
          "type": "address"
        }
      ],
      "name": "grantRole",
      "outputs": [],
      "stateMutability": "nonpayable",
      "type": "function"
    },
    {
      "inputs": [
        {
          "internalType": "bytes32",
          "name": "role",
          "type": "bytes32"
        },
        {
          "internalType": "address",
          "name": "account",
          "type": "address"
        }
      ],
      "name": "hasRole",
      "outputs": [
        {
          "internalType": "bool",
          "name": "",
          "type": "bool"
        }
      ],
      "stateMutability": "view",
      "type": "function"
    },
    {
      "inputs": [
        {
          "internalType": "address",
          "name": "node",
          "type": "address"
        }
      ],
      "name": "isActive",
      "outputs": [
        {
          "internalType": "bool",
          "name": "active",
          "type": "bool"
        }
      ],
      "stateMutability": "view",
      "type": "function"
    },
    {
      "inputs": [
        {
          "internalType": "address",
          "name": "node",
          "type": "address"
        },
        {
          "internalType": "address",
          "name": "user",
          "type": "address"
        }
      ],
      "name": "isController",
      "outputs": [
        {
          "internalType": "bool",
          "name": "isCtrl",
          "type": "bool"
        }
      ],
      "stateMutability": "view",
      "type": "function"
    },
    {
      "inputs": [
        {
          "internalType": "address",
          "name": "node",
          "type": "address"
        }
      ],
      "name": "isRegistered",
      "outputs": [
        {
          "internalType": "bool",
          "name": "registered",
          "type": "bool"
        }
      ],
      "stateMutability": "view",
      "type": "function"
    },
    {
      "inputs": [
        {
          "internalType": "address",
          "name": "",
          "type": "address"
        }
      ],
      "name": "nodeData",
      "outputs": [
        {
          "internalType": "uint8",
          "name": "nodeType",
          "type": "uint8"
        },
        {
          "internalType": "bool",
          "name": "active",
          "type": "bool"
        },
        {
          "internalType": "string",
          "name": "metadataURI",
          "type": "string"
        }
      ],
      "stateMutability": "view",
      "type": "function"
    },
    {
      "inputs": [
        {
          "internalType": "address",
          "name": "",
          "type": "address"
        }
      ],
      "name": "nonces",
      "outputs": [
        {
          "internalType": "uint256",
          "name": "",
          "type": "uint256"
        }
      ],
      "stateMutability": "view",
      "type": "function"
    },
    {
      "inputs": [
        {
          "internalType": "address[]",
          "name": "nodeAddresses",
          "type": "address[]"
        },
        {
          "internalType": "uint8[]",
          "name": "nodeTypes",
          "type": "uint8[]"
        },
        {
          "internalType": "address[]",
          "name": "controllers",
          "type": "address[]"
        },
        {
          "internalType": "string[]",
          "name": "metadataURIs",
          "type": "string[]"
        },
        {
          "internalType": "bytes[]",
          "name": "signatures",
          "type": "bytes[]"
        }
      ],
      "name": "registerMultipleNodes",
      "outputs": [],
      "stateMutability": "nonpayable",
      "type": "function"
    },
    {
      "inputs": [
        {
          "internalType": "address",
          "name": "node",
          "type": "address"
        },
        {
          "internalType": "uint8",
          "name": "nodeType",
          "type": "uint8"
        },
        {
          "internalType": "address",
          "name": "controller",
          "type": "address"
        },
        {
          "internalType": "string",
          "name": "metadataURI",
          "type": "string"
        },
        {
          "internalType": "bytes",
          "name": "signature",
          "type": "bytes"
        }
      ],
      "name": "registerNode",
      "outputs": [],
      "stateMutability": "nonpayable",
      "type": "function"
    },
    {
      "inputs": [
        {
          "internalType": "bytes32",
          "name": "role",
          "type": "bytes32"
        },
        {
          "internalType": "address",
          "name": "callerConfirmation",
          "type": "address"
        }
      ],
      "name": "renounceRole",
      "outputs": [],
      "stateMutability": "nonpayable",
      "type": "function"
    },
    {
      "inputs": [
        {
          "internalType": "bytes32",
          "name": "role",
          "type": "bytes32"
        },
        {
          "internalType": "address",
          "name": "account",
          "type": "address"
        }
      ],
      "name": "revokeRole",
      "outputs": [],
      "stateMutability": "nonpayable",
      "type": "function"
    },
    {
      "inputs": [],
      "name": "sensorResolver",
      "outputs": [
        {
          "internalType": "contract ISensorResolver",
          "name": "",
          "type": "address"
        }
      ],
      "stateMutability": "view",
      "type": "function"
    },
    {
      "inputs": [
        {
          "internalType": "address",
          "name": "node",
          "type": "address"
        },
        {
          "internalType": "bool",
          "name": "active",
          "type": "bool"
        }
      ],
      "name": "setNodeActive",
      "outputs": [],
      "stateMutability": "nonpayable",
      "type": "function"
    },
    {
      "inputs": [
        {
          "internalType": "bytes4",
          "name": "interfaceId",
          "type": "bytes4"
        }
      ],
      "name": "supportsInterface",
      "outputs": [
        {
          "internalType": "bool",
          "name": "",
          "type": "bool"
        }
      ],
      "stateMutability": "view",
      "type": "function"
    },
    {
      "inputs": [
        {
          "internalType": "address",
          "name": "node",
          "type": "address"
        },
        {
          "internalType": "string",
          "name": "newURI",
          "type": "string"
        }
      ],
      "name": "updateMetadataURI",
      "outputs": [],
      "stateMutability": "nonpayable",
      "type": "function"
    }
  ],
  "bytecode": "0x6101806040523480156200001257600080fd5b5060405162004341380380620043418339818101604052810190620000389190620004e5565b6040518060400160405280600f81526020017f4e6f6465444944526567697374727900000000000000000000000000000000008152506040518060400160405280600181526020017f3100000000000000000000000000000000000000000000000000000000000000815250620000ba600183620001da60201b90919060201c565b6101208181525050620000d8600282620001da60201b90919060201c565b6101408181525050818051906020012060e08181525050808051906020012061010081815250504660a08181525050620001176200023260201b60201c565b608081815250503073ffffffffffffffffffffffffffffffffffffffff1660c08173ffffffffffffffffffffffffffffffffffffffff16815250505050620001696000801b836200028f60201b60201c565b506200019c7f241ecf16d79d0f8dbfb92cbc07fe17840425976cf0667f022fe9877caa831b08836200028f60201b60201c565b508073ffffffffffffffffffffffffffffffffffffffff166101608173ffffffffffffffffffffffffffffffffffffffff1681525050505062000a7c565b60006020835110156200020057620001f8836200039260201b60201c565b90506200022c565b826200021283620003ff60201b60201c565b6000019081620002239190620007a6565b5060ff60001b90505b92915050565b60007f8b73c3c69bb8fe3d512ecc4cf759cc79239f7b179b0ffacaa9a75d522b39400f60e05161010051463060405160200162000274959493929190620008ca565b60405160208183030381529060405280519060200120905090565b6000620002a383836200040960201b60201c565b6200038757600160008085815260200190815260200160002060000160008473ffffffffffffffffffffffffffffffffffffffff1673ffffffffffffffffffffffffffffffffffffffff16815260200190815260200160002060006101000a81548160ff021916908315150217905550620003236200047360201b60201c565b73ffffffffffffffffffffffffffffffffffffffff168273ffffffffffffffffffffffffffffffffffffffff16847f2f8788117e7eff1d82e926ec794901d17c78024a50270940304540a733656f0d60405160405180910390a4600190506200038c565b600090505b92915050565b600080829050601f81511115620003e257826040517f305a27a9000000000000000000000000000000000000000000000000000000008152600401620003d99190620009b6565b60405180910390fd5b805181620003f09062000a0c565b60001c1760001b915050919050565b6000819050919050565b600080600084815260200190815260200160002060000160008373ffffffffffffffffffffffffffffffffffffffff1673ffffffffffffffffffffffffffffffffffffffff16815260200190815260200160002060009054906101000a900460ff16905092915050565b600033905090565b600080fd5b600073ffffffffffffffffffffffffffffffffffffffff82169050919050565b6000620004ad8262000480565b9050919050565b620004bf81620004a0565b8114620004cb57600080fd5b50565b600081519050620004df81620004b4565b92915050565b60008060408385031215620004ff57620004fe6200047b565b5b60006200050f85828601620004ce565b92505060206200052285828601620004ce565b9150509250929050565b600081519050919050565b7f4e487b7100000000000000000000000000000000000000000000000000000000600052604160045260246000fd5b7f4e487b7100000000000000000000000000000000000000000000000000000000600052602260045260246000fd5b60006002820490506001821680620005ae57607f821691505b602082108103620005c457620005c362000566565b5b50919050565b60008190508160005260206000209050919050565b60006020601f8301049050919050565b600082821b905092915050565b6000600883026200062e7fffffffffffffffffffffffffffffffffffffffffffffffffffffffffffffffff82620005ef565b6200063a8683620005ef565b95508019841693508086168417925050509392505050565b6000819050919050565b6000819050919050565b600062000687620006816200067b8462000652565b6200065c565b62000652565b9050919050565b6000819050919050565b620006a38362000666565b620006bb620006b2826200068e565b848454620005fc565b825550505050565b600090565b620006d2620006c3565b620006df81848462000698565b505050565b5b818110156200070757620006fb600082620006c8565b600181019050620006e5565b5050565b601f82111562000756576200072081620005ca565b6200072b84620005df565b810160208510156200073b578190505b620007536200074a85620005df565b830182620006e4565b50505b505050565b600082821c905092915050565b60006200077b600019846008026200075b565b1980831691505092915050565b600062000796838362000768565b9150826002028217905092915050565b620007b1826200052c565b67ffffffffffffffff811115620007cd57620007cc62000537565b5b620007d9825462000595565b620007e68282856200070b565b600060209050601f8311600181146200081e576000841562000809578287015190505b62000815858262000788565b86555062000885565b601f1984166200082e86620005ca565b60005b82811015620008585784890151825560018201915060208501945060208101905062000831565b8683101562000878578489015162000874601f89168262000768565b8355505b6001600288020188555050505b505050505050565b6000819050919050565b620008a2816200088d565b82525050565b620008b38162000652565b82525050565b620008c481620004a0565b82525050565b600060a082019050620008e1600083018862000897565b620008f0602083018762000897565b620008ff604083018662000897565b6200090e6060830185620008a8565b6200091d6080830184620008b9565b9695505050505050565b600082825260208201905092915050565b60005b83811015620009585780820151818401526020810190506200093b565b60008484015250505050565b6000601f19601f8301169050919050565b600062000982826200052c565b6200098e818562000927565b9350620009a081856020860162000938565b620009ab8162000964565b840191505092915050565b60006020820190508181036000830152620009d2818462000975565b905092915050565b600081519050919050565b6000819050602082019050919050565b600062000a0382516200088d565b80915050919050565b600062000a1982620009da565b8262000a2584620009e5565b905062000a3281620009f5565b9250602082101562000a755762000a707fffffffffffffffffffffffffffffffffffffffffffffffffffffffffffffffff83602003600802620005ef565b831692505b5050919050565b60805160a05160c05160e0516101005161012051610140516101605161385862000ae96000396000818161118b0152611af201526000611e3101526000611df60152600061231c015260006122fb01526000611fae015260006120040152600061202d01526138586000f3fe608060405234801561001057600080fd5b50600436106101585760003560e01c80639f8a13d7116100c3578063d3a2b2101161007c578063d3a2b2101461042b578063d547741f1461045b578063e41ae8cd14610477578063ec87621c14610493578063edc74066146104b1578063fabb2c17146104e257610158565b80639f8a13d714610343578063a217fddf14610373578063a2a55da814610391578063c3c5a547146103ad578063c911b56e146103dd578063d1ffcb491461040d57610158565b806342b6daea1161011557806342b6daea146102415780637ecebe001461025d57806384b0196e1461028d57806388c662aa146102b157806388fc9bb7146102e157806391d148541461031357610158565b806301ffc9a71461015d578063248a9ca31461018d5780632f2ff15d146101bd57806336568abe146101d957806338fc1090146101f55780633e11e37814610225575b600080fd5b61017760048036038101906101729190612538565b6104fe565b6040516101849190612580565b60405180910390f35b6101a760048036038101906101a291906125d1565b610578565b6040516101b4919061260d565b60405180910390f35b6101d760048036038101906101d29190612686565b610597565b005b6101f360048036038101906101ee9190612686565b6105b9565b005b61020f600480360381019061020a91906126c6565b610634565b60405161021c91906127fe565b60405180910390f35b61023f600480360381019061023a9190612820565b610757565b005b61025b600480360381019061025691906129c7565b610a4b565b005b610277600480360381019061027291906126c6565b610bfc565b6040516102849190612afd565b60405180910390f35b610295610c14565b6040516102a89796959493929190612c6a565b60405180910390f35b6102cb60048036038101906102c691906126c6565b610cbe565b6040516102d89190612cee565b60405180910390f35b6102fb60048036038101906102f691906126c6565b610d27565b60405161030a93929190612d18565b60405180910390f35b61032d60048036038101906103289190612686565b610df3565b60405161033a9190612580565b60405180910390f35b61035d600480360381019061035891906126c6565b610e5d565b60405161036a9190612580565b60405180910390f35b61037b610eb6565b604051610388919061260d565b60405180910390f35b6103ab60048036038101906103a69190612d82565b610ebd565b005b6103c760048036038101906103c291906126c6565b611059565b6040516103d49190612580565b60405180910390f35b6103f760048036038101906103f29190612820565b6110f1565b6040516104049190612580565b60405180910390f35b610415611189565b6040516104229190612e21565b60405180910390f35b610445600480360381019061044091906126c6565b6111ad565b6040516104529190612cee565b60405180910390f35b61047560048036038101906104709190612686565b6111e0565b005b610491600480360381019061048c9190612f14565b611202565b005b61049b611245565b6040516104a8919061260d565b60405180910390f35b6104cb60048036038101906104c691906126c6565b611269565b6040516104d9929190612fd0565b60405180910390f35b6104fc60048036038101906104f79190612ff9565b611325565b005b60007f7965db0b000000000000000000000000000000000000000000000000000000007bffffffffffffffffffffffffffffffffffffffffffffffffffffffff1916827bffffffffffffffffffffffffffffffffffffffffffffffffffffffff1916148061057157506105708261158a565b5b9050919050565b6000806000838152602001908152602001600020600101549050919050565b6105a082610578565b6105a9816115f4565b6105b38383611608565b50505050565b6105c16116f9565b73ffffffffffffffffffffffffffffffffffffffff168173ffffffffffffffffffffffffffffffffffffffff1614610625576040517f6697b23200000000000000000000000000000000000000000000000000000000815260040160405180910390fd5b61062f8282611701565b505050565b61063c6124b0565b600460008373ffffffffffffffffffffffffffffffffffffffff1673ffffffffffffffffffffffffffffffffffffffff1681526020019081526020016000206040518060600160405290816000820160009054906101000a900460ff1660ff1660ff1681526020016000820160019054906101000a900460ff161515151581526020016001820180546106ce90613088565b80601f01602080910402602001604051908101604052809291908181526020018280546106fa90613088565b80156107475780601f1061071c57610100808354040283529160200191610747565b820191906000526020600020905b81548152906001019060200180831161072a57829003601f168201915b5050505050815250509050919050565b600073ffffffffffffffffffffffffffffffffffffffff16600360008473ffffffffffffffffffffffffffffffffffffffff1673ffffffffffffffffffffffffffffffffffffffff16815260200190815260200160002060009054906101000a900473ffffffffffffffffffffffffffffffffffffffff1673ffffffffffffffffffffffffffffffffffffffff160361081c576040517f014f556800000000000000000000000000000000000000000000000000000000815260040160405180910390fd5b600360008373ffffffffffffffffffffffffffffffffffffffff1673ffffffffffffffffffffffffffffffffffffffff16815260200190815260200160002060009054906101000a900473ffffffffffffffffffffffffffffffffffffffff1673ffffffffffffffffffffffffffffffffffffffff163373ffffffffffffffffffffffffffffffffffffffff16141580156108de57506108dc7f241ecf16d79d0f8dbfb92cbc07fe17840425976cf0667f022fe9877caa831b0833610df3565b155b15610915576040517f82b4290000000000000000000000000000000000000000000000000000000000815260040160405180910390fd5b600073ffffffffffffffffffffffffffffffffffffffff168173ffffffffffffffffffffffffffffffffffffffff160361097b576040517f6d5769be00000000000000000000000000000000000000000000000000000000815260040160405180910390fd5b80600360008473ffffffffffffffffffffffffffffffffffffffff1673ffffffffffffffffffffffffffffffffffffffff16815260200190815260200160002060006101000a81548173ffffffffffffffffffffffffffffffffffffffff021916908373ffffffffffffffffffffffffffffffffffffffff1602179055508173ffffffffffffffffffffffffffffffffffffffff167f6aef1fb5b23d0e109fc7f2b0601019e1edbacd177e31a441ec8548e8dd14f0f782604051610a3f9190612cee565b60405180910390a25050565b7f241ecf16d79d0f8dbfb92cbc07fe17840425976cf0667f022fe9877caa831b08610a75816115f4565b60008b8b905090508989905081141580610a925750878790508114155b80610aa05750858590508114155b80610aae5750838390508114155b15610ae5576040517fa24a13a600000000000000000000000000000000000000000000000000000000815260040160405180910390fd5b60005b81811015610bed5760008d8d83818110610b0557610b046130b9565b5b9050602002016020810190610b1a91906126c6565b905060008a8a84818110610b3157610b306130b9565b5b9050602002016020810190610b4691906126c6565b905060008d8d85818110610b5d57610b5c6130b9565b5b9050602002016020810190610b7291906130e8565b90503660008b8b87818110610b8a57610b896130b9565b5b9050602002810190610b9c9190613124565b915091503660008b8b89818110610bb657610bb56130b9565b5b9050602002810190610bc89190613187565b91509150610bdb878688878787876117f3565b87600101975050505050505050610ae8565b50505050505050505050505050565b60056020528060005260406000206000915090505481565b600060608060008060006060610c28611ded565b610c30611e28565b46306000801b600067ffffffffffffffff811115610c5157610c506131ea565b5b604051908082528060200260200182016040528015610c7f5781602001602082028036833780820191505090505b507f0f00000000000000000000000000000000000000000000000000000000000000959493929190965096509650965096509650965090919293949596565b6000600360008373ffffffffffffffffffffffffffffffffffffffff1673ffffffffffffffffffffffffffffffffffffffff16815260200190815260200160002060009054906101000a900473ffffffffffffffffffffffffffffffffffffffff169050919050565b60046020528060005260406000206000915090508060000160009054906101000a900460ff16908060000160019054906101000a900460ff1690806001018054610d7090613088565b80601f0160208091040260200160405190810160405280929190818152602001828054610d9c90613088565b8015610de95780601f10610dbe57610100808354040283529160200191610de9565b820191906000526020600020905b815481529060010190602001808311610dcc57829003601f168201915b5050505050905083565b600080600084815260200190815260200160002060000160008373ffffffffffffffffffffffffffffffffffffffff1673ffffffffffffffffffffffffffffffffffffffff16815260200190815260200160002060009054906101000a900460ff16905092915050565b6000600460008373ffffffffffffffffffffffffffffffffffffffff1673ffffffffffffffffffffffffffffffffffffffff16815260200190815260200160002060000160019054906101000a900460ff169050919050565b6000801b81565b7f241ecf16d79d0f8dbfb92cbc07fe17840425976cf0667f022fe9877caa831b08610ee7816115f4565b600073ffffffffffffffffffffffffffffffffffffffff16600360008573ffffffffffffffffffffffffffffffffffffffff1673ffffffffffffffffffffffffffffffffffffffff16815260200190815260200160002060009054906101000a900473ffffffffffffffffffffffffffffffffffffffff1673ffffffffffffffffffffffffffffffffffffffff1603610fac576040517f014f556800000000000000000000000000000000000000000000000000000000815260040160405180910390fd5b81600460008573ffffffffffffffffffffffffffffffffffffffff1673ffffffffffffffffffffffffffffffffffffffff16815260200190815260200160002060000160016101000a81548160ff0219169083151502179055508273ffffffffffffffffffffffffffffffffffffffff167f215763b2b1bc936f6893f55521c7b2150de788f51fc12fc3483d5a871bbceb068360405161104c9190612580565b60405180910390a2505050565b60008073ffffffffffffffffffffffffffffffffffffffff16600360008473ffffffffffffffffffffffffffffffffffffffff1673ffffffffffffffffffffffffffffffffffffffff16815260200190815260200160002060009054906101000a900473ffffffffffffffffffffffffffffffffffffffff1673ffffffffffffffffffffffffffffffffffffffff1614159050919050565b60008173ffffffffffffffffffffffffffffffffffffffff16600360008573ffffffffffffffffffffffffffffffffffffffff1673ffffffffffffffffffffffffffffffffffffffff16815260200190815260200160002060009054906101000a900473ffffffffffffffffffffffffffffffffffffffff1673ffffffffffffffffffffffffffffffffffffffff1614905092915050565b7f000000000000000000000000000000000000000000000000000000000000000081565b60036020528060005260406000206000915054906101000a900473ffffffffffffffffffffffffffffffffffffffff1681565b6111e982610578565b6111f2816115f4565b6111fc8383611701565b50505050565b7f241ecf16d79d0f8dbfb92cbc07fe17840425976cf0667f022fe9877caa831b0861122c816115f4565b61123b888888888888886117f3565b5050505050505050565b7f241ecf16d79d0f8dbfb92cbc07fe17840425976cf0667f022fe9877caa831b0881565b600080600360008473ffffffffffffffffffffffffffffffffffffffff1673ffffffffffffffffffffffffffffffffffffffff16815260200190815260200160002060009054906101000a900473ffffffffffffffffffffffffffffffffffffffff169150600460008473ffffffffffffffffffffffffffffffffffffffff1673ffffffffffffffffffffffffffffffffffffffff16815260200190815260200160002060000160019054906101000a900460ff169050915091565b600073ffffffffffffffffffffffffffffffffffffffff16600360008573ffffffffffffffffffffffffffffffffffffffff1673ffffffffffffffffffffffffffffffffffffffff16815260200190815260200160002060009054906101000a900473ffffffffffffffffffffffffffffffffffffffff1673ffffffffffffffffffffffffffffffffffffffff16036113ea576040517f014f556800000000000000000000000000000000000000000000000000000000815260040160405180910390fd5b600360008473ffffffffffffffffffffffffffffffffffffffff1673ffffffffffffffffffffffffffffffffffffffff16815260200190815260200160002060009054906101000a900473ffffffffffffffffffffffffffffffffffffffff1673ffffffffffffffffffffffffffffffffffffffff163373ffffffffffffffffffffffffffffffffffffffff16141580156114ac57506114aa7f241ecf16d79d0f8dbfb92cbc07fe17840425976cf0667f022fe9877caa831b0833610df3565b155b156114e3576040517f82b4290000000000000000000000000000000000000000000000000000000000815260040160405180910390fd5b8181600460008673ffffffffffffffffffffffffffffffffffffffff1673ffffffffffffffffffffffffffffffffffffffff16815260200190815260200160002060010191826115349291906133c6565b508273ffffffffffffffffffffffffffffffffffffffff167f1b460238cb695fc31c141a22bca8cea3e92a6fa4ded4ccee2a33f9972f2eece0838360405161157d9291906134d2565b60405180910390a2505050565b60007f01ffc9a7000000000000000000000000000000000000000000000000000000007bffffffffffffffffffffffffffffffffffffffffffffffffffffffff1916827bffffffffffffffffffffffffffffffffffffffffffffffffffffffff1916149050919050565b611605816116006116f9565b611e63565b50565b60006116148383610df3565b6116ee57600160008085815260200190815260200160002060000160008473ffffffffffffffffffffffffffffffffffffffff1673ffffffffffffffffffffffffffffffffffffffff16815260200190815260200160002060006101000a81548160ff02191690831515021790555061168b6116f9565b73ffffffffffffffffffffffffffffffffffffffff168273ffffffffffffffffffffffffffffffffffffffff16847f2f8788117e7eff1d82e926ec794901d17c78024a50270940304540a733656f0d60405160405180910390a4600190506116f3565b600090505b92915050565b600033905090565b600061170d8383610df3565b156117e857600080600085815260200190815260200160002060000160008473ffffffffffffffffffffffffffffffffffffffff1673ffffffffffffffffffffffffffffffffffffffff16815260200190815260200160002060006101000a81548160ff0219169083151502179055506117856116f9565b73ffffffffffffffffffffffffffffffffffffffff168273ffffffffffffffffffffffffffffffffffffffff16847ff6391f5c32d9c69d2a47ea670b442974b53935d1edc7fd64eb21e047a839171b60405160405180910390a4600190506117ed565b600090505b92915050565b600073ffffffffffffffffffffffffffffffffffffffff168773ffffffffffffffffffffffffffffffffffffffff1603611859576040517fa7894ec400000000000000000000000000000000000000000000000000000000815260040160405180910390fd5b600073ffffffffffffffffffffffffffffffffffffffff168573ffffffffffffffffffffffffffffffffffffffff16036118bf576040517f6d5769be00000000000000000000000000000000000000000000000000000000815260040160405180910390fd5b600073ffffffffffffffffffffffffffffffffffffffff16600360008973ffffffffffffffffffffffffffffffffffffffff1673ffffffffffffffffffffffffffffffffffffffff16815260200190815260200160002060009054906101000a900473ffffffffffffffffffffffffffffffffffffffff1673ffffffffffffffffffffffffffffffffffffffff1614611984576040517f1d61a62600000000000000000000000000000000000000000000000000000000815260040160405180910390fd5b6000600560008973ffffffffffffffffffffffffffffffffffffffff1673ffffffffffffffffffffffffffffffffffffffff1681526020019081526020016000205490506000611a3a7fc196844ca187813a81c67d4c364e8fbd8074c85045116514a4718cb8eacd3c018a898b8a8a604051611a01929190613526565b604051809103902087604051602001611a1f9695949392919061353f565b60405160208183030381529060405280519060200120611eb4565b90508873ffffffffffffffffffffffffffffffffffffffff16611aa18286868080601f016020809104026020016040519081016040528093929190818152602001838380828437600081840152601f19601f82011690508083019250505050505050611ece565b73ffffffffffffffffffffffffffffffffffffffff1614611aee576040517f8baa579f00000000000000000000000000000000000000000000000000000000815260040160405180910390fd5b60007f000000000000000000000000000000000000000000000000000000000000000073ffffffffffffffffffffffffffffffffffffffff1663fe3595f18a6040518263ffffffff1660e01b8152600401611b4991906135a0565b602060405180830381865afa158015611b66573d6000803e3d6000fd5b505050506040513d601f19601f82011682018060405250810190611b8a91906135d0565b60ff1603611bc4576040517f659ad85100000000000000000000000000000000000000000000000000000000815260040160405180910390fd5b86600360008b73ffffffffffffffffffffffffffffffffffffffff1673ffffffffffffffffffffffffffffffffffffffff16815260200190815260200160002060006101000a81548173ffffffffffffffffffffffffffffffffffffffff021916908373ffffffffffffffffffffffffffffffffffffffff16021790555060405180606001604052808960ff16815260200160011515815260200187878080601f016020809104026020016040519081016040528093929190818152602001838380828437600081840152601f19601f82011690508083019250505050505050815250600460008b73ffffffffffffffffffffffffffffffffffffffff1673ffffffffffffffffffffffffffffffffffffffff16815260200190815260200160002060008201518160000160006101000a81548160ff021916908360ff16021790555060208201518160000160016101000a81548160ff0219169083151502179055506040820151816001019081611d3c91906135fd565b50905050600182611d4d91906136fe565b600560008b73ffffffffffffffffffffffffffffffffffffffff1673ffffffffffffffffffffffffffffffffffffffff168152602001908152602001600020819055508760ff168973ffffffffffffffffffffffffffffffffffffffff167f0486941e06030283fb746deef3c80bebbf6eda9caaf475a594d23f74d6db49fd89604051611dda9190612cee565b60405180910390a3505050505050505050565b6060611e2360017f0000000000000000000000000000000000000000000000000000000000000000611efa90919063ffffffff16565b905090565b6060611e5e60027f0000000000000000000000000000000000000000000000000000000000000000611efa90919063ffffffff16565b905090565b611e6d8282610df3565b611eb05780826040517fe2517d3f000000000000000000000000000000000000000000000000000000008152600401611ea7929190613732565b60405180910390fd5b5050565b6000611ec7611ec1611faa565b83612061565b9050919050565b600080600080611ede86866120a2565b925092509250611eee82826120fe565b82935050505092915050565b606060ff60001b8314611f1757611f1083612262565b9050611fa4565b818054611f2390613088565b80601f0160208091040260200160405190810160405280929190818152602001828054611f4f90613088565b8015611f9c5780601f10611f7157610100808354040283529160200191611f9c565b820191906000526020600020905b815481529060010190602001808311611f7f57829003601f168201915b505050505090505b92915050565b60007f000000000000000000000000000000000000000000000000000000000000000073ffffffffffffffffffffffffffffffffffffffff163073ffffffffffffffffffffffffffffffffffffffff1614801561202657507f000000000000000000000000000000000000000000000000000000000000000046145b15612053577f0000000000000000000000000000000000000000000000000000000000000000905061205e565b61205b6122d6565b90505b90565b60006040517f190100000000000000000000000000000000000000000000000000000000000081528360028201528260228201526042812091505092915050565b600080600060418451036120e75760008060006020870151925060408701519150606087015160001a90506120d98882858561236c565b9550955095505050506120f7565b60006002855160001b9250925092505b9250925092565b600060038111156121125761211161375b565b5b8260038111156121255761212461375b565b5b031561225e576001600381111561213f5761213e61375b565b5b8260038111156121525761215161375b565b5b03612189576040517ff645eedf00000000000000000000000000000000000000000000000000000000815260040160405180910390fd5b6002600381111561219d5761219c61375b565b5b8260038111156121b0576121af61375b565b5b036121f5578060001c6040517ffce698f70000000000000000000000000000000000000000000000000000000081526004016121ec9190612afd565b60405180910390fd5b6003808111156122085761220761375b565b5b82600381111561221b5761221a61375b565b5b0361225d57806040517fd78bce0c000000000000000000000000000000000000000000000000000000008152600401612254919061260d565b60405180910390fd5b5b5050565b6060600061226f83612460565b90506000602067ffffffffffffffff81111561228e5761228d6131ea565b5b6040519080825280601f01601f1916602001820160405280156122c05781602001600182028036833780820191505090505b5090508181528360208201528092505050919050565b60007f8b73c3c69bb8fe3d512ecc4cf759cc79239f7b179b0ffacaa9a75d522b39400f7f00000000000000000000000000000000000000000000000000000000000000007f0000000000000000000000000000000000000000000000000000000000000000463060405160200161235195949392919061378a565b60405160208183030381529060405280519060200120905090565b60008060007f7fffffffffffffffffffffffffffffff5d576e7357a4501ddfe92f46681b20a08460001c11156123ac576000600385925092509250612456565b6000600188888888604051600081526020016040526040516123d194939291906137dd565b6020604051602081039080840390855afa1580156123f3573d6000803e3d6000fd5b505050602060405103519050600073ffffffffffffffffffffffffffffffffffffffff168173ffffffffffffffffffffffffffffffffffffffff160361244757600060016000801b93509350935050612456565b8060008060001b935093509350505b9450945094915050565b60008060ff8360001c169050601f8111156124a7576040517fb3512b0c00000000000000000000000000000000000000000000000000000000815260040160405180910390fd5b80915050919050565b6040518060600160405280600060ff168152602001600015158152602001606081525090565b600080fd5b600080fd5b60007fffffffff0000000000000000000000000000000000000000000000000000000082169050919050565b612515816124e0565b811461252057600080fd5b50565b6000813590506125328161250c565b92915050565b60006020828403121561254e5761254d6124d6565b5b600061255c84828501612523565b91505092915050565b60008115159050919050565b61257a81612565565b82525050565b60006020820190506125956000830184612571565b92915050565b6000819050919050565b6125ae8161259b565b81146125b957600080fd5b50565b6000813590506125cb816125a5565b92915050565b6000602082840312156125e7576125e66124d6565b5b60006125f5848285016125bc565b91505092915050565b6126078161259b565b82525050565b600060208201905061262260008301846125fe565b92915050565b600073ffffffffffffffffffffffffffffffffffffffff82169050919050565b600061265382612628565b9050919050565b61266381612648565b811461266e57600080fd5b50565b6000813590506126808161265a565b92915050565b6000806040838503121561269d5761269c6124d6565b5b60006126ab858286016125bc565b92505060206126bc85828601612671565b9150509250929050565b6000602082840312156126dc576126db6124d6565b5b60006126ea84828501612671565b91505092915050565b600060ff82169050919050565b612709816126f3565b82525050565b61271881612565565b82525050565b600081519050919050565b600082825260208201905092915050565b60005b8381101561275857808201518184015260208101905061273d565b60008484015250505050565b6000601f19601f8301169050919050565b60006127808261271e565b61278a8185612729565b935061279a81856020860161273a565b6127a381612764565b840191505092915050565b60006060830160008301516127c66000860182612700565b5060208301516127d9602086018261270f565b50604083015184820360408601526127f18282612775565b9150508091505092915050565b6000602082019050818103600083015261281881846127ae565b905092915050565b60008060408385031215612837576128366124d6565b5b600061284585828601612671565b925050602061285685828601612671565b9150509250929050565b600080fd5b600080fd5b600080fd5b60008083601f84011261288557612884612860565b5b8235905067ffffffffffffffff8111156128a2576128a1612865565b5b6020830191508360208202830111156128be576128bd61286a565b5b9250929050565b60008083601f8401126128db576128da612860565b5b8235905067ffffffffffffffff8111156128f8576128f7612865565b5b6020830191508360208202830111156129145761291361286a565b5b9250929050565b60008083601f84011261293157612930612860565b5b8235905067ffffffffffffffff81111561294e5761294d612865565b5b60208301915083602082028301111561296a5761296961286a565b5b9250929050565b60008083601f84011261298757612986612860565b5b8235905067ffffffffffffffff8111156129a4576129a3612865565b5b6020830191508360208202830111156129c0576129bf61286a565b5b9250929050565b60008060008060008060008060008060a08b8d0312156129ea576129e96124d6565b5b60008b013567ffffffffffffffff811115612a0857612a076124db565b5b612a148d828e0161286f565b9a509a505060208b013567ffffffffffffffff811115612a3757612a366124db565b5b612a438d828e016128c5565b985098505060408b013567ffffffffffffffff811115612a6657612a656124db565b5b612a728d828e0161286f565b965096505060608b013567ffffffffffffffff811115612a9557612a946124db565b5b612aa18d828e0161291b565b945094505060808b013567ffffffffffffffff811115612ac457612ac36124db565b5b612ad08d828e01612971565b92509250509295989b9194979a5092959850565b6000819050919050565b612af781612ae4565b82525050565b6000602082019050612b126000830184612aee565b92915050565b60007fff0000000000000000000000000000000000000000000000000000000000000082169050919050565b612b4d81612b18565b82525050565b600082825260208201905092915050565b6000612b6f8261271e565b612b798185612b53565b9350612b8981856020860161273a565b612b9281612764565b840191505092915050565b612ba681612648565b82525050565b600081519050919050565b600082825260208201905092915050565b6000819050602082019050919050565b612be181612ae4565b82525050565b6000612bf38383612bd8565b60208301905092915050565b6000602082019050919050565b6000612c1782612bac565b612c218185612bb7565b9350612c2c83612bc8565b8060005b83811015612c5d578151612c448882612be7565b9750612c4f83612bff565b925050600181019050612c30565b5085935050505092915050565b600060e082019050612c7f600083018a612b44565b8181036020830152612c918189612b64565b90508181036040830152612ca58188612b64565b9050612cb46060830187612aee565b612cc16080830186612b9d565b612cce60a08301856125fe565b81810360c0830152612ce08184612c0c565b905098975050505050505050565b6000602082019050612d036000830184612b9d565b92915050565b612d12816126f3565b82525050565b6000606082019050612d2d6000830186612d09565b612d3a6020830185612571565b8181036040830152612d4c8184612b64565b9050949350505050565b612d5f81612565565b8114612d6a57600080fd5b50565b600081359050612d7c81612d56565b92915050565b60008060408385031215612d9957612d986124d6565b5b6000612da785828601612671565b9250506020612db885828601612d6d565b9150509250929050565b6000819050919050565b6000612de7612de2612ddd84612628565b612dc2565b612628565b9050919050565b6000612df982612dcc565b9050919050565b6000612e0b82612dee565b9050919050565b612e1b81612e00565b82525050565b6000602082019050612e366000830184612e12565b92915050565b612e45816126f3565b8114612e5057600080fd5b50565b600081359050612e6281612e3c565b92915050565b60008083601f840112612e7e57612e7d612860565b5b8235905067ffffffffffffffff811115612e9b57612e9a612865565b5b602083019150836001820283011115612eb757612eb661286a565b5b9250929050565b60008083601f840112612ed457612ed3612860565b5b8235905067ffffffffffffffff811115612ef157612ef0612865565b5b602083019150836001820283011115612f0d57612f0c61286a565b5b9250929050565b600080600080600080600060a0888a031215612f3357612f326124d6565b5b6000612f418a828b01612671565b9750506020612f528a828b01612e53565b9650506040612f638a828b01612671565b955050606088013567ffffffffffffffff811115612f8457612f836124db565b5b612f908a828b01612e68565b9450945050608088013567ffffffffffffffff811115612fb357612fb26124db565b5b612fbf8a828b01612ebe565b925092505092959891949750929550565b6000604082019050612fe56000830185612b9d565b612ff26020830184612571565b9392505050565b600080600060408486031215613012576130116124d6565b5b600061302086828701612671565b935050602084013567ffffffffffffffff811115613041576130406124db565b5b61304d86828701612e68565b92509250509250925092565b7f4e487b7100000000000000000000000000000000000000000000000000000000600052602260045260246000fd5b600060028204905060018216806130a057607f821691505b6020821081036130b3576130b2613059565b5b50919050565b7f4e487b7100000000000000000000000000000000000000000000000000000000600052603260045260246000fd5b6000602082840312156130fe576130fd6124d6565b5b600061310c84828501612e53565b91505092915050565b600080fd5b600080fd5b600080fd5b6000808335600160200384360303811261314157613140613115565b5b80840192508235915067ffffffffffffffff8211156131635761316261311a565b5b60208301925060018202360383131561317f5761317e61311f565b5b509250929050565b600080833560016020038436030381126131a4576131a3613115565b5b80840192508235915067ffffffffffffffff8211156131c6576131c561311a565b5b6020830192506001820236038313156131e2576131e161311f565b5b509250929050565b7f4e487b7100000000000000000000000000000000000000000000000000000000600052604160045260246000fd5b600082905092915050565b60008190508160005260206000209050919050565b60006020601f8301049050919050565b600082821b905092915050565b6000600883026132867fffffffffffffffffffffffffffffffffffffffffffffffffffffffffffffffff82613249565b6132908683613249565b95508019841693508086168417925050509392505050565b60006132c36132be6132b984612ae4565b612dc2565b612ae4565b9050919050565b6000819050919050565b6132dd836132a8565b6132f16132e9826132ca565b848454613256565b825550505050565b600090565b6133066132f9565b6133118184846132d4565b505050565b5b818110156133355761332a6000826132fe565b600181019050613317565b5050565b601f82111561337a5761334b81613224565b61335484613239565b81016020851015613363578190505b61337761336f85613239565b830182613316565b50505b505050565b600082821c905092915050565b600061339d6000198460080261337f565b1980831691505092915050565b60006133b6838361338c565b9150826002028217905092915050565b6133d08383613219565b67ffffffffffffffff8111156133e9576133e86131ea565b5b6133f38254613088565b6133fe828285613339565b6000601f83116001811461342d576000841561341b578287013590505b61342585826133aa565b86555061348d565b601f19841661343b86613224565b60005b828110156134635784890135825560018201915060208501945060208101905061343e565b86831015613480578489013561347c601f89168261338c565b8355505b6001600288020188555050505b50505050505050565b82818337600083830152505050565b60006134b18385612b53565b93506134be838584613496565b6134c783612764565b840190509392505050565b600060208201905081810360008301526134ed8184866134a5565b90509392505050565b600081905092915050565b600061350d83856134f6565b935061351a838584613496565b82840190509392505050565b6000613533828486613501565b91508190509392505050565b600060c08201905061355460008301896125fe565b6135616020830188612b9d565b61356e6040830187612b9d565b61357b6060830186612d09565b61358860808301856125fe565b61359560a0830184612aee565b979650505050505050565b60006020820190506135b56000830184612d09565b92915050565b6000815190506135ca81612e3c565b92915050565b6000602082840312156135e6576135e56124d6565b5b60006135f4848285016135bb565b91505092915050565b6136068261271e565b67ffffffffffffffff81111561361f5761361e6131ea565b5b6136298254613088565b613634828285613339565b600060209050601f8311600181146136675760008415613655578287015190505b61365f85826133aa565b8655506136c7565b601f19841661367586613224565b60005b8281101561369d57848901518255600182019150602085019450602081019050613678565b868310156136ba57848901516136b6601f89168261338c565b8355505b6001600288020188555050505b505050505050565b7f4e487b7100000000000000000000000000000000000000000000000000000000600052601160045260246000fd5b600061370982612ae4565b915061371483612ae4565b925082820190508082111561372c5761372b6136cf565b5b92915050565b60006040820190506137476000830185612b9d565b61375460208301846125fe565b9392505050565b7f4e487b7100000000000000000000000000000000000000000000000000000000600052602160045260246000fd5b600060a08201905061379f60008301886125fe565b6137ac60208301876125fe565b6137b960408301866125fe565b6137c66060830185612aee565b6137d36080830184612b9d565b9695505050505050565b60006080820190506137f260008301876125fe565b6137ff6020830186612d09565b61380c60408301856125fe565b61381960608301846125fe565b9594505050505056fea2646970667358221220866a83576baefe1d354963f7757de922aef1b155e3cfd426537d1cef3fba4b7864736f6c63430008180033",
  "linkReferences": {},
  "deployedLinkReferences": {}
}