{
  "_format": "hh-sol-artifact-1",
  "contractName": "NodeDIDRegistry",
  "sourceName": "contracts/NodeDIDRegistry.sol",
  "abi": [
    {
      "inputs": [
        {
          "internalType": "address",
          "name": "admin",
          "type": "address"
        },
        {
          "internalType": "address",
          "name": "_sensorResolver",
          "type": "address"
        }
      ],
      "stateMutability": "nonpayable",
      "type": "constructor"
    },
    {
      "inputs": [],
      "name": "AccessControlBadConfirmation",
      "type": "error"
    },
    {
      "inputs": [
        {
          "internalType": "address",
          "name": "account",
          "type": "address"
        },
        {
          "internalType": "bytes32",
          "name": "neededRole",
          "type": "bytes32"
        }
      ],
      "name": "AccessControlUnauthorizedAccount",
      "type": "error"
    },
    {
      "inputs": [],
      "name": "InvalidController",
      "type": "error"
    },
    {
      "inputs": [],
      "name": "InvalidNodeAddress",
      "type": "error"
    },
    {
      "inputs": [],
      "name": "NodeAlreadyRegistered",
      "type": "error"
    },
    {
      "inputs": [],
      "name": "NodeTypeNotAllowed",
      "type": "error"
    },
    {
      "inputs": [],
      "name": "Unauthorized",
      "type": "error"
    },
    {
      "anonymous": false,
      "inputs": [
        {
          "indexed": true,
          "internalType": "address",
          "name": "node",
          "type": "address"
        },
        {
          "indexed": false,
          "internalType": "address",
          "name": "newController",
          "type": "address"
        }
      ],
      "name": "ControllerChanged",
      "type": "event"
    },
    {
      "anonymous": false,
      "inputs": [
        {
          "indexed": true,
          "internalType": "address",
          "name": "node",
          "type": "address"
        },
        {
          "indexed": false,
          "internalType": "string",
          "name": "newURI",
          "type": "string"
        }
      ],
      "name": "MetadataURIUpdated",
      "type": "event"
    },
    {
      "anonymous": false,
      "inputs": [
        {
          "indexed": true,
          "internalType": "address",
          "name": "node",
          "type": "address"
        },
        {
          "indexed": true,
          "internalType": "uint8",
          "name": "nodeType",
          "type": "uint8"
        },
        {
          "indexed": false,
          "internalType": "address",
          "name": "controller",
          "type": "address"
        }
      ],
      "name": "NodeRegistered",
      "type": "event"
    },
    {
      "anonymous": false,
      "inputs": [
        {
          "indexed": true,
          "internalType": "address",
          "name": "node",
          "type": "address"
        },
        {
          "indexed": false,
          "internalType": "bool",
          "name": "active",
          "type": "bool"
        }
      ],
      "name": "NodeStatusChanged",
      "type": "event"
    },
    {
      "anonymous": false,
      "inputs": [
        {
          "indexed": true,
          "internalType": "bytes32",
          "name": "role",
          "type": "bytes32"
        },
        {
          "indexed": true,
          "internalType": "bytes32",
          "name": "previousAdminRole",
          "type": "bytes32"
        },
        {
          "indexed": true,
          "internalType": "bytes32",
          "name": "newAdminRole",
          "type": "bytes32"
        }
      ],
      "name": "RoleAdminChanged",
      "type": "event"
    },
    {
      "anonymous": false,
      "inputs": [
        {
          "indexed": true,
          "internalType": "bytes32",
          "name": "role",
          "type": "bytes32"
        },
        {
          "indexed": true,
          "internalType": "address",
          "name": "account",
          "type": "address"
        },
        {
          "indexed": true,
          "internalType": "address",
          "name": "sender",
          "type": "address"
        }
      ],
      "name": "RoleGranted",
      "type": "event"
    },
    {
      "anonymous": false,
      "inputs": [
        {
          "indexed": true,
          "internalType": "bytes32",
          "name": "role",
          "type": "bytes32"
        },
        {
          "indexed": true,
          "internalType": "address",
          "name": "account",
          "type": "address"
        },
        {
          "indexed": true,
          "internalType": "address",
          "name": "sender",
          "type": "address"
        }
      ],
      "name": "RoleRevoked",
      "type": "event"
    },
    {
      "inputs": [],
      "name": "DEFAULT_ADMIN_ROLE",
      "outputs": [
        {
          "internalType": "bytes32",
          "name": "",
          "type": "bytes32"
        }
      ],
      "stateMutability": "view",
      "type": "function"
    },
    {
      "inputs": [],
      "name": "MANAGER_ROLE",
      "outputs": [
        {
          "internalType": "bytes32",
          "name": "",
          "type": "bytes32"
        }
      ],
      "stateMutability": "view",
      "type": "function"
    },
    {
      "inputs": [
        {
          "internalType": "address",
          "name": "node",
          "type": "address"
        },
        {
          "internalType": "address",
          "name": "newController",
          "type": "address"
        }
      ],
      "name": "changeController",
      "outputs": [],
      "stateMutability": "nonpayable",
      "type": "function"
    },
    {
      "inputs": [
        {
          "internalType": "address",
          "name": "",
          "type": "address"
        }
      ],
      "name": "controllerOf",
      "outputs": [
        {
          "internalType": "address",
          "name": "",
          "type": "address"
        }
      ],
      "stateMutability": "view",
      "type": "function"
    },
    {
      "inputs": [
        {
          "internalType": "address",
          "name": "node",
          "type": "address"
        }
      ],
      "name": "getController",
      "outputs": [
        {
          "internalType": "address",
          "name": "controller",
          "type": "address"
        }
      ],
      "stateMutability": "view",
      "type": "function"
    },
    {
      "inputs": [
        {
          "internalType": "address",
          "name": "node",
          "type": "address"
        }
      ],
      "name": "getNodeData",
      "outputs": [
        {
          "components": [
            {
              "internalType": "uint8",
              "name": "nodeType",
              "type": "uint8"
            },
            {
              "internalType": "string",
              "name": "metadataURI",
              "type": "string"
            },
            {
              "internalType": "bool",
              "name": "active",
              "type": "bool"
            }
          ],
          "internalType": "struct NodeDIDRegistry.NodeData",
          "name": "data",
          "type": "tuple"
        }
      ],
      "stateMutability": "view",
      "type": "function"
    },
    {
      "inputs": [
        {
          "internalType": "bytes32",
          "name": "role",
          "type": "bytes32"
        }
      ],
      "name": "getRoleAdmin",
      "outputs": [
        {
          "internalType": "bytes32",
          "name": "",
          "type": "bytes32"
        }
      ],
      "stateMutability": "view",
      "type": "function"
    },
    {
      "inputs": [
        {
          "internalType": "bytes32",
          "name": "role",
          "type": "bytes32"
        },
        {
          "internalType": "address",
          "name": "account",
          "type": "address"
        }
      ],
      "name": "grantRole",
      "outputs": [],
      "stateMutability": "nonpayable",
      "type": "function"
    },
    {
      "inputs": [
        {
          "internalType": "bytes32",
          "name": "role",
          "type": "bytes32"
        },
        {
          "internalType": "address",
          "name": "account",
          "type": "address"
        }
      ],
      "name": "hasRole",
      "outputs": [
        {
          "internalType": "bool",
          "name": "",
          "type": "bool"
        }
      ],
      "stateMutability": "view",
      "type": "function"
    },
    {
      "inputs": [
        {
          "internalType": "address",
          "name": "node",
          "type": "address"
        }
      ],
      "name": "isActive",
      "outputs": [
        {
          "internalType": "bool",
          "name": "",
          "type": "bool"
        }
      ],
      "stateMutability": "view",
      "type": "function"
    },
    {
      "inputs": [
        {
          "internalType": "address",
          "name": "node",
          "type": "address"
        },
        {
          "internalType": "address",
          "name": "user",
          "type": "address"
        }
      ],
      "name": "isController",
      "outputs": [
        {
          "internalType": "bool",
          "name": "",
          "type": "bool"
        }
      ],
      "stateMutability": "view",
      "type": "function"
    },
    {
      "inputs": [
        {
          "internalType": "address",
          "name": "",
          "type": "address"
        }
      ],
      "name": "nodeData",
      "outputs": [
        {
          "internalType": "uint8",
          "name": "nodeType",
          "type": "uint8"
        },
        {
          "internalType": "string",
          "name": "metadataURI",
          "type": "string"
        },
        {
          "internalType": "bool",
          "name": "active",
          "type": "bool"
        }
      ],
      "stateMutability": "view",
      "type": "function"
    },
    {
      "inputs": [
        {
          "internalType": "address",
          "name": "node",
          "type": "address"
        },
        {
          "internalType": "uint8",
          "name": "nodeType",
          "type": "uint8"
        },
        {
          "internalType": "address",
          "name": "controller",
          "type": "address"
        },
        {
          "internalType": "string",
          "name": "metadataURI",
          "type": "string"
        }
      ],
      "name": "registerNode",
      "outputs": [],
      "stateMutability": "nonpayable",
      "type": "function"
    },
    {
      "inputs": [
        {
          "internalType": "bytes32",
          "name": "role",
          "type": "bytes32"
        },
        {
          "internalType": "address",
          "name": "callerConfirmation",
          "type": "address"
        }
      ],
      "name": "renounceRole",
      "outputs": [],
      "stateMutability": "nonpayable",
      "type": "function"
    },
    {
      "inputs": [
        {
          "internalType": "bytes32",
          "name": "role",
          "type": "bytes32"
        },
        {
          "internalType": "address",
          "name": "account",
          "type": "address"
        }
      ],
      "name": "revokeRole",
      "outputs": [],
      "stateMutability": "nonpayable",
      "type": "function"
    },
    {
      "inputs": [],
      "name": "sensorResolver",
      "outputs": [
        {
          "internalType": "contract ISensorResolver",
          "name": "",
          "type": "address"
        }
      ],
      "stateMutability": "view",
      "type": "function"
    },
    {
      "inputs": [
        {
          "internalType": "address",
          "name": "node",
          "type": "address"
        },
        {
          "internalType": "bool",
          "name": "active",
          "type": "bool"
        }
      ],
      "name": "setNodeActive",
      "outputs": [],
      "stateMutability": "nonpayable",
      "type": "function"
    },
    {
      "inputs": [
        {
          "internalType": "bytes4",
          "name": "interfaceId",
          "type": "bytes4"
        }
      ],
      "name": "supportsInterface",
      "outputs": [
        {
          "internalType": "bool",
          "name": "",
          "type": "bool"
        }
      ],
      "stateMutability": "view",
      "type": "function"
    },
    {
      "inputs": [
        {
          "internalType": "address",
          "name": "node",
          "type": "address"
        },
        {
          "internalType": "string",
          "name": "newURI",
          "type": "string"
        }
      ],
      "name": "updateMetadataURI",
      "outputs": [],
      "stateMutability": "nonpayable",
      "type": "function"
    }
  ],
  "bytecode": "0x60a060405234801561001057600080fd5b5060405161240438038061240483398181016040528101906100329190610284565b6100456000801b836100b260201b60201c565b506100767f241ecf16d79d0f8dbfb92cbc07fe17840425976cf0667f022fe9877caa831b08836100b260201b60201c565b508073ffffffffffffffffffffffffffffffffffffffff1660808173ffffffffffffffffffffffffffffffffffffffff168152505050506102c4565b60006100c483836101af60201b60201c565b6101a457600160008085815260200190815260200160002060000160008473ffffffffffffffffffffffffffffffffffffffff1673ffffffffffffffffffffffffffffffffffffffff16815260200190815260200160002060006101000a81548160ff02191690831515021790555061014161021960201b60201c565b73ffffffffffffffffffffffffffffffffffffffff168273ffffffffffffffffffffffffffffffffffffffff16847f2f8788117e7eff1d82e926ec794901d17c78024a50270940304540a733656f0d60405160405180910390a4600190506101a9565b600090505b92915050565b600080600084815260200190815260200160002060000160008373ffffffffffffffffffffffffffffffffffffffff1673ffffffffffffffffffffffffffffffffffffffff16815260200190815260200160002060009054906101000a900460ff16905092915050565b600033905090565b600080fd5b600073ffffffffffffffffffffffffffffffffffffffff82169050919050565b600061025182610226565b9050919050565b61026181610246565b811461026c57600080fd5b50565b60008151905061027e81610258565b92915050565b6000806040838503121561029b5761029a610221565b5b60006102a98582860161026f565b92505060206102ba8582860161026f565b9150509250929050565b60805161211e6102e660003960008181610a3d0152611055015261211e6000f3fe608060405234801561001057600080fd5b50600436106101215760003560e01c806391d14854116100ad578063d1ffcb4911610071578063d1ffcb4914610352578063d3a2b21014610370578063d547741f146103a0578063ec87621c146103bc578063fabb2c17146103da57610121565b806391d14854146102885780639f8a13d7146102b8578063a217fddf146102e8578063a2a55da814610306578063c911b56e1461032257610121565b806338fc1090116100f457806338fc1090146101be5780633e11e378146101ee5780635b0570b11461020a57806388c662aa1461022657806388fc9bb71461025657610121565b806301ffc9a714610126578063248a9ca3146101565780632f2ff15d1461018657806336568abe146101a2575b600080fd5b610140600480360381019061013b91906115d2565b6103f6565b60405161014d919061161a565b60405180910390f35b610170600480360381019061016b919061166b565b610470565b60405161017d91906116a7565b60405180910390f35b6101a0600480360381019061019b9190611720565b61048f565b005b6101bc60048036038101906101b79190611720565b6104b1565b005b6101d860048036038101906101d39190611760565b61052c565b6040516101e59190611898565b60405180910390f35b610208600480360381019061020391906118ba565b61064f565b005b610224600480360381019061021f919061198b565b61087e565b005b610240600480360381019061023b9190611760565b610ce5565b60405161024d9190611a22565b60405180910390f35b610270600480360381019061026b9190611760565b610d4e565b60405161027f93929190611a96565b60405180910390f35b6102a2600480360381019061029d9190611720565b610e1a565b6040516102af919061161a565b60405180910390f35b6102d260048036038101906102cd9190611760565b610e84565b6040516102df919061161a565b60405180910390f35b6102f0610edd565b6040516102fd91906116a7565b60405180910390f35b610320600480360381019061031b9190611b00565b610ee4565b005b61033c600480360381019061033791906118ba565b610fbb565b604051610349919061161a565b60405180910390f35b61035a611053565b6040516103679190611b9f565b60405180910390f35b61038a60048036038101906103859190611760565b611077565b6040516103979190611a22565b60405180910390f35b6103ba60048036038101906103b59190611720565b6110aa565b005b6103c46110cc565b6040516103d191906116a7565b60405180910390f35b6103f460048036038101906103ef9190611bba565b6110f0565b005b60007f7965db0b000000000000000000000000000000000000000000000000000000007bffffffffffffffffffffffffffffffffffffffffffffffffffffffff1916827bffffffffffffffffffffffffffffffffffffffffffffffffffffffff19161480610469575061046882611290565b5b9050919050565b6000806000838152602001908152602001600020600101549050919050565b61049882610470565b6104a1816112fa565b6104ab838361130e565b50505050565b6104b96113ff565b73ffffffffffffffffffffffffffffffffffffffff168173ffffffffffffffffffffffffffffffffffffffff161461051d576040517f6697b23200000000000000000000000000000000000000000000000000000000815260040160405180910390fd5b6105278282611407565b505050565b61053461154a565b600260008373ffffffffffffffffffffffffffffffffffffffff1673ffffffffffffffffffffffffffffffffffffffff1681526020019081526020016000206040518060600160405290816000820160009054906101000a900460ff1660ff1660ff1681526020016001820180546105ab90611c49565b80601f01602080910402602001604051908101604052809291908181526020018280546105d790611c49565b80156106245780601f106105f957610100808354040283529160200191610624565b820191906000526020600020905b81548152906001019060200180831161060757829003601f168201915b505050505081526020016002820160009054906101000a900460ff1615151515815250509050919050565b600160008373ffffffffffffffffffffffffffffffffffffffff1673ffffffffffffffffffffffffffffffffffffffff16815260200190815260200160002060009054906101000a900473ffffffffffffffffffffffffffffffffffffffff1673ffffffffffffffffffffffffffffffffffffffff163373ffffffffffffffffffffffffffffffffffffffff1614158015610711575061070f7f241ecf16d79d0f8dbfb92cbc07fe17840425976cf0667f022fe9877caa831b0833610e1a565b155b15610748576040517f82b4290000000000000000000000000000000000000000000000000000000000815260040160405180910390fd5b600073ffffffffffffffffffffffffffffffffffffffff168173ffffffffffffffffffffffffffffffffffffffff16036107ae576040517f6d5769be00000000000000000000000000000000000000000000000000000000815260040160405180910390fd5b80600160008473ffffffffffffffffffffffffffffffffffffffff1673ffffffffffffffffffffffffffffffffffffffff16815260200190815260200160002060006101000a81548173ffffffffffffffffffffffffffffffffffffffff021916908373ffffffffffffffffffffffffffffffffffffffff1602179055508173ffffffffffffffffffffffffffffffffffffffff167f6aef1fb5b23d0e109fc7f2b0601019e1edbacd177e31a441ec8548e8dd14f0f7826040516108729190611a22565b60405180910390a25050565b7f241ecf16d79d0f8dbfb92cbc07fe17840425976cf0667f022fe9877caa831b086108a8816112fa565b600073ffffffffffffffffffffffffffffffffffffffff168673ffffffffffffffffffffffffffffffffffffffff160361090e576040517fa7894ec400000000000000000000000000000000000000000000000000000000815260040160405180910390fd5b600073ffffffffffffffffffffffffffffffffffffffff168473ffffffffffffffffffffffffffffffffffffffff1603610974576040517f6d5769be00000000000000000000000000000000000000000000000000000000815260040160405180910390fd5b600073ffffffffffffffffffffffffffffffffffffffff16600160008873ffffffffffffffffffffffffffffffffffffffff1673ffffffffffffffffffffffffffffffffffffffff16815260200190815260200160002060009054906101000a900473ffffffffffffffffffffffffffffffffffffffff1673ffffffffffffffffffffffffffffffffffffffff1614610a39576040517f1d61a62600000000000000000000000000000000000000000000000000000000815260040160405180910390fd5b60007f000000000000000000000000000000000000000000000000000000000000000073ffffffffffffffffffffffffffffffffffffffff1663fe3595f1876040518263ffffffff1660e01b8152600401610a949190611c7a565b602060405180830381865afa158015610ab1573d6000803e3d6000fd5b505050506040513d601f19601f82011682018060405250810190610ad59190611caa565b60ff1603610b0f576040517f659ad85100000000000000000000000000000000000000000000000000000000815260040160405180910390fd5b83600160008873ffffffffffffffffffffffffffffffffffffffff1673ffffffffffffffffffffffffffffffffffffffff16815260200190815260200160002060006101000a81548173ffffffffffffffffffffffffffffffffffffffff021916908373ffffffffffffffffffffffffffffffffffffffff16021790555060405180606001604052808660ff16815260200184848080601f016020809104026020016040519081016040528093929190818152602001838380828437600081840152601f19601f82011690508083019250505050505050815260200160011515815250600260008873ffffffffffffffffffffffffffffffffffffffff1673ffffffffffffffffffffffffffffffffffffffff16815260200190815260200160002060008201518160000160006101000a81548160ff021916908360ff1602179055506020820151816001019081610c679190611eb2565b5060408201518160020160006101000a81548160ff0219169083151502179055509050508460ff168673ffffffffffffffffffffffffffffffffffffffff167f0486941e06030283fb746deef3c80bebbf6eda9caaf475a594d23f74d6db49fd86604051610cd59190611a22565b60405180910390a3505050505050565b6000600160008373ffffffffffffffffffffffffffffffffffffffff1673ffffffffffffffffffffffffffffffffffffffff16815260200190815260200160002060009054906101000a900473ffffffffffffffffffffffffffffffffffffffff169050919050565b60026020528060005260406000206000915090508060000160009054906101000a900460ff1690806001018054610d8490611c49565b80601f0160208091040260200160405190810160405280929190818152602001828054610db090611c49565b8015610dfd5780601f10610dd257610100808354040283529160200191610dfd565b820191906000526020600020905b815481529060010190602001808311610de057829003601f168201915b5050505050908060020160009054906101000a900460ff16905083565b600080600084815260200190815260200160002060000160008373ffffffffffffffffffffffffffffffffffffffff1673ffffffffffffffffffffffffffffffffffffffff16815260200190815260200160002060009054906101000a900460ff16905092915050565b6000600260008373ffffffffffffffffffffffffffffffffffffffff1673ffffffffffffffffffffffffffffffffffffffff16815260200190815260200160002060020160009054906101000a900460ff169050919050565b6000801b81565b7f241ecf16d79d0f8dbfb92cbc07fe17840425976cf0667f022fe9877caa831b08610f0e816112fa565b81600260008573ffffffffffffffffffffffffffffffffffffffff1673ffffffffffffffffffffffffffffffffffffffff16815260200190815260200160002060020160006101000a81548160ff0219169083151502179055508273ffffffffffffffffffffffffffffffffffffffff167f215763b2b1bc936f6893f55521c7b2150de788f51fc12fc3483d5a871bbceb0683604051610fae919061161a565b60405180910390a2505050565b60008173ffffffffffffffffffffffffffffffffffffffff16600160008573ffffffffffffffffffffffffffffffffffffffff1673ffffffffffffffffffffffffffffffffffffffff16815260200190815260200160002060009054906101000a900473ffffffffffffffffffffffffffffffffffffffff1673ffffffffffffffffffffffffffffffffffffffff1614905092915050565b7f000000000000000000000000000000000000000000000000000000000000000081565b60016020528060005260406000206000915054906101000a900473ffffffffffffffffffffffffffffffffffffffff1681565b6110b382610470565b6110bc816112fa565b6110c68383611407565b50505050565b7f241ecf16d79d0f8dbfb92cbc07fe17840425976cf0667f022fe9877caa831b0881565b600160008473ffffffffffffffffffffffffffffffffffffffff1673ffffffffffffffffffffffffffffffffffffffff16815260200190815260200160002060009054906101000a900473ffffffffffffffffffffffffffffffffffffffff1673ffffffffffffffffffffffffffffffffffffffff163373ffffffffffffffffffffffffffffffffffffffff16141580156111b257506111b07f241ecf16d79d0f8dbfb92cbc07fe17840425976cf0667f022fe9877caa831b0833610e1a565b155b156111e9576040517f82b4290000000000000000000000000000000000000000000000000000000000815260040160405180910390fd5b8181600260008673ffffffffffffffffffffffffffffffffffffffff1673ffffffffffffffffffffffffffffffffffffffff168152602001908152602001600020600101918261123a929190611f8f565b508273ffffffffffffffffffffffffffffffffffffffff167f1b460238cb695fc31c141a22bca8cea3e92a6fa4ded4ccee2a33f9972f2eece0838360405161128392919061209b565b60405180910390a2505050565b60007f01ffc9a7000000000000000000000000000000000000000000000000000000007bffffffffffffffffffffffffffffffffffffffffffffffffffffffff1916827bffffffffffffffffffffffffffffffffffffffffffffffffffffffff1916149050919050565b61130b816113066113ff565b6114f9565b50565b600061131a8383610e1a565b6113f457600160008085815260200190815260200160002060000160008473ffffffffffffffffffffffffffffffffffffffff1673ffffffffffffffffffffffffffffffffffffffff16815260200190815260200160002060006101000a81548160ff0219169083151502179055506113916113ff565b73ffffffffffffffffffffffffffffffffffffffff168273ffffffffffffffffffffffffffffffffffffffff16847f2f8788117e7eff1d82e926ec794901d17c78024a50270940304540a733656f0d60405160405180910390a4600190506113f9565b600090505b92915050565b600033905090565b60006114138383610e1a565b156114ee57600080600085815260200190815260200160002060000160008473ffffffffffffffffffffffffffffffffffffffff1673ffffffffffffffffffffffffffffffffffffffff16815260200190815260200160002060006101000a81548160ff02191690831515021790555061148b6113ff565b73ffffffffffffffffffffffffffffffffffffffff168273ffffffffffffffffffffffffffffffffffffffff16847ff6391f5c32d9c69d2a47ea670b442974b53935d1edc7fd64eb21e047a839171b60405160405180910390a4600190506114f3565b600090505b92915050565b6115038282610e1a565b6115465780826040517fe2517d3f00000000000000000000000000000000000000000000000000000000815260040161153d9291906120bf565b60405180910390fd5b5050565b6040518060600160405280600060ff168152602001606081526020016000151581525090565b600080fd5b600080fd5b60007fffffffff0000000000000000000000000000000000000000000000000000000082169050919050565b6115af8161157a565b81146115ba57600080fd5b50565b6000813590506115cc816115a6565b92915050565b6000602082840312156115e8576115e7611570565b5b60006115f6848285016115bd565b91505092915050565b60008115159050919050565b611614816115ff565b82525050565b600060208201905061162f600083018461160b565b92915050565b6000819050919050565b61164881611635565b811461165357600080fd5b50565b6000813590506116658161163f565b92915050565b60006020828403121561168157611680611570565b5b600061168f84828501611656565b91505092915050565b6116a181611635565b82525050565b60006020820190506116bc6000830184611698565b92915050565b600073ffffffffffffffffffffffffffffffffffffffff82169050919050565b60006116ed826116c2565b9050919050565b6116fd816116e2565b811461170857600080fd5b50565b60008135905061171a816116f4565b92915050565b6000806040838503121561173757611736611570565b5b600061174585828601611656565b92505060206117568582860161170b565b9150509250929050565b60006020828403121561177657611775611570565b5b60006117848482850161170b565b91505092915050565b600060ff82169050919050565b6117a38161178d565b82525050565b600081519050919050565b600082825260208201905092915050565b60005b838110156117e35780820151818401526020810190506117c8565b60008484015250505050565b6000601f19601f8301169050919050565b600061180b826117a9565b61181581856117b4565b93506118258185602086016117c5565b61182e816117ef565b840191505092915050565b611842816115ff565b82525050565b6000606083016000830151611860600086018261179a565b50602083015184820360208601526118788282611800565b915050604083015161188d6040860182611839565b508091505092915050565b600060208201905081810360008301526118b28184611848565b905092915050565b600080604083850312156118d1576118d0611570565b5b60006118df8582860161170b565b92505060206118f08582860161170b565b9150509250929050565b6119038161178d565b811461190e57600080fd5b50565b600081359050611920816118fa565b92915050565b600080fd5b600080fd5b600080fd5b60008083601f84011261194b5761194a611926565b5b8235905067ffffffffffffffff8111156119685761196761192b565b5b60208301915083600182028301111561198457611983611930565b5b9250929050565b6000806000806000608086880312156119a7576119a6611570565b5b60006119b58882890161170b565b95505060206119c688828901611911565b94505060406119d78882890161170b565b935050606086013567ffffffffffffffff8111156119f8576119f7611575565b5b611a0488828901611935565b92509250509295509295909350565b611a1c816116e2565b82525050565b6000602082019050611a376000830184611a13565b92915050565b611a468161178d565b82525050565b600082825260208201905092915050565b6000611a68826117a9565b611a728185611a4c565b9350611a828185602086016117c5565b611a8b816117ef565b840191505092915050565b6000606082019050611aab6000830186611a3d565b8181036020830152611abd8185611a5d565b9050611acc604083018461160b565b949350505050565b611add816115ff565b8114611ae857600080fd5b50565b600081359050611afa81611ad4565b92915050565b60008060408385031215611b1757611b16611570565b5b6000611b258582860161170b565b9250506020611b3685828601611aeb565b9150509250929050565b6000819050919050565b6000611b65611b60611b5b846116c2565b611b40565b6116c2565b9050919050565b6000611b7782611b4a565b9050919050565b6000611b8982611b6c565b9050919050565b611b9981611b7e565b82525050565b6000602082019050611bb46000830184611b90565b92915050565b600080600060408486031215611bd357611bd2611570565b5b6000611be18682870161170b565b935050602084013567ffffffffffffffff811115611c0257611c01611575565b5b611c0e86828701611935565b92509250509250925092565b7f4e487b7100000000000000000000000000000000000000000000000000000000600052602260045260246000fd5b60006002820490506001821680611c6157607f821691505b602082108103611c7457611c73611c1a565b5b50919050565b6000602082019050611c8f6000830184611a3d565b92915050565b600081519050611ca4816118fa565b92915050565b600060208284031215611cc057611cbf611570565b5b6000611cce84828501611c95565b91505092915050565b7f4e487b7100000000000000000000000000000000000000000000000000000000600052604160045260246000fd5b60008190508160005260206000209050919050565b60006020601f8301049050919050565b600082821b905092915050565b600060088302611d687fffffffffffffffffffffffffffffffffffffffffffffffffffffffffffffffff82611d2b565b611d728683611d2b565b95508019841693508086168417925050509392505050565b6000819050919050565b6000611daf611daa611da584611d8a565b611b40565b611d8a565b9050919050565b6000819050919050565b611dc983611d94565b611ddd611dd582611db6565b848454611d38565b825550505050565b600090565b611df2611de5565b611dfd818484611dc0565b505050565b5b81811015611e2157611e16600082611dea565b600181019050611e03565b5050565b601f821115611e6657611e3781611d06565b611e4084611d1b565b81016020851015611e4f578190505b611e63611e5b85611d1b565b830182611e02565b50505b505050565b600082821c905092915050565b6000611e8960001984600802611e6b565b1980831691505092915050565b6000611ea28383611e78565b9150826002028217905092915050565b611ebb826117a9565b67ffffffffffffffff811115611ed457611ed3611cd7565b5b611ede8254611c49565b611ee9828285611e25565b600060209050601f831160018114611f1c5760008415611f0a578287015190505b611f148582611e96565b865550611f7c565b601f198416611f2a86611d06565b60005b82811015611f5257848901518255600182019150602085019450602081019050611f2d565b86831015611f6f5784890151611f6b601f891682611e78565b8355505b6001600288020188555050505b505050505050565b600082905092915050565b611f998383611f84565b67ffffffffffffffff811115611fb257611fb1611cd7565b5b611fbc8254611c49565b611fc7828285611e25565b6000601f831160018114611ff65760008415611fe4578287013590505b611fee8582611e96565b865550612056565b601f19841661200486611d06565b60005b8281101561202c57848901358255600182019150602085019450602081019050612007565b868310156120495784890135612045601f891682611e78565b8355505b6001600288020188555050505b50505050505050565b82818337600083830152505050565b600061207a8385611a4c565b935061208783858461205f565b612090836117ef565b840190509392505050565b600060208201905081810360008301526120b681848661206e565b90509392505050565b60006040820190506120d46000830185611a13565b6120e16020830184611698565b939250505056fea26469706673582212203825c05ce06d982431374eb7beb9c9fef789ea7424899a88cdafb1d39a62d9de64736f6c634300081c0033",
  "linkReferences": {},
  "deployedLinkReferences": {}
}