{
  "_format": "hh-sol-artifact-1",
  "contractName": "GeoRewardManager",
  "sourceName": "contracts/GeoRewardManager.sol",
  "abi": [
    {
      "inputs": [
        {
          "internalType": "address",
          "name": "admin",
          "type": "address"
        },
        {
          "internalType": "address",
          "name": "oracle",
          "type": "address"
        },
        {
          "internalType": "contract IGeoToken",
          "name": "_cgt",
          "type": "address"
        },
        {
          "internalType": "contract INodeDIDRegistry",
          "name": "_did",
          "type": "address"
        },
        {
          "internalType": "uint64",
          "name": "_epochWindow",
          "type": "uint64"
        }
      ],
      "stateMutability": "nonpayable",
      "type": "constructor"
    },
    {
      "inputs": [],
      "name": "AccessControlBadConfirmation",
      "type": "error"
    },
    {
      "inputs": [
        {
          "internalType": "address",
          "name": "account",
          "type": "address"
        },
        {
          "internalType": "bytes32",
          "name": "neededRole",
          "type": "bytes32"
        }
      ],
      "name": "AccessControlUnauthorizedAccount",
      "type": "error"
    },
    {
      "inputs": [],
      "name": "AlreadyClaimed",
      "type": "error"
    },
    {
      "inputs": [],
      "name": "CycleAlreadyExists",
      "type": "error"
    },
    {
      "inputs": [],
      "name": "InvalidProof",
      "type": "error"
    },
    {
      "inputs": [],
      "name": "NodeInactive",
      "type": "error"
    },
    {
      "anonymous": false,
      "inputs": [
        {
          "indexed": true,
          "internalType": "uint64",
          "name": "epochWeek",
          "type": "uint64"
        },
        {
          "indexed": false,
          "internalType": "bytes32",
          "name": "root",
          "type": "bytes32"
        },
        {
          "indexed": false,
          "internalType": "uint256",
          "name": "totalMint",
          "type": "uint256"
        }
      ],
      "name": "CyclePublished",
      "type": "event"
    },
    {
      "anonymous": false,
      "inputs": [
        {
          "indexed": true,
          "internalType": "address",
          "name": "controller",
          "type": "address"
        },
        {
          "indexed": true,
          "internalType": "address",
          "name": "node",
          "type": "address"
        },
        {
          "indexed": false,
          "internalType": "uint64",
          "name": "epochWeek",
          "type": "uint64"
        },
        {
          "indexed": false,
          "internalType": "uint256",
          "name": "amount",
          "type": "uint256"
        }
      ],
      "name": "RewardClaimed",
      "type": "event"
    },
    {
      "anonymous": false,
      "inputs": [
        {
          "indexed": true,
          "internalType": "bytes32",
          "name": "role",
          "type": "bytes32"
        },
        {
          "indexed": true,
          "internalType": "bytes32",
          "name": "previousAdminRole",
          "type": "bytes32"
        },
        {
          "indexed": true,
          "internalType": "bytes32",
          "name": "newAdminRole",
          "type": "bytes32"
        }
      ],
      "name": "RoleAdminChanged",
      "type": "event"
    },
    {
      "anonymous": false,
      "inputs": [
        {
          "indexed": true,
          "internalType": "bytes32",
          "name": "role",
          "type": "bytes32"
        },
        {
          "indexed": true,
          "internalType": "address",
          "name": "account",
          "type": "address"
        },
        {
          "indexed": true,
          "internalType": "address",
          "name": "sender",
          "type": "address"
        }
      ],
      "name": "RoleGranted",
      "type": "event"
    },
    {
      "anonymous": false,
      "inputs": [
        {
          "indexed": true,
          "internalType": "bytes32",
          "name": "role",
          "type": "bytes32"
        },
        {
          "indexed": true,
          "internalType": "address",
          "name": "account",
          "type": "address"
        },
        {
          "indexed": true,
          "internalType": "address",
          "name": "sender",
          "type": "address"
        }
      ],
      "name": "RoleRevoked",
      "type": "event"
    },
    {
      "inputs": [],
      "name": "DEFAULT_ADMIN_ROLE",
      "outputs": [
        {
          "internalType": "bytes32",
          "name": "",
          "type": "bytes32"
        }
      ],
      "stateMutability": "view",
      "type": "function"
    },
    {
      "inputs": [],
      "name": "MANAGER_ROLE",
      "outputs": [
        {
          "internalType": "bytes32",
          "name": "",
          "type": "bytes32"
        }
      ],
      "stateMutability": "view",
      "type": "function"
    },
    {
      "inputs": [],
      "name": "ORACLE_ROLE",
      "outputs": [
        {
          "internalType": "bytes32",
          "name": "",
          "type": "bytes32"
        }
      ],
      "stateMutability": "view",
      "type": "function"
    },
    {
      "inputs": [],
      "name": "cgt",
      "outputs": [
        {
          "internalType": "contract IGeoToken",
          "name": "",
          "type": "address"
        }
      ],
      "stateMutability": "view",
      "type": "function"
    },
    {
      "inputs": [
        {
          "internalType": "uint64",
          "name": "epochWeek",
          "type": "uint64"
        },
        {
          "internalType": "address",
          "name": "node",
          "type": "address"
        },
        {
          "internalType": "uint256",
          "name": "amount",
          "type": "uint256"
        },
        {
          "internalType": "bytes32[]",
          "name": "proof",
          "type": "bytes32[]"
        }
      ],
      "name": "claim",
      "outputs": [],
      "stateMutability": "nonpayable",
      "type": "function"
    },
    {
      "inputs": [
        {
          "internalType": "uint64",
          "name": "",
          "type": "uint64"
        },
        {
          "internalType": "address",
          "name": "",
          "type": "address"
        }
      ],
      "name": "claimed",
      "outputs": [
        {
          "internalType": "bool",
          "name": "",
          "type": "bool"
        }
      ],
      "stateMutability": "view",
      "type": "function"
    },
    {
      "inputs": [
        {
          "internalType": "uint64",
          "name": "",
          "type": "uint64"
        }
      ],
      "name": "cycles",
      "outputs": [
        {
          "internalType": "bytes32",
          "name": "merkleRoot",
          "type": "bytes32"
        },
        {
          "internalType": "uint256",
          "name": "totalMinted",
          "type": "uint256"
        }
      ],
      "stateMutability": "view",
      "type": "function"
    },
    {
      "inputs": [],
      "name": "did",
      "outputs": [
        {
          "internalType": "contract INodeDIDRegistry",
          "name": "",
          "type": "address"
        }
      ],
      "stateMutability": "view",
      "type": "function"
    },
    {
      "inputs": [],
      "name": "epochWindow",
      "outputs": [
        {
          "internalType": "uint64",
          "name": "",
          "type": "uint64"
        }
      ],
      "stateMutability": "view",
      "type": "function"
    },
    {
      "inputs": [
        {
          "internalType": "bytes32",
          "name": "role",
          "type": "bytes32"
        }
      ],
      "name": "getRoleAdmin",
      "outputs": [
        {
          "internalType": "bytes32",
          "name": "",
          "type": "bytes32"
        }
      ],
      "stateMutability": "view",
      "type": "function"
    },
    {
      "inputs": [
        {
          "internalType": "bytes32",
          "name": "role",
          "type": "bytes32"
        },
        {
          "internalType": "address",
          "name": "account",
          "type": "address"
        }
      ],
      "name": "grantRole",
      "outputs": [],
      "stateMutability": "nonpayable",
      "type": "function"
    },
    {
      "inputs": [
        {
          "internalType": "bytes32",
          "name": "role",
          "type": "bytes32"
        },
        {
          "internalType": "address",
          "name": "account",
          "type": "address"
        }
      ],
      "name": "hasRole",
      "outputs": [
        {
          "internalType": "bool",
          "name": "",
          "type": "bool"
        }
      ],
      "stateMutability": "view",
      "type": "function"
    },
    {
      "inputs": [
        {
          "internalType": "uint64",
          "name": "epochWeek",
          "type": "uint64"
        },
        {
          "internalType": "bytes32",
          "name": "merkleRoot",
          "type": "bytes32"
        },
        {
          "internalType": "uint256",
          "name": "totalToMint",
          "type": "uint256"
        }
      ],
      "name": "publishCycle",
      "outputs": [],
      "stateMutability": "nonpayable",
      "type": "function"
    },
    {
      "inputs": [
        {
          "internalType": "bytes32",
          "name": "role",
          "type": "bytes32"
        },
        {
          "internalType": "address",
          "name": "callerConfirmation",
          "type": "address"
        }
      ],
      "name": "renounceRole",
      "outputs": [],
      "stateMutability": "nonpayable",
      "type": "function"
    },
    {
      "inputs": [
        {
          "internalType": "bytes32",
          "name": "role",
          "type": "bytes32"
        },
        {
          "internalType": "address",
          "name": "account",
          "type": "address"
        }
      ],
      "name": "revokeRole",
      "outputs": [],
      "stateMutability": "nonpayable",
      "type": "function"
    },
    {
      "inputs": [
        {
          "internalType": "bytes4",
          "name": "interfaceId",
          "type": "bytes4"
        }
      ],
      "name": "supportsInterface",
      "outputs": [
        {
          "internalType": "bool",
          "name": "",
          "type": "bool"
        }
      ],
      "stateMutability": "view",
      "type": "function"
    }
  ],
  "bytecode": "0x60e060405234801561001057600080fd5b50604051611c73380380611c73833981810160405281019061003291906103c4565b8273ffffffffffffffffffffffffffffffffffffffff1660a08173ffffffffffffffffffffffffffffffffffffffff16815250508173ffffffffffffffffffffffffffffffffffffffff1660c08173ffffffffffffffffffffffffffffffffffffffff16815250508067ffffffffffffffff1660808167ffffffffffffffff16815250506100c96000801b8661013660201b60201c565b506100fa7f68e79a7bf1e0bc45d0a330c573bc367f9cf464fd326078812f301165fbda4ef18561013660201b60201c565b5061012b7f241ecf16d79d0f8dbfb92cbc07fe17840425976cf0667f022fe9877caa831b088661013660201b60201c565b50505050505061043f565b6000610148838361023360201b60201c565b61022857600160008085815260200190815260200160002060000160008473ffffffffffffffffffffffffffffffffffffffff1673ffffffffffffffffffffffffffffffffffffffff16815260200190815260200160002060006101000a81548160ff0219169083151502179055506101c561029d60201b60201c565b73ffffffffffffffffffffffffffffffffffffffff168273ffffffffffffffffffffffffffffffffffffffff16847f2f8788117e7eff1d82e926ec794901d17c78024a50270940304540a733656f0d60405160405180910390a46001905061022d565b600090505b92915050565b600080600084815260200190815260200160002060000160008373ffffffffffffffffffffffffffffffffffffffff1673ffffffffffffffffffffffffffffffffffffffff16815260200190815260200160002060009054906101000a900460ff16905092915050565b600033905090565b600080fd5b600073ffffffffffffffffffffffffffffffffffffffff82169050919050565b60006102d5826102aa565b9050919050565b6102e5816102ca565b81146102f057600080fd5b50565b600081519050610302816102dc565b92915050565b6000610313826102ca565b9050919050565b61032381610308565b811461032e57600080fd5b50565b6000815190506103408161031a565b92915050565b6000610351826102ca565b9050919050565b61036181610346565b811461036c57600080fd5b50565b60008151905061037e81610358565b92915050565b600067ffffffffffffffff82169050919050565b6103a181610384565b81146103ac57600080fd5b50565b6000815190506103be81610398565b92915050565b600080600080600060a086880312156103e0576103df6102a5565b5b60006103ee888289016102f3565b95505060206103ff888289016102f3565b945050604061041088828901610331565b93505060606104218882890161036f565b9250506080610432888289016103af565b9150509295509295909350565b60805160a05160c0516117e961048a600039600081816105d0015281816106b70152610c3a015260008181610492015281816108fd0152610b1d01526000610c1601526117e96000f3fe608060405234801561001057600080fd5b50600436106101005760003560e01c8063a2f94bd311610097578063dd4cab5d11610066578063dd4cab5d146102ab578063e6fcc84b146102c9578063ec87621c146102e7578063ffaaf8441461030557610100565b8063a2f94bd314610227578063a60628e214610243578063bfe174e714610273578063d547741f1461028f57610100565b806336568abe116100d357806336568abe1461019f57806370e9144a146101bb57806391d14854146101d9578063a217fddf1461020957610100565b806301ffc9a71461010557806307e2cea514610135578063248a9ca3146101535780632f2ff15d14610183575b600080fd5b61011f600480360381019061011a9190611069565b610336565b60405161012c91906110b1565b60405180910390f35b61013d6103b0565b60405161014a91906110e5565b60405180910390f35b61016d6004803603810190610168919061112c565b6103d4565b60405161017a91906110e5565b60405180910390f35b61019d600480360381019061019891906111b7565b6103f3565b005b6101b960048036038101906101b491906111b7565b610415565b005b6101c3610490565b6040516101d09190611256565b60405180910390f35b6101f360048036038101906101ee91906111b7565b6104b4565b60405161020091906110b1565b60405180910390f35b61021161051e565b60405161021e91906110e5565b60405180910390f35b610241600480360381019061023c919061134c565b610525565b005b61025d600480360381019061025891906113d4565b610a09565b60405161026a91906110b1565b60405180910390f35b61028d60048036038101906102889190611414565b610a38565b005b6102a960048036038101906102a491906111b7565b610bf2565b005b6102b3610c14565b6040516102c09190611476565b60405180910390f35b6102d1610c38565b6040516102de91906114b2565b60405180910390f35b6102ef610c5c565b6040516102fc91906110e5565b60405180910390f35b61031f600480360381019061031a91906114cd565b610c80565b60405161032d929190611509565b60405180910390f35b60007f7965db0b000000000000000000000000000000000000000000000000000000007bffffffffffffffffffffffffffffffffffffffffffffffffffffffff1916827bffffffffffffffffffffffffffffffffffffffffffffffffffffffff191614806103a957506103a882610ca4565b5b9050919050565b7f68e79a7bf1e0bc45d0a330c573bc367f9cf464fd326078812f301165fbda4ef181565b6000806000838152602001908152602001600020600101549050919050565b6103fc826103d4565b61040581610d0e565b61040f8383610d22565b50505050565b61041d610e13565b73ffffffffffffffffffffffffffffffffffffffff168173ffffffffffffffffffffffffffffffffffffffff1614610481576040517f6697b23200000000000000000000000000000000000000000000000000000000815260040160405180910390fd5b61048b8282610e1b565b505050565b7f000000000000000000000000000000000000000000000000000000000000000081565b600080600084815260200190815260200160002060000160008373ffffffffffffffffffffffffffffffffffffffff1673ffffffffffffffffffffffffffffffffffffffff16815260200190815260200160002060009054906101000a900460ff16905092915050565b6000801b81565b600260008667ffffffffffffffff1667ffffffffffffffff16815260200190815260200160002060008573ffffffffffffffffffffffffffffffffffffffff1673ffffffffffffffffffffffffffffffffffffffff16815260200190815260200160002060009054906101000a900460ff16156105ce576040517f646cf55800000000000000000000000000000000000000000000000000000000815260040160405180910390fd5b7f000000000000000000000000000000000000000000000000000000000000000073ffffffffffffffffffffffffffffffffffffffff16639f8a13d7856040518263ffffffff1660e01b81526004016106279190611541565b602060405180830381865afa158015610644573d6000803e3d6000fd5b505050506040513d601f19601f820116820180604052508101906106689190611588565b61069e576040517fa247f8ae00000000000000000000000000000000000000000000000000000000815260040160405180910390fd5b3373ffffffffffffffffffffffffffffffffffffffff167f000000000000000000000000000000000000000000000000000000000000000073ffffffffffffffffffffffffffffffffffffffff166388c662aa866040518263ffffffff1660e01b815260040161070e9190611541565b602060405180830381865afa15801561072b573d6000803e3d6000fd5b505050506040513d601f19601f8201168201806040525081019061074f91906115ca565b73ffffffffffffffffffffffffffffffffffffffff16146107a5576040517f08c379a000000000000000000000000000000000000000000000000000000000815260040161079c90611654565b60405180910390fd5b600084846040516020016107ba9291906116dd565b604051602081830303815290604052805190602001209050610848838380806020026020016040519081016040528093929190818152602001838360200280828437600081840152601f19601f82011690508083019250505050505050600160008967ffffffffffffffff1667ffffffffffffffff1681526020019081526020016000206000015483610f0d565b61087e576040517f09bde33900000000000000000000000000000000000000000000000000000000815260040160405180910390fd5b6001600260008867ffffffffffffffff1667ffffffffffffffff16815260200190815260200160002060008773ffffffffffffffffffffffffffffffffffffffff1673ffffffffffffffffffffffffffffffffffffffff16815260200190815260200160002060006101000a81548160ff0219169083151502179055507f000000000000000000000000000000000000000000000000000000000000000073ffffffffffffffffffffffffffffffffffffffff1663a9059cbb33866040518363ffffffff1660e01b8152600401610956929190611709565b6020604051808303816000875af1158015610975573d6000803e3d6000fd5b505050506040513d601f19601f820116820180604052508101906109999190611588565b508473ffffffffffffffffffffffffffffffffffffffff163373ffffffffffffffffffffffffffffffffffffffff167f9c5cb5ae2747346ad2e57fc335b23280384574cec1c061ebb4d47ef4fe34fafd88876040516109f9929190611732565b60405180910390a3505050505050565b60026020528160005260406000206020528060005260406000206000915091509054906101000a900460ff1681565b7f68e79a7bf1e0bc45d0a330c573bc367f9cf464fd326078812f301165fbda4ef1610a6281610d0e565b6000801b600160008667ffffffffffffffff1667ffffffffffffffff1681526020019081526020016000206000015414610ac8576040517ff782f46f00000000000000000000000000000000000000000000000000000000815260040160405180910390fd5b604051806040016040528084815260200183815250600160008667ffffffffffffffff1667ffffffffffffffff16815260200190815260200160002060008201518160000155602082015181600101559050507f000000000000000000000000000000000000000000000000000000000000000073ffffffffffffffffffffffffffffffffffffffff166340c10f1930846040518363ffffffff1660e01b8152600401610b76929190611709565b600060405180830381600087803b158015610b9057600080fd5b505af1158015610ba4573d6000803e3d6000fd5b505050508367ffffffffffffffff167f5eec83c2f4e9798945ba291c81330ed3d9bf47420851f60b0cea9f9010f890058484604051610be4929190611509565b60405180910390a250505050565b610bfb826103d4565b610c0481610d0e565b610c0e8383610e1b565b50505050565b7f000000000000000000000000000000000000000000000000000000000000000081565b7f000000000000000000000000000000000000000000000000000000000000000081565b7f241ecf16d79d0f8dbfb92cbc07fe17840425976cf0667f022fe9877caa831b0881565b60016020528060005260406000206000915090508060000154908060010154905082565b60007f01ffc9a7000000000000000000000000000000000000000000000000000000007bffffffffffffffffffffffffffffffffffffffffffffffffffffffff1916827bffffffffffffffffffffffffffffffffffffffffffffffffffffffff1916149050919050565b610d1f81610d1a610e13565b610f24565b50565b6000610d2e83836104b4565b610e0857600160008085815260200190815260200160002060000160008473ffffffffffffffffffffffffffffffffffffffff1673ffffffffffffffffffffffffffffffffffffffff16815260200190815260200160002060006101000a81548160ff021916908315150217905550610da5610e13565b73ffffffffffffffffffffffffffffffffffffffff168273ffffffffffffffffffffffffffffffffffffffff16847f2f8788117e7eff1d82e926ec794901d17c78024a50270940304540a733656f0d60405160405180910390a460019050610e0d565b600090505b92915050565b600033905090565b6000610e2783836104b4565b15610f0257600080600085815260200190815260200160002060000160008473ffffffffffffffffffffffffffffffffffffffff1673ffffffffffffffffffffffffffffffffffffffff16815260200190815260200160002060006101000a81548160ff021916908315150217905550610e9f610e13565b73ffffffffffffffffffffffffffffffffffffffff168273ffffffffffffffffffffffffffffffffffffffff16847ff6391f5c32d9c69d2a47ea670b442974b53935d1edc7fd64eb21e047a839171b60405160405180910390a460019050610f07565b600090505b92915050565b600082610f1a8584610f75565b1490509392505050565b610f2e82826104b4565b610f715780826040517fe2517d3f000000000000000000000000000000000000000000000000000000008152600401610f6892919061175b565b60405180910390fd5b5050565b60008082905060005b8451811015610fba57610fab82868381518110610f9e57610f9d611784565b5b6020026020010151610fc5565b91508080600101915050610f7e565b508091505092915050565b6000818310610fdd57610fd88284610ff0565b610fe8565b610fe78383610ff0565b5b905092915050565b600082600052816020526040600020905092915050565b600080fd5b600080fd5b60007fffffffff0000000000000000000000000000000000000000000000000000000082169050919050565b61104681611011565b811461105157600080fd5b50565b6000813590506110638161103d565b92915050565b60006020828403121561107f5761107e611007565b5b600061108d84828501611054565b91505092915050565b60008115159050919050565b6110ab81611096565b82525050565b60006020820190506110c660008301846110a2565b92915050565b6000819050919050565b6110df816110cc565b82525050565b60006020820190506110fa60008301846110d6565b92915050565b611109816110cc565b811461111457600080fd5b50565b60008135905061112681611100565b92915050565b60006020828403121561114257611141611007565b5b600061115084828501611117565b91505092915050565b600073ffffffffffffffffffffffffffffffffffffffff82169050919050565b600061118482611159565b9050919050565b61119481611179565b811461119f57600080fd5b50565b6000813590506111b18161118b565b92915050565b600080604083850312156111ce576111cd611007565b5b60006111dc85828601611117565b92505060206111ed858286016111a2565b9150509250929050565b6000819050919050565b600061121c61121761121284611159565b6111f7565b611159565b9050919050565b600061122e82611201565b9050919050565b600061124082611223565b9050919050565b61125081611235565b82525050565b600060208201905061126b6000830184611247565b92915050565b600067ffffffffffffffff82169050919050565b61128e81611271565b811461129957600080fd5b50565b6000813590506112ab81611285565b92915050565b6000819050919050565b6112c4816112b1565b81146112cf57600080fd5b50565b6000813590506112e1816112bb565b92915050565b600080fd5b600080fd5b600080fd5b60008083601f84011261130c5761130b6112e7565b5b8235905067ffffffffffffffff811115611329576113286112ec565b5b602083019150836020820283011115611345576113446112f1565b5b9250929050565b60008060008060006080868803121561136857611367611007565b5b60006113768882890161129c565b9550506020611387888289016111a2565b9450506040611398888289016112d2565b935050606086013567ffffffffffffffff8111156113b9576113b861100c565b5b6113c5888289016112f6565b92509250509295509295909350565b600080604083850312156113eb576113ea611007565b5b60006113f98582860161129c565b925050602061140a858286016111a2565b9150509250929050565b60008060006060848603121561142d5761142c611007565b5b600061143b8682870161129c565b935050602061144c86828701611117565b925050604061145d868287016112d2565b9150509250925092565b61147081611271565b82525050565b600060208201905061148b6000830184611467565b92915050565b600061149c82611223565b9050919050565b6114ac81611491565b82525050565b60006020820190506114c760008301846114a3565b92915050565b6000602082840312156114e3576114e2611007565b5b60006114f18482850161129c565b91505092915050565b611503816112b1565b82525050565b600060408201905061151e60008301856110d6565b61152b60208301846114fa565b9392505050565b61153b81611179565b82525050565b60006020820190506115566000830184611532565b92915050565b61156581611096565b811461157057600080fd5b50565b6000815190506115828161155c565b92915050565b60006020828403121561159e5761159d611007565b5b60006115ac84828501611573565b91505092915050565b6000815190506115c48161118b565b92915050565b6000602082840312156115e0576115df611007565b5b60006115ee848285016115b5565b91505092915050565b600082825260208201905092915050565b7f63616c6c65722021636f6e74726f6c6c65720000000000000000000000000000600082015250565b600061163e6012836115f7565b915061164982611608565b602082019050919050565b6000602082019050818103600083015261166d81611631565b9050919050565b60008160601b9050919050565b600061168c82611674565b9050919050565b600061169e82611681565b9050919050565b6116b66116b182611179565b611693565b82525050565b6000819050919050565b6116d76116d2826112b1565b6116bc565b82525050565b60006116e982856116a5565b6014820191506116f982846116c6565b6020820191508190509392505050565b600060408201905061171e6000830185611532565b61172b60208301846114fa565b9392505050565b60006040820190506117476000830185611467565b61175460208301846114fa565b9392505050565b60006040820190506117706000830185611532565b61177d60208301846110d6565b9392505050565b7f4e487b7100000000000000000000000000000000000000000000000000000000600052603260045260246000fdfea2646970667358221220f9fa4ec83f6c2889c7ad9776a6ac0a69dfcc4a72a859c23b7a886773057bbb6164736f6c634300081c0033",
  "linkReferences": {},
  "deployedLinkReferences": {}
}