{
  "_format": "hh-sol-artifact-1",
  "contractName": "GeoRewardManager",
  "sourceName": "contracts/GeoRewardManager.sol",
  "abi": [
    {
      "inputs": [
        {
          "internalType": "address",
          "name": "admin",
          "type": "address"
        },
        {
          "internalType": "address",
          "name": "oracle",
          "type": "address"
        },
        {
          "internalType": "contract IGeoToken",
          "name": "_cgt",
          "type": "address"
        },
        {
          "internalType": "contract INodeDIDRegistry",
          "name": "_did",
          "type": "address"
        },
        {
          "internalType": "uint64",
          "name": "_epochWindow",
          "type": "uint64"
        }
      ],
      "stateMutability": "nonpayable",
      "type": "constructor"
    },
    {
      "inputs": [],
      "name": "AccessControlBadConfirmation",
      "type": "error"
    },
    {
      "inputs": [
        {
          "internalType": "address",
          "name": "account",
          "type": "address"
        },
        {
          "internalType": "bytes32",
          "name": "neededRole",
          "type": "bytes32"
        }
      ],
      "name": "AccessControlUnauthorizedAccount",
      "type": "error"
    },
    {
      "inputs": [],
      "name": "AlreadyClaimed",
      "type": "error"
    },
    {
      "inputs": [],
      "name": "CycleAlreadyExists",
      "type": "error"
    },
    {
      "inputs": [],
      "name": "CycleNotPublished",
      "type": "error"
    },
    {
      "inputs": [],
      "name": "InvalidProof",
      "type": "error"
    },
    {
      "inputs": [],
      "name": "NodeInactive",
      "type": "error"
    },
    {
      "inputs": [],
      "name": "NotController",
      "type": "error"
    },
    {
      "inputs": [],
      "name": "ReentrancyGuardReentrantCall",
      "type": "error"
    },
    {
      "inputs": [
        {
          "internalType": "address",
          "name": "token",
          "type": "address"
        }
      ],
      "name": "SafeERC20FailedOperation",
      "type": "error"
    },
    {
      "inputs": [],
      "name": "ZeroRootOrAmount",
      "type": "error"
    },
    {
      "anonymous": false,
      "inputs": [
        {
          "indexed": true,
          "internalType": "uint64",
          "name": "epochWeek",
          "type": "uint64"
        },
        {
          "indexed": false,
          "internalType": "bytes32",
          "name": "root",
          "type": "bytes32"
        },
        {
          "indexed": false,
          "internalType": "uint256",
          "name": "totalMint",
          "type": "uint256"
        }
      ],
      "name": "CyclePublished",
      "type": "event"
    },
    {
      "anonymous": false,
      "inputs": [
        {
          "indexed": true,
          "internalType": "address",
          "name": "controller",
          "type": "address"
        },
        {
          "indexed": true,
          "internalType": "address",
          "name": "node",
          "type": "address"
        },
        {
          "indexed": false,
          "internalType": "uint64",
          "name": "epochWeek",
          "type": "uint64"
        },
        {
          "indexed": false,
          "internalType": "uint256",
          "name": "amount",
          "type": "uint256"
        }
      ],
      "name": "RewardClaimed",
      "type": "event"
    },
    {
      "anonymous": false,
      "inputs": [
        {
          "indexed": true,
          "internalType": "bytes32",
          "name": "role",
          "type": "bytes32"
        },
        {
          "indexed": true,
          "internalType": "bytes32",
          "name": "previousAdminRole",
          "type": "bytes32"
        },
        {
          "indexed": true,
          "internalType": "bytes32",
          "name": "newAdminRole",
          "type": "bytes32"
        }
      ],
      "name": "RoleAdminChanged",
      "type": "event"
    },
    {
      "anonymous": false,
      "inputs": [
        {
          "indexed": true,
          "internalType": "bytes32",
          "name": "role",
          "type": "bytes32"
        },
        {
          "indexed": true,
          "internalType": "address",
          "name": "account",
          "type": "address"
        },
        {
          "indexed": true,
          "internalType": "address",
          "name": "sender",
          "type": "address"
        }
      ],
      "name": "RoleGranted",
      "type": "event"
    },
    {
      "anonymous": false,
      "inputs": [
        {
          "indexed": true,
          "internalType": "bytes32",
          "name": "role",
          "type": "bytes32"
        },
        {
          "indexed": true,
          "internalType": "address",
          "name": "account",
          "type": "address"
        },
        {
          "indexed": true,
          "internalType": "address",
          "name": "sender",
          "type": "address"
        }
      ],
      "name": "RoleRevoked",
      "type": "event"
    },
    {
      "inputs": [],
      "name": "DEFAULT_ADMIN_ROLE",
      "outputs": [
        {
          "internalType": "bytes32",
          "name": "",
          "type": "bytes32"
        }
      ],
      "stateMutability": "view",
      "type": "function"
    },
    {
      "inputs": [],
      "name": "MANAGER_ROLE",
      "outputs": [
        {
          "internalType": "bytes32",
          "name": "",
          "type": "bytes32"
        }
      ],
      "stateMutability": "view",
      "type": "function"
    },
    {
      "inputs": [],
      "name": "ORACLE_ROLE",
      "outputs": [
        {
          "internalType": "bytes32",
          "name": "",
          "type": "bytes32"
        }
      ],
      "stateMutability": "view",
      "type": "function"
    },
    {
      "inputs": [],
      "name": "cgt",
      "outputs": [
        {
          "internalType": "contract IGeoToken",
          "name": "",
          "type": "address"
        }
      ],
      "stateMutability": "view",
      "type": "function"
    },
    {
      "inputs": [
        {
          "internalType": "uint64",
          "name": "epochWeek",
          "type": "uint64"
        },
        {
          "internalType": "address",
          "name": "node",
          "type": "address"
        },
        {
          "internalType": "uint256",
          "name": "amount",
          "type": "uint256"
        },
        {
          "internalType": "bytes32[]",
          "name": "proof",
          "type": "bytes32[]"
        }
      ],
      "name": "claim",
      "outputs": [],
      "stateMutability": "nonpayable",
      "type": "function"
    },
    {
      "inputs": [
        {
          "internalType": "uint64",
          "name": "",
          "type": "uint64"
        },
        {
          "internalType": "address",
          "name": "",
          "type": "address"
        }
      ],
      "name": "claimed",
      "outputs": [
        {
          "internalType": "bool",
          "name": "",
          "type": "bool"
        }
      ],
      "stateMutability": "view",
      "type": "function"
    },
    {
      "inputs": [
        {
          "internalType": "uint64",
          "name": "",
          "type": "uint64"
        }
      ],
      "name": "cycleRoot",
      "outputs": [
        {
          "internalType": "bytes32",
          "name": "",
          "type": "bytes32"
        }
      ],
      "stateMutability": "view",
      "type": "function"
    },
    {
      "inputs": [],
      "name": "did",
      "outputs": [
        {
          "internalType": "contract INodeDIDRegistry",
          "name": "",
          "type": "address"
        }
      ],
      "stateMutability": "view",
      "type": "function"
    },
    {
      "inputs": [],
      "name": "epochWindow",
      "outputs": [
        {
          "internalType": "uint64",
          "name": "",
          "type": "uint64"
        }
      ],
      "stateMutability": "view",
      "type": "function"
    },
    {
      "inputs": [
        {
          "internalType": "bytes32",
          "name": "role",
          "type": "bytes32"
        }
      ],
      "name": "getRoleAdmin",
      "outputs": [
        {
          "internalType": "bytes32",
          "name": "",
          "type": "bytes32"
        }
      ],
      "stateMutability": "view",
      "type": "function"
    },
    {
      "inputs": [
        {
          "internalType": "bytes32",
          "name": "role",
          "type": "bytes32"
        },
        {
          "internalType": "address",
          "name": "account",
          "type": "address"
        }
      ],
      "name": "grantRole",
      "outputs": [],
      "stateMutability": "nonpayable",
      "type": "function"
    },
    {
      "inputs": [
        {
          "internalType": "bytes32",
          "name": "role",
          "type": "bytes32"
        },
        {
          "internalType": "address",
          "name": "account",
          "type": "address"
        }
      ],
      "name": "hasRole",
      "outputs": [
        {
          "internalType": "bool",
          "name": "",
          "type": "bool"
        }
      ],
      "stateMutability": "view",
      "type": "function"
    },
    {
      "inputs": [
        {
          "internalType": "uint64",
          "name": "epochWeek",
          "type": "uint64"
        },
        {
          "internalType": "bytes32",
          "name": "merkleRoot",
          "type": "bytes32"
        },
        {
          "internalType": "uint256",
          "name": "totalToMint",
          "type": "uint256"
        }
      ],
      "name": "publishCycle",
      "outputs": [],
      "stateMutability": "nonpayable",
      "type": "function"
    },
    {
      "inputs": [
        {
          "internalType": "bytes32",
          "name": "role",
          "type": "bytes32"
        },
        {
          "internalType": "address",
          "name": "callerConfirmation",
          "type": "address"
        }
      ],
      "name": "renounceRole",
      "outputs": [],
      "stateMutability": "nonpayable",
      "type": "function"
    },
    {
      "inputs": [
        {
          "internalType": "bytes32",
          "name": "role",
          "type": "bytes32"
        },
        {
          "internalType": "address",
          "name": "account",
          "type": "address"
        }
      ],
      "name": "revokeRole",
      "outputs": [],
      "stateMutability": "nonpayable",
      "type": "function"
    },
    {
      "inputs": [
        {
          "internalType": "bytes4",
          "name": "interfaceId",
          "type": "bytes4"
        }
      ],
      "name": "supportsInterface",
      "outputs": [
        {
          "internalType": "bool",
          "name": "",
          "type": "bool"
        }
      ],
      "stateMutability": "view",
      "type": "function"
    }
  ],
  "bytecode": "0x60e06040523480156200001157600080fd5b5060405162001ccd38038062001ccd8339818101604052810190620000379190620003f7565b600180819055508273ffffffffffffffffffffffffffffffffffffffff1660a08173ffffffffffffffffffffffffffffffffffffffff16815250508173ffffffffffffffffffffffffffffffffffffffff1660c08173ffffffffffffffffffffffffffffffffffffffff16815250508067ffffffffffffffff1660808167ffffffffffffffff1681525050620000d76000801b866200014960201b60201c565b506200010a7f68e79a7bf1e0bc45d0a330c573bc367f9cf464fd326078812f301165fbda4ef1856200014960201b60201c565b506200013d7f241ecf16d79d0f8dbfb92cbc07fe17840425976cf0667f022fe9877caa831b08866200014960201b60201c565b5050505050506200047f565b60006200015d83836200024c60201b60201c565b6200024157600160008085815260200190815260200160002060000160008473ffffffffffffffffffffffffffffffffffffffff1673ffffffffffffffffffffffffffffffffffffffff16815260200190815260200160002060006101000a81548160ff021916908315150217905550620001dd620002b660201b60201c565b73ffffffffffffffffffffffffffffffffffffffff168273ffffffffffffffffffffffffffffffffffffffff16847f2f8788117e7eff1d82e926ec794901d17c78024a50270940304540a733656f0d60405160405180910390a46001905062000246565b600090505b92915050565b600080600084815260200190815260200160002060000160008373ffffffffffffffffffffffffffffffffffffffff1673ffffffffffffffffffffffffffffffffffffffff16815260200190815260200160002060009054906101000a900460ff16905092915050565b600033905090565b600080fd5b600073ffffffffffffffffffffffffffffffffffffffff82169050919050565b6000620002f082620002c3565b9050919050565b6200030281620002e3565b81146200030e57600080fd5b50565b6000815190506200032281620002f7565b92915050565b60006200033582620002e3565b9050919050565b620003478162000328565b81146200035357600080fd5b50565b60008151905062000367816200033c565b92915050565b60006200037a82620002e3565b9050919050565b6200038c816200036d565b81146200039857600080fd5b50565b600081519050620003ac8162000381565b92915050565b600067ffffffffffffffff82169050919050565b620003d181620003b2565b8114620003dd57600080fd5b50565b600081519050620003f181620003c6565b92915050565b600080600080600060a08688031215620004165762000415620002be565b5b6000620004268882890162000311565b9550506020620004398882890162000311565b94505060406200044c8882890162000356565b93505060606200045f888289016200039b565b92505060806200047288828901620003e0565b9150509295509295909350565b60805160a05160c051611809620004c4600039600081816106420152610ba10152600081816104910152818161086c0152610a7c01526000610b7d01526118096000f3fe608060405234801561001057600080fd5b50600436106101005760003560e01c8063a2f94bd311610097578063d547741f11610066578063d547741f146102bf578063dd4cab5d146102db578063e6fcc84b146102f9578063ec87621c1461031757610100565b8063a2f94bd314610227578063a60628e214610243578063b19ebace14610273578063bfe174e7146102a357610100565b806336568abe116100d357806336568abe1461019f57806370e9144a146101bb57806391d14854146101d9578063a217fddf1461020957610100565b806301ffc9a71461010557806307e2cea514610135578063248a9ca3146101535780632f2ff15d14610183575b600080fd5b61011f600480360381019061011a9190611120565b610335565b60405161012c9190611168565b60405180910390f35b61013d6103af565b60405161014a919061119c565b60405180910390f35b61016d600480360381019061016891906111e3565b6103d3565b60405161017a919061119c565b60405180910390f35b61019d6004803603810190610198919061126e565b6103f2565b005b6101b960048036038101906101b4919061126e565b610414565b005b6101c361048f565b6040516101d0919061130d565b60405180910390f35b6101f360048036038101906101ee919061126e565b6104b3565b6040516102009190611168565b60405180910390f35b61021161051d565b60405161021e919061119c565b60405180910390f35b610241600480360381019061023c9190611403565b610524565b005b61025d6004803603810190610258919061148b565b61092a565b60405161026a9190611168565b60405180910390f35b61028d600480360381019061028891906114cb565b610959565b60405161029a919061119c565b60405180910390f35b6102bd60048036038101906102b891906114f8565b610971565b005b6102d960048036038101906102d4919061126e565b610b59565b005b6102e3610b7b565b6040516102f0919061155a565b60405180910390f35b610301610b9f565b60405161030e9190611596565b60405180910390f35b61031f610bc3565b60405161032c919061119c565b60405180910390f35b60007f7965db0b000000000000000000000000000000000000000000000000000000007bffffffffffffffffffffffffffffffffffffffffffffffffffffffff1916827bffffffffffffffffffffffffffffffffffffffffffffffffffffffff191614806103a857506103a782610be7565b5b9050919050565b7f68e79a7bf1e0bc45d0a330c573bc367f9cf464fd326078812f301165fbda4ef181565b6000806000838152602001908152602001600020600101549050919050565b6103fb826103d3565b61040481610c51565b61040e8383610c65565b50505050565b61041c610d56565b73ffffffffffffffffffffffffffffffffffffffff168173ffffffffffffffffffffffffffffffffffffffff1614610480576040517f6697b23200000000000000000000000000000000000000000000000000000000815260040160405180910390fd5b61048a8282610d5e565b505050565b7f000000000000000000000000000000000000000000000000000000000000000081565b600080600084815260200190815260200160002060000160008373ffffffffffffffffffffffffffffffffffffffff1673ffffffffffffffffffffffffffffffffffffffff16815260200190815260200160002060009054906101000a900460ff16905092915050565b6000801b81565b61052c610e50565b6000600260008767ffffffffffffffff1667ffffffffffffffff1681526020019081526020016000205490506000801b8103610594576040517f837232ac00000000000000000000000000000000000000000000000000000000815260040160405180910390fd5b600360008767ffffffffffffffff1667ffffffffffffffff16815260200190815260200160002060008673ffffffffffffffffffffffffffffffffffffffff1673ffffffffffffffffffffffffffffffffffffffff16815260200190815260200160002060009054906101000a900460ff161561063d576040517f646cf55800000000000000000000000000000000000000000000000000000000815260040160405180910390fd5b6000807f000000000000000000000000000000000000000000000000000000000000000073ffffffffffffffffffffffffffffffffffffffff1663edc74066886040518263ffffffff1660e01b815260040161069991906115c0565b6040805180830381865afa1580156106b5573d6000803e3d6000fd5b505050506040513d601f19601f820116820180604052508101906106d9919061161c565b9150915080610714576040517fa247f8ae00000000000000000000000000000000000000000000000000000000815260040160405180910390fd5b3373ffffffffffffffffffffffffffffffffffffffff168273ffffffffffffffffffffffffffffffffffffffff1614610779576040517f23019e6700000000000000000000000000000000000000000000000000000000815260040160405180910390fd5b6000878760405160200161078e9291906116c5565b6040516020818303038152906040528051906020012090506107b286868684610e96565b6107e8576040517f09bde33900000000000000000000000000000000000000000000000000000000815260040160405180910390fd5b6001600360008b67ffffffffffffffff1667ffffffffffffffff16815260200190815260200160002060008a73ffffffffffffffffffffffffffffffffffffffff1673ffffffffffffffffffffffffffffffffffffffff16815260200190815260200160002060006101000a81548160ff0219169083151502179055506108b033887f000000000000000000000000000000000000000000000000000000000000000073ffffffffffffffffffffffffffffffffffffffff16610eaf9092919063ffffffff16565b8773ffffffffffffffffffffffffffffffffffffffff163373ffffffffffffffffffffffffffffffffffffffff167f9c5cb5ae2747346ad2e57fc335b23280384574cec1c061ebb4d47ef4fe34fafd8b8a60405161090f929190611700565b60405180910390a350505050610923610f2e565b5050505050565b60036020528160005260406000206020528060005260406000206000915091509054906101000a900460ff1681565b60026020528060005260406000206000915090505481565b7f68e79a7bf1e0bc45d0a330c573bc367f9cf464fd326078812f301165fbda4ef161099b81610c51565b6109a3610e50565b6000801b600260008667ffffffffffffffff1667ffffffffffffffff1681526020019081526020016000205414610a06576040517ff782f46f00000000000000000000000000000000000000000000000000000000815260040160405180910390fd5b6000801b831480610a175750600082145b15610a4e576040517f20cee52900000000000000000000000000000000000000000000000000000000815260040160405180910390fd5b82600260008667ffffffffffffffff1667ffffffffffffffff168152602001908152602001600020819055507f000000000000000000000000000000000000000000000000000000000000000073ffffffffffffffffffffffffffffffffffffffff166340c10f1930846040518363ffffffff1660e01b8152600401610ad5929190611729565b600060405180830381600087803b158015610aef57600080fd5b505af1158015610b03573d6000803e3d6000fd5b505050508367ffffffffffffffff167f5eec83c2f4e9798945ba291c81330ed3d9bf47420851f60b0cea9f9010f890058484604051610b43929190611752565b60405180910390a2610b53610f2e565b50505050565b610b62826103d3565b610b6b81610c51565b610b758383610d5e565b50505050565b7f000000000000000000000000000000000000000000000000000000000000000081565b7f000000000000000000000000000000000000000000000000000000000000000081565b7f241ecf16d79d0f8dbfb92cbc07fe17840425976cf0667f022fe9877caa831b0881565b60007f01ffc9a7000000000000000000000000000000000000000000000000000000007bffffffffffffffffffffffffffffffffffffffffffffffffffffffff1916827bffffffffffffffffffffffffffffffffffffffffffffffffffffffff1916149050919050565b610c6281610c5d610d56565b610f37565b50565b6000610c7183836104b3565b610d4b57600160008085815260200190815260200160002060000160008473ffffffffffffffffffffffffffffffffffffffff1673ffffffffffffffffffffffffffffffffffffffff16815260200190815260200160002060006101000a81548160ff021916908315150217905550610ce8610d56565b73ffffffffffffffffffffffffffffffffffffffff168273ffffffffffffffffffffffffffffffffffffffff16847f2f8788117e7eff1d82e926ec794901d17c78024a50270940304540a733656f0d60405160405180910390a460019050610d50565b600090505b92915050565b600033905090565b6000610d6a83836104b3565b15610e4557600080600085815260200190815260200160002060000160008473ffffffffffffffffffffffffffffffffffffffff1673ffffffffffffffffffffffffffffffffffffffff16815260200190815260200160002060006101000a81548160ff021916908315150217905550610de2610d56565b73ffffffffffffffffffffffffffffffffffffffff168273ffffffffffffffffffffffffffffffffffffffff16847ff6391f5c32d9c69d2a47ea670b442974b53935d1edc7fd64eb21e047a839171b60405160405180910390a460019050610e4a565b600090505b92915050565b600260015403610e8c576040517f3ee5aeb500000000000000000000000000000000000000000000000000000000815260040160405180910390fd5b6002600181905550565b600082610ea4868685610f88565b149050949350505050565b610f29838473ffffffffffffffffffffffffffffffffffffffff1663a9059cbb8585604051602401610ee2929190611729565b604051602081830303815290604052915060e01b6020820180517bffffffffffffffffffffffffffffffffffffffffffffffffffffffff8381831617835250505050610fda565b505050565b60018081905550565b610f4182826104b3565b610f845780826040517fe2517d3f000000000000000000000000000000000000000000000000000000008152600401610f7b92919061177b565b60405180910390fd5b5050565b60008082905060005b85859050811015610fce57610fbf82878784818110610fb357610fb26117a4565b5b9050602002013561107c565b91508080600101915050610f91565b50809150509392505050565b600080602060008451602086016000885af180610ffd576040513d6000823e3d81fd5b3d925060005191505060008214611018576001811415611034565b60008473ffffffffffffffffffffffffffffffffffffffff163b145b1561107657836040517f5274afe700000000000000000000000000000000000000000000000000000000815260040161106d91906115c0565b60405180910390fd5b50505050565b60008183106110945761108f82846110a7565b61109f565b61109e83836110a7565b5b905092915050565b600082600052816020526040600020905092915050565b600080fd5b600080fd5b60007fffffffff0000000000000000000000000000000000000000000000000000000082169050919050565b6110fd816110c8565b811461110857600080fd5b50565b60008135905061111a816110f4565b92915050565b600060208284031215611136576111356110be565b5b60006111448482850161110b565b91505092915050565b60008115159050919050565b6111628161114d565b82525050565b600060208201905061117d6000830184611159565b92915050565b6000819050919050565b61119681611183565b82525050565b60006020820190506111b1600083018461118d565b92915050565b6111c081611183565b81146111cb57600080fd5b50565b6000813590506111dd816111b7565b92915050565b6000602082840312156111f9576111f86110be565b5b6000611207848285016111ce565b91505092915050565b600073ffffffffffffffffffffffffffffffffffffffff82169050919050565b600061123b82611210565b9050919050565b61124b81611230565b811461125657600080fd5b50565b60008135905061126881611242565b92915050565b60008060408385031215611285576112846110be565b5b6000611293858286016111ce565b92505060206112a485828601611259565b9150509250929050565b6000819050919050565b60006112d36112ce6112c984611210565b6112ae565b611210565b9050919050565b60006112e5826112b8565b9050919050565b60006112f7826112da565b9050919050565b611307816112ec565b82525050565b600060208201905061132260008301846112fe565b92915050565b600067ffffffffffffffff82169050919050565b61134581611328565b811461135057600080fd5b50565b6000813590506113628161133c565b92915050565b6000819050919050565b61137b81611368565b811461138657600080fd5b50565b60008135905061139881611372565b92915050565b600080fd5b600080fd5b600080fd5b60008083601f8401126113c3576113c261139e565b5b8235905067ffffffffffffffff8111156113e0576113df6113a3565b5b6020830191508360208202830111156113fc576113fb6113a8565b5b9250929050565b60008060008060006080868803121561141f5761141e6110be565b5b600061142d88828901611353565b955050602061143e88828901611259565b945050604061144f88828901611389565b935050606086013567ffffffffffffffff8111156114705761146f6110c3565b5b61147c888289016113ad565b92509250509295509295909350565b600080604083850312156114a2576114a16110be565b5b60006114b085828601611353565b92505060206114c185828601611259565b9150509250929050565b6000602082840312156114e1576114e06110be565b5b60006114ef84828501611353565b91505092915050565b600080600060608486031215611511576115106110be565b5b600061151f86828701611353565b9350506020611530868287016111ce565b925050604061154186828701611389565b9150509250925092565b61155481611328565b82525050565b600060208201905061156f600083018461154b565b92915050565b6000611580826112da565b9050919050565b61159081611575565b82525050565b60006020820190506115ab6000830184611587565b92915050565b6115ba81611230565b82525050565b60006020820190506115d560008301846115b1565b92915050565b6000815190506115ea81611242565b92915050565b6115f98161114d565b811461160457600080fd5b50565b600081519050611616816115f0565b92915050565b60008060408385031215611633576116326110be565b5b6000611641858286016115db565b925050602061165285828601611607565b9150509250929050565b60008160601b9050919050565b60006116748261165c565b9050919050565b600061168682611669565b9050919050565b61169e61169982611230565b61167b565b82525050565b6000819050919050565b6116bf6116ba82611368565b6116a4565b82525050565b60006116d1828561168d565b6014820191506116e182846116ae565b6020820191508190509392505050565b6116fa81611368565b82525050565b6000604082019050611715600083018561154b565b61172260208301846116f1565b9392505050565b600060408201905061173e60008301856115b1565b61174b60208301846116f1565b9392505050565b6000604082019050611767600083018561118d565b61177460208301846116f1565b9392505050565b600060408201905061179060008301856115b1565b61179d602083018461118d565b9392505050565b7f4e487b7100000000000000000000000000000000000000000000000000000000600052603260045260246000fdfea2646970667358221220f680d352e2f2521ea7e12f8946c0349e72cecfea6efb7ff85bd66ca6a6e9a2ec64736f6c63430008180033",
  "linkReferences": {},
  "deployedLinkReferences": {}
}