{
  "_format": "hh-sol-artifact-1",
  "contractName": "MockSensorResolver",
  "sourceName": "contracts/mocks/MockSensorResolver.sol",
  "abi": [
    {
      "inputs": [
        {
          "internalType": "uint8",
          "name": "",
          "type": "uint8"
        }
      ],
      "name": "resolutions",
      "outputs": [
        {
          "internalType": "uint8",
          "name": "",
          "type": "uint8"
        }
      ],
      "stateMutability": "view",
      "type": "function"
    },
    {
      "inputs": [
        {
          "internalType": "uint8",
          "name": "sensorType",
          "type": "uint8"
        }
      ],
      "name": "sensorTypeMaxResolution",
      "outputs": [
        {
          "internalType": "uint8",
          "name": "",
          "type": "uint8"
        }
      ],
      "stateMutability": "view",
      "type": "function"
    },
    {
      "inputs": [
        {
          "internalType": "uint8",
          "name": "nodeType",
          "type": "uint8"
        },
        {
          "internalType": "uint8",
          "name": "maxResolution",
          "type": "uint8"
        }
      ],
      "name": "set",
      "outputs": [],
      "stateMutability": "nonpayable",
      "type": "function"
    }
  ],
  "bytecode": "0x608060405234801561001057600080fd5b50610251806100206000396000f3fe608060405234801561001057600080fd5b50600436106100415760003560e01c8063e4a5d48014610046578063ebc2f80b14610076578063fe3595f114610092575b600080fd5b610060600480360381019061005b9190610184565b6100c2565b60405161006d91906101c0565b60405180910390f35b610090600480360381019061008b91906101db565b6100e2565b005b6100ac60048036038101906100a79190610184565b610117565b6040516100b991906101c0565b60405180910390f35b60006020528060005260406000206000915054906101000a900460ff1681565b806000808460ff1660ff16815260200190815260200160002060006101000a81548160ff021916908360ff1602179055505050565b60008060008360ff1660ff16815260200190815260200160002060009054906101000a900460ff169050919050565b600080fd5b600060ff82169050919050565b6101618161014b565b811461016c57600080fd5b50565b60008135905061017e81610158565b92915050565b60006020828403121561019a57610199610146565b5b60006101a88482850161016f565b91505092915050565b6101ba8161014b565b82525050565b60006020820190506101d560008301846101b1565b92915050565b600080604083850312156101f2576101f1610146565b5b60006102008582860161016f565b92505060206102118582860161016f565b915050925092905056fea2646970667358221220b1d1200c04263c4bbb98e627711eef0ec4b1e7eee4c2ff3af726c1a8aa89f85f64736f6c63430008180033",
  "linkReferences": {},
  "deployedLinkReferences": {}
}