{
  "_format": "hh-sol-artifact-1",
  "contractName": "GeoToken",
  "sourceName": "contracts/GeoToken.sol",
  "abi": [
    {
      "inputs": [
        {
          "internalType": "address",
          "name": "admin",
          "type": "address"
        },
        {
          "internalType": "uint256",
          "name": "cap",
          "type": "uint256"
        }
      ],
      "stateMutability": "nonpayable",
      "type": "constructor"
    },
    {
      "inputs": [],
      "name": "AccessControlBadConfirmation",
      "type": "error"
    },
    {
      "inputs": [
        {
          "internalType": "address",
          "name": "account",
          "type": "address"
        },
        {
          "internalType": "bytes32",
          "name": "neededRole",
          "type": "bytes32"
        }
      ],
      "name": "AccessControlUnauthorizedAccount",
      "type": "error"
    },
    {
      "inputs": [],
      "name": "ECDSAInvalidSignature",
      "type": "error"
    },
    {
      "inputs": [
        {
          "internalType": "uint256",
          "name": "length",
          "type": "uint256"
        }
      ],
      "name": "ECDSAInvalidSignatureLength",
      "type": "error"
    },
    {
      "inputs": [
        {
          "internalType": "bytes32",
          "name": "s",
          "type": "bytes32"
        }
      ],
      "name": "ECDSAInvalidSignatureS",
      "type": "error"
    },
    {
      "inputs": [
        {
          "internalType": "uint256",
          "name": "increasedSupply",
          "type": "uint256"
        },
        {
          "internalType": "uint256",
          "name": "cap",
          "type": "uint256"
        }
      ],
      "name": "ERC20ExceededCap",
      "type": "error"
    },
    {
      "inputs": [
        {
          "internalType": "address",
          "name": "spender",
          "type": "address"
        },
        {
          "internalType": "uint256",
          "name": "allowance",
          "type": "uint256"
        },
        {
          "internalType": "uint256",
          "name": "needed",
          "type": "uint256"
        }
      ],
      "name": "ERC20InsufficientAllowance",
      "type": "error"
    },
    {
      "inputs": [
        {
          "internalType": "address",
          "name": "sender",
          "type": "address"
        },
        {
          "internalType": "uint256",
          "name": "balance",
          "type": "uint256"
        },
        {
          "internalType": "uint256",
          "name": "needed",
          "type": "uint256"
        }
      ],
      "name": "ERC20InsufficientBalance",
      "type": "error"
    },
    {
      "inputs": [
        {
          "internalType": "address",
          "name": "approver",
          "type": "address"
        }
      ],
      "name": "ERC20InvalidApprover",
      "type": "error"
    },
    {
      "inputs": [
        {
          "internalType": "uint256",
          "name": "cap",
          "type": "uint256"
        }
      ],
      "name": "ERC20InvalidCap",
      "type": "error"
    },
    {
      "inputs": [
        {
          "internalType": "address",
          "name": "receiver",
          "type": "address"
        }
      ],
      "name": "ERC20InvalidReceiver",
      "type": "error"
    },
    {
      "inputs": [
        {
          "internalType": "address",
          "name": "sender",
          "type": "address"
        }
      ],
      "name": "ERC20InvalidSender",
      "type": "error"
    },
    {
      "inputs": [
        {
          "internalType": "address",
          "name": "spender",
          "type": "address"
        }
      ],
      "name": "ERC20InvalidSpender",
      "type": "error"
    },
    {
      "inputs": [
        {
          "internalType": "uint256",
          "name": "deadline",
          "type": "uint256"
        }
      ],
      "name": "ERC2612ExpiredSignature",
      "type": "error"
    },
    {
      "inputs": [
        {
          "internalType": "address",
          "name": "signer",
          "type": "address"
        },
        {
          "internalType": "address",
          "name": "owner",
          "type": "address"
        }
      ],
      "name": "ERC2612InvalidSigner",
      "type": "error"
    },
    {
      "inputs": [
        {
          "internalType": "address",
          "name": "account",
          "type": "address"
        },
        {
          "internalType": "uint256",
          "name": "currentNonce",
          "type": "uint256"
        }
      ],
      "name": "InvalidAccountNonce",
      "type": "error"
    },
    {
      "inputs": [],
      "name": "InvalidShortString",
      "type": "error"
    },
    {
      "inputs": [
        {
          "internalType": "string",
          "name": "str",
          "type": "string"
        }
      ],
      "name": "StringTooLong",
      "type": "error"
    },
    {
      "anonymous": false,
      "inputs": [
        {
          "indexed": true,
          "internalType": "address",
          "name": "owner",
          "type": "address"
        },
        {
          "indexed": true,
          "internalType": "address",
          "name": "spender",
          "type": "address"
        },
        {
          "indexed": false,
          "internalType": "uint256",
          "name": "value",
          "type": "uint256"
        }
      ],
      "name": "Approval",
      "type": "event"
    },
    {
      "anonymous": false,
      "inputs": [],
      "name": "EIP712DomainChanged",
      "type": "event"
    },
    {
      "anonymous": false,
      "inputs": [
        {
          "indexed": true,
          "internalType": "bytes32",
          "name": "role",
          "type": "bytes32"
        },
        {
          "indexed": true,
          "internalType": "bytes32",
          "name": "previousAdminRole",
          "type": "bytes32"
        },
        {
          "indexed": true,
          "internalType": "bytes32",
          "name": "newAdminRole",
          "type": "bytes32"
        }
      ],
      "name": "RoleAdminChanged",
      "type": "event"
    },
    {
      "anonymous": false,
      "inputs": [
        {
          "indexed": true,
          "internalType": "bytes32",
          "name": "role",
          "type": "bytes32"
        },
        {
          "indexed": true,
          "internalType": "address",
          "name": "account",
          "type": "address"
        },
        {
          "indexed": true,
          "internalType": "address",
          "name": "sender",
          "type": "address"
        }
      ],
      "name": "RoleGranted",
      "type": "event"
    },
    {
      "anonymous": false,
      "inputs": [
        {
          "indexed": true,
          "internalType": "bytes32",
          "name": "role",
          "type": "bytes32"
        },
        {
          "indexed": true,
          "internalType": "address",
          "name": "account",
          "type": "address"
        },
        {
          "indexed": true,
          "internalType": "address",
          "name": "sender",
          "type": "address"
        }
      ],
      "name": "RoleRevoked",
      "type": "event"
    },
    {
      "anonymous": false,
      "inputs": [
        {
          "indexed": true,
          "internalType": "address",
          "name": "from",
          "type": "address"
        },
        {
          "indexed": true,
          "internalType": "address",
          "name": "to",
          "type": "address"
        },
        {
          "indexed": false,
          "internalType": "uint256",
          "name": "value",
          "type": "uint256"
        }
      ],
      "name": "Transfer",
      "type": "event"
    },
    {
      "inputs": [],
      "name": "BURNER_ROLE",
      "outputs": [
        {
          "internalType": "bytes32",
          "name": "",
          "type": "bytes32"
        }
      ],
      "stateMutability": "view",
      "type": "function"
    },
    {
      "inputs": [],
      "name": "DEFAULT_ADMIN_ROLE",
      "outputs": [
        {
          "internalType": "bytes32",
          "name": "",
          "type": "bytes32"
        }
      ],
      "stateMutability": "view",
      "type": "function"
    },
    {
      "inputs": [],
      "name": "DOMAIN_SEPARATOR",
      "outputs": [
        {
          "internalType": "bytes32",
          "name": "",
          "type": "bytes32"
        }
      ],
      "stateMutability": "view",
      "type": "function"
    },
    {
      "inputs": [],
      "name": "MINTER_ROLE",
      "outputs": [
        {
          "internalType": "bytes32",
          "name": "",
          "type": "bytes32"
        }
      ],
      "stateMutability": "view",
      "type": "function"
    },
    {
      "inputs": [
        {
          "internalType": "address",
          "name": "owner",
          "type": "address"
        },
        {
          "internalType": "address",
          "name": "spender",
          "type": "address"
        }
      ],
      "name": "allowance",
      "outputs": [
        {
          "internalType": "uint256",
          "name": "",
          "type": "uint256"
        }
      ],
      "stateMutability": "view",
      "type": "function"
    },
    {
      "inputs": [
        {
          "internalType": "address",
          "name": "spender",
          "type": "address"
        },
        {
          "internalType": "uint256",
          "name": "value",
          "type": "uint256"
        }
      ],
      "name": "approve",
      "outputs": [
        {
          "internalType": "bool",
          "name": "",
          "type": "bool"
        }
      ],
      "stateMutability": "nonpayable",
      "type": "function"
    },
    {
      "inputs": [
        {
          "internalType": "address",
          "name": "account",
          "type": "address"
        }
      ],
      "name": "balanceOf",
      "outputs": [
        {
          "internalType": "uint256",
          "name": "",
          "type": "uint256"
        }
      ],
      "stateMutability": "view",
      "type": "function"
    },
    {
      "inputs": [
        {
          "internalType": "address",
          "name": "from",
          "type": "address"
        },
        {
          "internalType": "uint256",
          "name": "amount",
          "type": "uint256"
        }
      ],
      "name": "burn",
      "outputs": [],
      "stateMutability": "nonpayable",
      "type": "function"
    },
    {
      "inputs": [],
      "name": "cap",
      "outputs": [
        {
          "internalType": "uint256",
          "name": "",
          "type": "uint256"
        }
      ],
      "stateMutability": "view",
      "type": "function"
    },
    {
      "inputs": [],
      "name": "decimals",
      "outputs": [
        {
          "internalType": "uint8",
          "name": "",
          "type": "uint8"
        }
      ],
      "stateMutability": "view",
      "type": "function"
    },
    {
      "inputs": [],
      "name": "eip712Domain",
      "outputs": [
        {
          "internalType": "bytes1",
          "name": "fields",
          "type": "bytes1"
        },
        {
          "internalType": "string",
          "name": "name",
          "type": "string"
        },
        {
          "internalType": "string",
          "name": "version",
          "type": "string"
        },
        {
          "internalType": "uint256",
          "name": "chainId",
          "type": "uint256"
        },
        {
          "internalType": "address",
          "name": "verifyingContract",
          "type": "address"
        },
        {
          "internalType": "bytes32",
          "name": "salt",
          "type": "bytes32"
        },
        {
          "internalType": "uint256[]",
          "name": "extensions",
          "type": "uint256[]"
        }
      ],
      "stateMutability": "view",
      "type": "function"
    },
    {
      "inputs": [
        {
          "internalType": "bytes32",
          "name": "role",
          "type": "bytes32"
        }
      ],
      "name": "getRoleAdmin",
      "outputs": [
        {
          "internalType": "bytes32",
          "name": "",
          "type": "bytes32"
        }
      ],
      "stateMutability": "view",
      "type": "function"
    },
    {
      "inputs": [
        {
          "internalType": "bytes32",
          "name": "role",
          "type": "bytes32"
        },
        {
          "internalType": "address",
          "name": "account",
          "type": "address"
        }
      ],
      "name": "grantRole",
      "outputs": [],
      "stateMutability": "nonpayable",
      "type": "function"
    },
    {
      "inputs": [
        {
          "internalType": "bytes32",
          "name": "role",
          "type": "bytes32"
        },
        {
          "internalType": "address",
          "name": "account",
          "type": "address"
        }
      ],
      "name": "hasRole",
      "outputs": [
        {
          "internalType": "bool",
          "name": "",
          "type": "bool"
        }
      ],
      "stateMutability": "view",
      "type": "function"
    },
    {
      "inputs": [
        {
          "internalType": "address",
          "name": "to",
          "type": "address"
        },
        {
          "internalType": "uint256",
          "name": "amount",
          "type": "uint256"
        }
      ],
      "name": "mint",
      "outputs": [],
      "stateMutability": "nonpayable",
      "type": "function"
    },
    {
      "inputs": [],
      "name": "name",
      "outputs": [
        {
          "internalType": "string",
          "name": "",
          "type": "string"
        }
      ],
      "stateMutability": "view",
      "type": "function"
    },
    {
      "inputs": [
        {
          "internalType": "address",
          "name": "owner",
          "type": "address"
        }
      ],
      "name": "nonces",
      "outputs": [
        {
          "internalType": "uint256",
          "name": "",
          "type": "uint256"
        }
      ],
      "stateMutability": "view",
      "type": "function"
    },
    {
      "inputs": [
        {
          "internalType": "address",
          "name": "owner",
          "type": "address"
        },
        {
          "internalType": "address",
          "name": "spender",
          "type": "address"
        },
        {
          "internalType": "uint256",
          "name": "value",
          "type": "uint256"
        },
        {
          "internalType": "uint256",
          "name": "deadline",
          "type": "uint256"
        },
        {
          "internalType": "uint8",
          "name": "v",
          "type": "uint8"
        },
        {
          "internalType": "bytes32",
          "name": "r",
          "type": "bytes32"
        },
        {
          "internalType": "bytes32",
          "name": "s",
          "type": "bytes32"
        }
      ],
      "name": "permit",
      "outputs": [],
      "stateMutability": "nonpayable",
      "type": "function"
    },
    {
      "inputs": [
        {
          "internalType": "bytes32",
          "name": "role",
          "type": "bytes32"
        },
        {
          "internalType": "address",
          "name": "callerConfirmation",
          "type": "address"
        }
      ],
      "name": "renounceRole",
      "outputs": [],
      "stateMutability": "nonpayable",
      "type": "function"
    },
    {
      "inputs": [
        {
          "internalType": "bytes32",
          "name": "role",
          "type": "bytes32"
        },
        {
          "internalType": "address",
          "name": "account",
          "type": "address"
        }
      ],
      "name": "revokeRole",
      "outputs": [],
      "stateMutability": "nonpayable",
      "type": "function"
    },
    {
      "inputs": [
        {
          "internalType": "bytes4",
          "name": "interfaceId",
          "type": "bytes4"
        }
      ],
      "name": "supportsInterface",
      "outputs": [
        {
          "internalType": "bool",
          "name": "",
          "type": "bool"
        }
      ],
      "stateMutability": "view",
      "type": "function"
    },
    {
      "inputs": [],
      "name": "symbol",
      "outputs": [
        {
          "internalType": "string",
          "name": "",
          "type": "string"
        }
      ],
      "stateMutability": "view",
      "type": "function"
    },
    {
      "inputs": [],
      "name": "totalSupply",
      "outputs": [
        {
          "internalType": "uint256",
          "name": "",
          "type": "uint256"
        }
      ],
      "stateMutability": "view",
      "type": "function"
    },
    {
      "inputs": [
        {
          "internalType": "address",
          "name": "to",
          "type": "address"
        },
        {
          "internalType": "uint256",
          "name": "value",
          "type": "uint256"
        }
      ],
      "name": "transfer",
      "outputs": [
        {
          "internalType": "bool",
          "name": "",
          "type": "bool"
        }
      ],
      "stateMutability": "nonpayable",
      "type": "function"
    },
    {
      "inputs": [
        {
          "internalType": "address",
          "name": "from",
          "type": "address"
        },
        {
          "internalType": "address",
          "name": "to",
          "type": "address"
        },
        {
          "internalType": "uint256",
          "name": "value",
          "type": "uint256"
        }
      ],
      "name": "transferFrom",
      "outputs": [
        {
          "internalType": "bool",
          "name": "",
          "type": "bool"
        }
      ],
      "stateMutability": "nonpayable",
      "type": "function"
    }
  ],
  "bytecode": "0x61018060405234801561001157600080fd5b50604051613258380380613258833981810160405281019061003391906105ce565b806040518060400160405280600381526020017f4347540000000000000000000000000000000000000000000000000000000000815250806040518060400160405280600181526020017f31000000000000000000000000000000000000000000000000000000000000008152506040518060400160405280601281526020017f436172626f6e20477561726420546f6b656e00000000000000000000000000008152506040518060400160405280600381526020017f4347540000000000000000000000000000000000000000000000000000000000815250816003908161011c9190610854565b50806004908161012c9190610854565b5050506101436005836102a760201b90919060201c565b610120818152505061015f6006826102a760201b90919060201c565b6101408181525050818051906020012060e08181525050808051906020012061010081815250504660a0818152505061019c6102f760201b60201c565b608081815250503073ffffffffffffffffffffffffffffffffffffffff1660c08173ffffffffffffffffffffffffffffffffffffffff1681525050505050600081036102205760006040517f392e1e270000000000000000000000000000000000000000000000000000000081526004016102179190610961565b60405180910390fd5b8061016081815250505061023d6000801b8361035260201b60201c565b5061026e7f9f2df0fed2c77648de5860a4cc508cd0818c85b8b8a1ab4ceeef8d981c8956a68361035260201b60201c565b5061029f7f3c11d16cbaffd01df69ce1c404f6340ee057498f5f00246190ea54220576a8488361035260201b60201c565b505050610b44565b60006020835110156102c9576102c28361045060201b60201c565b90506102f1565b826102d9836104b860201b60201c565b60000190816102e89190610854565b5060ff60001b90505b92915050565b60007f8b73c3c69bb8fe3d512ecc4cf759cc79239f7b179b0ffacaa9a75d522b39400f60e0516101005146306040516020016103379594939291906109b3565b60405160208183030381529060405280519060200120905090565b600061036483836104c260201b60201c565b6104455760016008600085815260200190815260200160002060000160008473ffffffffffffffffffffffffffffffffffffffff1673ffffffffffffffffffffffffffffffffffffffff16815260200190815260200160002060006101000a81548160ff0219169083151502179055506103e261052d60201b60201c565b73ffffffffffffffffffffffffffffffffffffffff168273ffffffffffffffffffffffffffffffffffffffff16847f2f8788117e7eff1d82e926ec794901d17c78024a50270940304540a733656f0d60405160405180910390a46001905061044a565b600090505b92915050565b600080829050601f8151111561049d57826040517f305a27a90000000000000000000000000000000000000000000000000000000081526004016104949190610a8b565b60405180910390fd5b8051816104a990610add565b60001c1760001b915050919050565b6000819050919050565b60006008600084815260200190815260200160002060000160008373ffffffffffffffffffffffffffffffffffffffff1673ffffffffffffffffffffffffffffffffffffffff16815260200190815260200160002060009054906101000a900460ff16905092915050565b600033905090565b600080fd5b600073ffffffffffffffffffffffffffffffffffffffff82169050919050565b60006105658261053a565b9050919050565b6105758161055a565b811461058057600080fd5b50565b6000815190506105928161056c565b92915050565b6000819050919050565b6105ab81610598565b81146105b657600080fd5b50565b6000815190506105c8816105a2565b92915050565b600080604083850312156105e5576105e4610535565b5b60006105f385828601610583565b9250506020610604858286016105b9565b9150509250929050565b600081519050919050565b7f4e487b7100000000000000000000000000000000000000000000000000000000600052604160045260246000fd5b7f4e487b7100000000000000000000000000000000000000000000000000000000600052602260045260246000fd5b6000600282049050600182168061068f57607f821691505b6020821081036106a2576106a1610648565b5b50919050565b60008190508160005260206000209050919050565b60006020601f8301049050919050565b600082821b905092915050565b60006008830261070a7fffffffffffffffffffffffffffffffffffffffffffffffffffffffffffffffff826106cd565b61071486836106cd565b95508019841693508086168417925050509392505050565b6000819050919050565b600061075161074c61074784610598565b61072c565b610598565b9050919050565b6000819050919050565b61076b83610736565b61077f61077782610758565b8484546106da565b825550505050565b600090565b610794610787565b61079f818484610762565b505050565b5b818110156107c3576107b860008261078c565b6001810190506107a5565b5050565b601f821115610808576107d9816106a8565b6107e2846106bd565b810160208510156107f1578190505b6108056107fd856106bd565b8301826107a4565b50505b505050565b600082821c905092915050565b600061082b6000198460080261080d565b1980831691505092915050565b6000610844838361081a565b9150826002028217905092915050565b61085d8261060e565b67ffffffffffffffff81111561087657610875610619565b5b6108808254610677565b61088b8282856107c7565b600060209050601f8311600181146108be57600084156108ac578287015190505b6108b68582610838565b86555061091e565b601f1984166108cc866106a8565b60005b828110156108f4578489015182556001820191506020850194506020810190506108cf565b86831015610911578489015161090d601f89168261081a565b8355505b6001600288020188555050505b505050505050565b6000819050919050565b600061094b61094661094184610926565b61072c565b610598565b9050919050565b61095b81610930565b82525050565b60006020820190506109766000830184610952565b92915050565b6000819050919050565b61098f8161097c565b82525050565b61099e81610598565b82525050565b6109ad8161055a565b82525050565b600060a0820190506109c86000830188610986565b6109d56020830187610986565b6109e26040830186610986565b6109ef6060830185610995565b6109fc60808301846109a4565b9695505050505050565b600082825260208201905092915050565b60005b83811015610a35578082015181840152602081019050610a1a565b60008484015250505050565b6000601f19601f8301169050919050565b6000610a5d8261060e565b610a678185610a06565b9350610a77818560208601610a17565b610a8081610a41565b840191505092915050565b60006020820190508181036000830152610aa58184610a52565b905092915050565b600081519050919050565b6000819050602082019050919050565b6000610ad4825161097c565b80915050919050565b6000610ae882610aad565b82610af284610ab8565b9050610afd81610ac8565b92506020821015610b3d57610b387fffffffffffffffffffffffffffffffffffffffffffffffffffffffffffffffff836020036008026106cd565b831692505b5050919050565b60805160a05160c05160e051610100516101205161014051610160516126af610ba960003960006106dd01526000611209015260006111ce015260006115dc015260006115bb01526000610f5401526000610faa01526000610fd301526126af6000f3fe608060405234801561001057600080fd5b50600436106101735760003560e01c806340c10f19116100de5780639dc29fac11610097578063d505accf11610071578063d505accf1461047c578063d539139314610498578063d547741f146104b6578063dd62ed3e146104d257610173565b80639dc29fac14610412578063a217fddf1461042e578063a9059cbb1461044c57610173565b806340c10f191461032457806370a08231146103405780637ecebe001461037057806384b0196e146103a057806391d14854146103c457806395d89b41146103f457610173565b8063282c51f311610130578063282c51f3146102745780632f2ff15d14610292578063313ce567146102ae578063355274ea146102cc5780633644e515146102ea57806336568abe1461030857610173565b806301ffc9a71461017857806306fdde03146101a8578063095ea7b3146101c657806318160ddd146101f657806323b872dd14610214578063248a9ca314610244575b600080fd5b610192600480360381019061018d9190611d61565b610502565b60405161019f9190611da9565b60405180910390f35b6101b061057c565b6040516101bd9190611e54565b60405180910390f35b6101e060048036038101906101db9190611f0a565b61060e565b6040516101ed9190611da9565b60405180910390f35b6101fe610631565b60405161020b9190611f59565b60405180910390f35b61022e60048036038101906102299190611f74565b61063b565b60405161023b9190611da9565b60405180910390f35b61025e60048036038101906102599190611ffd565b61066a565b60405161026b9190612039565b60405180910390f35b61027c61068a565b6040516102899190612039565b60405180910390f35b6102ac60048036038101906102a79190612054565b6106ae565b005b6102b66106d0565b6040516102c391906120b0565b60405180910390f35b6102d46106d9565b6040516102e19190611f59565b60405180910390f35b6102f2610701565b6040516102ff9190612039565b60405180910390f35b610322600480360381019061031d9190612054565b610710565b005b61033e60048036038101906103399190611f0a565b61078b565b005b61035a600480360381019061035591906120cb565b6107c4565b6040516103679190611f59565b60405180910390f35b61038a600480360381019061038591906120cb565b61080c565b6040516103979190611f59565b60405180910390f35b6103a861081e565b6040516103bb9796959493929190612200565b60405180910390f35b6103de60048036038101906103d99190612054565b6108c8565b6040516103eb9190611da9565b60405180910390f35b6103fc610933565b6040516104099190611e54565b60405180910390f35b61042c60048036038101906104279190611f0a565b6109c5565b005b6104366109fe565b6040516104439190612039565b60405180910390f35b61046660048036038101906104619190611f0a565b610a05565b6040516104739190611da9565b60405180910390f35b610496600480360381019061049191906122b0565b610a28565b005b6104a0610b70565b6040516104ad9190612039565b60405180910390f35b6104d060048036038101906104cb9190612054565b610b94565b005b6104ec60048036038101906104e79190612352565b610bb6565b6040516104f99190611f59565b60405180910390f35b60007f7965db0b000000000000000000000000000000000000000000000000000000007bffffffffffffffffffffffffffffffffffffffffffffffffffffffff1916827bffffffffffffffffffffffffffffffffffffffffffffffffffffffff19161480610575575061057482610c3d565b5b9050919050565b60606003805461058b906123c1565b80601f01602080910402602001604051908101604052809291908181526020018280546105b7906123c1565b80156106045780601f106105d957610100808354040283529160200191610604565b820191906000526020600020905b8154815290600101906020018083116105e757829003601f168201915b5050505050905090565b600080610619610ca7565b9050610626818585610caf565b600191505092915050565b6000600254905090565b600080610646610ca7565b9050610653858285610cc1565b61065e858585610d56565b60019150509392505050565b600060086000838152602001908152602001600020600101549050919050565b7f3c11d16cbaffd01df69ce1c404f6340ee057498f5f00246190ea54220576a84881565b6106b78261066a565b6106c081610e4a565b6106ca8383610e5e565b50505050565b60006012905090565b60007f0000000000000000000000000000000000000000000000000000000000000000905090565b600061070b610f50565b905090565b610718610ca7565b73ffffffffffffffffffffffffffffffffffffffff168173ffffffffffffffffffffffffffffffffffffffff161461077c576040517f6697b23200000000000000000000000000000000000000000000000000000000815260040160405180910390fd5b6107868282611007565b505050565b7f9f2df0fed2c77648de5860a4cc508cd0818c85b8b8a1ab4ceeef8d981c8956a66107b581610e4a565b6107bf83836110fa565b505050565b60008060008373ffffffffffffffffffffffffffffffffffffffff1673ffffffffffffffffffffffffffffffffffffffff168152602001908152602001600020549050919050565b60006108178261117c565b9050919050565b6000606080600080600060606108326111c5565b61083a611200565b46306000801b600067ffffffffffffffff81111561085b5761085a6123f2565b5b6040519080825280602002602001820160405280156108895781602001602082028036833780820191505090505b507f0f00000000000000000000000000000000000000000000000000000000000000959493929190965096509650965096509650965090919293949596565b60006008600084815260200190815260200160002060000160008373ffffffffffffffffffffffffffffffffffffffff1673ffffffffffffffffffffffffffffffffffffffff16815260200190815260200160002060009054906101000a900460ff16905092915050565b606060048054610942906123c1565b80601f016020809104026020016040519081016040528092919081815260200182805461096e906123c1565b80156109bb5780601f10610990576101008083540402835291602001916109bb565b820191906000526020600020905b81548152906001019060200180831161099e57829003601f168201915b5050505050905090565b7f3c11d16cbaffd01df69ce1c404f6340ee057498f5f00246190ea54220576a8486109ef81610e4a565b6109f9838361123b565b505050565b6000801b81565b600080610a10610ca7565b9050610a1d818585610d56565b600191505092915050565b83421115610a6d57836040517f62791302000000000000000000000000000000000000000000000000000000008152600401610a649190611f59565b60405180910390fd5b60007f6e71edae12b1b97f4d1f60370fef10105fa2faae0126114a169c64845d6126c9888888610a9c8c6112bd565b89604051602001610ab296959493929190612421565b6040516020818303038152906040528051906020012090506000610ad582611314565b90506000610ae58287878761132e565b90508973ffffffffffffffffffffffffffffffffffffffff168173ffffffffffffffffffffffffffffffffffffffff1614610b5957808a6040517f4b800e46000000000000000000000000000000000000000000000000000000008152600401610b50929190612482565b60405180910390fd5b610b648a8a8a610caf565b50505050505050505050565b7f9f2df0fed2c77648de5860a4cc508cd0818c85b8b8a1ab4ceeef8d981c8956a681565b610b9d8261066a565b610ba681610e4a565b610bb08383611007565b50505050565b6000600160008473ffffffffffffffffffffffffffffffffffffffff1673ffffffffffffffffffffffffffffffffffffffff16815260200190815260200160002060008373ffffffffffffffffffffffffffffffffffffffff1673ffffffffffffffffffffffffffffffffffffffff16815260200190815260200160002054905092915050565b60007f01ffc9a7000000000000000000000000000000000000000000000000000000007bffffffffffffffffffffffffffffffffffffffffffffffffffffffff1916827bffffffffffffffffffffffffffffffffffffffffffffffffffffffff1916149050919050565b600033905090565b610cbc838383600161135e565b505050565b6000610ccd8484610bb6565b90507fffffffffffffffffffffffffffffffffffffffffffffffffffffffffffffffff811015610d505781811015610d40578281836040517ffb8f41b2000000000000000000000000000000000000000000000000000000008152600401610d37939291906124ab565b60405180910390fd5b610d4f8484848403600061135e565b5b50505050565b600073ffffffffffffffffffffffffffffffffffffffff168373ffffffffffffffffffffffffffffffffffffffff1603610dc85760006040517f96c6fd1e000000000000000000000000000000000000000000000000000000008152600401610dbf91906124e2565b60405180910390fd5b600073ffffffffffffffffffffffffffffffffffffffff168273ffffffffffffffffffffffffffffffffffffffff1603610e3a5760006040517fec442f05000000000000000000000000000000000000000000000000000000008152600401610e3191906124e2565b60405180910390fd5b610e45838383611535565b505050565b610e5b81610e56610ca7565b611545565b50565b6000610e6a83836108c8565b610f455760016008600085815260200190815260200160002060000160008473ffffffffffffffffffffffffffffffffffffffff1673ffffffffffffffffffffffffffffffffffffffff16815260200190815260200160002060006101000a81548160ff021916908315150217905550610ee2610ca7565b73ffffffffffffffffffffffffffffffffffffffff168273ffffffffffffffffffffffffffffffffffffffff16847f2f8788117e7eff1d82e926ec794901d17c78024a50270940304540a733656f0d60405160405180910390a460019050610f4a565b600090505b92915050565b60007f000000000000000000000000000000000000000000000000000000000000000073ffffffffffffffffffffffffffffffffffffffff163073ffffffffffffffffffffffffffffffffffffffff16148015610fcc57507f000000000000000000000000000000000000000000000000000000000000000046145b15610ff9577f00000000000000000000000000000000000000000000000000000000000000009050611004565b611001611596565b90505b90565b600061101383836108c8565b156110ef5760006008600085815260200190815260200160002060000160008473ffffffffffffffffffffffffffffffffffffffff1673ffffffffffffffffffffffffffffffffffffffff16815260200190815260200160002060006101000a81548160ff02191690831515021790555061108c610ca7565b73ffffffffffffffffffffffffffffffffffffffff168273ffffffffffffffffffffffffffffffffffffffff16847ff6391f5c32d9c69d2a47ea670b442974b53935d1edc7fd64eb21e047a839171b60405160405180910390a4600190506110f4565b600090505b92915050565b600073ffffffffffffffffffffffffffffffffffffffff168273ffffffffffffffffffffffffffffffffffffffff160361116c5760006040517fec442f0500000000000000000000000000000000000000000000000000000000815260040161116391906124e2565b60405180910390fd5b61117860008383611535565b5050565b6000600760008373ffffffffffffffffffffffffffffffffffffffff1673ffffffffffffffffffffffffffffffffffffffff168152602001908152602001600020549050919050565b60606111fb60057f000000000000000000000000000000000000000000000000000000000000000061162c90919063ffffffff16565b905090565b606061123660067f000000000000000000000000000000000000000000000000000000000000000061162c90919063ffffffff16565b905090565b600073ffffffffffffffffffffffffffffffffffffffff168273ffffffffffffffffffffffffffffffffffffffff16036112ad5760006040517f96c6fd1e0000000000000000000000000000000000000000000000000000000081526004016112a491906124e2565b60405180910390fd5b6112b982600083611535565b5050565b6000600760008373ffffffffffffffffffffffffffffffffffffffff1673ffffffffffffffffffffffffffffffffffffffff1681526020019081526020016000206000815480929190600101919050559050919050565b6000611327611321610f50565b836116dc565b9050919050565b6000806000806113408888888861171d565b9250925092506113508282611811565b829350505050949350505050565b600073ffffffffffffffffffffffffffffffffffffffff168473ffffffffffffffffffffffffffffffffffffffff16036113d05760006040517fe602df050000000000000000000000000000000000000000000000000000000081526004016113c791906124e2565b60405180910390fd5b600073ffffffffffffffffffffffffffffffffffffffff168373ffffffffffffffffffffffffffffffffffffffff16036114425760006040517f94280d6200000000000000000000000000000000000000000000000000000000815260040161143991906124e2565b60405180910390fd5b81600160008673ffffffffffffffffffffffffffffffffffffffff1673ffffffffffffffffffffffffffffffffffffffff16815260200190815260200160002060008573ffffffffffffffffffffffffffffffffffffffff1673ffffffffffffffffffffffffffffffffffffffff16815260200190815260200160002081905550801561152f578273ffffffffffffffffffffffffffffffffffffffff168473ffffffffffffffffffffffffffffffffffffffff167f8c5be1e5ebec7d5bd14f71427d1e84f3dd0314c0f7b2291e5b200ac8c7c3b925846040516115269190611f59565b60405180910390a35b50505050565b611540838383611975565b505050565b61154f82826108c8565b6115925780826040517fe2517d3f0000000000000000000000000000000000000000000000000000000081526004016115899291906124fd565b60405180910390fd5b5050565b60007f8b73c3c69bb8fe3d512ecc4cf759cc79239f7b179b0ffacaa9a75d522b39400f7f00000000000000000000000000000000000000000000000000000000000000007f00000000000000000000000000000000000000000000000000000000000000004630604051602001611611959493929190612526565b60405160208183030381529060405280519060200120905090565b606060ff60001b83146116495761164283611a1b565b90506116d6565b818054611655906123c1565b80601f0160208091040260200160405190810160405280929190818152602001828054611681906123c1565b80156116ce5780601f106116a3576101008083540402835291602001916116ce565b820191906000526020600020905b8154815290600101906020018083116116b157829003601f168201915b505050505090505b92915050565b60006040517f190100000000000000000000000000000000000000000000000000000000000081528360028201528260228201526042812091505092915050565b60008060007f7fffffffffffffffffffffffffffffff5d576e7357a4501ddfe92f46681b20a08460001c111561175d576000600385925092509250611807565b6000600188888888604051600081526020016040526040516117829493929190612579565b6020604051602081039080840390855afa1580156117a4573d6000803e3d6000fd5b505050602060405103519050600073ffffffffffffffffffffffffffffffffffffffff168173ffffffffffffffffffffffffffffffffffffffff16036117f857600060016000801b93509350935050611807565b8060008060001b935093509350505b9450945094915050565b60006003811115611825576118246125be565b5b826003811115611838576118376125be565b5b03156119715760016003811115611852576118516125be565b5b826003811115611865576118646125be565b5b0361189c576040517ff645eedf00000000000000000000000000000000000000000000000000000000815260040160405180910390fd5b600260038111156118b0576118af6125be565b5b8260038111156118c3576118c26125be565b5b03611908578060001c6040517ffce698f70000000000000000000000000000000000000000000000000000000081526004016118ff9190611f59565b60405180910390fd5b60038081111561191b5761191a6125be565b5b82600381111561192e5761192d6125be565b5b0361197057806040517fd78bce0c0000000000000000000000000000000000000000000000000000000081526004016119679190612039565b60405180910390fd5b5b5050565b611980838383611a8f565b600073ffffffffffffffffffffffffffffffffffffffff168373ffffffffffffffffffffffffffffffffffffffff1603611a165760006119be6106d9565b905060006119ca610631565b905081811115611a135780826040517f9e79f854000000000000000000000000000000000000000000000000000000008152600401611a0a9291906125ed565b60405180910390fd5b50505b505050565b60606000611a2883611cb4565b90506000602067ffffffffffffffff811115611a4757611a466123f2565b5b6040519080825280601f01601f191660200182016040528015611a795781602001600182028036833780820191505090505b5090508181528360208201528092505050919050565b600073ffffffffffffffffffffffffffffffffffffffff168373ffffffffffffffffffffffffffffffffffffffff1603611ae1578060026000828254611ad59190612645565b92505081905550611bb4565b60008060008573ffffffffffffffffffffffffffffffffffffffff1673ffffffffffffffffffffffffffffffffffffffff16815260200190815260200160002054905081811015611b6d578381836040517fe450d38c000000000000000000000000000000000000000000000000000000008152600401611b64939291906124ab565b60405180910390fd5b8181036000808673ffffffffffffffffffffffffffffffffffffffff1673ffffffffffffffffffffffffffffffffffffffff16815260200190815260200160002081905550505b600073ffffffffffffffffffffffffffffffffffffffff168273ffffffffffffffffffffffffffffffffffffffff1603611bfd5780600260008282540392505081905550611c4a565b806000808473ffffffffffffffffffffffffffffffffffffffff1673ffffffffffffffffffffffffffffffffffffffff168152602001908152602001600020600082825401925050819055505b8173ffffffffffffffffffffffffffffffffffffffff168373ffffffffffffffffffffffffffffffffffffffff167fddf252ad1be2c89b69c2b068fc378daa952ba7f163c4a11628f55a4df523b3ef83604051611ca79190611f59565b60405180910390a3505050565b60008060ff8360001c169050601f811115611cfb576040517fb3512b0c00000000000000000000000000000000000000000000000000000000815260040160405180910390fd5b80915050919050565b600080fd5b60007fffffffff0000000000000000000000000000000000000000000000000000000082169050919050565b611d3e81611d09565b8114611d4957600080fd5b50565b600081359050611d5b81611d35565b92915050565b600060208284031215611d7757611d76611d04565b5b6000611d8584828501611d4c565b91505092915050565b60008115159050919050565b611da381611d8e565b82525050565b6000602082019050611dbe6000830184611d9a565b92915050565b600081519050919050565b600082825260208201905092915050565b60005b83811015611dfe578082015181840152602081019050611de3565b60008484015250505050565b6000601f19601f8301169050919050565b6000611e2682611dc4565b611e308185611dcf565b9350611e40818560208601611de0565b611e4981611e0a565b840191505092915050565b60006020820190508181036000830152611e6e8184611e1b565b905092915050565b600073ffffffffffffffffffffffffffffffffffffffff82169050919050565b6000611ea182611e76565b9050919050565b611eb181611e96565b8114611ebc57600080fd5b50565b600081359050611ece81611ea8565b92915050565b6000819050919050565b611ee781611ed4565b8114611ef257600080fd5b50565b600081359050611f0481611ede565b92915050565b60008060408385031215611f2157611f20611d04565b5b6000611f2f85828601611ebf565b9250506020611f4085828601611ef5565b9150509250929050565b611f5381611ed4565b82525050565b6000602082019050611f6e6000830184611f4a565b92915050565b600080600060608486031215611f8d57611f8c611d04565b5b6000611f9b86828701611ebf565b9350506020611fac86828701611ebf565b9250506040611fbd86828701611ef5565b9150509250925092565b6000819050919050565b611fda81611fc7565b8114611fe557600080fd5b50565b600081359050611ff781611fd1565b92915050565b60006020828403121561201357612012611d04565b5b600061202184828501611fe8565b91505092915050565b61203381611fc7565b82525050565b600060208201905061204e600083018461202a565b92915050565b6000806040838503121561206b5761206a611d04565b5b600061207985828601611fe8565b925050602061208a85828601611ebf565b9150509250929050565b600060ff82169050919050565b6120aa81612094565b82525050565b60006020820190506120c560008301846120a1565b92915050565b6000602082840312156120e1576120e0611d04565b5b60006120ef84828501611ebf565b91505092915050565b60007fff0000000000000000000000000000000000000000000000000000000000000082169050919050565b61212d816120f8565b82525050565b61213c81611e96565b82525050565b600081519050919050565b600082825260208201905092915050565b6000819050602082019050919050565b61217781611ed4565b82525050565b6000612189838361216e565b60208301905092915050565b6000602082019050919050565b60006121ad82612142565b6121b7818561214d565b93506121c28361215e565b8060005b838110156121f35781516121da888261217d565b97506121e583612195565b9250506001810190506121c6565b5085935050505092915050565b600060e082019050612215600083018a612124565b81810360208301526122278189611e1b565b9050818103604083015261223b8188611e1b565b905061224a6060830187611f4a565b6122576080830186612133565b61226460a083018561202a565b81810360c083015261227681846121a2565b905098975050505050505050565b61228d81612094565b811461229857600080fd5b50565b6000813590506122aa81612284565b92915050565b600080600080600080600060e0888a0312156122cf576122ce611d04565b5b60006122dd8a828b01611ebf565b97505060206122ee8a828b01611ebf565b96505060406122ff8a828b01611ef5565b95505060606123108a828b01611ef5565b94505060806123218a828b0161229b565b93505060a06123328a828b01611fe8565b92505060c06123438a828b01611fe8565b91505092959891949750929550565b6000806040838503121561236957612368611d04565b5b600061237785828601611ebf565b925050602061238885828601611ebf565b9150509250929050565b7f4e487b7100000000000000000000000000000000000000000000000000000000600052602260045260246000fd5b600060028204905060018216806123d957607f821691505b6020821081036123ec576123eb612392565b5b50919050565b7f4e487b7100000000000000000000000000000000000000000000000000000000600052604160045260246000fd5b600060c082019050612436600083018961202a565b6124436020830188612133565b6124506040830187612133565b61245d6060830186611f4a565b61246a6080830185611f4a565b61247760a0830184611f4a565b979650505050505050565b60006040820190506124976000830185612133565b6124a46020830184612133565b9392505050565b60006060820190506124c06000830186612133565b6124cd6020830185611f4a565b6124da6040830184611f4a565b949350505050565b60006020820190506124f76000830184612133565b92915050565b60006040820190506125126000830185612133565b61251f602083018461202a565b9392505050565b600060a08201905061253b600083018861202a565b612548602083018761202a565b612555604083018661202a565b6125626060830185611f4a565b61256f6080830184612133565b9695505050505050565b600060808201905061258e600083018761202a565b61259b60208301866120a1565b6125a8604083018561202a565b6125b5606083018461202a565b95945050505050565b7f4e487b7100000000000000000000000000000000000000000000000000000000600052602160045260246000fd5b60006040820190506126026000830185611f4a565b61260f6020830184611f4a565b9392505050565b7f4e487b7100000000000000000000000000000000000000000000000000000000600052601160045260246000fd5b600061265082611ed4565b915061265b83611ed4565b925082820190508082111561267357612672612616565b5b9291505056fea2646970667358221220cb3eb844bba974d812dc542acf886059c8819fcc196078ece5dd2c69959d67c664736f6c634300081c0033",
  "linkReferences": {},
  "deployedLinkReferences": {}
}