{
  "_format": "hh-sol-artifact-1",
  "contractName": "GeoToken",
  "sourceName": "contracts/GeoToken.sol",
  "abi": [
    {
      "inputs": [
        {
          "internalType": "address",
          "name": "admin",
          "type": "address"
        },
        {
          "internalType": "uint256",
          "name": "cap",
          "type": "uint256"
        }
      ],
      "stateMutability": "nonpayable",
      "type": "constructor"
    },
    {
      "inputs": [],
      "name": "AccessControlBadConfirmation",
      "type": "error"
    },
    {
      "inputs": [
        {
          "internalType": "address",
          "name": "account",
          "type": "address"
        },
        {
          "internalType": "bytes32",
          "name": "neededRole",
          "type": "bytes32"
        }
      ],
      "name": "AccessControlUnauthorizedAccount",
      "type": "error"
    },
    {
      "inputs": [],
      "name": "ECDSAInvalidSignature",
      "type": "error"
    },
    {
      "inputs": [
        {
          "internalType": "uint256",
          "name": "length",
          "type": "uint256"
        }
      ],
      "name": "ECDSAInvalidSignatureLength",
      "type": "error"
    },
    {
      "inputs": [
        {
          "internalType": "bytes32",
          "name": "s",
          "type": "bytes32"
        }
      ],
      "name": "ECDSAInvalidSignatureS",
      "type": "error"
    },
    {
      "inputs": [
        {
          "internalType": "uint256",
          "name": "increasedSupply",
          "type": "uint256"
        },
        {
          "internalType": "uint256",
          "name": "cap",
          "type": "uint256"
        }
      ],
      "name": "ERC20ExceededCap",
      "type": "error"
    },
    {
      "inputs": [
        {
          "internalType": "address",
          "name": "spender",
          "type": "address"
        },
        {
          "internalType": "uint256",
          "name": "allowance",
          "type": "uint256"
        },
        {
          "internalType": "uint256",
          "name": "needed",
          "type": "uint256"
        }
      ],
      "name": "ERC20InsufficientAllowance",
      "type": "error"
    },
    {
      "inputs": [
        {
          "internalType": "address",
          "name": "sender",
          "type": "address"
        },
        {
          "internalType": "uint256",
          "name": "balance",
          "type": "uint256"
        },
        {
          "internalType": "uint256",
          "name": "needed",
          "type": "uint256"
        }
      ],
      "name": "ERC20InsufficientBalance",
      "type": "error"
    },
    {
      "inputs": [
        {
          "internalType": "address",
          "name": "approver",
          "type": "address"
        }
      ],
      "name": "ERC20InvalidApprover",
      "type": "error"
    },
    {
      "inputs": [
        {
          "internalType": "uint256",
          "name": "cap",
          "type": "uint256"
        }
      ],
      "name": "ERC20InvalidCap",
      "type": "error"
    },
    {
      "inputs": [
        {
          "internalType": "address",
          "name": "receiver",
          "type": "address"
        }
      ],
      "name": "ERC20InvalidReceiver",
      "type": "error"
    },
    {
      "inputs": [
        {
          "internalType": "address",
          "name": "sender",
          "type": "address"
        }
      ],
      "name": "ERC20InvalidSender",
      "type": "error"
    },
    {
      "inputs": [
        {
          "internalType": "address",
          "name": "spender",
          "type": "address"
        }
      ],
      "name": "ERC20InvalidSpender",
      "type": "error"
    },
    {
      "inputs": [
        {
          "internalType": "uint256",
          "name": "deadline",
          "type": "uint256"
        }
      ],
      "name": "ERC2612ExpiredSignature",
      "type": "error"
    },
    {
      "inputs": [
        {
          "internalType": "address",
          "name": "signer",
          "type": "address"
        },
        {
          "internalType": "address",
          "name": "owner",
          "type": "address"
        }
      ],
      "name": "ERC2612InvalidSigner",
      "type": "error"
    },
    {
      "inputs": [
        {
          "internalType": "address",
          "name": "account",
          "type": "address"
        },
        {
          "internalType": "uint256",
          "name": "currentNonce",
          "type": "uint256"
        }
      ],
      "name": "InvalidAccountNonce",
      "type": "error"
    },
    {
      "inputs": [],
      "name": "InvalidShortString",
      "type": "error"
    },
    {
      "inputs": [
        {
          "internalType": "string",
          "name": "str",
          "type": "string"
        }
      ],
      "name": "StringTooLong",
      "type": "error"
    },
    {
      "anonymous": false,
      "inputs": [
        {
          "indexed": true,
          "internalType": "address",
          "name": "owner",
          "type": "address"
        },
        {
          "indexed": true,
          "internalType": "address",
          "name": "spender",
          "type": "address"
        },
        {
          "indexed": false,
          "internalType": "uint256",
          "name": "value",
          "type": "uint256"
        }
      ],
      "name": "Approval",
      "type": "event"
    },
    {
      "anonymous": false,
      "inputs": [],
      "name": "EIP712DomainChanged",
      "type": "event"
    },
    {
      "anonymous": false,
      "inputs": [
        {
          "indexed": false,
          "internalType": "address",
          "name": "rewardManager",
          "type": "address"
        }
      ],
      "name": "RewardManagerSet",
      "type": "event"
    },
    {
      "anonymous": false,
      "inputs": [
        {
          "indexed": true,
          "internalType": "bytes32",
          "name": "role",
          "type": "bytes32"
        },
        {
          "indexed": true,
          "internalType": "bytes32",
          "name": "previousAdminRole",
          "type": "bytes32"
        },
        {
          "indexed": true,
          "internalType": "bytes32",
          "name": "newAdminRole",
          "type": "bytes32"
        }
      ],
      "name": "RoleAdminChanged",
      "type": "event"
    },
    {
      "anonymous": false,
      "inputs": [
        {
          "indexed": true,
          "internalType": "bytes32",
          "name": "role",
          "type": "bytes32"
        },
        {
          "indexed": true,
          "internalType": "address",
          "name": "account",
          "type": "address"
        },
        {
          "indexed": true,
          "internalType": "address",
          "name": "sender",
          "type": "address"
        }
      ],
      "name": "RoleGranted",
      "type": "event"
    },
    {
      "anonymous": false,
      "inputs": [
        {
          "indexed": true,
          "internalType": "bytes32",
          "name": "role",
          "type": "bytes32"
        },
        {
          "indexed": true,
          "internalType": "address",
          "name": "account",
          "type": "address"
        },
        {
          "indexed": true,
          "internalType": "address",
          "name": "sender",
          "type": "address"
        }
      ],
      "name": "RoleRevoked",
      "type": "event"
    },
    {
      "anonymous": false,
      "inputs": [
        {
          "indexed": true,
          "internalType": "address",
          "name": "from",
          "type": "address"
        },
        {
          "indexed": true,
          "internalType": "address",
          "name": "to",
          "type": "address"
        },
        {
          "indexed": false,
          "internalType": "uint256",
          "name": "value",
          "type": "uint256"
        }
      ],
      "name": "Transfer",
      "type": "event"
    },
    {
      "inputs": [],
      "name": "BURNER_ROLE",
      "outputs": [
        {
          "internalType": "bytes32",
          "name": "",
          "type": "bytes32"
        }
      ],
      "stateMutability": "view",
      "type": "function"
    },
    {
      "inputs": [],
      "name": "DEFAULT_ADMIN_ROLE",
      "outputs": [
        {
          "internalType": "bytes32",
          "name": "",
          "type": "bytes32"
        }
      ],
      "stateMutability": "view",
      "type": "function"
    },
    {
      "inputs": [],
      "name": "DOMAIN_SEPARATOR",
      "outputs": [
        {
          "internalType": "bytes32",
          "name": "",
          "type": "bytes32"
        }
      ],
      "stateMutability": "view",
      "type": "function"
    },
    {
      "inputs": [],
      "name": "MINTER_ROLE",
      "outputs": [
        {
          "internalType": "bytes32",
          "name": "",
          "type": "bytes32"
        }
      ],
      "stateMutability": "view",
      "type": "function"
    },
    {
      "inputs": [
        {
          "internalType": "address",
          "name": "owner",
          "type": "address"
        },
        {
          "internalType": "address",
          "name": "spender",
          "type": "address"
        }
      ],
      "name": "allowance",
      "outputs": [
        {
          "internalType": "uint256",
          "name": "",
          "type": "uint256"
        }
      ],
      "stateMutability": "view",
      "type": "function"
    },
    {
      "inputs": [
        {
          "internalType": "address",
          "name": "spender",
          "type": "address"
        },
        {
          "internalType": "uint256",
          "name": "value",
          "type": "uint256"
        }
      ],
      "name": "approve",
      "outputs": [
        {
          "internalType": "bool",
          "name": "",
          "type": "bool"
        }
      ],
      "stateMutability": "nonpayable",
      "type": "function"
    },
    {
      "inputs": [
        {
          "internalType": "address",
          "name": "account",
          "type": "address"
        }
      ],
      "name": "balanceOf",
      "outputs": [
        {
          "internalType": "uint256",
          "name": "",
          "type": "uint256"
        }
      ],
      "stateMutability": "view",
      "type": "function"
    },
    {
      "inputs": [
        {
          "internalType": "address",
          "name": "from",
          "type": "address"
        },
        {
          "internalType": "uint256",
          "name": "amount",
          "type": "uint256"
        }
      ],
      "name": "burn",
      "outputs": [],
      "stateMutability": "nonpayable",
      "type": "function"
    },
    {
      "inputs": [],
      "name": "cap",
      "outputs": [
        {
          "internalType": "uint256",
          "name": "",
          "type": "uint256"
        }
      ],
      "stateMutability": "view",
      "type": "function"
    },
    {
      "inputs": [],
      "name": "decimals",
      "outputs": [
        {
          "internalType": "uint8",
          "name": "",
          "type": "uint8"
        }
      ],
      "stateMutability": "view",
      "type": "function"
    },
    {
      "inputs": [],
      "name": "eip712Domain",
      "outputs": [
        {
          "internalType": "bytes1",
          "name": "fields",
          "type": "bytes1"
        },
        {
          "internalType": "string",
          "name": "name",
          "type": "string"
        },
        {
          "internalType": "string",
          "name": "version",
          "type": "string"
        },
        {
          "internalType": "uint256",
          "name": "chainId",
          "type": "uint256"
        },
        {
          "internalType": "address",
          "name": "verifyingContract",
          "type": "address"
        },
        {
          "internalType": "bytes32",
          "name": "salt",
          "type": "bytes32"
        },
        {
          "internalType": "uint256[]",
          "name": "extensions",
          "type": "uint256[]"
        }
      ],
      "stateMutability": "view",
      "type": "function"
    },
    {
      "inputs": [
        {
          "internalType": "bytes32",
          "name": "role",
          "type": "bytes32"
        }
      ],
      "name": "getRoleAdmin",
      "outputs": [
        {
          "internalType": "bytes32",
          "name": "",
          "type": "bytes32"
        }
      ],
      "stateMutability": "view",
      "type": "function"
    },
    {
      "inputs": [
        {
          "internalType": "bytes32",
          "name": "role",
          "type": "bytes32"
        },
        {
          "internalType": "address",
          "name": "account",
          "type": "address"
        }
      ],
      "name": "grantRole",
      "outputs": [],
      "stateMutability": "nonpayable",
      "type": "function"
    },
    {
      "inputs": [
        {
          "internalType": "bytes32",
          "name": "role",
          "type": "bytes32"
        },
        {
          "internalType": "address",
          "name": "account",
          "type": "address"
        }
      ],
      "name": "hasRole",
      "outputs": [
        {
          "internalType": "bool",
          "name": "",
          "type": "bool"
        }
      ],
      "stateMutability": "view",
      "type": "function"
    },
    {
      "inputs": [
        {
          "internalType": "address",
          "name": "to",
          "type": "address"
        },
        {
          "internalType": "uint256",
          "name": "amount",
          "type": "uint256"
        }
      ],
      "name": "mint",
      "outputs": [],
      "stateMutability": "nonpayable",
      "type": "function"
    },
    {
      "inputs": [],
      "name": "name",
      "outputs": [
        {
          "internalType": "string",
          "name": "",
          "type": "string"
        }
      ],
      "stateMutability": "view",
      "type": "function"
    },
    {
      "inputs": [
        {
          "internalType": "address",
          "name": "owner",
          "type": "address"
        }
      ],
      "name": "nonces",
      "outputs": [
        {
          "internalType": "uint256",
          "name": "",
          "type": "uint256"
        }
      ],
      "stateMutability": "view",
      "type": "function"
    },
    {
      "inputs": [
        {
          "internalType": "address",
          "name": "owner",
          "type": "address"
        },
        {
          "internalType": "address",
          "name": "spender",
          "type": "address"
        },
        {
          "internalType": "uint256",
          "name": "value",
          "type": "uint256"
        },
        {
          "internalType": "uint256",
          "name": "deadline",
          "type": "uint256"
        },
        {
          "internalType": "uint8",
          "name": "v",
          "type": "uint8"
        },
        {
          "internalType": "bytes32",
          "name": "r",
          "type": "bytes32"
        },
        {
          "internalType": "bytes32",
          "name": "s",
          "type": "bytes32"
        }
      ],
      "name": "permit",
      "outputs": [],
      "stateMutability": "nonpayable",
      "type": "function"
    },
    {
      "inputs": [
        {
          "internalType": "bytes32",
          "name": "role",
          "type": "bytes32"
        },
        {
          "internalType": "address",
          "name": "callerConfirmation",
          "type": "address"
        }
      ],
      "name": "renounceRole",
      "outputs": [],
      "stateMutability": "nonpayable",
      "type": "function"
    },
    {
      "inputs": [
        {
          "internalType": "bytes32",
          "name": "role",
          "type": "bytes32"
        },
        {
          "internalType": "address",
          "name": "account",
          "type": "address"
        }
      ],
      "name": "revokeRole",
      "outputs": [],
      "stateMutability": "nonpayable",
      "type": "function"
    },
    {
      "inputs": [],
      "name": "rewardManager",
      "outputs": [
        {
          "internalType": "address",
          "name": "",
          "type": "address"
        }
      ],
      "stateMutability": "view",
      "type": "function"
    },
    {
      "inputs": [
        {
          "internalType": "address",
          "name": "_rewardManager",
          "type": "address"
        }
      ],
      "name": "setRewardManager",
      "outputs": [],
      "stateMutability": "nonpayable",
      "type": "function"
    },
    {
      "inputs": [
        {
          "internalType": "bytes4",
          "name": "interfaceId",
          "type": "bytes4"
        }
      ],
      "name": "supportsInterface",
      "outputs": [
        {
          "internalType": "bool",
          "name": "",
          "type": "bool"
        }
      ],
      "stateMutability": "view",
      "type": "function"
    },
    {
      "inputs": [],
      "name": "symbol",
      "outputs": [
        {
          "internalType": "string",
          "name": "",
          "type": "string"
        }
      ],
      "stateMutability": "view",
      "type": "function"
    },
    {
      "inputs": [],
      "name": "totalSupply",
      "outputs": [
        {
          "internalType": "uint256",
          "name": "",
          "type": "uint256"
        }
      ],
      "stateMutability": "view",
      "type": "function"
    },
    {
      "inputs": [
        {
          "internalType": "address",
          "name": "to",
          "type": "address"
        },
        {
          "internalType": "uint256",
          "name": "value",
          "type": "uint256"
        }
      ],
      "name": "transfer",
      "outputs": [
        {
          "internalType": "bool",
          "name": "",
          "type": "bool"
        }
      ],
      "stateMutability": "nonpayable",
      "type": "function"
    },
    {
      "inputs": [
        {
          "internalType": "address",
          "name": "from",
          "type": "address"
        },
        {
          "internalType": "address",
          "name": "to",
          "type": "address"
        },
        {
          "internalType": "uint256",
          "name": "value",
          "type": "uint256"
        }
      ],
      "name": "transferFrom",
      "outputs": [
        {
          "internalType": "bool",
          "name": "",
          "type": "bool"
        }
      ],
      "stateMutability": "nonpayable",
      "type": "function"
    }
  ],
  "bytecode": "0x6101806040523480156200001257600080fd5b50604051620035a0380380620035a08339818101604052810190620000389190620005d5565b806040518060400160405280600381526020017f4347540000000000000000000000000000000000000000000000000000000000815250806040518060400160405280600181526020017f31000000000000000000000000000000000000000000000000000000000000008152506040518060400160405280601281526020017f436172626f6e20477561726420546f6b656e00000000000000000000000000008152506040518060400160405280600381526020017f434754000000000000000000000000000000000000000000000000000000000081525081600390816200012391906200088c565b5080600490816200013591906200088c565b5050506200014e6005836200028d60201b90919060201c565b61012081815250506200016c6006826200028d60201b90919060201c565b6101408181525050818051906020012060e08181525050808051906020012061010081815250504660a08181525050620001ab620002e560201b60201c565b608081815250503073ffffffffffffffffffffffffffffffffffffffff1660c08173ffffffffffffffffffffffffffffffffffffffff168152505050505060008103620002325760006040517f392e1e27000000000000000000000000000000000000000000000000000000008152600401620002299190620009b6565b60405180910390fd5b80610160818152505050620002516000801b836200034260201b60201c565b50620002847f3c11d16cbaffd01df69ce1c404f6340ee057498f5f00246190ea54220576a848836200034260201b60201c565b50505062000bc2565b6000602083511015620002b357620002ab836200044660201b60201c565b9050620002df565b82620002c583620004b360201b60201c565b6000019081620002d691906200088c565b5060ff60001b90505b92915050565b60007f8b73c3c69bb8fe3d512ecc4cf759cc79239f7b179b0ffacaa9a75d522b39400f60e0516101005146306040516020016200032795949392919062000a10565b60405160208183030381529060405280519060200120905090565b6000620003568383620004bd60201b60201c565b6200043b5760016008600085815260200190815260200160002060000160008473ffffffffffffffffffffffffffffffffffffffff1673ffffffffffffffffffffffffffffffffffffffff16815260200190815260200160002060006101000a81548160ff021916908315150217905550620003d76200052860201b60201c565b73ffffffffffffffffffffffffffffffffffffffff168273ffffffffffffffffffffffffffffffffffffffff16847f2f8788117e7eff1d82e926ec794901d17c78024a50270940304540a733656f0d60405160405180910390a46001905062000440565b600090505b92915050565b600080829050601f815111156200049657826040517f305a27a90000000000000000000000000000000000000000000000000000000081526004016200048d919062000afc565b60405180910390fd5b805181620004a49062000b52565b60001c1760001b915050919050565b6000819050919050565b60006008600084815260200190815260200160002060000160008373ffffffffffffffffffffffffffffffffffffffff1673ffffffffffffffffffffffffffffffffffffffff16815260200190815260200160002060009054906101000a900460ff16905092915050565b600033905090565b600080fd5b600073ffffffffffffffffffffffffffffffffffffffff82169050919050565b6000620005628262000535565b9050919050565b620005748162000555565b81146200058057600080fd5b50565b600081519050620005948162000569565b92915050565b6000819050919050565b620005af816200059a565b8114620005bb57600080fd5b50565b600081519050620005cf81620005a4565b92915050565b60008060408385031215620005ef57620005ee62000530565b5b6000620005ff8582860162000583565b92505060206200061285828601620005be565b9150509250929050565b600081519050919050565b7f4e487b7100000000000000000000000000000000000000000000000000000000600052604160045260246000fd5b7f4e487b7100000000000000000000000000000000000000000000000000000000600052602260045260246000fd5b600060028204905060018216806200069e57607f821691505b602082108103620006b457620006b362000656565b5b50919050565b60008190508160005260206000209050919050565b60006020601f8301049050919050565b600082821b905092915050565b6000600883026200071e7fffffffffffffffffffffffffffffffffffffffffffffffffffffffffffffffff82620006df565b6200072a8683620006df565b95508019841693508086168417925050509392505050565b6000819050919050565b60006200076d6200076762000761846200059a565b62000742565b6200059a565b9050919050565b6000819050919050565b62000789836200074c565b620007a1620007988262000774565b848454620006ec565b825550505050565b600090565b620007b8620007a9565b620007c58184846200077e565b505050565b5b81811015620007ed57620007e1600082620007ae565b600181019050620007cb565b5050565b601f8211156200083c576200080681620006ba565b6200081184620006cf565b8101602085101562000821578190505b620008396200083085620006cf565b830182620007ca565b50505b505050565b600082821c905092915050565b6000620008616000198460080262000841565b1980831691505092915050565b60006200087c83836200084e565b9150826002028217905092915050565b62000897826200061c565b67ffffffffffffffff811115620008b357620008b262000627565b5b620008bf825462000685565b620008cc828285620007f1565b600060209050601f831160018114620009045760008415620008ef578287015190505b620008fb85826200086e565b8655506200096b565b601f1984166200091486620006ba565b60005b828110156200093e5784890151825560018201915060208501945060208101905062000917565b868310156200095e57848901516200095a601f8916826200084e565b8355505b6001600288020188555050505b505050505050565b6000819050919050565b60006200099e62000998620009928462000973565b62000742565b6200059a565b9050919050565b620009b0816200097d565b82525050565b6000602082019050620009cd6000830184620009a5565b92915050565b6000819050919050565b620009e881620009d3565b82525050565b620009f9816200059a565b82525050565b62000a0a8162000555565b82525050565b600060a08201905062000a276000830188620009dd565b62000a366020830187620009dd565b62000a456040830186620009dd565b62000a546060830185620009ee565b62000a636080830184620009ff565b9695505050505050565b600082825260208201905092915050565b60005b8381101562000a9e57808201518184015260208101905062000a81565b60008484015250505050565b6000601f19601f8301169050919050565b600062000ac8826200061c565b62000ad4818562000a6d565b935062000ae681856020860162000a7e565b62000af18162000aaa565b840191505092915050565b6000602082019050818103600083015262000b18818462000abb565b905092915050565b600081519050919050565b6000819050602082019050919050565b600062000b498251620009d3565b80915050919050565b600062000b5f8262000b20565b8262000b6b8462000b2b565b905062000b788162000b3b565b9250602082101562000bbb5762000bb67fffffffffffffffffffffffffffffffffffffffffffffffffffffffffffffffff83602003600802620006df565b831692505b5050919050565b60805160a05160c05160e0516101005161012051610140516101605161297862000c28600039600061093a015260006114660152600061142b0152600061183901526000611818015260006112a4015260006112fa0152600061132301526129786000f3fe608060405234801561001057600080fd5b50600436106101a95760003560e01c806336568abe116100f95780639dc29fac11610097578063d505accf11610071578063d505accf146104ec578063d539139314610508578063d547741f14610526578063dd62ed3e14610542576101a9565b80639dc29fac14610482578063a217fddf1461049e578063a9059cbb146104bc576101a9565b80637ecebe00116100d35780637ecebe00146103e057806384b0196e1461041057806391d148541461043457806395d89b4114610464576101a9565b806336568abe1461037857806340c10f191461039457806370a08231146103b0576101a9565b806323b872dd116101665780632f2ff15d116101405780632f2ff15d14610302578063313ce5671461031e578063355274ea1461033c5780633644e5151461035a576101a9565b806323b872dd14610284578063248a9ca3146102b4578063282c51f3146102e4576101a9565b806301ffc9a7146101ae57806306fdde03146101de578063095ea7b3146101fc5780630f4ef8a61461022c578063153ee5541461024a57806318160ddd14610266575b600080fd5b6101c860048036038101906101c39190611fbe565b610572565b6040516101d59190612006565b60405180910390f35b6101e66105ec565b6040516101f391906120b1565b60405180910390f35b61021660048036038101906102119190612167565b61067e565b6040516102239190612006565b60405180910390f35b6102346106a1565b60405161024191906121b6565b60405180910390f35b610264600480360381019061025f91906121d1565b6106c7565b005b61026e61088e565b60405161027b919061220d565b60405180910390f35b61029e60048036038101906102999190612228565b610898565b6040516102ab9190612006565b60405180910390f35b6102ce60048036038101906102c991906122b1565b6108c7565b6040516102db91906122ed565b60405180910390f35b6102ec6108e7565b6040516102f991906122ed565b60405180910390f35b61031c60048036038101906103179190612308565b61090b565b005b61032661092d565b6040516103339190612364565b60405180910390f35b610344610936565b604051610351919061220d565b60405180910390f35b61036261095e565b60405161036f91906122ed565b60405180910390f35b610392600480360381019061038d9190612308565b61096d565b005b6103ae60048036038101906103a99190612167565b6109e8565b005b6103ca60048036038101906103c591906121d1565b610a21565b6040516103d7919061220d565b60405180910390f35b6103fa60048036038101906103f591906121d1565b610a69565b604051610407919061220d565b60405180910390f35b610418610a7b565b60405161042b9796959493929190612478565b60405180910390f35b61044e60048036038101906104499190612308565b610b25565b60405161045b9190612006565b60405180910390f35b61046c610b90565b60405161047991906120b1565b60405180910390f35b61049c60048036038101906104979190612167565b610c22565b005b6104a6610c5b565b6040516104b391906122ed565b60405180910390f35b6104d660048036038101906104d19190612167565b610c62565b6040516104e39190612006565b60405180910390f35b61050660048036038101906105019190612528565b610c85565b005b610510610dcd565b60405161051d91906122ed565b60405180910390f35b610540600480360381019061053b9190612308565b610df1565b005b61055c600480360381019061055791906125ca565b610e13565b604051610569919061220d565b60405180910390f35b60007f7965db0b000000000000000000000000000000000000000000000000000000007bffffffffffffffffffffffffffffffffffffffffffffffffffffffff1916827bffffffffffffffffffffffffffffffffffffffffffffffffffffffff191614806105e557506105e482610e9a565b5b9050919050565b6060600380546105fb90612639565b80601f016020809104026020016040519081016040528092919081815260200182805461062790612639565b80156106745780601f1061064957610100808354040283529160200191610674565b820191906000526020600020905b81548152906001019060200180831161065757829003601f168201915b5050505050905090565b600080610689610f04565b9050610696818585610f0c565b600191505092915050565b600960009054906101000a900473ffffffffffffffffffffffffffffffffffffffff1681565b6000801b6106d481610f1e565b600073ffffffffffffffffffffffffffffffffffffffff168273ffffffffffffffffffffffffffffffffffffffff1603610743576040517f08c379a000000000000000000000000000000000000000000000000000000000815260040161073a906126b6565b60405180910390fd5b600073ffffffffffffffffffffffffffffffffffffffff16600960009054906101000a900473ffffffffffffffffffffffffffffffffffffffff1673ffffffffffffffffffffffffffffffffffffffff16146107e7576107e57f9f2df0fed2c77648de5860a4cc508cd0818c85b8b8a1ab4ceeef8d981c8956a6600960009054906101000a900473ffffffffffffffffffffffffffffffffffffffff16610f32565b505b81600960006101000a81548173ffffffffffffffffffffffffffffffffffffffff021916908373ffffffffffffffffffffffffffffffffffffffff1602179055506108527f9f2df0fed2c77648de5860a4cc508cd0818c85b8b8a1ab4ceeef8d981c8956a683611025565b507f4b722357462a92ae2776fce05f39902ac96cb04d2fe661eb688f4a72ab069cff8260405161088291906121b6565b60405180910390a15050565b6000600254905090565b6000806108a3610f04565b90506108b0858285611117565b6108bb8585856111ac565b60019150509392505050565b600060086000838152602001908152602001600020600101549050919050565b7f3c11d16cbaffd01df69ce1c404f6340ee057498f5f00246190ea54220576a84881565b610914826108c7565b61091d81610f1e565b6109278383611025565b50505050565b60006012905090565b60007f0000000000000000000000000000000000000000000000000000000000000000905090565b60006109686112a0565b905090565b610975610f04565b73ffffffffffffffffffffffffffffffffffffffff168173ffffffffffffffffffffffffffffffffffffffff16146109d9576040517f6697b23200000000000000000000000000000000000000000000000000000000815260040160405180910390fd5b6109e38282610f32565b505050565b7f9f2df0fed2c77648de5860a4cc508cd0818c85b8b8a1ab4ceeef8d981c8956a6610a1281610f1e565b610a1c8383611357565b505050565b60008060008373ffffffffffffffffffffffffffffffffffffffff1673ffffffffffffffffffffffffffffffffffffffff168152602001908152602001600020549050919050565b6000610a74826113d9565b9050919050565b600060608060008060006060610a8f611422565b610a9761145d565b46306000801b600067ffffffffffffffff811115610ab857610ab76126d6565b5b604051908082528060200260200182016040528015610ae65781602001602082028036833780820191505090505b507f0f00000000000000000000000000000000000000000000000000000000000000959493929190965096509650965096509650965090919293949596565b60006008600084815260200190815260200160002060000160008373ffffffffffffffffffffffffffffffffffffffff1673ffffffffffffffffffffffffffffffffffffffff16815260200190815260200160002060009054906101000a900460ff16905092915050565b606060048054610b9f90612639565b80601f0160208091040260200160405190810160405280929190818152602001828054610bcb90612639565b8015610c185780601f10610bed57610100808354040283529160200191610c18565b820191906000526020600020905b815481529060010190602001808311610bfb57829003601f168201915b5050505050905090565b7f3c11d16cbaffd01df69ce1c404f6340ee057498f5f00246190ea54220576a848610c4c81610f1e565b610c568383611498565b505050565b6000801b81565b600080610c6d610f04565b9050610c7a8185856111ac565b600191505092915050565b83421115610cca57836040517f62791302000000000000000000000000000000000000000000000000000000008152600401610cc1919061220d565b60405180910390fd5b60007f6e71edae12b1b97f4d1f60370fef10105fa2faae0126114a169c64845d6126c9888888610cf98c61151a565b89604051602001610d0f96959493929190612705565b6040516020818303038152906040528051906020012090506000610d3282611571565b90506000610d428287878761158b565b90508973ffffffffffffffffffffffffffffffffffffffff168173ffffffffffffffffffffffffffffffffffffffff1614610db657808a6040517f4b800e46000000000000000000000000000000000000000000000000000000008152600401610dad929190612766565b60405180910390fd5b610dc18a8a8a610f0c565b50505050505050505050565b7f9f2df0fed2c77648de5860a4cc508cd0818c85b8b8a1ab4ceeef8d981c8956a681565b610dfa826108c7565b610e0381610f1e565b610e0d8383610f32565b50505050565b6000600160008473ffffffffffffffffffffffffffffffffffffffff1673ffffffffffffffffffffffffffffffffffffffff16815260200190815260200160002060008373ffffffffffffffffffffffffffffffffffffffff1673ffffffffffffffffffffffffffffffffffffffff16815260200190815260200160002054905092915050565b60007f01ffc9a7000000000000000000000000000000000000000000000000000000007bffffffffffffffffffffffffffffffffffffffffffffffffffffffff1916827bffffffffffffffffffffffffffffffffffffffffffffffffffffffff1916149050919050565b600033905090565b610f1983838360016115bb565b505050565b610f2f81610f2a610f04565b611792565b50565b6000610f3e8383610b25565b1561101a5760006008600085815260200190815260200160002060000160008473ffffffffffffffffffffffffffffffffffffffff1673ffffffffffffffffffffffffffffffffffffffff16815260200190815260200160002060006101000a81548160ff021916908315150217905550610fb7610f04565b73ffffffffffffffffffffffffffffffffffffffff168273ffffffffffffffffffffffffffffffffffffffff16847ff6391f5c32d9c69d2a47ea670b442974b53935d1edc7fd64eb21e047a839171b60405160405180910390a46001905061101f565b600090505b92915050565b60006110318383610b25565b61110c5760016008600085815260200190815260200160002060000160008473ffffffffffffffffffffffffffffffffffffffff1673ffffffffffffffffffffffffffffffffffffffff16815260200190815260200160002060006101000a81548160ff0219169083151502179055506110a9610f04565b73ffffffffffffffffffffffffffffffffffffffff168273ffffffffffffffffffffffffffffffffffffffff16847f2f8788117e7eff1d82e926ec794901d17c78024a50270940304540a733656f0d60405160405180910390a460019050611111565b600090505b92915050565b60006111238484610e13565b90507fffffffffffffffffffffffffffffffffffffffffffffffffffffffffffffffff8110156111a65781811015611196578281836040517ffb8f41b200000000000000000000000000000000000000000000000000000000815260040161118d9392919061278f565b60405180910390fd5b6111a5848484840360006115bb565b5b50505050565b600073ffffffffffffffffffffffffffffffffffffffff168373ffffffffffffffffffffffffffffffffffffffff160361121e5760006040517f96c6fd1e00000000000000000000000000000000000000000000000000000000815260040161121591906121b6565b60405180910390fd5b600073ffffffffffffffffffffffffffffffffffffffff168273ffffffffffffffffffffffffffffffffffffffff16036112905760006040517fec442f0500000000000000000000000000000000000000000000000000000000815260040161128791906121b6565b60405180910390fd5b61129b8383836117e3565b505050565b60007f000000000000000000000000000000000000000000000000000000000000000073ffffffffffffffffffffffffffffffffffffffff163073ffffffffffffffffffffffffffffffffffffffff1614801561131c57507f000000000000000000000000000000000000000000000000000000000000000046145b15611349577f00000000000000000000000000000000000000000000000000000000000000009050611354565b6113516117f3565b90505b90565b600073ffffffffffffffffffffffffffffffffffffffff168273ffffffffffffffffffffffffffffffffffffffff16036113c95760006040517fec442f050000000000000000000000000000000000000000000000000000000081526004016113c091906121b6565b60405180910390fd5b6113d5600083836117e3565b5050565b6000600760008373ffffffffffffffffffffffffffffffffffffffff1673ffffffffffffffffffffffffffffffffffffffff168152602001908152602001600020549050919050565b606061145860057f000000000000000000000000000000000000000000000000000000000000000061188990919063ffffffff16565b905090565b606061149360067f000000000000000000000000000000000000000000000000000000000000000061188990919063ffffffff16565b905090565b600073ffffffffffffffffffffffffffffffffffffffff168273ffffffffffffffffffffffffffffffffffffffff160361150a5760006040517f96c6fd1e00000000000000000000000000000000000000000000000000000000815260040161150191906121b6565b60405180910390fd5b611516826000836117e3565b5050565b6000600760008373ffffffffffffffffffffffffffffffffffffffff1673ffffffffffffffffffffffffffffffffffffffff1681526020019081526020016000206000815480929190600101919050559050919050565b600061158461157e6112a0565b83611939565b9050919050565b60008060008061159d8888888861197a565b9250925092506115ad8282611a6e565b829350505050949350505050565b600073ffffffffffffffffffffffffffffffffffffffff168473ffffffffffffffffffffffffffffffffffffffff160361162d5760006040517fe602df0500000000000000000000000000000000000000000000000000000000815260040161162491906121b6565b60405180910390fd5b600073ffffffffffffffffffffffffffffffffffffffff168373ffffffffffffffffffffffffffffffffffffffff160361169f5760006040517f94280d6200000000000000000000000000000000000000000000000000000000815260040161169691906121b6565b60405180910390fd5b81600160008673ffffffffffffffffffffffffffffffffffffffff1673ffffffffffffffffffffffffffffffffffffffff16815260200190815260200160002060008573ffffffffffffffffffffffffffffffffffffffff1673ffffffffffffffffffffffffffffffffffffffff16815260200190815260200160002081905550801561178c578273ffffffffffffffffffffffffffffffffffffffff168473ffffffffffffffffffffffffffffffffffffffff167f8c5be1e5ebec7d5bd14f71427d1e84f3dd0314c0f7b2291e5b200ac8c7c3b92584604051611783919061220d565b60405180910390a35b50505050565b61179c8282610b25565b6117df5780826040517fe2517d3f0000000000000000000000000000000000000000000000000000000081526004016117d69291906127c6565b60405180910390fd5b5050565b6117ee838383611bd2565b505050565b60007f8b73c3c69bb8fe3d512ecc4cf759cc79239f7b179b0ffacaa9a75d522b39400f7f00000000000000000000000000000000000000000000000000000000000000007f0000000000000000000000000000000000000000000000000000000000000000463060405160200161186e9594939291906127ef565b60405160208183030381529060405280519060200120905090565b606060ff60001b83146118a65761189f83611c78565b9050611933565b8180546118b290612639565b80601f01602080910402602001604051908101604052809291908181526020018280546118de90612639565b801561192b5780601f106119005761010080835404028352916020019161192b565b820191906000526020600020905b81548152906001019060200180831161190e57829003601f168201915b505050505090505b92915050565b60006040517f190100000000000000000000000000000000000000000000000000000000000081528360028201528260228201526042812091505092915050565b60008060007f7fffffffffffffffffffffffffffffff5d576e7357a4501ddfe92f46681b20a08460001c11156119ba576000600385925092509250611a64565b6000600188888888604051600081526020016040526040516119df9493929190612842565b6020604051602081039080840390855afa158015611a01573d6000803e3d6000fd5b505050602060405103519050600073ffffffffffffffffffffffffffffffffffffffff168173ffffffffffffffffffffffffffffffffffffffff1603611a5557600060016000801b93509350935050611a64565b8060008060001b935093509350505b9450945094915050565b60006003811115611a8257611a81612887565b5b826003811115611a9557611a94612887565b5b0315611bce5760016003811115611aaf57611aae612887565b5b826003811115611ac257611ac1612887565b5b03611af9576040517ff645eedf00000000000000000000000000000000000000000000000000000000815260040160405180910390fd5b60026003811115611b0d57611b0c612887565b5b826003811115611b2057611b1f612887565b5b03611b65578060001c6040517ffce698f7000000000000000000000000000000000000000000000000000000008152600401611b5c919061220d565b60405180910390fd5b600380811115611b7857611b77612887565b5b826003811115611b8b57611b8a612887565b5b03611bcd57806040517fd78bce0c000000000000000000000000000000000000000000000000000000008152600401611bc491906122ed565b60405180910390fd5b5b5050565b611bdd838383611cec565b600073ffffffffffffffffffffffffffffffffffffffff168373ffffffffffffffffffffffffffffffffffffffff1603611c73576000611c1b610936565b90506000611c2761088e565b905081811115611c705780826040517f9e79f854000000000000000000000000000000000000000000000000000000008152600401611c679291906128b6565b60405180910390fd5b50505b505050565b60606000611c8583611f11565b90506000602067ffffffffffffffff811115611ca457611ca36126d6565b5b6040519080825280601f01601f191660200182016040528015611cd65781602001600182028036833780820191505090505b5090508181528360208201528092505050919050565b600073ffffffffffffffffffffffffffffffffffffffff168373ffffffffffffffffffffffffffffffffffffffff1603611d3e578060026000828254611d32919061290e565b92505081905550611e11565b60008060008573ffffffffffffffffffffffffffffffffffffffff1673ffffffffffffffffffffffffffffffffffffffff16815260200190815260200160002054905081811015611dca578381836040517fe450d38c000000000000000000000000000000000000000000000000000000008152600401611dc19392919061278f565b60405180910390fd5b8181036000808673ffffffffffffffffffffffffffffffffffffffff1673ffffffffffffffffffffffffffffffffffffffff16815260200190815260200160002081905550505b600073ffffffffffffffffffffffffffffffffffffffff168273ffffffffffffffffffffffffffffffffffffffff1603611e5a5780600260008282540392505081905550611ea7565b806000808473ffffffffffffffffffffffffffffffffffffffff1673ffffffffffffffffffffffffffffffffffffffff168152602001908152602001600020600082825401925050819055505b8173ffffffffffffffffffffffffffffffffffffffff168373ffffffffffffffffffffffffffffffffffffffff167fddf252ad1be2c89b69c2b068fc378daa952ba7f163c4a11628f55a4df523b3ef83604051611f04919061220d565b60405180910390a3505050565b60008060ff8360001c169050601f811115611f58576040517fb3512b0c00000000000000000000000000000000000000000000000000000000815260040160405180910390fd5b80915050919050565b600080fd5b60007fffffffff0000000000000000000000000000000000000000000000000000000082169050919050565b611f9b81611f66565b8114611fa657600080fd5b50565b600081359050611fb881611f92565b92915050565b600060208284031215611fd457611fd3611f61565b5b6000611fe284828501611fa9565b91505092915050565b60008115159050919050565b61200081611feb565b82525050565b600060208201905061201b6000830184611ff7565b92915050565b600081519050919050565b600082825260208201905092915050565b60005b8381101561205b578082015181840152602081019050612040565b60008484015250505050565b6000601f19601f8301169050919050565b600061208382612021565b61208d818561202c565b935061209d81856020860161203d565b6120a681612067565b840191505092915050565b600060208201905081810360008301526120cb8184612078565b905092915050565b600073ffffffffffffffffffffffffffffffffffffffff82169050919050565b60006120fe826120d3565b9050919050565b61210e816120f3565b811461211957600080fd5b50565b60008135905061212b81612105565b92915050565b6000819050919050565b61214481612131565b811461214f57600080fd5b50565b6000813590506121618161213b565b92915050565b6000806040838503121561217e5761217d611f61565b5b600061218c8582860161211c565b925050602061219d85828601612152565b9150509250929050565b6121b0816120f3565b82525050565b60006020820190506121cb60008301846121a7565b92915050565b6000602082840312156121e7576121e6611f61565b5b60006121f58482850161211c565b91505092915050565b61220781612131565b82525050565b600060208201905061222260008301846121fe565b92915050565b60008060006060848603121561224157612240611f61565b5b600061224f8682870161211c565b93505060206122608682870161211c565b925050604061227186828701612152565b9150509250925092565b6000819050919050565b61228e8161227b565b811461229957600080fd5b50565b6000813590506122ab81612285565b92915050565b6000602082840312156122c7576122c6611f61565b5b60006122d58482850161229c565b91505092915050565b6122e78161227b565b82525050565b600060208201905061230260008301846122de565b92915050565b6000806040838503121561231f5761231e611f61565b5b600061232d8582860161229c565b925050602061233e8582860161211c565b9150509250929050565b600060ff82169050919050565b61235e81612348565b82525050565b60006020820190506123796000830184612355565b92915050565b60007fff0000000000000000000000000000000000000000000000000000000000000082169050919050565b6123b48161237f565b82525050565b600081519050919050565b600082825260208201905092915050565b6000819050602082019050919050565b6123ef81612131565b82525050565b600061240183836123e6565b60208301905092915050565b6000602082019050919050565b6000612425826123ba565b61242f81856123c5565b935061243a836123d6565b8060005b8381101561246b57815161245288826123f5565b975061245d8361240d565b92505060018101905061243e565b5085935050505092915050565b600060e08201905061248d600083018a6123ab565b818103602083015261249f8189612078565b905081810360408301526124b38188612078565b90506124c260608301876121fe565b6124cf60808301866121a7565b6124dc60a08301856122de565b81810360c08301526124ee818461241a565b905098975050505050505050565b61250581612348565b811461251057600080fd5b50565b600081359050612522816124fc565b92915050565b600080600080600080600060e0888a03121561254757612546611f61565b5b60006125558a828b0161211c565b97505060206125668a828b0161211c565b96505060406125778a828b01612152565b95505060606125888a828b01612152565b94505060806125998a828b01612513565b93505060a06125aa8a828b0161229c565b92505060c06125bb8a828b0161229c565b91505092959891949750929550565b600080604083850312156125e1576125e0611f61565b5b60006125ef8582860161211c565b92505060206126008582860161211c565b9150509250929050565b7f4e487b7100000000000000000000000000000000000000000000000000000000600052602260045260246000fd5b6000600282049050600182168061265157607f821691505b6020821081036126645761266361260a565b5b50919050565b7f726577617264206d616e61676572207a65726f00000000000000000000000000600082015250565b60006126a060138361202c565b91506126ab8261266a565b602082019050919050565b600060208201905081810360008301526126cf81612693565b9050919050565b7f4e487b7100000000000000000000000000000000000000000000000000000000600052604160045260246000fd5b600060c08201905061271a60008301896122de565b61272760208301886121a7565b61273460408301876121a7565b61274160608301866121fe565b61274e60808301856121fe565b61275b60a08301846121fe565b979650505050505050565b600060408201905061277b60008301856121a7565b61278860208301846121a7565b9392505050565b60006060820190506127a460008301866121a7565b6127b160208301856121fe565b6127be60408301846121fe565b949350505050565b60006040820190506127db60008301856121a7565b6127e860208301846122de565b9392505050565b600060a08201905061280460008301886122de565b61281160208301876122de565b61281e60408301866122de565b61282b60608301856121fe565b61283860808301846121a7565b9695505050505050565b600060808201905061285760008301876122de565b6128646020830186612355565b61287160408301856122de565b61287e60608301846122de565b95945050505050565b7f4e487b7100000000000000000000000000000000000000000000000000000000600052602160045260246000fd5b60006040820190506128cb60008301856121fe565b6128d860208301846121fe565b9392505050565b7f4e487b7100000000000000000000000000000000000000000000000000000000600052601160045260246000fd5b600061291982612131565b915061292483612131565b925082820190508082111561293c5761293b6128df565b5b9291505056fea2646970667358221220560383747959c7c62e8385b5cc7860db9fd28393d0c6f301995500eff8c1c3c364736f6c63430008180033",
  "linkReferences": {},
  "deployedLinkReferences": {}
}