{
  "_format": "hh-sol-artifact-1",
  "contractName": "GeoDataRegistrySuperRoot",
  "sourceName": "contracts/alternative/GeoDataRegistrySuperRoot.sol",
  "abi": [
    {
      "inputs": [
        {
          "internalType": "address",
          "name": "admin",
          "type": "address"
        },
        {
          "internalType": "address",
          "name": "oracle",
          "type": "address"
        },
        {
          "internalType": "uint256",
          "name": "_epochMinInterval",
          "type": "uint256"
        }
      ],
      "stateMutability": "nonpayable",
      "type": "constructor"
    },
    {
      "inputs": [],
      "name": "AccessControlBadConfirmation",
      "type": "error"
    },
    {
      "inputs": [
        {
          "internalType": "address",
          "name": "account",
          "type": "address"
        },
        {
          "internalType": "bytes32",
          "name": "neededRole",
          "type": "bytes32"
        }
      ],
      "name": "AccessControlUnauthorizedAccount",
      "type": "error"
    },
    {
      "inputs": [],
      "name": "EmptyCID",
      "type": "error"
    },
    {
      "inputs": [],
      "name": "EmptyRoot",
      "type": "error"
    },
    {
      "inputs": [],
      "name": "EnforcedPause",
      "type": "error"
    },
    {
      "inputs": [],
      "name": "EpochAlreadyPublished",
      "type": "error"
    },
    {
      "inputs": [],
      "name": "ExpectedPause",
      "type": "error"
    },
    {
      "inputs": [],
      "name": "ReentrancyGuardReentrantCall",
      "type": "error"
    },
    {
      "anonymous": false,
      "inputs": [
        {
          "indexed": true,
          "internalType": "uint64",
          "name": "epochId",
          "type": "uint64"
        },
        {
          "indexed": false,
          "internalType": "uint256",
          "name": "timestamp",
          "type": "uint256"
        }
      ],
      "name": "EpochStarted",
      "type": "event"
    },
    {
      "anonymous": false,
      "inputs": [
        {
          "indexed": false,
          "internalType": "address",
          "name": "account",
          "type": "address"
        }
      ],
      "name": "Paused",
      "type": "event"
    },
    {
      "anonymous": false,
      "inputs": [
        {
          "indexed": true,
          "internalType": "bytes32",
          "name": "role",
          "type": "bytes32"
        },
        {
          "indexed": true,
          "internalType": "bytes32",
          "name": "previousAdminRole",
          "type": "bytes32"
        },
        {
          "indexed": true,
          "internalType": "bytes32",
          "name": "newAdminRole",
          "type": "bytes32"
        }
      ],
      "name": "RoleAdminChanged",
      "type": "event"
    },
    {
      "anonymous": false,
      "inputs": [
        {
          "indexed": true,
          "internalType": "bytes32",
          "name": "role",
          "type": "bytes32"
        },
        {
          "indexed": true,
          "internalType": "address",
          "name": "account",
          "type": "address"
        },
        {
          "indexed": true,
          "internalType": "address",
          "name": "sender",
          "type": "address"
        }
      ],
      "name": "RoleGranted",
      "type": "event"
    },
    {
      "anonymous": false,
      "inputs": [
        {
          "indexed": true,
          "internalType": "bytes32",
          "name": "role",
          "type": "bytes32"
        },
        {
          "indexed": true,
          "internalType": "address",
          "name": "account",
          "type": "address"
        },
        {
          "indexed": true,
          "internalType": "address",
          "name": "sender",
          "type": "address"
        }
      ],
      "name": "RoleRevoked",
      "type": "event"
    },
    {
      "anonymous": false,
      "inputs": [
        {
          "indexed": true,
          "internalType": "uint64",
          "name": "epochId",
          "type": "uint64"
        },
        {
          "indexed": false,
          "internalType": "bytes32",
          "name": "merkleRoot",
          "type": "bytes32"
        },
        {
          "indexed": false,
          "internalType": "string",
          "name": "dataCID",
          "type": "string"
        }
      ],
      "name": "RootPublished",
      "type": "event"
    },
    {
      "anonymous": false,
      "inputs": [
        {
          "indexed": false,
          "internalType": "address",
          "name": "account",
          "type": "address"
        }
      ],
      "name": "Unpaused",
      "type": "event"
    },
    {
      "inputs": [],
      "name": "DEFAULT_ADMIN_ROLE",
      "outputs": [
        {
          "internalType": "bytes32",
          "name": "",
          "type": "bytes32"
        }
      ],
      "stateMutability": "view",
      "type": "function"
    },
    {
      "inputs": [],
      "name": "MANAGER_ROLE",
      "outputs": [
        {
          "internalType": "bytes32",
          "name": "",
          "type": "bytes32"
        }
      ],
      "stateMutability": "view",
      "type": "function"
    },
    {
      "inputs": [],
      "name": "ORACLE_ROLE",
      "outputs": [
        {
          "internalType": "bytes32",
          "name": "",
          "type": "bytes32"
        }
      ],
      "stateMutability": "view",
      "type": "function"
    },
    {
      "inputs": [],
      "name": "currentEpoch",
      "outputs": [
        {
          "internalType": "uint64",
          "name": "",
          "type": "uint64"
        }
      ],
      "stateMutability": "view",
      "type": "function"
    },
    {
      "inputs": [],
      "name": "epochMinInterval",
      "outputs": [
        {
          "internalType": "uint256",
          "name": "",
          "type": "uint256"
        }
      ],
      "stateMutability": "view",
      "type": "function"
    },
    {
      "inputs": [
        {
          "internalType": "uint64",
          "name": "",
          "type": "uint64"
        }
      ],
      "name": "epochs",
      "outputs": [
        {
          "internalType": "bytes32",
          "name": "merkleRoot",
          "type": "bytes32"
        },
        {
          "internalType": "string",
          "name": "dataCID",
          "type": "string"
        }
      ],
      "stateMutability": "view",
      "type": "function"
    },
    {
      "inputs": [
        {
          "internalType": "bytes32",
          "name": "role",
          "type": "bytes32"
        }
      ],
      "name": "getRoleAdmin",
      "outputs": [
        {
          "internalType": "bytes32",
          "name": "",
          "type": "bytes32"
        }
      ],
      "stateMutability": "view",
      "type": "function"
    },
    {
      "inputs": [
        {
          "internalType": "bytes32",
          "name": "role",
          "type": "bytes32"
        },
        {
          "internalType": "uint256",
          "name": "index",
          "type": "uint256"
        }
      ],
      "name": "getRoleMember",
      "outputs": [
        {
          "internalType": "address",
          "name": "",
          "type": "address"
        }
      ],
      "stateMutability": "view",
      "type": "function"
    },
    {
      "inputs": [
        {
          "internalType": "bytes32",
          "name": "role",
          "type": "bytes32"
        }
      ],
      "name": "getRoleMemberCount",
      "outputs": [
        {
          "internalType": "uint256",
          "name": "",
          "type": "uint256"
        }
      ],
      "stateMutability": "view",
      "type": "function"
    },
    {
      "inputs": [
        {
          "internalType": "bytes32",
          "name": "role",
          "type": "bytes32"
        }
      ],
      "name": "getRoleMembers",
      "outputs": [
        {
          "internalType": "address[]",
          "name": "",
          "type": "address[]"
        }
      ],
      "stateMutability": "view",
      "type": "function"
    },
    {
      "inputs": [
        {
          "internalType": "bytes32",
          "name": "role",
          "type": "bytes32"
        },
        {
          "internalType": "address",
          "name": "account",
          "type": "address"
        }
      ],
      "name": "grantRole",
      "outputs": [],
      "stateMutability": "nonpayable",
      "type": "function"
    },
    {
      "inputs": [
        {
          "internalType": "bytes32",
          "name": "role",
          "type": "bytes32"
        },
        {
          "internalType": "address",
          "name": "account",
          "type": "address"
        }
      ],
      "name": "hasRole",
      "outputs": [
        {
          "internalType": "bool",
          "name": "",
          "type": "bool"
        }
      ],
      "stateMutability": "view",
      "type": "function"
    },
    {
      "inputs": [],
      "name": "lastEpochTimestamp",
      "outputs": [
        {
          "internalType": "uint256",
          "name": "",
          "type": "uint256"
        }
      ],
      "stateMutability": "view",
      "type": "function"
    },
    {
      "inputs": [],
      "name": "pause",
      "outputs": [],
      "stateMutability": "nonpayable",
      "type": "function"
    },
    {
      "inputs": [],
      "name": "paused",
      "outputs": [
        {
          "internalType": "bool",
          "name": "",
          "type": "bool"
        }
      ],
      "stateMutability": "view",
      "type": "function"
    },
    {
      "inputs": [
        {
          "internalType": "bytes32",
          "name": "merkleRoot",
          "type": "bytes32"
        },
        {
          "internalType": "string",
          "name": "dataCID",
          "type": "string"
        }
      ],
      "name": "publishEpoch",
      "outputs": [],
      "stateMutability": "nonpayable",
      "type": "function"
    },
    {
      "inputs": [
        {
          "internalType": "bytes32",
          "name": "role",
          "type": "bytes32"
        },
        {
          "internalType": "address",
          "name": "callerConfirmation",
          "type": "address"
        }
      ],
      "name": "renounceRole",
      "outputs": [],
      "stateMutability": "nonpayable",
      "type": "function"
    },
    {
      "inputs": [
        {
          "internalType": "bytes32",
          "name": "role",
          "type": "bytes32"
        },
        {
          "internalType": "address",
          "name": "account",
          "type": "address"
        }
      ],
      "name": "revokeRole",
      "outputs": [],
      "stateMutability": "nonpayable",
      "type": "function"
    },
    {
      "inputs": [
        {
          "internalType": "uint256",
          "name": "newInterval",
          "type": "uint256"
        }
      ],
      "name": "setEpochMinInterval",
      "outputs": [],
      "stateMutability": "nonpayable",
      "type": "function"
    },
    {
      "inputs": [
        {
          "internalType": "bytes4",
          "name": "interfaceId",
          "type": "bytes4"
        }
      ],
      "name": "supportsInterface",
      "outputs": [
        {
          "internalType": "bool",
          "name": "",
          "type": "bool"
        }
      ],
      "stateMutability": "view",
      "type": "function"
    },
    {
      "inputs": [],
      "name": "unpause",
      "outputs": [],
      "stateMutability": "nonpayable",
      "type": "function"
    },
    {
      "inputs": [
        {
          "internalType": "uint64",
          "name": "epochId",
          "type": "uint64"
        },
        {
          "internalType": "bytes32",
          "name": "leaf",
          "type": "bytes32"
        },
        {
          "internalType": "bytes32[]",
          "name": "proof",
          "type": "bytes32[]"
        }
      ],
      "name": "verifyLeaf",
      "outputs": [
        {
          "internalType": "bool",
          "name": "",
          "type": "bool"
        }
      ],
      "stateMutability": "view",
      "type": "function"
    }
  ],
  "bytecode": "0x608060405234801561001057600080fd5b506040516124d43803806124d4833981810160405281019061003291906103b1565b600160028190555061004d6000801b8461008e60201b60201c565b5061007e7f68e79a7bf1e0bc45d0a330c573bc367f9cf464fd326078812f301165fbda4ef18361008e60201b60201c565b5080600581905550505050610404565b6000806100a184846100da60201b60201c565b905080156100d0576100ce83600160008781526020019081526020016000206101d760201b90919060201c565b505b8091505092915050565b60006100ec838361020d60201b60201c565b6101cc57600160008085815260200190815260200160002060000160008473ffffffffffffffffffffffffffffffffffffffff1673ffffffffffffffffffffffffffffffffffffffff16815260200190815260200160002060006101000a81548160ff02191690831515021790555061016961027760201b60201c565b73ffffffffffffffffffffffffffffffffffffffff168273ffffffffffffffffffffffffffffffffffffffff16847f2f8788117e7eff1d82e926ec794901d17c78024a50270940304540a733656f0d60405160405180910390a4600190506101d1565b600090505b92915050565b6000610205836000018373ffffffffffffffffffffffffffffffffffffffff1660001b61027f60201b60201c565b905092915050565b600080600084815260200190815260200160002060000160008373ffffffffffffffffffffffffffffffffffffffff1673ffffffffffffffffffffffffffffffffffffffff16815260200190815260200160002060009054906101000a900460ff16905092915050565b600033905090565b600061029183836102f560201b60201c565b6102ea5782600001829080600181540180825580915050600190039060005260206000200160009091909190915055826000018054905083600101600084815260200190815260200160002081905550600190506102ef565b600090505b92915050565b600080836001016000848152602001908152602001600020541415905092915050565b600080fd5b600073ffffffffffffffffffffffffffffffffffffffff82169050919050565b60006103488261031d565b9050919050565b6103588161033d565b811461036357600080fd5b50565b6000815190506103758161034f565b92915050565b6000819050919050565b61038e8161037b565b811461039957600080fd5b50565b6000815190506103ab81610385565b92915050565b6000806000606084860312156103ca576103c9610318565b5b60006103d886828701610366565b93505060206103e986828701610366565b92505060406103fa8682870161039c565b9150509250925092565b6120c1806104136000396000f3fe608060405234801561001057600080fd5b50600436106101425760003560e01c8063877cdbfd116100b8578063a6bde3701161007c578063a6bde37014610378578063ca15c87314610394578063d547741f146103c4578063ec87621c146103e0578063ef7a718d146103fe578063f64fc6471461041c57610142565b8063877cdbfd1461029a5780639010d07c146102ca57806391d14854146102fa578063a217fddf1461032a578063a3246ad31461034857610142565b80633f4ba83a1161010a5780633f4ba83a146101fd5780634bd2d7f9146102075780635b71a0d1146102385780635c975abb1461025457806376671808146102725780638456cb591461029057610142565b806301ffc9a71461014757806307e2cea514610177578063248a9ca3146101955780632f2ff15d146101c557806336568abe146101e1575b600080fd5b610161600480360381019061015c9190611578565b61043a565b60405161016e91906115c0565b60405180910390f35b61017f6104b4565b60405161018c91906115f4565b60405180910390f35b6101af60048036038101906101aa919061163b565b6104d8565b6040516101bc91906115f4565b60405180910390f35b6101df60048036038101906101da91906116c6565b6104f7565b005b6101fb60048036038101906101f691906116c6565b610519565b005b610205610594565b005b610221600480360381019061021c9190611746565b6105c9565b60405161022f929190611803565b60405180910390f35b610252600480360381019061024d9190611898565b610675565b005b61025c6108cf565b60405161026991906115c0565b60405180910390f35b61027a6108e6565b6040516102879190611907565b60405180910390f35b610298610900565b005b6102b460048036038101906102af9190611978565b610935565b6040516102c191906115c0565b60405180910390f35b6102e460048036038101906102df9190611a22565b6109cb565b6040516102f19190611a71565b60405180910390f35b610314600480360381019061030f91906116c6565b6109fa565b60405161032191906115c0565b60405180910390f35b610332610a64565b60405161033f91906115f4565b60405180910390f35b610362600480360381019061035d919061163b565b610a6b565b60405161036f9190611b4a565b60405180910390f35b610392600480360381019061038d9190611b6c565b610a8f565b005b6103ae60048036038101906103a9919061163b565b610ac4565b6040516103bb9190611ba8565b60405180910390f35b6103de60048036038101906103d991906116c6565b610ae8565b005b6103e8610b0a565b6040516103f591906115f4565b60405180910390f35b610406610b2e565b6040516104139190611ba8565b60405180910390f35b610424610b34565b6040516104319190611ba8565b60405180910390f35b60007f5a05180f000000000000000000000000000000000000000000000000000000007bffffffffffffffffffffffffffffffffffffffffffffffffffffffff1916827bffffffffffffffffffffffffffffffffffffffffffffffffffffffff191614806104ad57506104ac82610b3a565b5b9050919050565b7f68e79a7bf1e0bc45d0a330c573bc367f9cf464fd326078812f301165fbda4ef181565b6000806000838152602001908152602001600020600101549050919050565b610500826104d8565b61050981610bb4565b6105138383610bc8565b50505050565b610521610c0e565b73ffffffffffffffffffffffffffffffffffffffff168173ffffffffffffffffffffffffffffffffffffffff1614610585576040517f6697b23200000000000000000000000000000000000000000000000000000000815260040160405180910390fd5b61058f8282610c16565b505050565b7f241ecf16d79d0f8dbfb92cbc07fe17840425976cf0667f022fe9877caa831b086105be81610bb4565b6105c6610c5c565b50565b60066020528060005260406000206000915090508060000154908060010180546105f290611bf2565b80601f016020809104026020016040519081016040528092919081815260200182805461061e90611bf2565b801561066b5780601f106106405761010080835404028352916020019161066b565b820191906000526020600020905b81548152906001019060200180831161064e57829003601f168201915b5050505050905082565b7f68e79a7bf1e0bc45d0a330c573bc367f9cf464fd326078812f301165fbda4ef161069f81610bb4565b6106a7610cbf565b6106af610d03565b6000801b84036106eb576040517f53ce4ece00000000000000000000000000000000000000000000000000000000815260040160405180910390fd5b60008383905003610728576040517f63ee91d000000000000000000000000000000000000000000000000000000000815260040160405180910390fd5b610730610d44565b6000801b60066000600360019054906101000a900467ffffffffffffffff1667ffffffffffffffff1667ffffffffffffffff16815260200190815260200160002060000154146107ac576040517f5ba4da5a00000000000000000000000000000000000000000000000000000000815260040160405180910390fd5b604051806040016040528085815260200184848080601f016020809104026020016040519081016040528093929190818152602001838380828437600081840152601f19601f8201169050808301925050505050505081525060066000600360019054906101000a900467ffffffffffffffff1667ffffffffffffffff1667ffffffffffffffff1681526020019081526020016000206000820151816000015560208201518160010190816108619190611dfe565b50905050600360019054906101000a900467ffffffffffffffff1667ffffffffffffffff167f4b92fb724ebd693b8ff742ec7044713c91e3a77a7609544a11bd28b9013a1b558585856040516108b993929190611f0c565b60405180910390a26108c9610e33565b50505050565b6000600360009054906101000a900460ff16905090565b600360019054906101000a900467ffffffffffffffff1681565b7f241ecf16d79d0f8dbfb92cbc07fe17840425976cf0667f022fe9877caa831b0861092a81610bb4565b610932610e3d565b50565b600080600660008767ffffffffffffffff1667ffffffffffffffff1681526020019081526020016000206000015490506000801b81141580156109c057506109bf848480806020026020016040519081016040528093929190818152602001838360200280828437600081840152601f19601f820116905080830192505050505050508287610ea0565b5b915050949350505050565b60006109f28260016000868152602001908152602001600020610eb790919063ffffffff16565b905092915050565b600080600084815260200190815260200160002060000160008373ffffffffffffffffffffffffffffffffffffffff1673ffffffffffffffffffffffffffffffffffffffff16815260200190815260200160002060009054906101000a900460ff16905092915050565b6000801b81565b6060610a8860016000848152602001908152602001600020610ed1565b9050919050565b7f241ecf16d79d0f8dbfb92cbc07fe17840425976cf0667f022fe9877caa831b08610ab981610bb4565b816005819055505050565b6000610ae160016000848152602001908152602001600020610ef2565b9050919050565b610af1826104d8565b610afa81610bb4565b610b048383610c16565b50505050565b7f241ecf16d79d0f8dbfb92cbc07fe17840425976cf0667f022fe9877caa831b0881565b60055481565b60045481565b60007f7965db0b000000000000000000000000000000000000000000000000000000007bffffffffffffffffffffffffffffffffffffffffffffffffffffffff1916827bffffffffffffffffffffffffffffffffffffffffffffffffffffffff19161480610bad5750610bac82610f07565b5b9050919050565b610bc581610bc0610c0e565b610f71565b50565b600080610bd58484610fc2565b90508015610c0457610c0283600160008781526020019081526020016000206110b390919063ffffffff16565b505b8091505092915050565b600033905090565b600080610c2384846110e3565b90508015610c5257610c5083600160008781526020019081526020016000206111d590919063ffffffff16565b505b8091505092915050565b610c64611205565b6000600360006101000a81548160ff0219169083151502179055507f5db9ee0a495bf2e6ff9c91a7834c1ba4fdd244a5e8aa4e537bd38aeae4b073aa610ca8610c0e565b604051610cb59190611a71565b60405180910390a1565b6002805403610cfa576040517f3ee5aeb500000000000000000000000000000000000000000000000000000000815260040160405180910390fd5b60028081905550565b610d0b6108cf565b15610d42576040517fd93c066500000000000000000000000000000000000000000000000000000000815260040160405180910390fd5b565b600554600454610d549190611f6d565b4210610e31576000600554600454420381610d7257610d71611fa1565b5b04905080600360018282829054906101000a900467ffffffffffffffff160192506101000a81548167ffffffffffffffff021916908367ffffffffffffffff1602179055506005548167ffffffffffffffff160260046000828254019250508190555050600360019054906101000a900467ffffffffffffffff1667ffffffffffffffff167fd85392f2439b9215bf25b4b5dd4fe521f15df86ea616c4701a0745acc267b6cb600454604051610e289190611ba8565b60405180910390a25b565b6001600281905550565b610e45610d03565b6001600360006101000a81548160ff0219169083151502179055507f62e78cea01bee320cd4e420270b5ea74000d11b0c9f74754ebdbfc544b05a258610e89610c0e565b604051610e969190611a71565b60405180910390a1565b600082610ead8584611245565b1490509392505050565b6000610ec68360000183611295565b60001c905092915050565b60606000610ee1836000016112c0565b905060608190508092505050919050565b6000610f008260000161131c565b9050919050565b60007f01ffc9a7000000000000000000000000000000000000000000000000000000007bffffffffffffffffffffffffffffffffffffffffffffffffffffffff1916827bffffffffffffffffffffffffffffffffffffffffffffffffffffffff1916149050919050565b610f7b82826109fa565b610fbe5780826040517fe2517d3f000000000000000000000000000000000000000000000000000000008152600401610fb5929190611fd0565b60405180910390fd5b5050565b6000610fce83836109fa565b6110a857600160008085815260200190815260200160002060000160008473ffffffffffffffffffffffffffffffffffffffff1673ffffffffffffffffffffffffffffffffffffffff16815260200190815260200160002060006101000a81548160ff021916908315150217905550611045610c0e565b73ffffffffffffffffffffffffffffffffffffffff168273ffffffffffffffffffffffffffffffffffffffff16847f2f8788117e7eff1d82e926ec794901d17c78024a50270940304540a733656f0d60405160405180910390a4600190506110ad565b600090505b92915050565b60006110db836000018373ffffffffffffffffffffffffffffffffffffffff1660001b61132d565b905092915050565b60006110ef83836109fa565b156111ca57600080600085815260200190815260200160002060000160008473ffffffffffffffffffffffffffffffffffffffff1673ffffffffffffffffffffffffffffffffffffffff16815260200190815260200160002060006101000a81548160ff021916908315150217905550611167610c0e565b73ffffffffffffffffffffffffffffffffffffffff168273ffffffffffffffffffffffffffffffffffffffff16847ff6391f5c32d9c69d2a47ea670b442974b53935d1edc7fd64eb21e047a839171b60405160405180910390a4600190506111cf565b600090505b92915050565b60006111fd836000018373ffffffffffffffffffffffffffffffffffffffff1660001b61139d565b905092915050565b61120d6108cf565b611243576040517f8dfc202b00000000000000000000000000000000000000000000000000000000815260040160405180910390fd5b565b60008082905060005b845181101561128a5761127b8286838151811061126e5761126d611ff9565b5b60200260200101516114b1565b9150808060010191505061124e565b508091505092915050565b60008260000182815481106112ad576112ac611ff9565b5b9060005260206000200154905092915050565b60608160000180548060200260200160405190810160405280929190818152602001828054801561131057602002820191906000526020600020905b8154815260200190600101908083116112fc575b50505050509050919050565b600081600001805490509050919050565b600061133983836114dc565b611392578260000182908060018154018082558091505060019003906000526020600020016000909190919091505582600001805490508360010160008481526020019081526020016000208190555060019050611397565b600090505b92915050565b600080836001016000848152602001908152602001600020549050600081146114a55760006001826113cf9190612028565b90506000600186600001805490506113e79190612028565b905080821461145657600086600001828154811061140857611407611ff9565b5b906000526020600020015490508087600001848154811061142c5761142b611ff9565b5b90600052602060002001819055508387600101600083815260200190815260200160002081905550505b8560000180548061146a5761146961205c565b5b6001900381819060005260206000200160009055905585600101600086815260200190815260200160002060009055600193505050506114ab565b60009150505b92915050565b60008183106114c9576114c482846114ff565b6114d4565b6114d383836114ff565b5b905092915050565b600080836001016000848152602001908152602001600020541415905092915050565b600082600052816020526040600020905092915050565b600080fd5b600080fd5b60007fffffffff0000000000000000000000000000000000000000000000000000000082169050919050565b61155581611520565b811461156057600080fd5b50565b6000813590506115728161154c565b92915050565b60006020828403121561158e5761158d611516565b5b600061159c84828501611563565b91505092915050565b60008115159050919050565b6115ba816115a5565b82525050565b60006020820190506115d560008301846115b1565b92915050565b6000819050919050565b6115ee816115db565b82525050565b600060208201905061160960008301846115e5565b92915050565b611618816115db565b811461162357600080fd5b50565b6000813590506116358161160f565b92915050565b60006020828403121561165157611650611516565b5b600061165f84828501611626565b91505092915050565b600073ffffffffffffffffffffffffffffffffffffffff82169050919050565b600061169382611668565b9050919050565b6116a381611688565b81146116ae57600080fd5b50565b6000813590506116c08161169a565b92915050565b600080604083850312156116dd576116dc611516565b5b60006116eb85828601611626565b92505060206116fc858286016116b1565b9150509250929050565b600067ffffffffffffffff82169050919050565b61172381611706565b811461172e57600080fd5b50565b6000813590506117408161171a565b92915050565b60006020828403121561175c5761175b611516565b5b600061176a84828501611731565b91505092915050565b600081519050919050565b600082825260208201905092915050565b60005b838110156117ad578082015181840152602081019050611792565b60008484015250505050565b6000601f19601f8301169050919050565b60006117d582611773565b6117df818561177e565b93506117ef81856020860161178f565b6117f8816117b9565b840191505092915050565b600060408201905061181860008301856115e5565b818103602083015261182a81846117ca565b90509392505050565b600080fd5b600080fd5b600080fd5b60008083601f84011261185857611857611833565b5b8235905067ffffffffffffffff81111561187557611874611838565b5b6020830191508360018202830111156118915761189061183d565b5b9250929050565b6000806000604084860312156118b1576118b0611516565b5b60006118bf86828701611626565b935050602084013567ffffffffffffffff8111156118e0576118df61151b565b5b6118ec86828701611842565b92509250509250925092565b61190181611706565b82525050565b600060208201905061191c60008301846118f8565b92915050565b60008083601f84011261193857611937611833565b5b8235905067ffffffffffffffff81111561195557611954611838565b5b6020830191508360208202830111156119715761197061183d565b5b9250929050565b6000806000806060858703121561199257611991611516565b5b60006119a087828801611731565b94505060206119b187828801611626565b935050604085013567ffffffffffffffff8111156119d2576119d161151b565b5b6119de87828801611922565b925092505092959194509250565b6000819050919050565b6119ff816119ec565b8114611a0a57600080fd5b50565b600081359050611a1c816119f6565b92915050565b60008060408385031215611a3957611a38611516565b5b6000611a4785828601611626565b9250506020611a5885828601611a0d565b9150509250929050565b611a6b81611688565b82525050565b6000602082019050611a866000830184611a62565b92915050565b600081519050919050565b600082825260208201905092915050565b6000819050602082019050919050565b611ac181611688565b82525050565b6000611ad38383611ab8565b60208301905092915050565b6000602082019050919050565b6000611af782611a8c565b611b018185611a97565b9350611b0c83611aa8565b8060005b83811015611b3d578151611b248882611ac7565b9750611b2f83611adf565b925050600181019050611b10565b5085935050505092915050565b60006020820190508181036000830152611b648184611aec565b905092915050565b600060208284031215611b8257611b81611516565b5b6000611b9084828501611a0d565b91505092915050565b611ba2816119ec565b82525050565b6000602082019050611bbd6000830184611b99565b92915050565b7f4e487b7100000000000000000000000000000000000000000000000000000000600052602260045260246000fd5b60006002820490506001821680611c0a57607f821691505b602082108103611c1d57611c1c611bc3565b5b50919050565b7f4e487b7100000000000000000000000000000000000000000000000000000000600052604160045260246000fd5b60008190508160005260206000209050919050565b60006020601f8301049050919050565b600082821b905092915050565b600060088302611cb47fffffffffffffffffffffffffffffffffffffffffffffffffffffffffffffffff82611c77565b611cbe8683611c77565b95508019841693508086168417925050509392505050565b6000819050919050565b6000611cfb611cf6611cf1846119ec565b611cd6565b6119ec565b9050919050565b6000819050919050565b611d1583611ce0565b611d29611d2182611d02565b848454611c84565b825550505050565b600090565b611d3e611d31565b611d49818484611d0c565b505050565b5b81811015611d6d57611d62600082611d36565b600181019050611d4f565b5050565b601f821115611db257611d8381611c52565b611d8c84611c67565b81016020851015611d9b578190505b611daf611da785611c67565b830182611d4e565b50505b505050565b600082821c905092915050565b6000611dd560001984600802611db7565b1980831691505092915050565b6000611dee8383611dc4565b9150826002028217905092915050565b611e0782611773565b67ffffffffffffffff811115611e2057611e1f611c23565b5b611e2a8254611bf2565b611e35828285611d71565b600060209050601f831160018114611e685760008415611e56578287015190505b611e608582611de2565b865550611ec8565b601f198416611e7686611c52565b60005b82811015611e9e57848901518255600182019150602085019450602081019050611e79565b86831015611ebb5784890151611eb7601f891682611dc4565b8355505b6001600288020188555050505b505050505050565b82818337600083830152505050565b6000611eeb838561177e565b9350611ef8838584611ed0565b611f01836117b9565b840190509392505050565b6000604082019050611f2160008301866115e5565b8181036020830152611f34818486611edf565b9050949350505050565b7f4e487b7100000000000000000000000000000000000000000000000000000000600052601160045260246000fd5b6000611f78826119ec565b9150611f83836119ec565b9250828201905080821115611f9b57611f9a611f3e565b5b92915050565b7f4e487b7100000000000000000000000000000000000000000000000000000000600052601260045260246000fd5b6000604082019050611fe56000830185611a62565b611ff260208301846115e5565b9392505050565b7f4e487b7100000000000000000000000000000000000000000000000000000000600052603260045260246000fd5b6000612033826119ec565b915061203e836119ec565b925082820390508181111561205657612055611f3e565b5b92915050565b7f4e487b7100000000000000000000000000000000000000000000000000000000600052603160045260246000fdfea26469706673582212209d6d8ac4a0c8df346156b8f46b9d03d18c2df92623c242f33b99250c34fce05064736f6c634300081c0033",
  "linkReferences": {},
  "deployedLinkReferences": {}
}