{
  "_format": "hh-sol-artifact-1",
  "contractName": "ReentrantToken",
  "sourceName": "contracts/mocks/ReentrantToken.sol",
  "abi": [
    {
      "inputs": [
        {
          "internalType": "address",
          "name": "",
          "type": "address"
        }
      ],
      "name": "balanceOf",
      "outputs": [
        {
          "internalType": "uint256",
          "name": "",
          "type": "uint256"
        }
      ],
      "stateMutability": "view",
      "type": "function"
    },
    {
      "inputs": [],
      "name": "manager",
      "outputs": [
        {
          "internalType": "contract IGeoRewardManagerClaim",
          "name": "",
          "type": "address"
        }
      ],
      "stateMutability": "view",
      "type": "function"
    },
    {
      "inputs": [
        {
          "internalType": "address",
          "name": "to",
          "type": "address"
        },
        {
          "internalType": "uint256",
          "name": "amount",
          "type": "uint256"
        }
      ],
      "name": "mint",
      "outputs": [],
      "stateMutability": "nonpayable",
      "type": "function"
    },
    {
      "inputs": [
        {
          "internalType": "contract IGeoRewardManagerClaim",
          "name": "_manager",
          "type": "address"
        },
        {
          "internalType": "uint64",
          "name": "epochWeek",
          "type": "uint64"
        },
        {
          "internalType": "address",
          "name": "node",
          "type": "address"
        },
        {
          "internalType": "uint256",
          "name": "amount",
          "type": "uint256"
        },
        {
          "internalType": "bytes32[]",
          "name": "proof",
          "type": "bytes32[]"
        }
      ],
      "name": "setAttack",
      "outputs": [],
      "stateMutability": "nonpayable",
      "type": "function"
    },
    {
      "inputs": [
        {
          "internalType": "address",
          "name": "to",
          "type": "address"
        },
        {
          "internalType": "uint256",
          "name": "amount",
          "type": "uint256"
        }
      ],
      "name": "transfer",
      "outputs": [
        {
          "internalType": "bool",
          "name": "",
          "type": "bool"
        }
      ],
      "stateMutability": "nonpayable",
      "type": "function"
    }
  ],
  "bytecode": "0x608060405234801561001057600080fd5b50610abc806100206000396000f3fe608060405234801561001057600080fd5b50600436106100575760003560e01c806340c10f191461005c578063481c6a75146100785780634885f8a51461009657806370a08231146100b2578063a9059cbb146100e2575b600080fd5b6100766004803603810190610071919061057a565b610112565b005b61008061016b565b60405161008d9190610619565b60405180910390f35b6100b060048036038101906100ab9190610717565b610191565b005b6100cc60048036038101906100c791906107b1565b6102d1565b6040516100d991906107ed565b60405180910390f35b6100fc60048036038101906100f7919061057a565b6102e9565b6040516101099190610823565b60405180910390f35b806000808473ffffffffffffffffffffffffffffffffffffffff1673ffffffffffffffffffffffffffffffffffffffff1681526020019081526020016000206000828254610160919061086d565b925050819055505050565b600160009054906101000a900473ffffffffffffffffffffffffffffffffffffffff1681565b85600160006101000a81548173ffffffffffffffffffffffffffffffffffffffff021916908373ffffffffffffffffffffffffffffffffffffffff16021790555084600160156101000a81548167ffffffffffffffff021916908367ffffffffffffffff16021790555083600260006101000a81548173ffffffffffffffffffffffffffffffffffffffff021916908373ffffffffffffffffffffffffffffffffffffffff1602179055508260038190555060046000610251919061049e565b60005b828290508110156102ae576004838383818110610274576102736108a1565b5b9050602002013590806001815401808255809150506001900390600052602060002001600090919091909150558080600101915050610254565b5060018060146101000a81548160ff021916908315150217905550505050505050565b60006020528060005260406000206000915090505481565b6000816000803373ffffffffffffffffffffffffffffffffffffffff1673ffffffffffffffffffffffffffffffffffffffff168152602001908152602001600020600082825461033991906108d0565b92505081905550816000808573ffffffffffffffffffffffffffffffffffffffff1673ffffffffffffffffffffffffffffffffffffffff168152602001908152602001600020600082825461038e919061086d565b92505081905550600160149054906101000a900460ff1615610494576000600160146101000a81548160ff021916908315150217905550600160009054906101000a900473ffffffffffffffffffffffffffffffffffffffff1673ffffffffffffffffffffffffffffffffffffffff1663a2f94bd3600160159054906101000a900467ffffffffffffffff16600260009054906101000a900473ffffffffffffffffffffffffffffffffffffffff1660035460046040518563ffffffff1660e01b81526004016104619493929190610a3a565b600060405180830381600087803b15801561047b57600080fd5b505af115801561048f573d6000803e3d6000fd5b505050505b6001905092915050565b50805460008255906000526020600020908101906104bc91906104bf565b50565b5b808211156104d85760008160009055506001016104c0565b5090565b600080fd5b600080fd5b600073ffffffffffffffffffffffffffffffffffffffff82169050919050565b6000610511826104e6565b9050919050565b61052181610506565b811461052c57600080fd5b50565b60008135905061053e81610518565b92915050565b6000819050919050565b61055781610544565b811461056257600080fd5b50565b6000813590506105748161054e565b92915050565b60008060408385031215610591576105906104dc565b5b600061059f8582860161052f565b92505060206105b085828601610565565b9150509250929050565b6000819050919050565b60006105df6105da6105d5846104e6565b6105ba565b6104e6565b9050919050565b60006105f1826105c4565b9050919050565b6000610603826105e6565b9050919050565b610613816105f8565b82525050565b600060208201905061062e600083018461060a565b92915050565b600061063f82610506565b9050919050565b61064f81610634565b811461065a57600080fd5b50565b60008135905061066c81610646565b92915050565b600067ffffffffffffffff82169050919050565b61068f81610672565b811461069a57600080fd5b50565b6000813590506106ac81610686565b92915050565b600080fd5b600080fd5b600080fd5b60008083601f8401126106d7576106d66106b2565b5b8235905067ffffffffffffffff8111156106f4576106f36106b7565b5b6020830191508360208202830111156107105761070f6106bc565b5b9250929050565b60008060008060008060a08789031215610734576107336104dc565b5b600061074289828a0161065d565b965050602061075389828a0161069d565b955050604061076489828a0161052f565b945050606061077589828a01610565565b935050608087013567ffffffffffffffff811115610796576107956104e1565b5b6107a289828a016106c1565b92509250509295509295509295565b6000602082840312156107c7576107c66104dc565b5b60006107d58482850161052f565b91505092915050565b6107e781610544565b82525050565b600060208201905061080260008301846107de565b92915050565b60008115159050919050565b61081d81610808565b82525050565b60006020820190506108386000830184610814565b92915050565b7f4e487b7100000000000000000000000000000000000000000000000000000000600052601160045260246000fd5b600061087882610544565b915061088383610544565b925082820190508082111561089b5761089a61083e565b5b92915050565b7f4e487b7100000000000000000000000000000000000000000000000000000000600052603260045260246000fd5b60006108db82610544565b91506108e683610544565b92508282039050818111156108fe576108fd61083e565b5b92915050565b61090d81610672565b82525050565b61091c81610506565b82525050565b600081549050919050565b600082825260208201905092915050565b60008190508160005260206000209050919050565b6000819050919050565b61096681610953565b82525050565b6000610978838361095d565b60208301905092915050565b60008160001c9050919050565b6000819050919050565b60006109ae6109a983610984565b610991565b9050919050565b60006109c1825461099b565b9050919050565b6000600182019050919050565b60006109e082610922565b6109ea818561092d565b93506109f58361093e565b8060005b83811015610a2d57610a0a826109b5565b610a14888261096c565b9750610a1f836109c8565b9250506001810190506109f9565b5085935050505092915050565b6000608082019050610a4f6000830187610904565b610a5c6020830186610913565b610a6960408301856107de565b8181036060830152610a7b81846109d5565b90509594505050505056fea26469706673582212205eaa2fa91167d7fa58f6d27d2a8a0b0caee3c63a9403c57c392ea86bce88307264736f6c63430008180033",
  "linkReferences": {},
  "deployedLinkReferences": {}
}