{
  "_format": "hh-sol-artifact-1",
  "contractName": "MockGeoCellIDLib",
  "sourceName": "contracts/mocks/MockGeoCellIDLib.sol",
  "abi": [
    {
      "inputs": [],
      "name": "InvalidAggregationTarget",
      "type": "error"
    },
    {
      "inputs": [],
      "name": "InvalidDigit",
      "type": "error"
    },
    {
      "inputs": [],
      "name": "RootLevelHasNoParent",
      "type": "error"
    },
    {
      "inputs": [
        {
          "internalType": "uint64",
          "name": "geoId",
          "type": "uint64"
        },
        {
          "internalType": "uint8",
          "name": "targetLevel",
          "type": "uint8"
        }
      ],
      "name": "aggregationGroup",
      "outputs": [
        {
          "internalType": "uint64",
          "name": "",
          "type": "uint64"
        }
      ],
      "stateMutability": "pure",
      "type": "function"
    },
    {
      "inputs": [
        {
          "internalType": "uint64",
          "name": "geoId",
          "type": "uint64"
        }
      ],
      "name": "clearHeader",
      "outputs": [
        {
          "internalType": "uint64",
          "name": "",
          "type": "uint64"
        }
      ],
      "stateMutability": "pure",
      "type": "function"
    },
    {
      "inputs": [
        {
          "internalType": "uint64",
          "name": "geoId",
          "type": "uint64"
        }
      ],
      "name": "extractBaseCell",
      "outputs": [
        {
          "internalType": "uint8",
          "name": "",
          "type": "uint8"
        }
      ],
      "stateMutability": "pure",
      "type": "function"
    },
    {
      "inputs": [
        {
          "internalType": "uint128",
          "name": "geo128",
          "type": "uint128"
        }
      ],
      "name": "extractGeoCellPart",
      "outputs": [
        {
          "internalType": "uint64",
          "name": "",
          "type": "uint64"
        }
      ],
      "stateMutability": "pure",
      "type": "function"
    },
    {
      "inputs": [
        {
          "internalType": "uint64",
          "name": "geoId",
          "type": "uint64"
        }
      ],
      "name": "extractHeader",
      "outputs": [
        {
          "internalType": "uint8",
          "name": "",
          "type": "uint8"
        }
      ],
      "stateMutability": "pure",
      "type": "function"
    },
    {
      "inputs": [
        {
          "internalType": "uint64",
          "name": "geoId",
          "type": "uint64"
        }
      ],
      "name": "extractLevel",
      "outputs": [
        {
          "internalType": "uint8",
          "name": "",
          "type": "uint8"
        }
      ],
      "stateMutability": "pure",
      "type": "function"
    },
    {
      "inputs": [
        {
          "internalType": "uint128",
          "name": "geo128",
          "type": "uint128"
        }
      ],
      "name": "extractMetaPart",
      "outputs": [
        {
          "internalType": "uint64",
          "name": "",
          "type": "uint64"
        }
      ],
      "stateMutability": "pure",
      "type": "function"
    },
    {
      "inputs": [
        {
          "internalType": "uint64",
          "name": "geoId",
          "type": "uint64"
        },
        {
          "internalType": "uint8",
          "name": "digit",
          "type": "uint8"
        }
      ],
      "name": "extractResolutionDigit",
      "outputs": [
        {
          "internalType": "uint8",
          "name": "",
          "type": "uint8"
        }
      ],
      "stateMutability": "pure",
      "type": "function"
    },
    {
      "inputs": [
        {
          "internalType": "uint64",
          "name": "ancestor",
          "type": "uint64"
        },
        {
          "internalType": "uint64",
          "name": "descendant",
          "type": "uint64"
        }
      ],
      "name": "isAncestorOf",
      "outputs": [
        {
          "internalType": "bool",
          "name": "",
          "type": "bool"
        }
      ],
      "stateMutability": "pure",
      "type": "function"
    },
    {
      "inputs": [
        {
          "internalType": "uint64",
          "name": "a",
          "type": "uint64"
        },
        {
          "internalType": "uint64",
          "name": "b",
          "type": "uint64"
        },
        {
          "internalType": "uint8",
          "name": "targetLevel",
          "type": "uint8"
        }
      ],
      "name": "isSameRoot",
      "outputs": [
        {
          "internalType": "bool",
          "name": "",
          "type": "bool"
        }
      ],
      "stateMutability": "pure",
      "type": "function"
    },
    {
      "inputs": [
        {
          "internalType": "uint64",
          "name": "a",
          "type": "uint64"
        },
        {
          "internalType": "uint64",
          "name": "b",
          "type": "uint64"
        }
      ],
      "name": "isSiblingOf",
      "outputs": [
        {
          "internalType": "bool",
          "name": "",
          "type": "bool"
        }
      ],
      "stateMutability": "pure",
      "type": "function"
    },
    {
      "inputs": [
        {
          "internalType": "uint8",
          "name": "level",
          "type": "uint8"
        }
      ],
      "name": "isValidLevel",
      "outputs": [
        {
          "internalType": "bool",
          "name": "",
          "type": "bool"
        }
      ],
      "stateMutability": "pure",
      "type": "function"
    },
    {
      "inputs": [
        {
          "internalType": "uint64",
          "name": "geoId",
          "type": "uint64"
        },
        {
          "internalType": "uint64",
          "name": "mask",
          "type": "uint64"
        },
        {
          "internalType": "uint64",
          "name": "value",
          "type": "uint64"
        }
      ],
      "name": "matchesHeader",
      "outputs": [
        {
          "internalType": "bool",
          "name": "",
          "type": "bool"
        }
      ],
      "stateMutability": "pure",
      "type": "function"
    },
    {
      "inputs": [
        {
          "internalType": "uint64",
          "name": "geoId",
          "type": "uint64"
        }
      ],
      "name": "parentOf",
      "outputs": [
        {
          "internalType": "uint64",
          "name": "",
          "type": "uint64"
        }
      ],
      "stateMutability": "pure",
      "type": "function"
    },
    {
      "inputs": [
        {
          "internalType": "uint64",
          "name": "geoId",
          "type": "uint64"
        },
        {
          "internalType": "uint8",
          "name": "header",
          "type": "uint8"
        }
      ],
      "name": "setHeader",
      "outputs": [
        {
          "internalType": "uint64",
          "name": "",
          "type": "uint64"
        }
      ],
      "stateMutability": "pure",
      "type": "function"
    }
  ],
  "bytecode": "0x608060405234801561001057600080fd5b50610def806100206000396000f3fe608060405234801561001057600080fd5b50600436106100f55760003560e01c806381a44a5411610097578063b3a20f1c11610066578063b3a20f1c1461030a578063b61f93e91461033a578063e36651dc1461036a578063fc5a32c41461039a576100f5565b806381a44a541461024a5780638796dd151461027a5780639655850b146102aa5780639d05a04c146102da576100f5565b8063639adc95116100d3578063639adc951461018a5780636579b6fe146101ba57806378114b0c146101ea5780637e5d60931461021a576100f5565b80630ee4326b146100fa57806338a158cf1461012a5780635f19a6c21461015a575b600080fd5b610114600480360381019061010f9190610a64565b6103ca565b6040516101219190610ab3565b60405180910390f35b610144600480360381019061013f9190610ace565b6103de565b6040516101519190610ab3565b60405180910390f35b610174600480360381019061016f9190610afb565b6103f0565b6040516101819190610b56565b60405180910390f35b6101a4600480360381019061019f9190610b71565b610404565b6040516101b19190610b56565b60405180910390f35b6101d460048036038101906101cf9190610ace565b61041a565b6040516101e19190610bd3565b60405180910390f35b61020460048036038101906101ff9190610ace565b61042c565b6040516102119190610ab3565b60405180910390f35b610234600480360381019061022f9190610bee565b61043e565b6040516102419190610b56565b60405180910390f35b610264600480360381019061025f9190610c63565b610450565b6040516102719190610bd3565b60405180910390f35b610294600480360381019061028f9190610ace565b610462565b6040516102a19190610bd3565b60405180910390f35b6102c460048036038101906102bf9190610c63565b610474565b6040516102d19190610bd3565b60405180910390f35b6102f460048036038101906102ef9190610afb565b610486565b6040516103019190610b56565b60405180910390f35b610324600480360381019061031f9190610a64565b61049a565b6040516103319190610bd3565b60405180910390f35b610354600480360381019061034f9190610ace565b6104ae565b6040516103619190610ab3565b60405180910390f35b610384600480360381019061037f9190610a64565b6104c0565b6040516103919190610bd3565b60405180910390f35b6103b460048036038101906103af9190610c90565b6104d4565b6040516103c19190610b56565b60405180910390f35b60006103d683836104ea565b905092915050565b60006103e98261054d565b9050919050565b60006103fc8383610565565b905092915050565b6000610411848484610618565b90509392505050565b6000610425826106cc565b9050919050565b600061043782610774565b9050919050565b600061044982610792565b9050919050565b600061045b826107a6565b9050919050565b600061046d826107c6565b9050919050565b600061047f826107d9565b9050919050565b600061049283836107e3565b905092915050565b60006104a683836108bd565b905092915050565b60006104b9826108e4565b9050919050565b60006104cc8383610902565b905092915050565b60006104e1848484610980565b90509392505050565b600060018260ff1610806105045750600f60ff168260ff16115b1561053b576040517f8fa0415700000000000000000000000000000000000000000000000000000000815260040160405180910390fd5b61054583836109a4565b905092915050565b600060388267ffffffffffffffff16901c9050919050565b60008061057184610774565b9050600061057e84610774565b90508060ff168260ff161061059857600092505050610612565b6105a1846108e4565b60ff166105ad866108e4565b60ff16146105c057600092505050610612565b6000600190505b8260ff168160ff161161060a576105de85826109a4565b60ff166105eb87836109a4565b60ff16146105ff5760009350505050610612565b8060010190506105c7565b506001925050505b92915050565b60008160ff1661062785610774565b60ff16108061064357508160ff1661063e84610774565b60ff16105b1561065157600090506106c5565b61065a836108e4565b60ff16610666856108e4565b60ff161461067757600090506106c5565b6000600190505b8260ff168160ff16116106bf5761069584826109a4565b60ff166106a286836109a4565b60ff16146106b45760009150506106c5565b80600101905061067e565b50600190505b9392505050565b6000806106d883610774565b905060008160ff1603610717576040517f0498e2c500000000000000000000000000000000000000000000000000000000815260040160405180910390fd5b60006003600183030260130160ff16600767ffffffffffffffff16901b1990508084169250600860ff166001830360ff1667ffffffffffffffff16901b600860ff16600f67ffffffffffffffff16901b1984161792505050919050565b6000600f600860ff168367ffffffffffffffff16901c169050919050565b6000600f60ff168260ff1611159050919050565b60006040826fffffffffffffffffffffffffffffffff16901c9050919050565b600066ffffffffffffff82169050919050565b6000819050919050565b6000806107ef84610774565b90506107fa83610774565b60ff168160ff16146108105760009150506108b7565b60008160ff16036108255760009150506108b7565b61082e836108e4565b60ff1661083a856108e4565b60ff161461084c5760009150506108b7565b6000600190505b8160ff168160ff1610156108965761086b84826109a4565b60ff1661087886836109a4565b60ff161461088b576000925050506108b7565b806001019050610853565b506108a183826109a4565b60ff166108ae85836109a4565b60ff1614159150505b92915050565b600066ffffffffffffff831660388360ff1667ffffffffffffffff16901b17905092915050565b6000607f600c60ff168367ffffffffffffffff16901c169050919050565b60008061090e84610774565b90508260ff168160ff161015610950576040517f560ff04f00000000000000000000000000000000000000000000000000000000815260040160405180910390fd5b5b8260ff168160ff16111561097657610968846106cc565b935080600190039050610951565b8391505092915050565b60008167ffffffffffffffff1683851667ffffffffffffffff161490509392505050565b6000600760036001846109b79190610d12565b6109c19190610d47565b60136109cd9190610d84565b60ff168467ffffffffffffffff16901c16905092915050565b600080fd5b600067ffffffffffffffff82169050919050565b610a08816109eb565b8114610a1357600080fd5b50565b600081359050610a25816109ff565b92915050565b600060ff82169050919050565b610a4181610a2b565b8114610a4c57600080fd5b50565b600081359050610a5e81610a38565b92915050565b60008060408385031215610a7b57610a7a6109e6565b5b6000610a8985828601610a16565b9250506020610a9a85828601610a4f565b9150509250929050565b610aad81610a2b565b82525050565b6000602082019050610ac86000830184610aa4565b92915050565b600060208284031215610ae457610ae36109e6565b5b6000610af284828501610a16565b91505092915050565b60008060408385031215610b1257610b116109e6565b5b6000610b2085828601610a16565b9250506020610b3185828601610a16565b9150509250929050565b60008115159050919050565b610b5081610b3b565b82525050565b6000602082019050610b6b6000830184610b47565b92915050565b600080600060608486031215610b8a57610b896109e6565b5b6000610b9886828701610a16565b9350506020610ba986828701610a16565b9250506040610bba86828701610a4f565b9150509250925092565b610bcd816109eb565b82525050565b6000602082019050610be86000830184610bc4565b92915050565b600060208284031215610c0457610c036109e6565b5b6000610c1284828501610a4f565b91505092915050565b60006fffffffffffffffffffffffffffffffff82169050919050565b610c4081610c1b565b8114610c4b57600080fd5b50565b600081359050610c5d81610c37565b92915050565b600060208284031215610c7957610c786109e6565b5b6000610c8784828501610c4e565b91505092915050565b600080600060608486031215610ca957610ca86109e6565b5b6000610cb786828701610a16565b9350506020610cc886828701610a16565b9250506040610cd986828701610a16565b9150509250925092565b7f4e487b7100000000000000000000000000000000000000000000000000000000600052601160045260246000fd5b6000610d1d82610a2b565b9150610d2883610a2b565b9250828203905060ff811115610d4157610d40610ce3565b5b92915050565b6000610d5282610a2b565b9150610d5d83610a2b565b9250828202610d6b81610a2b565b9150808214610d7d57610d7c610ce3565b5b5092915050565b6000610d8f82610a2b565b9150610d9a83610a2b565b9250828201905060ff811115610db357610db2610ce3565b5b9291505056fea2646970667358221220bb6bdbe20545307bf4cacfc04ea6463b57f411931be93354efe703c93a32163364736f6c63430008180033",
  "linkReferences": {},
  "deployedLinkReferences": {}
}