{
  "_format": "hh-sol-artifact-1",
  "contractName": "GeoDataRegistry",
  "sourceName": "contracts/GeoDataRegistry.sol",
  "abi": [
    {
      "inputs": [
        {
          "internalType": "address",
          "name": "admin",
          "type": "address"
        },
        {
          "internalType": "address",
          "name": "oracle",
          "type": "address"
        },
        {
          "internalType": "address",
          "name": "manager",
          "type": "address"
        },
        {
          "internalType": "uint256",
          "name": "_epochMinInterval",
          "type": "uint256"
        }
      ],
      "stateMutability": "nonpayable",
      "type": "constructor"
    },
    {
      "inputs": [],
      "name": "AccessControlBadConfirmation",
      "type": "error"
    },
    {
      "inputs": [
        {
          "internalType": "address",
          "name": "account",
          "type": "address"
        },
        {
          "internalType": "bytes32",
          "name": "neededRole",
          "type": "bytes32"
        }
      ],
      "name": "AccessControlUnauthorizedAccount",
      "type": "error"
    },
    {
      "inputs": [],
      "name": "ArrayLengthMismatch",
      "type": "error"
    },
    {
      "inputs": [],
      "name": "BatchRootAlreadyRegistered",
      "type": "error"
    },
    {
      "inputs": [],
      "name": "EmptyCID",
      "type": "error"
    },
    {
      "inputs": [],
      "name": "EmptyRoot",
      "type": "error"
    },
    {
      "inputs": [],
      "name": "EnforcedPause",
      "type": "error"
    },
    {
      "inputs": [],
      "name": "ExpectedPause",
      "type": "error"
    },
    {
      "inputs": [],
      "name": "ReentrancyGuardReentrantCall",
      "type": "error"
    },
    {
      "inputs": [],
      "name": "SensorResolutionExceeded",
      "type": "error"
    },
    {
      "inputs": [],
      "name": "SensorTypeNotAllowed",
      "type": "error"
    },
    {
      "anonymous": false,
      "inputs": [
        {
          "indexed": false,
          "internalType": "uint256",
          "name": "newInterval",
          "type": "uint256"
        }
      ],
      "name": "EpochMinIntervalSet",
      "type": "event"
    },
    {
      "anonymous": false,
      "inputs": [
        {
          "indexed": true,
          "internalType": "uint64",
          "name": "epoch",
          "type": "uint64"
        },
        {
          "indexed": false,
          "internalType": "uint256",
          "name": "timestamp",
          "type": "uint256"
        }
      ],
      "name": "EpochStarted",
      "type": "event"
    },
    {
      "anonymous": false,
      "inputs": [
        {
          "indexed": true,
          "internalType": "uint64",
          "name": "epoch",
          "type": "uint64"
        },
        {
          "indexed": true,
          "internalType": "uint64",
          "name": "geoBatchId",
          "type": "uint64"
        },
        {
          "indexed": false,
          "internalType": "bytes32",
          "name": "merkleRoot",
          "type": "bytes32"
        },
        {
          "indexed": false,
          "internalType": "string",
          "name": "dataCID",
          "type": "string"
        },
        {
          "indexed": false,
          "internalType": "uint8",
          "name": "level",
          "type": "uint8"
        }
      ],
      "name": "GeoBatchRegistered",
      "type": "event"
    },
    {
      "anonymous": false,
      "inputs": [
        {
          "indexed": true,
          "internalType": "uint64",
          "name": "epoch",
          "type": "uint64"
        },
        {
          "indexed": true,
          "internalType": "uint64",
          "name": "geoBatchId",
          "type": "uint64"
        },
        {
          "indexed": false,
          "internalType": "string",
          "name": "reason",
          "type": "string"
        }
      ],
      "name": "GeoBatchRejected",
      "type": "event"
    },
    {
      "anonymous": false,
      "inputs": [
        {
          "indexed": false,
          "internalType": "address",
          "name": "oracle",
          "type": "address"
        }
      ],
      "name": "OracleAdded",
      "type": "event"
    },
    {
      "anonymous": false,
      "inputs": [
        {
          "indexed": false,
          "internalType": "address",
          "name": "oracle",
          "type": "address"
        }
      ],
      "name": "OracleRemoved",
      "type": "event"
    },
    {
      "anonymous": false,
      "inputs": [
        {
          "indexed": false,
          "internalType": "address",
          "name": "account",
          "type": "address"
        }
      ],
      "name": "Paused",
      "type": "event"
    },
    {
      "anonymous": false,
      "inputs": [
        {
          "indexed": true,
          "internalType": "bytes32",
          "name": "role",
          "type": "bytes32"
        },
        {
          "indexed": true,
          "internalType": "bytes32",
          "name": "previousAdminRole",
          "type": "bytes32"
        },
        {
          "indexed": true,
          "internalType": "bytes32",
          "name": "newAdminRole",
          "type": "bytes32"
        }
      ],
      "name": "RoleAdminChanged",
      "type": "event"
    },
    {
      "anonymous": false,
      "inputs": [
        {
          "indexed": true,
          "internalType": "bytes32",
          "name": "role",
          "type": "bytes32"
        },
        {
          "indexed": true,
          "internalType": "address",
          "name": "account",
          "type": "address"
        },
        {
          "indexed": true,
          "internalType": "address",
          "name": "sender",
          "type": "address"
        }
      ],
      "name": "RoleGranted",
      "type": "event"
    },
    {
      "anonymous": false,
      "inputs": [
        {
          "indexed": true,
          "internalType": "bytes32",
          "name": "role",
          "type": "bytes32"
        },
        {
          "indexed": true,
          "internalType": "address",
          "name": "account",
          "type": "address"
        },
        {
          "indexed": true,
          "internalType": "address",
          "name": "sender",
          "type": "address"
        }
      ],
      "name": "RoleRevoked",
      "type": "event"
    },
    {
      "anonymous": false,
      "inputs": [
        {
          "indexed": false,
          "internalType": "uint8",
          "name": "sensorType",
          "type": "uint8"
        },
        {
          "indexed": false,
          "internalType": "uint8",
          "name": "maxResolution",
          "type": "uint8"
        }
      ],
      "name": "SensorTypeSet",
      "type": "event"
    },
    {
      "anonymous": false,
      "inputs": [
        {
          "indexed": false,
          "internalType": "address",
          "name": "account",
          "type": "address"
        }
      ],
      "name": "Unpaused",
      "type": "event"
    },
    {
      "inputs": [],
      "name": "DEFAULT_ADMIN_ROLE",
      "outputs": [
        {
          "internalType": "bytes32",
          "name": "",
          "type": "bytes32"
        }
      ],
      "stateMutability": "view",
      "type": "function"
    },
    {
      "inputs": [],
      "name": "MANAGER_ROLE",
      "outputs": [
        {
          "internalType": "bytes32",
          "name": "",
          "type": "bytes32"
        }
      ],
      "stateMutability": "view",
      "type": "function"
    },
    {
      "inputs": [],
      "name": "ORACLE_ROLE",
      "outputs": [
        {
          "internalType": "bytes32",
          "name": "",
          "type": "bytes32"
        }
      ],
      "stateMutability": "view",
      "type": "function"
    },
    {
      "inputs": [
        {
          "internalType": "address",
          "name": "oracle",
          "type": "address"
        }
      ],
      "name": "addOracle",
      "outputs": [],
      "stateMutability": "nonpayable",
      "type": "function"
    },
    {
      "inputs": [],
      "name": "currentEpoch",
      "outputs": [
        {
          "internalType": "uint64",
          "name": "",
          "type": "uint64"
        }
      ],
      "stateMutability": "view",
      "type": "function"
    },
    {
      "inputs": [],
      "name": "epochMinInterval",
      "outputs": [
        {
          "internalType": "uint256",
          "name": "",
          "type": "uint256"
        }
      ],
      "stateMutability": "view",
      "type": "function"
    },
    {
      "inputs": [
        {
          "internalType": "uint64",
          "name": "",
          "type": "uint64"
        },
        {
          "internalType": "uint64",
          "name": "",
          "type": "uint64"
        }
      ],
      "name": "geoBatches",
      "outputs": [
        {
          "internalType": "bytes32",
          "name": "merkleRoot",
          "type": "bytes32"
        },
        {
          "internalType": "string",
          "name": "dataCID",
          "type": "string"
        }
      ],
      "stateMutability": "view",
      "type": "function"
    },
    {
      "inputs": [
        {
          "internalType": "uint64",
          "name": "epoch",
          "type": "uint64"
        },
        {
          "internalType": "uint64",
          "name": "geoBatchId",
          "type": "uint64"
        }
      ],
      "name": "getGeoBatch",
      "outputs": [
        {
          "components": [
            {
              "internalType": "bytes32",
              "name": "merkleRoot",
              "type": "bytes32"
            },
            {
              "internalType": "string",
              "name": "dataCID",
              "type": "string"
            }
          ],
          "internalType": "struct GeoDataRegistry.GeoBatchMetadata",
          "name": "",
          "type": "tuple"
        }
      ],
      "stateMutability": "view",
      "type": "function"
    },
    {
      "inputs": [
        {
          "internalType": "bytes32",
          "name": "role",
          "type": "bytes32"
        }
      ],
      "name": "getRoleAdmin",
      "outputs": [
        {
          "internalType": "bytes32",
          "name": "",
          "type": "bytes32"
        }
      ],
      "stateMutability": "view",
      "type": "function"
    },
    {
      "inputs": [
        {
          "internalType": "bytes32",
          "name": "role",
          "type": "bytes32"
        },
        {
          "internalType": "uint256",
          "name": "index",
          "type": "uint256"
        }
      ],
      "name": "getRoleMember",
      "outputs": [
        {
          "internalType": "address",
          "name": "",
          "type": "address"
        }
      ],
      "stateMutability": "view",
      "type": "function"
    },
    {
      "inputs": [
        {
          "internalType": "bytes32",
          "name": "role",
          "type": "bytes32"
        }
      ],
      "name": "getRoleMemberCount",
      "outputs": [
        {
          "internalType": "uint256",
          "name": "",
          "type": "uint256"
        }
      ],
      "stateMutability": "view",
      "type": "function"
    },
    {
      "inputs": [
        {
          "internalType": "bytes32",
          "name": "role",
          "type": "bytes32"
        }
      ],
      "name": "getRoleMembers",
      "outputs": [
        {
          "internalType": "address[]",
          "name": "",
          "type": "address[]"
        }
      ],
      "stateMutability": "view",
      "type": "function"
    },
    {
      "inputs": [
        {
          "internalType": "bytes32",
          "name": "role",
          "type": "bytes32"
        },
        {
          "internalType": "address",
          "name": "account",
          "type": "address"
        }
      ],
      "name": "grantRole",
      "outputs": [],
      "stateMutability": "nonpayable",
      "type": "function"
    },
    {
      "inputs": [
        {
          "internalType": "bytes32",
          "name": "role",
          "type": "bytes32"
        },
        {
          "internalType": "address",
          "name": "account",
          "type": "address"
        }
      ],
      "name": "hasRole",
      "outputs": [
        {
          "internalType": "bool",
          "name": "",
          "type": "bool"
        }
      ],
      "stateMutability": "view",
      "type": "function"
    },
    {
      "inputs": [],
      "name": "lastEpochTimestamp",
      "outputs": [
        {
          "internalType": "uint256",
          "name": "",
          "type": "uint256"
        }
      ],
      "stateMutability": "view",
      "type": "function"
    },
    {
      "inputs": [],
      "name": "pause",
      "outputs": [],
      "stateMutability": "nonpayable",
      "type": "function"
    },
    {
      "inputs": [],
      "name": "paused",
      "outputs": [
        {
          "internalType": "bool",
          "name": "",
          "type": "bool"
        }
      ],
      "stateMutability": "view",
      "type": "function"
    },
    {
      "inputs": [
        {
          "internalType": "uint64[]",
          "name": "geoBatchIds",
          "type": "uint64[]"
        },
        {
          "internalType": "bytes32[]",
          "name": "merkleRoots",
          "type": "bytes32[]"
        },
        {
          "internalType": "string[]",
          "name": "dataCIDs",
          "type": "string[]"
        }
      ],
      "name": "registerGeoBatchBulk",
      "outputs": [],
      "stateMutability": "nonpayable",
      "type": "function"
    },
    {
      "inputs": [
        {
          "internalType": "address",
          "name": "oracle",
          "type": "address"
        }
      ],
      "name": "removeOracle",
      "outputs": [],
      "stateMutability": "nonpayable",
      "type": "function"
    },
    {
      "inputs": [
        {
          "internalType": "bytes32",
          "name": "role",
          "type": "bytes32"
        },
        {
          "internalType": "address",
          "name": "callerConfirmation",
          "type": "address"
        }
      ],
      "name": "renounceRole",
      "outputs": [],
      "stateMutability": "nonpayable",
      "type": "function"
    },
    {
      "inputs": [
        {
          "internalType": "bytes32",
          "name": "role",
          "type": "bytes32"
        },
        {
          "internalType": "address",
          "name": "account",
          "type": "address"
        }
      ],
      "name": "revokeRole",
      "outputs": [],
      "stateMutability": "nonpayable",
      "type": "function"
    },
    {
      "inputs": [
        {
          "internalType": "uint8",
          "name": "",
          "type": "uint8"
        }
      ],
      "name": "sensorTypeMaxResolution",
      "outputs": [
        {
          "internalType": "uint8",
          "name": "",
          "type": "uint8"
        }
      ],
      "stateMutability": "view",
      "type": "function"
    },
    {
      "inputs": [
        {
          "internalType": "uint256",
          "name": "newInterval",
          "type": "uint256"
        }
      ],
      "name": "setEpochMinInterval",
      "outputs": [],
      "stateMutability": "nonpayable",
      "type": "function"
    },
    {
      "inputs": [
        {
          "internalType": "uint8",
          "name": "sensor",
          "type": "uint8"
        },
        {
          "internalType": "uint8",
          "name": "maxRes",
          "type": "uint8"
        }
      ],
      "name": "setSensorType",
      "outputs": [],
      "stateMutability": "nonpayable",
      "type": "function"
    },
    {
      "inputs": [
        {
          "internalType": "bytes4",
          "name": "interfaceId",
          "type": "bytes4"
        }
      ],
      "name": "supportsInterface",
      "outputs": [
        {
          "internalType": "bool",
          "name": "",
          "type": "bool"
        }
      ],
      "stateMutability": "view",
      "type": "function"
    },
    {
      "inputs": [],
      "name": "unpause",
      "outputs": [],
      "stateMutability": "nonpayable",
      "type": "function"
    },
    {
      "inputs": [
        {
          "internalType": "uint64",
          "name": "epoch",
          "type": "uint64"
        },
        {
          "internalType": "uint64",
          "name": "geoBatchId",
          "type": "uint64"
        },
        {
          "internalType": "bytes32",
          "name": "leaf",
          "type": "bytes32"
        },
        {
          "internalType": "bytes32[]",
          "name": "proof",
          "type": "bytes32[]"
        }
      ],
      "name": "verifyLeafInBatch",
      "outputs": [
        {
          "internalType": "bool",
          "name": "",
          "type": "bool"
        }
      ],
      "stateMutability": "view",
      "type": "function"
    }
  ],
  "bytecode": "0x608060405234801561001057600080fd5b506040516131ab3803806131ab83398181016040528101906100329190610485565b600160028190555061004d6000801b8561016260201b60201c565b5061007e7f68e79a7bf1e0bc45d0a330c573bc367f9cf464fd326078812f301165fbda4ef18461016260201b60201c565b506100af7f241ecf16d79d0f8dbfb92cbc07fe17840425976cf0667f022fe9877caa831b088361016260201b60201c565b50806005819055507fb0112655322566e06c990bdc4a89195734656bf391f33572c66c1895d9e9ea8a816040516100e691906104fb565b60405180910390a16008600760008060ff16815260200190815260200160002060006101000a81548160ff021916908360ff1602179055507f16f1bcd4b6cb5ad3bdd32951cfa04346964863f60ffeb375418a2104f2115012600060086040516101519291906105a3565b60405180910390a1505050506105cc565b60008061017584846101ae60201b60201c565b905080156101a4576101a283600160008781526020019081526020016000206102ab60201b90919060201c565b505b8091505092915050565b60006101c083836102e160201b60201c565b6102a057600160008085815260200190815260200160002060000160008473ffffffffffffffffffffffffffffffffffffffff1673ffffffffffffffffffffffffffffffffffffffff16815260200190815260200160002060006101000a81548160ff02191690831515021790555061023d61034b60201b60201c565b73ffffffffffffffffffffffffffffffffffffffff168273ffffffffffffffffffffffffffffffffffffffff16847f2f8788117e7eff1d82e926ec794901d17c78024a50270940304540a733656f0d60405160405180910390a4600190506102a5565b600090505b92915050565b60006102d9836000018373ffffffffffffffffffffffffffffffffffffffff1660001b61035360201b60201c565b905092915050565b600080600084815260200190815260200160002060000160008373ffffffffffffffffffffffffffffffffffffffff1673ffffffffffffffffffffffffffffffffffffffff16815260200190815260200160002060009054906101000a900460ff16905092915050565b600033905090565b600061036583836103c960201b60201c565b6103be5782600001829080600181540180825580915050600190039060005260206000200160009091909190915055826000018054905083600101600084815260200190815260200160002081905550600190506103c3565b600090505b92915050565b600080836001016000848152602001908152602001600020541415905092915050565b600080fd5b600073ffffffffffffffffffffffffffffffffffffffff82169050919050565b600061041c826103f1565b9050919050565b61042c81610411565b811461043757600080fd5b50565b60008151905061044981610423565b92915050565b6000819050919050565b6104628161044f565b811461046d57600080fd5b50565b60008151905061047f81610459565b92915050565b6000806000806080858703121561049f5761049e6103ec565b5b60006104ad8782880161043a565b94505060206104be8782880161043a565b93505060406104cf8782880161043a565b92505060606104e087828801610470565b91505092959194509250565b6104f58161044f565b82525050565b600060208201905061051060008301846104ec565b92915050565b6000819050919050565b600060ff82169050919050565b6000819050919050565b600061055261054d61054884610516565b61052d565b610520565b9050919050565b61056281610537565b82525050565b6000819050919050565b600061058d61058861058384610568565b61052d565b610520565b9050919050565b61059d81610572565b82525050565b60006040820190506105b86000830185610559565b6105c56020830184610594565b9392505050565b612bd0806105db6000396000f3fe608060405234801561001057600080fd5b50600436106101a95760003560e01c806396f0892b116100f9578063ddfbfc4c11610097578063ef7a718d11610071578063ef7a718d146104cd578063f64fc647146104eb578063fdc85fc414610509578063fe3595f114610525576101a9565b8063ddfbfc4c14610463578063df5dd1a514610493578063ec87621c146104af576101a9565b8063a6bde370116100d3578063a6bde370146103df578063aebe0637146103fb578063ca15c87314610417578063d547741f14610447576101a9565b806396f0892b14610361578063a217fddf14610391578063a3246ad3146103af576101a9565b806336568abe11610166578063766718081161014057806376671808146102d95780638456cb59146102f75780639010d07c1461030157806391d1485414610331576101a9565b806336568abe146102955780633f4ba83a146102b15780635c975abb146102bb576101a9565b806301ffc9a7146101ae57806307e2cea5146101de5780630a0616ea146101fc57806321f2a61d1461022d578063248a9ca3146102495780632f2ff15d14610279575b600080fd5b6101c860048036038101906101c39190611c91565b610555565b6040516101d59190611cd9565b60405180910390f35b6101e66105cf565b6040516101f39190611d0d565b60405180910390f35b61021660048036038101906102119190611d68565b6105f3565b604051610224929190611e38565b60405180910390f35b61024760048036038101906102429190611ea1565b6106ac565b005b610263600480360381019061025e9190611f0d565b61078e565b6040516102709190611d0d565b60405180910390f35b610293600480360381019061028e9190611f98565b6107ad565b005b6102af60048036038101906102aa9190611f98565b6107cf565b005b6102b961084a565b005b6102c361087f565b6040516102d09190611cd9565b60405180910390f35b6102e1610896565b6040516102ee9190611fe7565b60405180910390f35b6102ff6108b0565b005b61031b60048036038101906103169190612038565b6108e5565b6040516103289190612087565b60405180910390f35b61034b60048036038101906103469190611f98565b610914565b6040516103589190611cd9565b60405180910390f35b61037b60048036038101906103769190612107565b61097e565b6040516103889190611cd9565b60405180910390f35b610399610a3a565b6040516103a69190611d0d565b60405180910390f35b6103c960048036038101906103c49190611f0d565b610a41565b6040516103d6919061224d565b60405180910390f35b6103f960048036038101906103f4919061226f565b610a65565b005b61041560048036038101906104109190612348565b610ad1565b005b610431600480360381019061042c9190611f0d565b610c42565b60405161043e919061240b565b60405180910390f35b610461600480360381019061045c9190611f98565b610c66565b005b61047d60048036038101906104789190611d68565b610c88565b60405161048a91906124bc565b60405180910390f35b6104ad60048036038101906104a891906124de565b610d8b565b005b6104b7610dfd565b6040516104c49190611d0d565b60405180910390f35b6104d5610e21565b6040516104e2919061240b565b60405180910390f35b6104f3610e27565b604051610500919061240b565b60405180910390f35b610523600480360381019061051e91906124de565b610e2d565b005b61053f600480360381019061053a919061250b565b610ea0565b60405161054c9190612547565b60405180910390f35b60007f5a05180f000000000000000000000000000000000000000000000000000000007bffffffffffffffffffffffffffffffffffffffffffffffffffffffff1916827bffffffffffffffffffffffffffffffffffffffffffffffffffffffff191614806105c857506105c782610ec0565b5b9050919050565b7f68e79a7bf1e0bc45d0a330c573bc367f9cf464fd326078812f301165fbda4ef181565b60066020528160005260406000206020528060005260406000206000915091505080600001549080600101805461062990612591565b80601f016020809104026020016040519081016040528092919081815260200182805461065590612591565b80156106a25780601f10610677576101008083540402835291602001916106a2565b820191906000526020600020905b81548152906001019060200180831161068557829003601f168201915b5050505050905082565b7f241ecf16d79d0f8dbfb92cbc07fe17840425976cf0667f022fe9877caa831b086106d681610f3a565b6106df82610f4e565b61071e576040517f08c379a00000000000000000000000000000000000000000000000000000000081526004016107159061260e565b60405180910390fd5b81600760008560ff1660ff16815260200190815260200160002060006101000a81548160ff021916908360ff1602179055507f16f1bcd4b6cb5ad3bdd32951cfa04346964863f60ffeb375418a2104f2115012838360405161078192919061262e565b60405180910390a1505050565b6000806000838152602001908152602001600020600101549050919050565b6107b68261078e565b6107bf81610f3a565b6107c98383610f62565b50505050565b6107d7610fa8565b73ffffffffffffffffffffffffffffffffffffffff168173ffffffffffffffffffffffffffffffffffffffff161461083b576040517f6697b23200000000000000000000000000000000000000000000000000000000815260040160405180910390fd5b6108458282610fb0565b505050565b7f241ecf16d79d0f8dbfb92cbc07fe17840425976cf0667f022fe9877caa831b0861087481610f3a565b61087c610ff6565b50565b6000600360009054906101000a900460ff16905090565b600360019054906101000a900467ffffffffffffffff1681565b7f241ecf16d79d0f8dbfb92cbc07fe17840425976cf0667f022fe9877caa831b086108da81610f3a565b6108e2611059565b50565b600061090c82600160008681526020019081526020016000206110bc90919063ffffffff16565b905092915050565b600080600084815260200190815260200160002060000160008373ffffffffffffffffffffffffffffffffffffffff1673ffffffffffffffffffffffffffffffffffffffff16815260200190815260200160002060009054906101000a900460ff16905092915050565b600080600660008867ffffffffffffffff1667ffffffffffffffff16815260200190815260200160002060008767ffffffffffffffff1667ffffffffffffffff1681526020019081526020016000206000015490506000801b8114158015610a2e5750610a2d848480806020026020016040519081016040528093929190818152602001838360200280828437600081840152601f19601f8201169050808301925050505050505082876110d6565b5b91505095945050505050565b6000801b81565b6060610a5e600160008481526020019081526020016000206110ed565b9050919050565b7f241ecf16d79d0f8dbfb92cbc07fe17840425976cf0667f022fe9877caa831b08610a8f81610f3a565b816005819055507fb0112655322566e06c990bdc4a89195734656bf391f33572c66c1895d9e9ea8a82604051610ac5919061240b565b60405180910390a15050565b7f68e79a7bf1e0bc45d0a330c573bc367f9cf464fd326078812f301165fbda4ef1610afb81610f3a565b610b0361110e565b610b0b61114f565b8484905087879050141580610b265750828290508787905014155b15610b5d576040517fa24a13a600000000000000000000000000000000000000000000000000000000815260040160405180910390fd5b610b65611193565b60005b87879050811015610c3057610c25888883818110610b8957610b88612657565b5b9050602002016020810190610b9e9190612686565b878784818110610bb157610bb0612657565b5b90506020020135868685818110610bcb57610bca612657565b5b9050602002810190610bdd91906126c2565b8080601f016020809104026020016040519081016040528093929190818152602001838380828437600081840152601f19601f82011690508083019250505050505050611282565b806001019050610b68565b50610c396115b1565b50505050505050565b6000610c5f600160008481526020019081526020016000206115bb565b9050919050565b610c6f8261078e565b610c7881610f3a565b610c828383610fb0565b50505050565b610c90611c12565b600660008467ffffffffffffffff1667ffffffffffffffff16815260200190815260200160002060008367ffffffffffffffff1667ffffffffffffffff16815260200190815260200160002060405180604001604052908160008201548152602001600182018054610d0190612591565b80601f0160208091040260200160405190810160405280929190818152602001828054610d2d90612591565b8015610d7a5780601f10610d4f57610100808354040283529160200191610d7a565b820191906000526020600020905b815481529060010190602001808311610d5d57829003601f168201915b505050505081525050905092915050565b6000801b610d9881610f3a565b610dc27f68e79a7bf1e0bc45d0a330c573bc367f9cf464fd326078812f301165fbda4ef183610f62565b507e47706786c922d17b39285dc59d696bafea72c0b003d3841ae1202076f4c2e482604051610df19190612087565b60405180910390a15050565b7f241ecf16d79d0f8dbfb92cbc07fe17840425976cf0667f022fe9877caa831b0881565b60055481565b60045481565b6000801b610e3a81610f3a565b610e647f68e79a7bf1e0bc45d0a330c573bc367f9cf464fd326078812f301165fbda4ef183610fb0565b507f9c8e7d83025bef8a04c664b2f753f64b8814bdb7e27291d7e50935f18cc3c71282604051610e949190612087565b60405180910390a15050565b60076020528060005260406000206000915054906101000a900460ff1681565b60007f7965db0b000000000000000000000000000000000000000000000000000000007bffffffffffffffffffffffffffffffffffffffffffffffffffffffff1916827bffffffffffffffffffffffffffffffffffffffffffffffffffffffff19161480610f335750610f32826115d0565b5b9050919050565b610f4b81610f46610fa8565b61163a565b50565b6000600f60ff168260ff1611159050919050565b600080610f6f848461168b565b90508015610f9e57610f9c836001600087815260200190815260200160002061177c90919063ffffffff16565b505b8091505092915050565b600033905090565b600080610fbd84846117ac565b90508015610fec57610fea836001600087815260200190815260200160002061189e90919063ffffffff16565b505b8091505092915050565b610ffe6118ce565b6000600360006101000a81548160ff0219169083151502179055507f5db9ee0a495bf2e6ff9c91a7834c1ba4fdd244a5e8aa4e537bd38aeae4b073aa611042610fa8565b60405161104f9190612087565b60405180910390a1565b61106161110e565b6001600360006101000a81548160ff0219169083151502179055507f62e78cea01bee320cd4e420270b5ea74000d11b0c9f74754ebdbfc544b05a2586110a5610fa8565b6040516110b29190612087565b60405180910390a1565b60006110cb836000018361190e565b60001c905092915050565b6000826110e38584611939565b1490509392505050565b606060006110fd83600001611989565b905060608190508092505050919050565b61111661087f565b1561114d576040517fd93c066500000000000000000000000000000000000000000000000000000000815260040160405180910390fd5b565b600280540361118a576040517f3ee5aeb500000000000000000000000000000000000000000000000000000000815260040160405180910390fd5b60028081905550565b6005546004546111a39190612754565b42106112805760006005546004544203816111c1576111c0612788565b5b04905080600360018282829054906101000a900467ffffffffffffffff160192506101000a81548167ffffffffffffffff021916908367ffffffffffffffff1602179055506005548167ffffffffffffffff160260046000828254019250508190555050600360019054906101000a900467ffffffffffffffff1667ffffffffffffffff167fd85392f2439b9215bf25b4b5dd4fe521f15df86ea616c4701a0745acc267b6cb600454604051611277919061240b565b60405180910390a25b565b6000801b82036112be576040517f53ce4ece00000000000000000000000000000000000000000000000000000000815260040160405180910390fd5b60008151036112f9576040517f63ee91d000000000000000000000000000000000000000000000000000000000815260040160405180910390fd5b600061130e8467ffffffffffffffff166119e5565b905060006113258567ffffffffffffffff16611a00565b90506000600760008360ff1660ff16815260200190815260200160002060009054906101000a900460ff16905060008160ff160361138f576040517f09d5549500000000000000000000000000000000000000000000000000000000815260040160405180910390fd5b8060ff168360ff1611156113cf576040517f3bf9999c00000000000000000000000000000000000000000000000000000000815260040160405180910390fd5b6000801b60066000600360019054906101000a900467ffffffffffffffff1667ffffffffffffffff1667ffffffffffffffff16815260200190815260200160002060008867ffffffffffffffff1667ffffffffffffffff16815260200190815260200160002060000154146114a7578567ffffffffffffffff16600360019054906101000a900467ffffffffffffffff1667ffffffffffffffff167fa7badd8126c24f87278c3c677da6e321b587d01e1d5750363c5a1e76eaab444d60405161149790612803565b60405180910390a35050506115ac565b60405180604001604052808681526020018581525060066000600360019054906101000a900467ffffffffffffffff1667ffffffffffffffff1667ffffffffffffffff16815260200190815260200160002060008867ffffffffffffffff1667ffffffffffffffff16815260200190815260200160002060008201518160000155602082015181600101908161153d91906129fe565b509050508567ffffffffffffffff16600360019054906101000a900467ffffffffffffffff1667ffffffffffffffff167fb48aa4807f3dc15dfe1e1350bac6ddda3675ceb77d0a30d6774674f76cad87b28787876040516115a093929190612ad0565b60405180910390a35050505b505050565b6001600281905550565b60006115c982600001611a18565b9050919050565b60007f01ffc9a7000000000000000000000000000000000000000000000000000000007bffffffffffffffffffffffffffffffffffffffffffffffffffffffff1916827bffffffffffffffffffffffffffffffffffffffffffffffffffffffff1916149050919050565b6116448282610914565b6116875780826040517fe2517d3f00000000000000000000000000000000000000000000000000000000815260040161167e929190612b0e565b60405180910390fd5b5050565b60006116978383610914565b61177157600160008085815260200190815260200160002060000160008473ffffffffffffffffffffffffffffffffffffffff1673ffffffffffffffffffffffffffffffffffffffff16815260200190815260200160002060006101000a81548160ff02191690831515021790555061170e610fa8565b73ffffffffffffffffffffffffffffffffffffffff168273ffffffffffffffffffffffffffffffffffffffff16847f2f8788117e7eff1d82e926ec794901d17c78024a50270940304540a733656f0d60405160405180910390a460019050611776565b600090505b92915050565b60006117a4836000018373ffffffffffffffffffffffffffffffffffffffff1660001b611a29565b905092915050565b60006117b88383610914565b1561189357600080600085815260200190815260200160002060000160008473ffffffffffffffffffffffffffffffffffffffff1673ffffffffffffffffffffffffffffffffffffffff16815260200190815260200160002060006101000a81548160ff021916908315150217905550611830610fa8565b73ffffffffffffffffffffffffffffffffffffffff168273ffffffffffffffffffffffffffffffffffffffff16847ff6391f5c32d9c69d2a47ea670b442974b53935d1edc7fd64eb21e047a839171b60405160405180910390a460019050611898565b600090505b92915050565b60006118c6836000018373ffffffffffffffffffffffffffffffffffffffff1660001b611a99565b905092915050565b6118d661087f565b61190c576040517f8dfc202b00000000000000000000000000000000000000000000000000000000815260040160405180910390fd5b565b600082600001828154811061192657611925612657565b5b9060005260206000200154905092915050565b60008082905060005b845181101561197e5761196f8286838151811061196257611961612657565b5b6020026020010151611bad565b91508080600101915050611942565b508091505092915050565b6060816000018054806020026020016040519081016040528092919081815260200182805480156119d957602002820191906000526020600020905b8154815260200190600101908083116119c5575b50505050509050919050565b6000600f60088367ffffffffffffffff16901c169050919050565b600060388267ffffffffffffffff16901c9050919050565b600081600001805490509050919050565b6000611a358383611bd8565b611a8e578260000182908060018154018082558091505060019003906000526020600020016000909190919091505582600001805490508360010160008481526020019081526020016000208190555060019050611a93565b600090505b92915050565b60008083600101600084815260200190815260200160002054905060008114611ba1576000600182611acb9190612b37565b9050600060018660000180549050611ae39190612b37565b9050808214611b52576000866000018281548110611b0457611b03612657565b5b9060005260206000200154905080876000018481548110611b2857611b27612657565b5b90600052602060002001819055508387600101600083815260200190815260200160002081905550505b85600001805480611b6657611b65612b6b565b5b600190038181906000526020600020016000905590558560010160008681526020019081526020016000206000905560019350505050611ba7565b60009150505b92915050565b6000818310611bc557611bc08284611bfb565b611bd0565b611bcf8383611bfb565b5b905092915050565b600080836001016000848152602001908152602001600020541415905092915050565b600082600052816020526040600020905092915050565b604051806040016040528060008019168152602001606081525090565b600080fd5b600080fd5b60007fffffffff0000000000000000000000000000000000000000000000000000000082169050919050565b611c6e81611c39565b8114611c7957600080fd5b50565b600081359050611c8b81611c65565b92915050565b600060208284031215611ca757611ca6611c2f565b5b6000611cb584828501611c7c565b91505092915050565b60008115159050919050565b611cd381611cbe565b82525050565b6000602082019050611cee6000830184611cca565b92915050565b6000819050919050565b611d0781611cf4565b82525050565b6000602082019050611d226000830184611cfe565b92915050565b600067ffffffffffffffff82169050919050565b611d4581611d28565b8114611d5057600080fd5b50565b600081359050611d6281611d3c565b92915050565b60008060408385031215611d7f57611d7e611c2f565b5b6000611d8d85828601611d53565b9250506020611d9e85828601611d53565b9150509250929050565b600081519050919050565b600082825260208201905092915050565b60005b83811015611de2578082015181840152602081019050611dc7565b60008484015250505050565b6000601f19601f8301169050919050565b6000611e0a82611da8565b611e148185611db3565b9350611e24818560208601611dc4565b611e2d81611dee565b840191505092915050565b6000604082019050611e4d6000830185611cfe565b8181036020830152611e5f8184611dff565b90509392505050565b600060ff82169050919050565b611e7e81611e68565b8114611e8957600080fd5b50565b600081359050611e9b81611e75565b92915050565b60008060408385031215611eb857611eb7611c2f565b5b6000611ec685828601611e8c565b9250506020611ed785828601611e8c565b9150509250929050565b611eea81611cf4565b8114611ef557600080fd5b50565b600081359050611f0781611ee1565b92915050565b600060208284031215611f2357611f22611c2f565b5b6000611f3184828501611ef8565b91505092915050565b600073ffffffffffffffffffffffffffffffffffffffff82169050919050565b6000611f6582611f3a565b9050919050565b611f7581611f5a565b8114611f8057600080fd5b50565b600081359050611f9281611f6c565b92915050565b60008060408385031215611faf57611fae611c2f565b5b6000611fbd85828601611ef8565b9250506020611fce85828601611f83565b9150509250929050565b611fe181611d28565b82525050565b6000602082019050611ffc6000830184611fd8565b92915050565b6000819050919050565b61201581612002565b811461202057600080fd5b50565b6000813590506120328161200c565b92915050565b6000806040838503121561204f5761204e611c2f565b5b600061205d85828601611ef8565b925050602061206e85828601612023565b9150509250929050565b61208181611f5a565b82525050565b600060208201905061209c6000830184612078565b92915050565b600080fd5b600080fd5b600080fd5b60008083601f8401126120c7576120c66120a2565b5b8235905067ffffffffffffffff8111156120e4576120e36120a7565b5b602083019150836020820283011115612100576120ff6120ac565b5b9250929050565b60008060008060006080868803121561212357612122611c2f565b5b600061213188828901611d53565b955050602061214288828901611d53565b945050604061215388828901611ef8565b935050606086013567ffffffffffffffff81111561217457612173611c34565b5b612180888289016120b1565b92509250509295509295909350565b600081519050919050565b600082825260208201905092915050565b6000819050602082019050919050565b6121c481611f5a565b82525050565b60006121d683836121bb565b60208301905092915050565b6000602082019050919050565b60006121fa8261218f565b612204818561219a565b935061220f836121ab565b8060005b8381101561224057815161222788826121ca565b9750612232836121e2565b925050600181019050612213565b5085935050505092915050565b6000602082019050818103600083015261226781846121ef565b905092915050565b60006020828403121561228557612284611c2f565b5b600061229384828501612023565b91505092915050565b60008083601f8401126122b2576122b16120a2565b5b8235905067ffffffffffffffff8111156122cf576122ce6120a7565b5b6020830191508360208202830111156122eb576122ea6120ac565b5b9250929050565b60008083601f840112612308576123076120a2565b5b8235905067ffffffffffffffff811115612325576123246120a7565b5b602083019150836020820283011115612341576123406120ac565b5b9250929050565b6000806000806000806060878903121561236557612364611c2f565b5b600087013567ffffffffffffffff81111561238357612382611c34565b5b61238f89828a0161229c565b9650965050602087013567ffffffffffffffff8111156123b2576123b1611c34565b5b6123be89828a016120b1565b9450945050604087013567ffffffffffffffff8111156123e1576123e0611c34565b5b6123ed89828a016122f2565b92509250509295509295509295565b61240581612002565b82525050565b600060208201905061242060008301846123fc565b92915050565b61242f81611cf4565b82525050565b600082825260208201905092915050565b600061245182611da8565b61245b8185612435565b935061246b818560208601611dc4565b61247481611dee565b840191505092915050565b60006040830160008301516124976000860182612426565b50602083015184820360208601526124af8282612446565b9150508091505092915050565b600060208201905081810360008301526124d6818461247f565b905092915050565b6000602082840312156124f4576124f3611c2f565b5b600061250284828501611f83565b91505092915050565b60006020828403121561252157612520611c2f565b5b600061252f84828501611e8c565b91505092915050565b61254181611e68565b82525050565b600060208201905061255c6000830184612538565b92915050565b7f4e487b7100000000000000000000000000000000000000000000000000000000600052602260045260246000fd5b600060028204905060018216806125a957607f821691505b6020821081036125bc576125bb612562565b5b50919050565b7f696e76616c6964206d6178526573000000000000000000000000000000000000600082015250565b60006125f8600e83611db3565b9150612603826125c2565b602082019050919050565b60006020820190508181036000830152612627816125eb565b9050919050565b60006040820190506126436000830185612538565b6126506020830184612538565b9392505050565b7f4e487b7100000000000000000000000000000000000000000000000000000000600052603260045260246000fd5b60006020828403121561269c5761269b611c2f565b5b60006126aa84828501611d53565b91505092915050565b600080fd5b600080fd5b600080fd5b600080833560016020038436030381126126df576126de6126b3565b5b80840192508235915067ffffffffffffffff821115612701576127006126b8565b5b60208301925060018202360383131561271d5761271c6126bd565b5b509250929050565b7f4e487b7100000000000000000000000000000000000000000000000000000000600052601160045260246000fd5b600061275f82612002565b915061276a83612002565b925082820190508082111561278257612781612725565b5b92915050565b7f4e487b7100000000000000000000000000000000000000000000000000000000600052601260045260246000fd5b7f726f6f7420616c72656164792072656769737472656400000000000000000000600082015250565b60006127ed601683611db3565b91506127f8826127b7565b602082019050919050565b6000602082019050818103600083015261281c816127e0565b9050919050565b7f4e487b7100000000000000000000000000000000000000000000000000000000600052604160045260246000fd5b60008190508160005260206000209050919050565b60006020601f8301049050919050565b600082821b905092915050565b6000600883026128b47fffffffffffffffffffffffffffffffffffffffffffffffffffffffffffffffff82612877565b6128be8683612877565b95508019841693508086168417925050509392505050565b6000819050919050565b60006128fb6128f66128f184612002565b6128d6565b612002565b9050919050565b6000819050919050565b612915836128e0565b61292961292182612902565b848454612884565b825550505050565b600090565b61293e612931565b61294981848461290c565b505050565b5b8181101561296d57612962600082612936565b60018101905061294f565b5050565b601f8211156129b25761298381612852565b61298c84612867565b8101602085101561299b578190505b6129af6129a785612867565b83018261294e565b50505b505050565b600082821c905092915050565b60006129d5600019846008026129b7565b1980831691505092915050565b60006129ee83836129c4565b9150826002028217905092915050565b612a0782611da8565b67ffffffffffffffff811115612a2057612a1f612823565b5b612a2a8254612591565b612a35828285612971565b600060209050601f831160018114612a685760008415612a56578287015190505b612a6085826129e2565b865550612ac8565b601f198416612a7686612852565b60005b82811015612a9e57848901518255600182019150602085019450602081019050612a79565b86831015612abb5784890151612ab7601f8916826129c4565b8355505b6001600288020188555050505b505050505050565b6000606082019050612ae56000830186611cfe565b8181036020830152612af78185611dff565b9050612b066040830184612538565b949350505050565b6000604082019050612b236000830185612078565b612b306020830184611cfe565b9392505050565b6000612b4282612002565b9150612b4d83612002565b9250828203905081811115612b6557612b64612725565b5b92915050565b7f4e487b7100000000000000000000000000000000000000000000000000000000600052603160045260246000fdfea2646970667358221220e96652d998a67d3cc5dacac8dbb546a1de62420294ba1dae275b93baf53da51464736f6c634300081c0033",
  "linkReferences": {},
  "deployedLinkReferences": {}
}