{
  "_format": "hh-sol-artifact-1",
  "contractName": "GeoDataRegistry",
  "sourceName": "contracts/GeoDataRegistry.sol",
  "abi": [
    {
      "inputs": [
        {
          "internalType": "address",
          "name": "admin",
          "type": "address"
        },
        {
          "internalType": "address",
          "name": "oracle",
          "type": "address"
        },
        {
          "internalType": "address",
          "name": "manager",
          "type": "address"
        },
        {
          "internalType": "uint256",
          "name": "_epochMinInterval",
          "type": "uint256"
        },
        {
          "internalType": "uint64",
          "name": "_epochMaxDelay",
          "type": "uint64"
        }
      ],
      "stateMutability": "nonpayable",
      "type": "constructor"
    },
    {
      "inputs": [],
      "name": "AccessControlBadConfirmation",
      "type": "error"
    },
    {
      "inputs": [
        {
          "internalType": "address",
          "name": "account",
          "type": "address"
        },
        {
          "internalType": "bytes32",
          "name": "neededRole",
          "type": "bytes32"
        }
      ],
      "name": "AccessControlUnauthorizedAccount",
      "type": "error"
    },
    {
      "inputs": [],
      "name": "ArrayLengthMismatch",
      "type": "error"
    },
    {
      "inputs": [],
      "name": "EmptyCID",
      "type": "error"
    },
    {
      "inputs": [],
      "name": "EmptyRoot",
      "type": "error"
    },
    {
      "inputs": [],
      "name": "EnforcedPause",
      "type": "error"
    },
    {
      "inputs": [
        {
          "internalType": "uint64",
          "name": "epoch",
          "type": "uint64"
        }
      ],
      "name": "EpochInFuture",
      "type": "error"
    },
    {
      "inputs": [
        {
          "internalType": "uint64",
          "name": "epoch",
          "type": "uint64"
        }
      ],
      "name": "EpochTooOld",
      "type": "error"
    },
    {
      "inputs": [],
      "name": "ExpectedPause",
      "type": "error"
    },
    {
      "inputs": [],
      "name": "GeoBatchAlreadyRegistered",
      "type": "error"
    },
    {
      "inputs": [],
      "name": "SensorResolutionExceeded",
      "type": "error"
    },
    {
      "inputs": [],
      "name": "SensorTypeNotAllowed",
      "type": "error"
    },
    {
      "anonymous": false,
      "inputs": [
        {
          "indexed": false,
          "internalType": "uint64",
          "name": "newMaxDelay",
          "type": "uint64"
        }
      ],
      "name": "EpochMaxDelaySet",
      "type": "event"
    },
    {
      "anonymous": false,
      "inputs": [
        {
          "indexed": false,
          "internalType": "uint256",
          "name": "newInterval",
          "type": "uint256"
        }
      ],
      "name": "EpochMinIntervalSet",
      "type": "event"
    },
    {
      "anonymous": false,
      "inputs": [
        {
          "indexed": true,
          "internalType": "uint64",
          "name": "epoch",
          "type": "uint64"
        },
        {
          "indexed": true,
          "internalType": "uint64",
          "name": "geoBatchId",
          "type": "uint64"
        },
        {
          "indexed": false,
          "internalType": "bytes32",
          "name": "merkleRoot",
          "type": "bytes32"
        },
        {
          "indexed": false,
          "internalType": "string",
          "name": "dataCID",
          "type": "string"
        },
        {
          "indexed": false,
          "internalType": "uint8",
          "name": "level",
          "type": "uint8"
        }
      ],
      "name": "GeoBatchRegistered",
      "type": "event"
    },
    {
      "anonymous": false,
      "inputs": [
        {
          "indexed": false,
          "internalType": "address",
          "name": "oracle",
          "type": "address"
        }
      ],
      "name": "OracleAdded",
      "type": "event"
    },
    {
      "anonymous": false,
      "inputs": [
        {
          "indexed": false,
          "internalType": "address",
          "name": "oracle",
          "type": "address"
        }
      ],
      "name": "OracleRemoved",
      "type": "event"
    },
    {
      "anonymous": false,
      "inputs": [
        {
          "indexed": false,
          "internalType": "address",
          "name": "account",
          "type": "address"
        }
      ],
      "name": "Paused",
      "type": "event"
    },
    {
      "anonymous": false,
      "inputs": [
        {
          "indexed": true,
          "internalType": "bytes32",
          "name": "role",
          "type": "bytes32"
        },
        {
          "indexed": true,
          "internalType": "bytes32",
          "name": "previousAdminRole",
          "type": "bytes32"
        },
        {
          "indexed": true,
          "internalType": "bytes32",
          "name": "newAdminRole",
          "type": "bytes32"
        }
      ],
      "name": "RoleAdminChanged",
      "type": "event"
    },
    {
      "anonymous": false,
      "inputs": [
        {
          "indexed": true,
          "internalType": "bytes32",
          "name": "role",
          "type": "bytes32"
        },
        {
          "indexed": true,
          "internalType": "address",
          "name": "account",
          "type": "address"
        },
        {
          "indexed": true,
          "internalType": "address",
          "name": "sender",
          "type": "address"
        }
      ],
      "name": "RoleGranted",
      "type": "event"
    },
    {
      "anonymous": false,
      "inputs": [
        {
          "indexed": true,
          "internalType": "bytes32",
          "name": "role",
          "type": "bytes32"
        },
        {
          "indexed": true,
          "internalType": "address",
          "name": "account",
          "type": "address"
        },
        {
          "indexed": true,
          "internalType": "address",
          "name": "sender",
          "type": "address"
        }
      ],
      "name": "RoleRevoked",
      "type": "event"
    },
    {
      "anonymous": false,
      "inputs": [
        {
          "indexed": false,
          "internalType": "uint8",
          "name": "sensorType",
          "type": "uint8"
        },
        {
          "indexed": false,
          "internalType": "uint8",
          "name": "maxResolution",
          "type": "uint8"
        }
      ],
      "name": "SensorTypeSet",
      "type": "event"
    },
    {
      "anonymous": false,
      "inputs": [
        {
          "indexed": false,
          "internalType": "address",
          "name": "account",
          "type": "address"
        }
      ],
      "name": "Unpaused",
      "type": "event"
    },
    {
      "inputs": [],
      "name": "DEFAULT_ADMIN_ROLE",
      "outputs": [
        {
          "internalType": "bytes32",
          "name": "",
          "type": "bytes32"
        }
      ],
      "stateMutability": "view",
      "type": "function"
    },
    {
      "inputs": [],
      "name": "MANAGER_ROLE",
      "outputs": [
        {
          "internalType": "bytes32",
          "name": "",
          "type": "bytes32"
        }
      ],
      "stateMutability": "view",
      "type": "function"
    },
    {
      "inputs": [],
      "name": "ORACLE_ROLE",
      "outputs": [
        {
          "internalType": "bytes32",
          "name": "",
          "type": "bytes32"
        }
      ],
      "stateMutability": "view",
      "type": "function"
    },
    {
      "inputs": [
        {
          "internalType": "address",
          "name": "oracle",
          "type": "address"
        }
      ],
      "name": "addOracle",
      "outputs": [],
      "stateMutability": "nonpayable",
      "type": "function"
    },
    {
      "inputs": [],
      "name": "currentEpoch",
      "outputs": [
        {
          "internalType": "uint64",
          "name": "",
          "type": "uint64"
        }
      ],
      "stateMutability": "view",
      "type": "function"
    },
    {
      "inputs": [],
      "name": "epochMaxDelay",
      "outputs": [
        {
          "internalType": "uint64",
          "name": "",
          "type": "uint64"
        }
      ],
      "stateMutability": "view",
      "type": "function"
    },
    {
      "inputs": [],
      "name": "epochMinInterval",
      "outputs": [
        {
          "internalType": "uint256",
          "name": "",
          "type": "uint256"
        }
      ],
      "stateMutability": "view",
      "type": "function"
    },
    {
      "inputs": [],
      "name": "genesisTimestamp",
      "outputs": [
        {
          "internalType": "uint256",
          "name": "",
          "type": "uint256"
        }
      ],
      "stateMutability": "view",
      "type": "function"
    },
    {
      "inputs": [
        {
          "internalType": "uint64",
          "name": "epoch",
          "type": "uint64"
        },
        {
          "internalType": "uint64",
          "name": "geoBatchId",
          "type": "uint64"
        }
      ],
      "name": "geoBatches",
      "outputs": [
        {
          "internalType": "bytes32",
          "name": "merkleRoot",
          "type": "bytes32"
        },
        {
          "internalType": "string",
          "name": "dataCID",
          "type": "string"
        }
      ],
      "stateMutability": "view",
      "type": "function"
    },
    {
      "inputs": [
        {
          "internalType": "uint64",
          "name": "epoch",
          "type": "uint64"
        },
        {
          "internalType": "uint64",
          "name": "geoBatchId",
          "type": "uint64"
        }
      ],
      "name": "getGeoBatch",
      "outputs": [
        {
          "components": [
            {
              "internalType": "bytes32",
              "name": "merkleRoot",
              "type": "bytes32"
            },
            {
              "internalType": "string",
              "name": "dataCID",
              "type": "string"
            }
          ],
          "internalType": "struct GeoDataRegistry.GeoBatchMetadata",
          "name": "metadata",
          "type": "tuple"
        }
      ],
      "stateMutability": "view",
      "type": "function"
    },
    {
      "inputs": [
        {
          "internalType": "bytes32",
          "name": "role",
          "type": "bytes32"
        }
      ],
      "name": "getRoleAdmin",
      "outputs": [
        {
          "internalType": "bytes32",
          "name": "",
          "type": "bytes32"
        }
      ],
      "stateMutability": "view",
      "type": "function"
    },
    {
      "inputs": [
        {
          "internalType": "bytes32",
          "name": "role",
          "type": "bytes32"
        },
        {
          "internalType": "uint256",
          "name": "index",
          "type": "uint256"
        }
      ],
      "name": "getRoleMember",
      "outputs": [
        {
          "internalType": "address",
          "name": "",
          "type": "address"
        }
      ],
      "stateMutability": "view",
      "type": "function"
    },
    {
      "inputs": [
        {
          "internalType": "bytes32",
          "name": "role",
          "type": "bytes32"
        }
      ],
      "name": "getRoleMemberCount",
      "outputs": [
        {
          "internalType": "uint256",
          "name": "",
          "type": "uint256"
        }
      ],
      "stateMutability": "view",
      "type": "function"
    },
    {
      "inputs": [
        {
          "internalType": "bytes32",
          "name": "role",
          "type": "bytes32"
        }
      ],
      "name": "getRoleMembers",
      "outputs": [
        {
          "internalType": "address[]",
          "name": "",
          "type": "address[]"
        }
      ],
      "stateMutability": "view",
      "type": "function"
    },
    {
      "inputs": [
        {
          "internalType": "bytes32",
          "name": "role",
          "type": "bytes32"
        },
        {
          "internalType": "address",
          "name": "account",
          "type": "address"
        }
      ],
      "name": "grantRole",
      "outputs": [],
      "stateMutability": "nonpayable",
      "type": "function"
    },
    {
      "inputs": [
        {
          "internalType": "bytes32",
          "name": "role",
          "type": "bytes32"
        },
        {
          "internalType": "address",
          "name": "account",
          "type": "address"
        }
      ],
      "name": "hasRole",
      "outputs": [
        {
          "internalType": "bool",
          "name": "",
          "type": "bool"
        }
      ],
      "stateMutability": "view",
      "type": "function"
    },
    {
      "inputs": [],
      "name": "pause",
      "outputs": [],
      "stateMutability": "nonpayable",
      "type": "function"
    },
    {
      "inputs": [],
      "name": "paused",
      "outputs": [
        {
          "internalType": "bool",
          "name": "",
          "type": "bool"
        }
      ],
      "stateMutability": "view",
      "type": "function"
    },
    {
      "inputs": [
        {
          "internalType": "uint64",
          "name": "epoch",
          "type": "uint64"
        },
        {
          "internalType": "uint64",
          "name": "geoBatchId",
          "type": "uint64"
        },
        {
          "internalType": "bytes32",
          "name": "merkleRoot",
          "type": "bytes32"
        },
        {
          "internalType": "string",
          "name": "dataCID",
          "type": "string"
        }
      ],
      "name": "registerGeoBatch",
      "outputs": [],
      "stateMutability": "nonpayable",
      "type": "function"
    },
    {
      "inputs": [
        {
          "internalType": "uint64",
          "name": "epoch",
          "type": "uint64"
        },
        {
          "internalType": "uint64[]",
          "name": "geoBatchIds",
          "type": "uint64[]"
        },
        {
          "internalType": "bytes32[]",
          "name": "merkleRoots",
          "type": "bytes32[]"
        },
        {
          "internalType": "string[]",
          "name": "dataCIDs",
          "type": "string[]"
        }
      ],
      "name": "registerGeoBatchBulk",
      "outputs": [],
      "stateMutability": "nonpayable",
      "type": "function"
    },
    {
      "inputs": [
        {
          "internalType": "address",
          "name": "oracle",
          "type": "address"
        }
      ],
      "name": "removeOracle",
      "outputs": [],
      "stateMutability": "nonpayable",
      "type": "function"
    },
    {
      "inputs": [
        {
          "internalType": "bytes32",
          "name": "role",
          "type": "bytes32"
        },
        {
          "internalType": "address",
          "name": "callerConfirmation",
          "type": "address"
        }
      ],
      "name": "renounceRole",
      "outputs": [],
      "stateMutability": "nonpayable",
      "type": "function"
    },
    {
      "inputs": [
        {
          "internalType": "bytes32",
          "name": "role",
          "type": "bytes32"
        },
        {
          "internalType": "address",
          "name": "account",
          "type": "address"
        }
      ],
      "name": "revokeRole",
      "outputs": [],
      "stateMutability": "nonpayable",
      "type": "function"
    },
    {
      "inputs": [
        {
          "internalType": "uint8",
          "name": "",
          "type": "uint8"
        }
      ],
      "name": "sensorTypeMaxResolution",
      "outputs": [
        {
          "internalType": "uint8",
          "name": "",
          "type": "uint8"
        }
      ],
      "stateMutability": "view",
      "type": "function"
    },
    {
      "inputs": [
        {
          "internalType": "uint64",
          "name": "newMaxDelay",
          "type": "uint64"
        }
      ],
      "name": "setEpochMaxDelay",
      "outputs": [],
      "stateMutability": "nonpayable",
      "type": "function"
    },
    {
      "inputs": [
        {
          "internalType": "uint256",
          "name": "newInterval",
          "type": "uint256"
        }
      ],
      "name": "setEpochMinInterval",
      "outputs": [],
      "stateMutability": "nonpayable",
      "type": "function"
    },
    {
      "inputs": [
        {
          "internalType": "uint8",
          "name": "sensor",
          "type": "uint8"
        },
        {
          "internalType": "uint8",
          "name": "maxRes",
          "type": "uint8"
        }
      ],
      "name": "setSensorType",
      "outputs": [],
      "stateMutability": "nonpayable",
      "type": "function"
    },
    {
      "inputs": [
        {
          "internalType": "bytes4",
          "name": "interfaceId",
          "type": "bytes4"
        }
      ],
      "name": "supportsInterface",
      "outputs": [
        {
          "internalType": "bool",
          "name": "",
          "type": "bool"
        }
      ],
      "stateMutability": "view",
      "type": "function"
    },
    {
      "inputs": [],
      "name": "unpause",
      "outputs": [],
      "stateMutability": "nonpayable",
      "type": "function"
    },
    {
      "inputs": [
        {
          "internalType": "uint64",
          "name": "epoch",
          "type": "uint64"
        },
        {
          "internalType": "uint64",
          "name": "geoBatchId",
          "type": "uint64"
        },
        {
          "internalType": "bytes32",
          "name": "leaf",
          "type": "bytes32"
        },
        {
          "internalType": "bytes32[]",
          "name": "proof",
          "type": "bytes32[]"
        }
      ],
      "name": "verifyLeafInBatch",
      "outputs": [
        {
          "internalType": "bool",
          "name": "valid",
          "type": "bool"
        }
      ],
      "stateMutability": "view",
      "type": "function"
    }
  ],
  "bytecode": "0x60a06040523480156200001157600080fd5b50604051620035223803806200352283398181016040528101906200003791906200055a565b6200004c6000801b86620001d560201b60201c565b506200007f7f68e79a7bf1e0bc45d0a330c573bc367f9cf464fd326078812f301165fbda4ef185620001d560201b60201c565b50620000b27f241ecf16d79d0f8dbfb92cbc07fe17840425976cf0667f022fe9877caa831b0884620001d560201b60201c565b50816003819055507fb0112655322566e06c990bdc4a89195734656bf391f33572c66c1895d9e9ea8a82604051620000eb9190620005f3565b60405180910390a180600460006101000a81548167ffffffffffffffff021916908367ffffffffffffffff1602179055507fd954ba0c0ed1c0ff4acd7e24421c71783f17ad514812e6f657944ff8ea80c830816040516200014d919062000621565b60405180910390a16008600660008060ff16815260200190815260200160002060006101000a81548160ff021916908360ff1602179055507f16f1bcd4b6cb5ad3bdd32951cfa04346964863f60ffeb375418a2104f211501260006008604051620001ba929190620006db565b60405180910390a14260808181525050505050505062000708565b600080620001ea84846200022660201b60201c565b905080156200021c576200021a83600160008781526020019081526020016000206200032960201b90919060201c565b505b8091505092915050565b60006200023a83836200036160201b60201c565b6200031e57600160008085815260200190815260200160002060000160008473ffffffffffffffffffffffffffffffffffffffff1673ffffffffffffffffffffffffffffffffffffffff16815260200190815260200160002060006101000a81548160ff021916908315150217905550620002ba620003cb60201b60201c565b73ffffffffffffffffffffffffffffffffffffffff168273ffffffffffffffffffffffffffffffffffffffff16847f2f8788117e7eff1d82e926ec794901d17c78024a50270940304540a733656f0d60405160405180910390a46001905062000323565b600090505b92915050565b600062000359836000018373ffffffffffffffffffffffffffffffffffffffff1660001b620003d360201b60201c565b905092915050565b600080600084815260200190815260200160002060000160008373ffffffffffffffffffffffffffffffffffffffff1673ffffffffffffffffffffffffffffffffffffffff16815260200190815260200160002060009054906101000a900460ff16905092915050565b600033905090565b6000620003e783836200044d60201b60201c565b6200044257826000018290806001815401808255809150506001900390600052602060002001600090919091909150558260000180549050836001016000848152602001908152602001600020819055506001905062000447565b600090505b92915050565b600080836001016000848152602001908152602001600020541415905092915050565b600080fd5b600073ffffffffffffffffffffffffffffffffffffffff82169050919050565b6000620004a28262000475565b9050919050565b620004b48162000495565b8114620004c057600080fd5b50565b600081519050620004d481620004a9565b92915050565b6000819050919050565b620004ef81620004da565b8114620004fb57600080fd5b50565b6000815190506200050f81620004e4565b92915050565b600067ffffffffffffffff82169050919050565b620005348162000515565b81146200054057600080fd5b50565b600081519050620005548162000529565b92915050565b600080600080600060a0868803121562000579576200057862000470565b5b60006200058988828901620004c3565b95505060206200059c88828901620004c3565b9450506040620005af88828901620004c3565b9350506060620005c288828901620004fe565b9250506080620005d58882890162000543565b9150509295509295909350565b620005ed81620004da565b82525050565b60006020820190506200060a6000830184620005e2565b92915050565b6200061b8162000515565b82525050565b600060208201905062000638600083018462000610565b92915050565b6000819050919050565b600060ff82169050919050565b6000819050919050565b6000620006806200067a62000674846200063e565b62000655565b62000648565b9050919050565b62000692816200065f565b82525050565b6000819050919050565b6000620006c3620006bd620006b78462000698565b62000655565b62000648565b9050919050565b620006d581620006a2565b82525050565b6000604082019050620006f2600083018562000687565b620007016020830184620006ca565b9392505050565b608051612df76200072b600039600081816109b20152610daf0152612df76000f3fe608060405234801561001057600080fd5b50600436106101da5760003560e01c8063a217fddf11610104578063cf633155116100a2578063ec87621c11610071578063ec87621c14610554578063ef7a718d14610572578063fdc85fc414610590578063fe3595f1146105ac576101da565b8063cf633155146104d0578063d547741f146104ec578063ddfbfc4c14610508578063df5dd1a514610538576101da565b8063acdf1e34116100de578063acdf1e3414610448578063be0a6df414610466578063ca15c87314610482578063cacf66ab146104b2576101da565b8063a217fddf146103de578063a3246ad3146103fc578063a6bde3701461042c576101da565b80633f4ba83a1161017c5780638456cb591161014b5780638456cb59146103445780639010d07c1461034e57806391d148541461037e57806396f0892b146103ae576101da565b80633f4ba83a146102e25780635c975abb146102ec5780636dbc90651461030a5780637667180814610326576101da565b806321f2a61d116101b857806321f2a61d1461025e578063248a9ca31461027a5780632f2ff15d146102aa57806336568abe146102c6576101da565b806301ffc9a7146101df57806307e2cea51461020f5780630a0616ea1461022d575b600080fd5b6101f960048036038101906101f49190611dbd565b6105dc565b6040516102069190611e05565b60405180910390f35b610217610656565b6040516102249190611e39565b60405180910390f35b61024760048036038101906102429190611e94565b61067a565b604051610255929190611f64565b60405180910390f35b61027860048036038101906102739190611fcd565b610733565b005b610294600480360381019061028f9190612039565b610815565b6040516102a19190611e39565b60405180910390f35b6102c460048036038101906102bf91906120c4565b610834565b005b6102e060048036038101906102db91906120c4565b610856565b005b6102ea6108d1565b005b6102f4610906565b6040516103019190611e05565b60405180910390f35b610324600480360381019061031f9190612104565b61091d565b005b61032e6109ab565b60405161033b9190612140565b60405180910390f35b61034c6109e7565b005b61036860048036038101906103639190612191565b610a1c565b60405161037591906121e0565b60405180910390f35b610398600480360381019061039391906120c4565b610a4b565b6040516103a59190611e05565b60405180910390f35b6103c860048036038101906103c39190612260565b610ab5565b6040516103d59190611e05565b60405180910390f35b6103e6610b31565b6040516103f39190611e39565b60405180910390f35b61041660048036038101906104119190612039565b610b38565b60405161042391906123a6565b60405180910390f35b610446600480360381019061044191906123c8565b610b5c565b005b610450610c0b565b60405161045d9190612140565b60405180910390f35b610480600480360381019061047b91906124a1565b610c25565b005b61049c60048036038101906104979190612039565b610d89565b6040516104a99190612579565b60405180910390f35b6104ba610dad565b6040516104c79190612579565b60405180910390f35b6104ea60048036038101906104e591906125ea565b610dd1565b005b610506600480360381019061050191906120c4565b610e64565b005b610522600480360381019061051d9190611e94565b610e86565b60405161052f9190612708565b60405180910390f35b610552600480360381019061054d919061272a565b610f89565b005b61055c610ffb565b6040516105699190611e39565b60405180910390f35b61057a61101f565b6040516105879190612579565b60405180910390f35b6105aa60048036038101906105a5919061272a565b611025565b005b6105c660048036038101906105c19190612757565b611098565b6040516105d39190612793565b60405180910390f35b60007f5a05180f000000000000000000000000000000000000000000000000000000007bffffffffffffffffffffffffffffffffffffffffffffffffffffffff1916827bffffffffffffffffffffffffffffffffffffffffffffffffffffffff1916148061064f575061064e826110b8565b5b9050919050565b7f68e79a7bf1e0bc45d0a330c573bc367f9cf464fd326078812f301165fbda4ef181565b6005602052816000526040600020602052806000526040600020600091509150508060000154908060010180546106b0906127dd565b80601f01602080910402602001604051908101604052809291908181526020018280546106dc906127dd565b80156107295780601f106106fe57610100808354040283529160200191610729565b820191906000526020600020905b81548152906001019060200180831161070c57829003601f168201915b5050505050905082565b7f241ecf16d79d0f8dbfb92cbc07fe17840425976cf0667f022fe9877caa831b0861075d81611132565b61076682611146565b6107a5576040517f08c379a000000000000000000000000000000000000000000000000000000000815260040161079c9061285a565b60405180910390fd5b81600660008560ff1660ff16815260200190815260200160002060006101000a81548160ff021916908360ff1602179055507f16f1bcd4b6cb5ad3bdd32951cfa04346964863f60ffeb375418a2104f2115012838360405161080892919061287a565b60405180910390a1505050565b6000806000838152602001908152602001600020600101549050919050565b61083d82610815565b61084681611132565b610850838361115a565b50505050565b61085e6111a0565b73ffffffffffffffffffffffffffffffffffffffff168173ffffffffffffffffffffffffffffffffffffffff16146108c2576040517f6697b23200000000000000000000000000000000000000000000000000000000815260040160405180910390fd5b6108cc82826111a8565b505050565b7f241ecf16d79d0f8dbfb92cbc07fe17840425976cf0667f022fe9877caa831b086108fb81611132565b6109036111ee565b50565b6000600260009054906101000a900460ff16905090565b7f241ecf16d79d0f8dbfb92cbc07fe17840425976cf0667f022fe9877caa831b0861094781611132565b81600460006101000a81548167ffffffffffffffff021916908367ffffffffffffffff1602179055507fd954ba0c0ed1c0ff4acd7e24421c71783f17ad514812e6f657944ff8ea80c8308260405161099f9190612140565b60405180910390a15050565b60006003547f00000000000000000000000000000000000000000000000000000000000000004203816109e1576109e06128a3565b5b04905090565b7f241ecf16d79d0f8dbfb92cbc07fe17840425976cf0667f022fe9877caa831b08610a1181611132565b610a19611251565b50565b6000610a4382600160008681526020019081526020016000206112b490919063ffffffff16565b905092915050565b600080600084815260200190815260200160002060000160008373ffffffffffffffffffffffffffffffffffffffff1673ffffffffffffffffffffffffffffffffffffffff16815260200190815260200160002060009054906101000a900460ff16905092915050565b600080600560008867ffffffffffffffff1667ffffffffffffffff16815260200190815260200160002060008767ffffffffffffffff1667ffffffffffffffff1681526020019081526020016000206000015490506000801b8114158015610b255750610b24848483886112ce565b5b91505095945050505050565b6000801b81565b6060610b55600160008481526020019081526020016000206112e7565b9050919050565b7f241ecf16d79d0f8dbfb92cbc07fe17840425976cf0667f022fe9877caa831b08610b8681611132565b60008211610bc9576040517f08c379a0000000000000000000000000000000000000000000000000000000008152600401610bc09061291e565b60405180910390fd5b816003819055507fb0112655322566e06c990bdc4a89195734656bf391f33572c66c1895d9e9ea8a82604051610bff9190612579565b60405180910390a15050565b600460009054906101000a900467ffffffffffffffff1681565b7f68e79a7bf1e0bc45d0a330c573bc367f9cf464fd326078812f301165fbda4ef1610c4f81611132565b610c57611308565b8484905087879050141580610c725750828290508787905014155b15610ca9576040517fa24a13a600000000000000000000000000000000000000000000000000000000815260040160405180910390fd5b610cb288611349565b60005b87879050811015610d7e57610d7389898984818110610cd757610cd661293e565b5b9050602002016020810190610cec9190612104565b888885818110610cff57610cfe61293e565b5b90506020020135878786818110610d1957610d1861293e565b5b9050602002810190610d2b919061297c565b8080601f016020809104026020016040519081016040528093929190818152602001838380828437600081840152601f19601f8201169050808301925050505050505061142c565b806001019050610cb5565b505050505050505050565b6000610da6600160008481526020019081526020016000206116e2565b9050919050565b7f000000000000000000000000000000000000000000000000000000000000000081565b7f68e79a7bf1e0bc45d0a330c573bc367f9cf464fd326078812f301165fbda4ef1610dfb81611132565b610e03611308565b610e0c86611349565b610e5c86868686868080601f016020809104026020016040519081016040528093929190818152602001838380828437600081840152601f19601f8201169050808301925050505050505061142c565b505050505050565b610e6d82610815565b610e7681611132565b610e8083836111a8565b50505050565b610e8e611d3e565b600560008467ffffffffffffffff1667ffffffffffffffff16815260200190815260200160002060008367ffffffffffffffff1667ffffffffffffffff16815260200190815260200160002060405180604001604052908160008201548152602001600182018054610eff906127dd565b80601f0160208091040260200160405190810160405280929190818152602001828054610f2b906127dd565b8015610f785780601f10610f4d57610100808354040283529160200191610f78565b820191906000526020600020905b815481529060010190602001808311610f5b57829003601f168201915b505050505081525050905092915050565b6000801b610f9681611132565b610fc07f68e79a7bf1e0bc45d0a330c573bc367f9cf464fd326078812f301165fbda4ef18361115a565b507e47706786c922d17b39285dc59d696bafea72c0b003d3841ae1202076f4c2e482604051610fef91906121e0565b60405180910390a15050565b7f241ecf16d79d0f8dbfb92cbc07fe17840425976cf0667f022fe9877caa831b0881565b60035481565b6000801b61103281611132565b61105c7f68e79a7bf1e0bc45d0a330c573bc367f9cf464fd326078812f301165fbda4ef1836111a8565b507f9c8e7d83025bef8a04c664b2f753f64b8814bdb7e27291d7e50935f18cc3c7128260405161108c91906121e0565b60405180910390a15050565b60066020528060005260406000206000915054906101000a900460ff1681565b60007f7965db0b000000000000000000000000000000000000000000000000000000007bffffffffffffffffffffffffffffffffffffffffffffffffffffffff1916827bffffffffffffffffffffffffffffffffffffffffffffffffffffffff1916148061112b575061112a826116f7565b5b9050919050565b6111438161113e6111a0565b611761565b50565b6000600f60ff168260ff1611159050919050565b60008061116784846117b2565b905080156111965761119483600160008781526020019081526020016000206118a390919063ffffffff16565b505b8091505092915050565b600033905090565b6000806111b584846118d3565b905080156111e4576111e283600160008781526020019081526020016000206119c590919063ffffffff16565b505b8091505092915050565b6111f66119f5565b6000600260006101000a81548160ff0219169083151502179055507f5db9ee0a495bf2e6ff9c91a7834c1ba4fdd244a5e8aa4e537bd38aeae4b073aa61123a6111a0565b60405161124791906121e0565b60405180910390a1565b611259611308565b6001600260006101000a81548160ff0219169083151502179055507f62e78cea01bee320cd4e420270b5ea74000d11b0c9f74754ebdbfc544b05a25861129d6111a0565b6040516112aa91906121e0565b60405180910390a1565b60006112c38360000183611a35565b60001c905092915050565b6000826112dc868685611a60565b149050949350505050565b606060006112f783600001611ab2565b905060608190508092505050919050565b611310610906565b15611347576040517fd93c066500000000000000000000000000000000000000000000000000000000815260040160405180910390fd5b565b60006113536109ab565b90508067ffffffffffffffff168267ffffffffffffffff1611156113ae57816040517f70e7885f0000000000000000000000000000000000000000000000000000000081526004016113a59190612140565b60405180910390fd5b600460009054906101000a900467ffffffffffffffff1667ffffffffffffffff1682826113db9190612a0e565b67ffffffffffffffff16111561142857816040517fdabe138300000000000000000000000000000000000000000000000000000000815260040161141f9190612140565b60405180910390fd5b5050565b6000801b8203611468576040517f53ce4ece00000000000000000000000000000000000000000000000000000000815260040160405180910390fd5b60008151036114a3576040517f63ee91d000000000000000000000000000000000000000000000000000000000815260040160405180910390fd5b6000801b600560008667ffffffffffffffff1667ffffffffffffffff16815260200190815260200160002060008567ffffffffffffffff1667ffffffffffffffff168152602001908152602001600020600001541461152e576040517f01717d0900000000000000000000000000000000000000000000000000000000815260040160405180910390fd5b60006115438467ffffffffffffffff16611b0e565b9050600061155a8567ffffffffffffffff16611b2c565b90506000600660008360ff1660ff16815260200190815260200160002060009054906101000a900460ff16905060008160ff16036115c4576040517f09d5549500000000000000000000000000000000000000000000000000000000815260040160405180910390fd5b8060ff168360ff161115611604576040517f3bf9999c00000000000000000000000000000000000000000000000000000000815260040160405180910390fd5b604051806040016040528086815260200185815250600560008967ffffffffffffffff1667ffffffffffffffff16815260200190815260200160002060008867ffffffffffffffff1667ffffffffffffffff1681526020019081526020016000206000820151816000015560208201518160010190816116849190612c25565b509050508567ffffffffffffffff168767ffffffffffffffff167fb48aa4807f3dc15dfe1e1350bac6ddda3675ceb77d0a30d6774674f76cad87b28787876040516116d193929190612cf7565b60405180910390a350505050505050565b60006116f082600001611b44565b9050919050565b60007f01ffc9a7000000000000000000000000000000000000000000000000000000007bffffffffffffffffffffffffffffffffffffffffffffffffffffffff1916827bffffffffffffffffffffffffffffffffffffffffffffffffffffffff1916149050919050565b61176b8282610a4b565b6117ae5780826040517fe2517d3f0000000000000000000000000000000000000000000000000000000081526004016117a5929190612d35565b60405180910390fd5b5050565b60006117be8383610a4b565b61189857600160008085815260200190815260200160002060000160008473ffffffffffffffffffffffffffffffffffffffff1673ffffffffffffffffffffffffffffffffffffffff16815260200190815260200160002060006101000a81548160ff0219169083151502179055506118356111a0565b73ffffffffffffffffffffffffffffffffffffffff168273ffffffffffffffffffffffffffffffffffffffff16847f2f8788117e7eff1d82e926ec794901d17c78024a50270940304540a733656f0d60405160405180910390a46001905061189d565b600090505b92915050565b60006118cb836000018373ffffffffffffffffffffffffffffffffffffffff1660001b611b55565b905092915050565b60006118df8383610a4b565b156119ba57600080600085815260200190815260200160002060000160008473ffffffffffffffffffffffffffffffffffffffff1673ffffffffffffffffffffffffffffffffffffffff16815260200190815260200160002060006101000a81548160ff0219169083151502179055506119576111a0565b73ffffffffffffffffffffffffffffffffffffffff168273ffffffffffffffffffffffffffffffffffffffff16847ff6391f5c32d9c69d2a47ea670b442974b53935d1edc7fd64eb21e047a839171b60405160405180910390a4600190506119bf565b600090505b92915050565b60006119ed836000018373ffffffffffffffffffffffffffffffffffffffff1660001b611bc5565b905092915050565b6119fd610906565b611a33576040517f8dfc202b00000000000000000000000000000000000000000000000000000000815260040160405180910390fd5b565b6000826000018281548110611a4d57611a4c61293e565b5b9060005260206000200154905092915050565b60008082905060005b85859050811015611aa657611a9782878784818110611a8b57611a8a61293e565b5b90506020020135611cd9565b91508080600101915050611a69565b50809150509392505050565b606081600001805480602002602001604051908101604052809291908181526020018280548015611b0257602002820191906000526020600020905b815481526020019060010190808311611aee575b50505050509050919050565b6000600f600860ff168367ffffffffffffffff16901c169050919050565b600060388267ffffffffffffffff16901c9050919050565b600081600001805490509050919050565b6000611b618383611d04565b611bba578260000182908060018154018082558091505060019003906000526020600020016000909190919091505582600001805490508360010160008481526020019081526020016000208190555060019050611bbf565b600090505b92915050565b60008083600101600084815260200190815260200160002054905060008114611ccd576000600182611bf79190612d5e565b9050600060018660000180549050611c0f9190612d5e565b9050808214611c7e576000866000018281548110611c3057611c2f61293e565b5b9060005260206000200154905080876000018481548110611c5457611c5361293e565b5b90600052602060002001819055508387600101600083815260200190815260200160002081905550505b85600001805480611c9257611c91612d92565b5b600190038181906000526020600020016000905590558560010160008681526020019081526020016000206000905560019350505050611cd3565b60009150505b92915050565b6000818310611cf157611cec8284611d27565b611cfc565b611cfb8383611d27565b5b905092915050565b600080836001016000848152602001908152602001600020541415905092915050565b600082600052816020526040600020905092915050565b604051806040016040528060008019168152602001606081525090565b600080fd5b600080fd5b60007fffffffff0000000000000000000000000000000000000000000000000000000082169050919050565b611d9a81611d65565b8114611da557600080fd5b50565b600081359050611db781611d91565b92915050565b600060208284031215611dd357611dd2611d5b565b5b6000611de184828501611da8565b91505092915050565b60008115159050919050565b611dff81611dea565b82525050565b6000602082019050611e1a6000830184611df6565b92915050565b6000819050919050565b611e3381611e20565b82525050565b6000602082019050611e4e6000830184611e2a565b92915050565b600067ffffffffffffffff82169050919050565b611e7181611e54565b8114611e7c57600080fd5b50565b600081359050611e8e81611e68565b92915050565b60008060408385031215611eab57611eaa611d5b565b5b6000611eb985828601611e7f565b9250506020611eca85828601611e7f565b9150509250929050565b600081519050919050565b600082825260208201905092915050565b60005b83811015611f0e578082015181840152602081019050611ef3565b60008484015250505050565b6000601f19601f8301169050919050565b6000611f3682611ed4565b611f408185611edf565b9350611f50818560208601611ef0565b611f5981611f1a565b840191505092915050565b6000604082019050611f796000830185611e2a565b8181036020830152611f8b8184611f2b565b90509392505050565b600060ff82169050919050565b611faa81611f94565b8114611fb557600080fd5b50565b600081359050611fc781611fa1565b92915050565b60008060408385031215611fe457611fe3611d5b565b5b6000611ff285828601611fb8565b925050602061200385828601611fb8565b9150509250929050565b61201681611e20565b811461202157600080fd5b50565b6000813590506120338161200d565b92915050565b60006020828403121561204f5761204e611d5b565b5b600061205d84828501612024565b91505092915050565b600073ffffffffffffffffffffffffffffffffffffffff82169050919050565b600061209182612066565b9050919050565b6120a181612086565b81146120ac57600080fd5b50565b6000813590506120be81612098565b92915050565b600080604083850312156120db576120da611d5b565b5b60006120e985828601612024565b92505060206120fa858286016120af565b9150509250929050565b60006020828403121561211a57612119611d5b565b5b600061212884828501611e7f565b91505092915050565b61213a81611e54565b82525050565b60006020820190506121556000830184612131565b92915050565b6000819050919050565b61216e8161215b565b811461217957600080fd5b50565b60008135905061218b81612165565b92915050565b600080604083850312156121a8576121a7611d5b565b5b60006121b685828601612024565b92505060206121c78582860161217c565b9150509250929050565b6121da81612086565b82525050565b60006020820190506121f560008301846121d1565b92915050565b600080fd5b600080fd5b600080fd5b60008083601f8401126122205761221f6121fb565b5b8235905067ffffffffffffffff81111561223d5761223c612200565b5b60208301915083602082028301111561225957612258612205565b5b9250929050565b60008060008060006080868803121561227c5761227b611d5b565b5b600061228a88828901611e7f565b955050602061229b88828901611e7f565b94505060406122ac88828901612024565b935050606086013567ffffffffffffffff8111156122cd576122cc611d60565b5b6122d98882890161220a565b92509250509295509295909350565b600081519050919050565b600082825260208201905092915050565b6000819050602082019050919050565b61231d81612086565b82525050565b600061232f8383612314565b60208301905092915050565b6000602082019050919050565b6000612353826122e8565b61235d81856122f3565b935061236883612304565b8060005b838110156123995781516123808882612323565b975061238b8361233b565b92505060018101905061236c565b5085935050505092915050565b600060208201905081810360008301526123c08184612348565b905092915050565b6000602082840312156123de576123dd611d5b565b5b60006123ec8482850161217c565b91505092915050565b60008083601f84011261240b5761240a6121fb565b5b8235905067ffffffffffffffff81111561242857612427612200565b5b60208301915083602082028301111561244457612443612205565b5b9250929050565b60008083601f840112612461576124606121fb565b5b8235905067ffffffffffffffff81111561247e5761247d612200565b5b60208301915083602082028301111561249a57612499612205565b5b9250929050565b60008060008060008060006080888a0312156124c0576124bf611d5b565b5b60006124ce8a828b01611e7f565b975050602088013567ffffffffffffffff8111156124ef576124ee611d60565b5b6124fb8a828b016123f5565b9650965050604088013567ffffffffffffffff81111561251e5761251d611d60565b5b61252a8a828b0161220a565b9450945050606088013567ffffffffffffffff81111561254d5761254c611d60565b5b6125598a828b0161244b565b925092505092959891949750929550565b6125738161215b565b82525050565b600060208201905061258e600083018461256a565b92915050565b60008083601f8401126125aa576125a96121fb565b5b8235905067ffffffffffffffff8111156125c7576125c6612200565b5b6020830191508360018202830111156125e3576125e2612205565b5b9250929050565b60008060008060006080868803121561260657612605611d5b565b5b600061261488828901611e7f565b955050602061262588828901611e7f565b945050604061263688828901612024565b935050606086013567ffffffffffffffff81111561265757612656611d60565b5b61266388828901612594565b92509250509295509295909350565b61267b81611e20565b82525050565b600082825260208201905092915050565b600061269d82611ed4565b6126a78185612681565b93506126b7818560208601611ef0565b6126c081611f1a565b840191505092915050565b60006040830160008301516126e36000860182612672565b50602083015184820360208601526126fb8282612692565b9150508091505092915050565b6000602082019050818103600083015261272281846126cb565b905092915050565b6000602082840312156127405761273f611d5b565b5b600061274e848285016120af565b91505092915050565b60006020828403121561276d5761276c611d5b565b5b600061277b84828501611fb8565b91505092915050565b61278d81611f94565b82525050565b60006020820190506127a86000830184612784565b92915050565b7f4e487b7100000000000000000000000000000000000000000000000000000000600052602260045260246000fd5b600060028204905060018216806127f557607f821691505b602082108103612808576128076127ae565b5b50919050565b7f696e76616c6964206d6178526573000000000000000000000000000000000000600082015250565b6000612844600e83611edf565b915061284f8261280e565b602082019050919050565b6000602082019050818103600083015261287381612837565b9050919050565b600060408201905061288f6000830185612784565b61289c6020830184612784565b9392505050565b7f4e487b7100000000000000000000000000000000000000000000000000000000600052601260045260246000fd5b7f696e74657276616c207a65726f00000000000000000000000000000000000000600082015250565b6000612908600d83611edf565b9150612913826128d2565b602082019050919050565b60006020820190508181036000830152612937816128fb565b9050919050565b7f4e487b7100000000000000000000000000000000000000000000000000000000600052603260045260246000fd5b600080fd5b600080fd5b600080fd5b600080833560016020038436030381126129995761299861296d565b5b80840192508235915067ffffffffffffffff8211156129bb576129ba612972565b5b6020830192506001820236038313156129d7576129d6612977565b5b509250929050565b7f4e487b7100000000000000000000000000000000000000000000000000000000600052601160045260246000fd5b6000612a1982611e54565b9150612a2483611e54565b9250828203905067ffffffffffffffff811115612a4457612a436129df565b5b92915050565b7f4e487b7100000000000000000000000000000000000000000000000000000000600052604160045260246000fd5b60008190508160005260206000209050919050565b60006020601f8301049050919050565b600082821b905092915050565b600060088302612adb7fffffffffffffffffffffffffffffffffffffffffffffffffffffffffffffffff82612a9e565b612ae58683612a9e565b95508019841693508086168417925050509392505050565b6000819050919050565b6000612b22612b1d612b188461215b565b612afd565b61215b565b9050919050565b6000819050919050565b612b3c83612b07565b612b50612b4882612b29565b848454612aab565b825550505050565b600090565b612b65612b58565b612b70818484612b33565b505050565b5b81811015612b9457612b89600082612b5d565b600181019050612b76565b5050565b601f821115612bd957612baa81612a79565b612bb384612a8e565b81016020851015612bc2578190505b612bd6612bce85612a8e565b830182612b75565b50505b505050565b600082821c905092915050565b6000612bfc60001984600802612bde565b1980831691505092915050565b6000612c158383612beb565b9150826002028217905092915050565b612c2e82611ed4565b67ffffffffffffffff811115612c4757612c46612a4a565b5b612c5182546127dd565b612c5c828285612b98565b600060209050601f831160018114612c8f5760008415612c7d578287015190505b612c878582612c09565b865550612cef565b601f198416612c9d86612a79565b60005b82811015612cc557848901518255600182019150602085019450602081019050612ca0565b86831015612ce25784890151612cde601f891682612beb565b8355505b6001600288020188555050505b505050505050565b6000606082019050612d0c6000830186611e2a565b8181036020830152612d1e8185611f2b565b9050612d2d6040830184612784565b949350505050565b6000604082019050612d4a60008301856121d1565b612d576020830184611e2a565b9392505050565b6000612d698261215b565b9150612d748361215b565b9250828203905081811115612d8c57612d8b6129df565b5b92915050565b7f4e487b7100000000000000000000000000000000000000000000000000000000600052603160045260246000fdfea264697066735822122018b209a71f7add949a8c1670026c15d621494badc3e7a22e28d8fc7b42950b6a64736f6c63430008180033",
  "linkReferences": {},
  "deployedLinkReferences": {}
}