{
  "_format": "hh-sol-artifact-1",
  "contractName": "GeoRewardManagerHGC",
  "sourceName": "contracts/alternative/GeoRewardManagerHGC.sol",
  "abi": [
    {
      "inputs": [
        {
          "internalType": "address",
          "name": "admin",
          "type": "address"
        },
        {
          "internalType": "address",
          "name": "oracleGlobal",
          "type": "address"
        },
        {
          "internalType": "contract IGeoToken",
          "name": "_cgt",
          "type": "address"
        },
        {
          "internalType": "contract INodeDIDRegistry",
          "name": "_did",
          "type": "address"
        }
      ],
      "stateMutability": "nonpayable",
      "type": "constructor"
    },
    {
      "inputs": [],
      "name": "AccessControlBadConfirmation",
      "type": "error"
    },
    {
      "inputs": [
        {
          "internalType": "address",
          "name": "account",
          "type": "address"
        },
        {
          "internalType": "bytes32",
          "name": "neededRole",
          "type": "bytes32"
        }
      ],
      "name": "AccessControlUnauthorizedAccount",
      "type": "error"
    },
    {
      "inputs": [],
      "name": "AlreadyClaimed",
      "type": "error"
    },
    {
      "inputs": [],
      "name": "BatchAlreadyExists",
      "type": "error"
    },
    {
      "inputs": [],
      "name": "InvalidProof",
      "type": "error"
    },
    {
      "inputs": [],
      "name": "NodeInactive",
      "type": "error"
    },
    {
      "inputs": [],
      "name": "NotController",
      "type": "error"
    },
    {
      "anonymous": false,
      "inputs": [
        {
          "indexed": true,
          "internalType": "uint64",
          "name": "epochWeek",
          "type": "uint64"
        },
        {
          "indexed": true,
          "internalType": "uint64",
          "name": "geoBatchId",
          "type": "uint64"
        },
        {
          "indexed": false,
          "internalType": "bytes32",
          "name": "root",
          "type": "bytes32"
        },
        {
          "indexed": false,
          "internalType": "uint256",
          "name": "totalMint",
          "type": "uint256"
        }
      ],
      "name": "RewardBatchPublished",
      "type": "event"
    },
    {
      "anonymous": false,
      "inputs": [
        {
          "indexed": true,
          "internalType": "address",
          "name": "controller",
          "type": "address"
        },
        {
          "indexed": true,
          "internalType": "uint64",
          "name": "epochWeek",
          "type": "uint64"
        },
        {
          "indexed": false,
          "internalType": "uint64",
          "name": "geoBatchId",
          "type": "uint64"
        },
        {
          "indexed": false,
          "internalType": "uint256",
          "name": "amount",
          "type": "uint256"
        }
      ],
      "name": "RewardClaimed",
      "type": "event"
    },
    {
      "anonymous": false,
      "inputs": [
        {
          "indexed": true,
          "internalType": "bytes32",
          "name": "role",
          "type": "bytes32"
        },
        {
          "indexed": true,
          "internalType": "bytes32",
          "name": "previousAdminRole",
          "type": "bytes32"
        },
        {
          "indexed": true,
          "internalType": "bytes32",
          "name": "newAdminRole",
          "type": "bytes32"
        }
      ],
      "name": "RoleAdminChanged",
      "type": "event"
    },
    {
      "anonymous": false,
      "inputs": [
        {
          "indexed": true,
          "internalType": "bytes32",
          "name": "role",
          "type": "bytes32"
        },
        {
          "indexed": true,
          "internalType": "address",
          "name": "account",
          "type": "address"
        },
        {
          "indexed": true,
          "internalType": "address",
          "name": "sender",
          "type": "address"
        }
      ],
      "name": "RoleGranted",
      "type": "event"
    },
    {
      "anonymous": false,
      "inputs": [
        {
          "indexed": true,
          "internalType": "bytes32",
          "name": "role",
          "type": "bytes32"
        },
        {
          "indexed": true,
          "internalType": "address",
          "name": "account",
          "type": "address"
        },
        {
          "indexed": true,
          "internalType": "address",
          "name": "sender",
          "type": "address"
        }
      ],
      "name": "RoleRevoked",
      "type": "event"
    },
    {
      "inputs": [],
      "name": "DEFAULT_ADMIN_ROLE",
      "outputs": [
        {
          "internalType": "bytes32",
          "name": "",
          "type": "bytes32"
        }
      ],
      "stateMutability": "view",
      "type": "function"
    },
    {
      "inputs": [],
      "name": "MANAGER_ROLE",
      "outputs": [
        {
          "internalType": "bytes32",
          "name": "",
          "type": "bytes32"
        }
      ],
      "stateMutability": "view",
      "type": "function"
    },
    {
      "inputs": [],
      "name": "ORACLE_ROLE",
      "outputs": [
        {
          "internalType": "bytes32",
          "name": "",
          "type": "bytes32"
        }
      ],
      "stateMutability": "view",
      "type": "function"
    },
    {
      "inputs": [],
      "name": "cgt",
      "outputs": [
        {
          "internalType": "contract IGeoToken",
          "name": "",
          "type": "address"
        }
      ],
      "stateMutability": "view",
      "type": "function"
    },
    {
      "inputs": [
        {
          "internalType": "uint64",
          "name": "epochWeek",
          "type": "uint64"
        },
        {
          "internalType": "uint64",
          "name": "geoBatchId",
          "type": "uint64"
        },
        {
          "internalType": "uint256",
          "name": "amount",
          "type": "uint256"
        },
        {
          "internalType": "bytes32[]",
          "name": "proof",
          "type": "bytes32[]"
        }
      ],
      "name": "claim",
      "outputs": [],
      "stateMutability": "nonpayable",
      "type": "function"
    },
    {
      "inputs": [],
      "name": "did",
      "outputs": [
        {
          "internalType": "contract INodeDIDRegistry",
          "name": "",
          "type": "address"
        }
      ],
      "stateMutability": "view",
      "type": "function"
    },
    {
      "inputs": [
        {
          "internalType": "bytes32",
          "name": "role",
          "type": "bytes32"
        }
      ],
      "name": "getRoleAdmin",
      "outputs": [
        {
          "internalType": "bytes32",
          "name": "",
          "type": "bytes32"
        }
      ],
      "stateMutability": "view",
      "type": "function"
    },
    {
      "inputs": [
        {
          "internalType": "bytes32",
          "name": "role",
          "type": "bytes32"
        },
        {
          "internalType": "address",
          "name": "account",
          "type": "address"
        }
      ],
      "name": "grantRole",
      "outputs": [],
      "stateMutability": "nonpayable",
      "type": "function"
    },
    {
      "inputs": [
        {
          "internalType": "bytes32",
          "name": "role",
          "type": "bytes32"
        },
        {
          "internalType": "address",
          "name": "account",
          "type": "address"
        }
      ],
      "name": "hasRole",
      "outputs": [
        {
          "internalType": "bool",
          "name": "",
          "type": "bool"
        }
      ],
      "stateMutability": "view",
      "type": "function"
    },
    {
      "inputs": [
        {
          "internalType": "uint64",
          "name": "epochWeek",
          "type": "uint64"
        },
        {
          "internalType": "uint64",
          "name": "geoBatchId",
          "type": "uint64"
        },
        {
          "internalType": "bytes32",
          "name": "merkleRoot",
          "type": "bytes32"
        },
        {
          "internalType": "uint256",
          "name": "totalToMint",
          "type": "uint256"
        },
        {
          "internalType": "string",
          "name": "dataCID",
          "type": "string"
        }
      ],
      "name": "publishRewardBatch",
      "outputs": [],
      "stateMutability": "nonpayable",
      "type": "function"
    },
    {
      "inputs": [
        {
          "internalType": "bytes32",
          "name": "role",
          "type": "bytes32"
        },
        {
          "internalType": "address",
          "name": "callerConfirmation",
          "type": "address"
        }
      ],
      "name": "renounceRole",
      "outputs": [],
      "stateMutability": "nonpayable",
      "type": "function"
    },
    {
      "inputs": [
        {
          "internalType": "bytes32",
          "name": "role",
          "type": "bytes32"
        },
        {
          "internalType": "address",
          "name": "account",
          "type": "address"
        }
      ],
      "name": "revokeRole",
      "outputs": [],
      "stateMutability": "nonpayable",
      "type": "function"
    },
    {
      "inputs": [
        {
          "internalType": "uint64",
          "name": "",
          "type": "uint64"
        },
        {
          "internalType": "uint64",
          "name": "",
          "type": "uint64"
        }
      ],
      "name": "rewardBatches",
      "outputs": [
        {
          "internalType": "bytes32",
          "name": "merkleRoot",
          "type": "bytes32"
        },
        {
          "internalType": "uint256",
          "name": "totalMint",
          "type": "uint256"
        },
        {
          "internalType": "string",
          "name": "dataCID",
          "type": "string"
        }
      ],
      "stateMutability": "view",
      "type": "function"
    },
    {
      "inputs": [
        {
          "internalType": "bytes4",
          "name": "interfaceId",
          "type": "bytes4"
        }
      ],
      "name": "supportsInterface",
      "outputs": [
        {
          "internalType": "bool",
          "name": "",
          "type": "bool"
        }
      ],
      "stateMutability": "view",
      "type": "function"
    }
  ],
  "bytecode": "0x60c060405234801561001057600080fd5b506040516120bd3803806120bd83398181016040528101906100329190610367565b8173ffffffffffffffffffffffffffffffffffffffff1660808173ffffffffffffffffffffffffffffffffffffffff16815250508073ffffffffffffffffffffffffffffffffffffffff1660a08173ffffffffffffffffffffffffffffffffffffffff16815250506100ad6000801b8561011960201b60201c565b506100de7f68e79a7bf1e0bc45d0a330c573bc367f9cf464fd326078812f301165fbda4ef18461011960201b60201c565b5061010f7f241ecf16d79d0f8dbfb92cbc07fe17840425976cf0667f022fe9877caa831b088561011960201b60201c565b50505050506103ce565b600061012b838361021660201b60201c565b61020b57600160008085815260200190815260200160002060000160008473ffffffffffffffffffffffffffffffffffffffff1673ffffffffffffffffffffffffffffffffffffffff16815260200190815260200160002060006101000a81548160ff0219169083151502179055506101a861028060201b60201c565b73ffffffffffffffffffffffffffffffffffffffff168273ffffffffffffffffffffffffffffffffffffffff16847f2f8788117e7eff1d82e926ec794901d17c78024a50270940304540a733656f0d60405160405180910390a460019050610210565b600090505b92915050565b600080600084815260200190815260200160002060000160008373ffffffffffffffffffffffffffffffffffffffff1673ffffffffffffffffffffffffffffffffffffffff16815260200190815260200160002060009054906101000a900460ff16905092915050565b600033905090565b600080fd5b600073ffffffffffffffffffffffffffffffffffffffff82169050919050565b60006102b88261028d565b9050919050565b6102c8816102ad565b81146102d357600080fd5b50565b6000815190506102e5816102bf565b92915050565b60006102f6826102ad565b9050919050565b610306816102eb565b811461031157600080fd5b50565b600081519050610323816102fd565b92915050565b6000610334826102ad565b9050919050565b61034481610329565b811461034f57600080fd5b50565b6000815190506103618161033b565b92915050565b6000806000806080858703121561038157610380610288565b5b600061038f878288016102d6565b94505060206103a0878288016102d6565b93505060406103b187828801610314565b92505060606103c287828801610352565b91505092959194509250565b60805160a051611cae61040f6000396000818161042f015281816105160152610c540152600081816107690152818161086c0152610a1d0152611cae6000f3fe608060405234801561001057600080fd5b50600436106100ea5760003560e01c8063888ab0511161008c578063cc3f779311610066578063cc3f779314610249578063d547741f1461027b578063e6fcc84b14610297578063ec87621c146102b5576100ea565b8063888ab051146101df57806391d14854146101fb578063a217fddf1461022b576100ea565b80632f2ff15d116100c85780632f2ff15d1461016d57806336568abe1461018957806356995f05146101a557806370e9144a146101c1576100ea565b806301ffc9a7146100ef57806307e2cea51461011f578063248a9ca31461013d575b600080fd5b61010960048036038101906101049190611112565b6102d3565b604051610116919061115a565b60405180910390f35b61012761034d565b604051610134919061118e565b60405180910390f35b610157600480360381019061015291906111d5565b610371565b604051610164919061118e565b60405180910390f35b61018760048036038101906101829190611260565b610390565b005b6101a3600480360381019061019e9190611260565b6103b2565b005b6101bf60048036038101906101ba919061137b565b61042d565b005b6101c961086a565b6040516101d69190611462565b60405180910390f35b6101f960048036038101906101f491906114d3565b61088e565b005b61021560048036038101906102109190611260565b610b00565b604051610222919061115a565b60405180910390f35b610233610b6a565b604051610240919061118e565b60405180910390f35b610263600480360381019061025e919061156d565b610b71565b6040516102729392919061164c565b60405180910390f35b61029560048036038101906102909190611260565b610c30565b005b61029f610c52565b6040516102ac91906116ab565b60405180910390f35b6102bd610c76565b6040516102ca919061118e565b60405180910390f35b60007f7965db0b000000000000000000000000000000000000000000000000000000007bffffffffffffffffffffffffffffffffffffffffffffffffffffffff1916827bffffffffffffffffffffffffffffffffffffffffffffffffffffffff19161480610346575061034582610c9a565b5b9050919050565b7f68e79a7bf1e0bc45d0a330c573bc367f9cf464fd326078812f301165fbda4ef181565b6000806000838152602001908152602001600020600101549050919050565b61039982610371565b6103a281610d04565b6103ac8383610d18565b50505050565b6103ba610e09565b73ffffffffffffffffffffffffffffffffffffffff168173ffffffffffffffffffffffffffffffffffffffff161461041e576040517f6697b23200000000000000000000000000000000000000000000000000000000815260040160405180910390fd5b6104288282610e11565b505050565b7f000000000000000000000000000000000000000000000000000000000000000073ffffffffffffffffffffffffffffffffffffffff16639f8a13d7336040518263ffffffff1660e01b815260040161048691906116d5565b602060405180830381865afa1580156104a3573d6000803e3d6000fd5b505050506040513d601f19601f820116820180604052508101906104c7919061171c565b6104fd576040517fa247f8ae00000000000000000000000000000000000000000000000000000000815260040160405180910390fd5b3373ffffffffffffffffffffffffffffffffffffffff167f000000000000000000000000000000000000000000000000000000000000000073ffffffffffffffffffffffffffffffffffffffff166388c662aa336040518263ffffffff1660e01b815260040161056d91906116d5565b602060405180830381865afa15801561058a573d6000803e3d6000fd5b505050506040513d601f19601f820116820180604052508101906105ae919061175e565b73ffffffffffffffffffffffffffffffffffffffff16146105fb576040517f23019e6700000000000000000000000000000000000000000000000000000000815260040160405180910390fd5b6000610608868633610f03565b905061061e816002610f3c90919063ffffffff16565b15610655576040517f646cf55800000000000000000000000000000000000000000000000000000000815260040160405180910390fd5b6000338560405160200161066a9291906117f4565b60405160208183030381529060405280519060200120905061071d848480806020026020016040519081016040528093929190818152602001838360200280828437600081840152601f19601f82011690508083019250505050505050600160008a67ffffffffffffffff1667ffffffffffffffff16815260200190815260200160002060008967ffffffffffffffff1667ffffffffffffffff1681526020019081526020016000206000015483610f78565b610753576040517f09bde33900000000000000000000000000000000000000000000000000000000815260040160405180910390fd5b610767826002610f8f90919063ffffffff16565b7f000000000000000000000000000000000000000000000000000000000000000073ffffffffffffffffffffffffffffffffffffffff1663a9059cbb33876040518363ffffffff1660e01b81526004016107c2929190611820565b6020604051808303816000875af11580156107e1573d6000803e3d6000fd5b505050506040513d601f19601f82011682018060405250810190610805919061171c565b508667ffffffffffffffff163373ffffffffffffffffffffffffffffffffffffffff167f30151f66f186c3a0dc83b32c72a421d86d6c0729c667fa3cba7ab9e8e48c64f98888604051610859929190611858565b60405180910390a350505050505050565b7f000000000000000000000000000000000000000000000000000000000000000081565b7f68e79a7bf1e0bc45d0a330c573bc367f9cf464fd326078812f301165fbda4ef16108b881610d04565b6000801b600160008967ffffffffffffffff1667ffffffffffffffff16815260200190815260200160002060008867ffffffffffffffff1667ffffffffffffffff1681526020019081526020016000206000015414610943576040517fd15f973b00000000000000000000000000000000000000000000000000000000815260040160405180910390fd5b604051806060016040528086815260200185815260200184848080601f016020809104026020016040519081016040528093929190818152602001838380828437600081840152601f19601f82011690508083019250505050505050815250600160008967ffffffffffffffff1667ffffffffffffffff16815260200190815260200160002060008867ffffffffffffffff1667ffffffffffffffff16815260200190815260200160002060008201518160000155602082015181600101556040820151816002019081610a179190611ab2565b509050507f000000000000000000000000000000000000000000000000000000000000000073ffffffffffffffffffffffffffffffffffffffff166340c10f1930866040518363ffffffff1660e01b8152600401610a76929190611820565b600060405180830381600087803b158015610a9057600080fd5b505af1158015610aa4573d6000803e3d6000fd5b505050508567ffffffffffffffff168767ffffffffffffffff167f5c790b6a3a95c2c258b5cc8dac4e9d8fa478070df6cf374f2bd34210660f79888787604051610aef929190611b84565b60405180910390a350505050505050565b600080600084815260200190815260200160002060000160008373ffffffffffffffffffffffffffffffffffffffff1673ffffffffffffffffffffffffffffffffffffffff16815260200190815260200160002060009054906101000a900460ff16905092915050565b6000801b81565b600160205281600052604060002060205280600052604060002060009150915050806000015490806001015490806002018054610bad906118df565b80601f0160208091040260200160405190810160405280929190818152602001828054610bd9906118df565b8015610c265780601f10610bfb57610100808354040283529160200191610c26565b820191906000526020600020905b815481529060010190602001808311610c0957829003601f168201915b5050505050905083565b610c3982610371565b610c4281610d04565b610c4c8383610e11565b50505050565b7f000000000000000000000000000000000000000000000000000000000000000081565b7f241ecf16d79d0f8dbfb92cbc07fe17840425976cf0667f022fe9877caa831b0881565b60007f01ffc9a7000000000000000000000000000000000000000000000000000000007bffffffffffffffffffffffffffffffffffffffffffffffffffffffff1916827bffffffffffffffffffffffffffffffffffffffffffffffffffffffff1916149050919050565b610d1581610d10610e09565b610fcd565b50565b6000610d248383610b00565b610dfe57600160008085815260200190815260200160002060000160008473ffffffffffffffffffffffffffffffffffffffff1673ffffffffffffffffffffffffffffffffffffffff16815260200190815260200160002060006101000a81548160ff021916908315150217905550610d9b610e09565b73ffffffffffffffffffffffffffffffffffffffff168273ffffffffffffffffffffffffffffffffffffffff16847f2f8788117e7eff1d82e926ec794901d17c78024a50270940304540a733656f0d60405160405180910390a460019050610e03565b600090505b92915050565b600033905090565b6000610e1d8383610b00565b15610ef857600080600085815260200190815260200160002060000160008473ffffffffffffffffffffffffffffffffffffffff1673ffffffffffffffffffffffffffffffffffffffff16815260200190815260200160002060006101000a81548160ff021916908315150217905550610e95610e09565b73ffffffffffffffffffffffffffffffffffffffff168273ffffffffffffffffffffffffffffffffffffffff16847ff6391f5c32d9c69d2a47ea670b442974b53935d1edc7fd64eb21e047a839171b60405160405180910390a460019050610efd565b600090505b92915050565b6000838383604051602001610f1a93929190611be3565b6040516020818303038152906040528051906020012060001c90509392505050565b600080600883901c9050600060ff84166001901b9050600081866000016000858152602001908152602001600020541614159250505092915050565b600082610f85858461101e565b1490509392505050565b6000600882901c9050600060ff83166001901b9050808460000160008481526020019081526020016000206000828254179250508190555050505050565b610fd78282610b00565b61101a5780826040517fe2517d3f000000000000000000000000000000000000000000000000000000008152600401611011929190611c20565b60405180910390fd5b5050565b60008082905060005b8451811015611063576110548286838151811061104757611046611c49565b5b602002602001015161106e565b91508080600101915050611027565b508091505092915050565b6000818310611086576110818284611099565b611091565b6110908383611099565b5b905092915050565b600082600052816020526040600020905092915050565b600080fd5b600080fd5b60007fffffffff0000000000000000000000000000000000000000000000000000000082169050919050565b6110ef816110ba565b81146110fa57600080fd5b50565b60008135905061110c816110e6565b92915050565b600060208284031215611128576111276110b0565b5b6000611136848285016110fd565b91505092915050565b60008115159050919050565b6111548161113f565b82525050565b600060208201905061116f600083018461114b565b92915050565b6000819050919050565b61118881611175565b82525050565b60006020820190506111a3600083018461117f565b92915050565b6111b281611175565b81146111bd57600080fd5b50565b6000813590506111cf816111a9565b92915050565b6000602082840312156111eb576111ea6110b0565b5b60006111f9848285016111c0565b91505092915050565b600073ffffffffffffffffffffffffffffffffffffffff82169050919050565b600061122d82611202565b9050919050565b61123d81611222565b811461124857600080fd5b50565b60008135905061125a81611234565b92915050565b60008060408385031215611277576112766110b0565b5b6000611285858286016111c0565b92505060206112968582860161124b565b9150509250929050565b600067ffffffffffffffff82169050919050565b6112bd816112a0565b81146112c857600080fd5b50565b6000813590506112da816112b4565b92915050565b6000819050919050565b6112f3816112e0565b81146112fe57600080fd5b50565b600081359050611310816112ea565b92915050565b600080fd5b600080fd5b600080fd5b60008083601f84011261133b5761133a611316565b5b8235905067ffffffffffffffff8111156113585761135761131b565b5b60208301915083602082028301111561137457611373611320565b5b9250929050565b600080600080600060808688031215611397576113966110b0565b5b60006113a5888289016112cb565b95505060206113b6888289016112cb565b94505060406113c788828901611301565b935050606086013567ffffffffffffffff8111156113e8576113e76110b5565b5b6113f488828901611325565b92509250509295509295909350565b6000819050919050565b600061142861142361141e84611202565b611403565b611202565b9050919050565b600061143a8261140d565b9050919050565b600061144c8261142f565b9050919050565b61145c81611441565b82525050565b60006020820190506114776000830184611453565b92915050565b60008083601f84011261149357611492611316565b5b8235905067ffffffffffffffff8111156114b0576114af61131b565b5b6020830191508360018202830111156114cc576114cb611320565b5b9250929050565b60008060008060008060a087890312156114f0576114ef6110b0565b5b60006114fe89828a016112cb565b965050602061150f89828a016112cb565b955050604061152089828a016111c0565b945050606061153189828a01611301565b935050608087013567ffffffffffffffff811115611552576115516110b5565b5b61155e89828a0161147d565b92509250509295509295509295565b60008060408385031215611584576115836110b0565b5b6000611592858286016112cb565b92505060206115a3858286016112cb565b9150509250929050565b6115b6816112e0565b82525050565b600081519050919050565b600082825260208201905092915050565b60005b838110156115f65780820151818401526020810190506115db565b60008484015250505050565b6000601f19601f8301169050919050565b600061161e826115bc565b61162881856115c7565b93506116388185602086016115d8565b61164181611602565b840191505092915050565b6000606082019050611661600083018661117f565b61166e60208301856115ad565b81810360408301526116808184611613565b9050949350505050565b60006116958261142f565b9050919050565b6116a58161168a565b82525050565b60006020820190506116c0600083018461169c565b92915050565b6116cf81611222565b82525050565b60006020820190506116ea60008301846116c6565b92915050565b6116f98161113f565b811461170457600080fd5b50565b600081519050611716816116f0565b92915050565b600060208284031215611732576117316110b0565b5b600061174084828501611707565b91505092915050565b60008151905061175881611234565b92915050565b600060208284031215611774576117736110b0565b5b600061178284828501611749565b91505092915050565b60008160601b9050919050565b60006117a38261178b565b9050919050565b60006117b582611798565b9050919050565b6117cd6117c882611222565b6117aa565b82525050565b6000819050919050565b6117ee6117e9826112e0565b6117d3565b82525050565b600061180082856117bc565b60148201915061181082846117dd565b6020820191508190509392505050565b600060408201905061183560008301856116c6565b61184260208301846115ad565b9392505050565b611852816112a0565b82525050565b600060408201905061186d6000830185611849565b61187a60208301846115ad565b9392505050565b7f4e487b7100000000000000000000000000000000000000000000000000000000600052604160045260246000fd5b7f4e487b7100000000000000000000000000000000000000000000000000000000600052602260045260246000fd5b600060028204905060018216806118f757607f821691505b60208210810361190a576119096118b0565b5b50919050565b60008190508160005260206000209050919050565b60006020601f8301049050919050565b600082821b905092915050565b6000600883026119727fffffffffffffffffffffffffffffffffffffffffffffffffffffffffffffffff82611935565b61197c8683611935565b95508019841693508086168417925050509392505050565b60006119af6119aa6119a5846112e0565b611403565b6112e0565b9050919050565b6000819050919050565b6119c983611994565b6119dd6119d5826119b6565b848454611942565b825550505050565b600090565b6119f26119e5565b6119fd8184846119c0565b505050565b5b81811015611a2157611a166000826119ea565b600181019050611a03565b5050565b601f821115611a6657611a3781611910565b611a4084611925565b81016020851015611a4f578190505b611a63611a5b85611925565b830182611a02565b50505b505050565b600082821c905092915050565b6000611a8960001984600802611a6b565b1980831691505092915050565b6000611aa28383611a78565b9150826002028217905092915050565b611abb826115bc565b67ffffffffffffffff811115611ad457611ad3611881565b5b611ade82546118df565b611ae9828285611a25565b600060209050601f831160018114611b1c5760008415611b0a578287015190505b611b148582611a96565b865550611b7c565b601f198416611b2a86611910565b60005b82811015611b5257848901518255600182019150602085019450602081019050611b2d565b86831015611b6f5784890151611b6b601f891682611a78565b8355505b6001600288020188555050505b505050505050565b6000604082019050611b99600083018561117f565b611ba660208301846115ad565b9392505050565b60008160c01b9050919050565b6000611bc582611bad565b9050919050565b611bdd611bd8826112a0565b611bba565b82525050565b6000611bef8286611bcc565b600882019150611bff8285611bcc565b600882019150611c0f82846117bc565b601482019150819050949350505050565b6000604082019050611c3560008301856116c6565b611c42602083018461117f565b9392505050565b7f4e487b7100000000000000000000000000000000000000000000000000000000600052603260045260246000fdfea26469706673582212207a272aeb737408e93c46c9ee9f20ad031b9bdfbd9c7f48b6e6daf8186558949e64736f6c634300081c0033",
  "linkReferences": {},
  "deployedLinkReferences": {}
}