{
  "_format": "hh-sol-artifact-1",
  "contractName": "GeoRewardManagerHGC",
  "sourceName": "contracts/alternative/GeoRewardManagerHGC.sol",
  "abi": [
    {
      "inputs": [
        {
          "internalType": "address",
          "name": "admin",
          "type": "address"
        },
        {
          "internalType": "address",
          "name": "oracleGlobal",
          "type": "address"
        },
        {
          "internalType": "contract IGeoToken",
          "name": "_cgt",
          "type": "address"
        },
        {
          "internalType": "contract INodeDIDRegistry",
          "name": "_did",
          "type": "address"
        }
      ],
      "stateMutability": "nonpayable",
      "type": "constructor"
    },
    {
      "inputs": [],
      "name": "AccessControlBadConfirmation",
      "type": "error"
    },
    {
      "inputs": [
        {
          "internalType": "address",
          "name": "account",
          "type": "address"
        },
        {
          "internalType": "bytes32",
          "name": "neededRole",
          "type": "bytes32"
        }
      ],
      "name": "AccessControlUnauthorizedAccount",
      "type": "error"
    },
    {
      "inputs": [],
      "name": "AlreadyClaimed",
      "type": "error"
    },
    {
      "inputs": [],
      "name": "BatchAlreadyExists",
      "type": "error"
    },
    {
      "inputs": [],
      "name": "InvalidProof",
      "type": "error"
    },
    {
      "inputs": [],
      "name": "NodeInactive",
      "type": "error"
    },
    {
      "inputs": [],
      "name": "NotController",
      "type": "error"
    },
    {
      "anonymous": false,
      "inputs": [
        {
          "indexed": true,
          "internalType": "uint64",
          "name": "epochWeek",
          "type": "uint64"
        },
        {
          "indexed": true,
          "internalType": "uint64",
          "name": "geoBatchId",
          "type": "uint64"
        },
        {
          "indexed": false,
          "internalType": "bytes32",
          "name": "root",
          "type": "bytes32"
        },
        {
          "indexed": false,
          "internalType": "uint256",
          "name": "totalMint",
          "type": "uint256"
        }
      ],
      "name": "RewardBatchPublished",
      "type": "event"
    },
    {
      "anonymous": false,
      "inputs": [
        {
          "indexed": true,
          "internalType": "address",
          "name": "controller",
          "type": "address"
        },
        {
          "indexed": true,
          "internalType": "uint64",
          "name": "epochWeek",
          "type": "uint64"
        },
        {
          "indexed": false,
          "internalType": "uint64",
          "name": "geoBatchId",
          "type": "uint64"
        },
        {
          "indexed": false,
          "internalType": "uint256",
          "name": "amount",
          "type": "uint256"
        }
      ],
      "name": "RewardClaimed",
      "type": "event"
    },
    {
      "anonymous": false,
      "inputs": [
        {
          "indexed": true,
          "internalType": "bytes32",
          "name": "role",
          "type": "bytes32"
        },
        {
          "indexed": true,
          "internalType": "bytes32",
          "name": "previousAdminRole",
          "type": "bytes32"
        },
        {
          "indexed": true,
          "internalType": "bytes32",
          "name": "newAdminRole",
          "type": "bytes32"
        }
      ],
      "name": "RoleAdminChanged",
      "type": "event"
    },
    {
      "anonymous": false,
      "inputs": [
        {
          "indexed": true,
          "internalType": "bytes32",
          "name": "role",
          "type": "bytes32"
        },
        {
          "indexed": true,
          "internalType": "address",
          "name": "account",
          "type": "address"
        },
        {
          "indexed": true,
          "internalType": "address",
          "name": "sender",
          "type": "address"
        }
      ],
      "name": "RoleGranted",
      "type": "event"
    },
    {
      "anonymous": false,
      "inputs": [
        {
          "indexed": true,
          "internalType": "bytes32",
          "name": "role",
          "type": "bytes32"
        },
        {
          "indexed": true,
          "internalType": "address",
          "name": "account",
          "type": "address"
        },
        {
          "indexed": true,
          "internalType": "address",
          "name": "sender",
          "type": "address"
        }
      ],
      "name": "RoleRevoked",
      "type": "event"
    },
    {
      "inputs": [],
      "name": "DEFAULT_ADMIN_ROLE",
      "outputs": [
        {
          "internalType": "bytes32",
          "name": "",
          "type": "bytes32"
        }
      ],
      "stateMutability": "view",
      "type": "function"
    },
    {
      "inputs": [],
      "name": "MANAGER_ROLE",
      "outputs": [
        {
          "internalType": "bytes32",
          "name": "",
          "type": "bytes32"
        }
      ],
      "stateMutability": "view",
      "type": "function"
    },
    {
      "inputs": [],
      "name": "ORACLE_ROLE",
      "outputs": [
        {
          "internalType": "bytes32",
          "name": "",
          "type": "bytes32"
        }
      ],
      "stateMutability": "view",
      "type": "function"
    },
    {
      "inputs": [],
      "name": "cgt",
      "outputs": [
        {
          "internalType": "contract IGeoToken",
          "name": "",
          "type": "address"
        }
      ],
      "stateMutability": "view",
      "type": "function"
    },
    {
      "inputs": [
        {
          "internalType": "uint64",
          "name": "epochWeek",
          "type": "uint64"
        },
        {
          "internalType": "uint64",
          "name": "geoBatchId",
          "type": "uint64"
        },
        {
          "internalType": "uint256",
          "name": "amount",
          "type": "uint256"
        },
        {
          "internalType": "bytes32[]",
          "name": "proof",
          "type": "bytes32[]"
        }
      ],
      "name": "claim",
      "outputs": [],
      "stateMutability": "nonpayable",
      "type": "function"
    },
    {
      "inputs": [],
      "name": "did",
      "outputs": [
        {
          "internalType": "contract INodeDIDRegistry",
          "name": "",
          "type": "address"
        }
      ],
      "stateMutability": "view",
      "type": "function"
    },
    {
      "inputs": [
        {
          "internalType": "bytes32",
          "name": "role",
          "type": "bytes32"
        }
      ],
      "name": "getRoleAdmin",
      "outputs": [
        {
          "internalType": "bytes32",
          "name": "",
          "type": "bytes32"
        }
      ],
      "stateMutability": "view",
      "type": "function"
    },
    {
      "inputs": [
        {
          "internalType": "bytes32",
          "name": "role",
          "type": "bytes32"
        },
        {
          "internalType": "address",
          "name": "account",
          "type": "address"
        }
      ],
      "name": "grantRole",
      "outputs": [],
      "stateMutability": "nonpayable",
      "type": "function"
    },
    {
      "inputs": [
        {
          "internalType": "bytes32",
          "name": "role",
          "type": "bytes32"
        },
        {
          "internalType": "address",
          "name": "account",
          "type": "address"
        }
      ],
      "name": "hasRole",
      "outputs": [
        {
          "internalType": "bool",
          "name": "",
          "type": "bool"
        }
      ],
      "stateMutability": "view",
      "type": "function"
    },
    {
      "inputs": [
        {
          "internalType": "uint64",
          "name": "epochWeek",
          "type": "uint64"
        },
        {
          "internalType": "uint64",
          "name": "geoBatchId",
          "type": "uint64"
        },
        {
          "internalType": "bytes32",
          "name": "merkleRoot",
          "type": "bytes32"
        },
        {
          "internalType": "uint256",
          "name": "totalToMint",
          "type": "uint256"
        },
        {
          "internalType": "string",
          "name": "dataCID",
          "type": "string"
        }
      ],
      "name": "publishRewardBatch",
      "outputs": [],
      "stateMutability": "nonpayable",
      "type": "function"
    },
    {
      "inputs": [
        {
          "internalType": "bytes32",
          "name": "role",
          "type": "bytes32"
        },
        {
          "internalType": "address",
          "name": "callerConfirmation",
          "type": "address"
        }
      ],
      "name": "renounceRole",
      "outputs": [],
      "stateMutability": "nonpayable",
      "type": "function"
    },
    {
      "inputs": [
        {
          "internalType": "bytes32",
          "name": "role",
          "type": "bytes32"
        },
        {
          "internalType": "address",
          "name": "account",
          "type": "address"
        }
      ],
      "name": "revokeRole",
      "outputs": [],
      "stateMutability": "nonpayable",
      "type": "function"
    },
    {
      "inputs": [
        {
          "internalType": "uint64",
          "name": "",
          "type": "uint64"
        },
        {
          "internalType": "uint64",
          "name": "",
          "type": "uint64"
        }
      ],
      "name": "rewardBatches",
      "outputs": [
        {
          "internalType": "bytes32",
          "name": "merkleRoot",
          "type": "bytes32"
        },
        {
          "internalType": "uint256",
          "name": "totalMint",
          "type": "uint256"
        },
        {
          "internalType": "string",
          "name": "dataCID",
          "type": "string"
        }
      ],
      "stateMutability": "view",
      "type": "function"
    },
    {
      "inputs": [
        {
          "internalType": "bytes4",
          "name": "interfaceId",
          "type": "bytes4"
        }
      ],
      "name": "supportsInterface",
      "outputs": [
        {
          "internalType": "bool",
          "name": "",
          "type": "bool"
        }
      ],
      "stateMutability": "view",
      "type": "function"
    }
  ],
  "bytecode": "0x60c06040523480156200001157600080fd5b506040516200206c3803806200206c83398181016040528101906200003791906200038e565b8173ffffffffffffffffffffffffffffffffffffffff1660808173ffffffffffffffffffffffffffffffffffffffff16815250508073ffffffffffffffffffffffffffffffffffffffff1660a08173ffffffffffffffffffffffffffffffffffffffff1681525050620000b46000801b856200012560201b60201c565b50620000e77f68e79a7bf1e0bc45d0a330c573bc367f9cf464fd326078812f301165fbda4ef1846200012560201b60201c565b506200011a7f241ecf16d79d0f8dbfb92cbc07fe17840425976cf0667f022fe9877caa831b08856200012560201b60201c565b505050505062000400565b60006200013983836200022860201b60201c565b6200021d57600160008085815260200190815260200160002060000160008473ffffffffffffffffffffffffffffffffffffffff1673ffffffffffffffffffffffffffffffffffffffff16815260200190815260200160002060006101000a81548160ff021916908315150217905550620001b96200029260201b60201c565b73ffffffffffffffffffffffffffffffffffffffff168273ffffffffffffffffffffffffffffffffffffffff16847f2f8788117e7eff1d82e926ec794901d17c78024a50270940304540a733656f0d60405160405180910390a46001905062000222565b600090505b92915050565b600080600084815260200190815260200160002060000160008373ffffffffffffffffffffffffffffffffffffffff1673ffffffffffffffffffffffffffffffffffffffff16815260200190815260200160002060009054906101000a900460ff16905092915050565b600033905090565b600080fd5b600073ffffffffffffffffffffffffffffffffffffffff82169050919050565b6000620002cc826200029f565b9050919050565b620002de81620002bf565b8114620002ea57600080fd5b50565b600081519050620002fe81620002d3565b92915050565b60006200031182620002bf565b9050919050565b620003238162000304565b81146200032f57600080fd5b50565b600081519050620003438162000318565b92915050565b60006200035682620002bf565b9050919050565b620003688162000349565b81146200037457600080fd5b50565b60008151905062000388816200035d565b92915050565b60008060008060808587031215620003ab57620003aa6200029a565b5b6000620003bb87828801620002ed565b9450506020620003ce87828801620002ed565b9350506040620003e18782880162000332565b9250506060620003f48782880162000377565b91505092959194509250565b60805160a051611c316200043b600039600081816104320152610bc40152600081816106d7015281816107dc015261098d0152611c316000f3fe608060405234801561001057600080fd5b50600436106100ea5760003560e01c8063888ab0511161008c578063cc3f779311610066578063cc3f779314610249578063d547741f1461027b578063e6fcc84b14610297578063ec87621c146102b5576100ea565b8063888ab051146101df57806391d14854146101fb578063a217fddf1461022b576100ea565b80632f2ff15d116100c85780632f2ff15d1461016d57806336568abe1461018957806356995f05146101a557806370e9144a146101c1576100ea565b806301ffc9a7146100ef57806307e2cea51461011f578063248a9ca31461013d575b600080fd5b61010960048036038101906101049190611082565b6102d3565b60405161011691906110ca565b60405180910390f35b61012761034d565b60405161013491906110fe565b60405180910390f35b61015760048036038101906101529190611145565b610371565b60405161016491906110fe565b60405180910390f35b610187600480360381019061018291906111d0565b610390565b005b6101a3600480360381019061019e91906111d0565b6103b2565b005b6101bf60048036038101906101ba91906112eb565b61042d565b005b6101c96107da565b6040516101d691906113d2565b60405180910390f35b6101f960048036038101906101f49190611443565b6107fe565b005b610215600480360381019061021091906111d0565b610a70565b60405161022291906110ca565b60405180910390f35b610233610ada565b60405161024091906110fe565b60405180910390f35b610263600480360381019061025e91906114dd565b610ae1565b604051610272939291906115bc565b60405180910390f35b610295600480360381019061029091906111d0565b610ba0565b005b61029f610bc2565b6040516102ac919061161b565b60405180910390f35b6102bd610be6565b6040516102ca91906110fe565b60405180910390f35b60007f7965db0b000000000000000000000000000000000000000000000000000000007bffffffffffffffffffffffffffffffffffffffffffffffffffffffff1916827bffffffffffffffffffffffffffffffffffffffffffffffffffffffff19161480610346575061034582610c0a565b5b9050919050565b7f68e79a7bf1e0bc45d0a330c573bc367f9cf464fd326078812f301165fbda4ef181565b6000806000838152602001908152602001600020600101549050919050565b61039982610371565b6103a281610c74565b6103ac8383610c88565b50505050565b6103ba610d79565b73ffffffffffffffffffffffffffffffffffffffff168173ffffffffffffffffffffffffffffffffffffffff161461041e576040517f6697b23200000000000000000000000000000000000000000000000000000000815260040160405180910390fd5b6104288282610d81565b505050565b6000807f000000000000000000000000000000000000000000000000000000000000000073ffffffffffffffffffffffffffffffffffffffff1663edc74066336040518263ffffffff1660e01b81526004016104899190611645565b6040805180830381865afa1580156104a5573d6000803e3d6000fd5b505050506040513d601f19601f820116820180604052508101906104c991906116a1565b9150915080610504576040517fa247f8ae00000000000000000000000000000000000000000000000000000000815260040160405180910390fd5b3373ffffffffffffffffffffffffffffffffffffffff168273ffffffffffffffffffffffffffffffffffffffff1614610569576040517f23019e6700000000000000000000000000000000000000000000000000000000815260040160405180910390fd5b6000610576888833610e73565b905061058c816002610eac90919063ffffffff16565b156105c3576040517f646cf55800000000000000000000000000000000000000000000000000000000815260040160405180910390fd5b600033876040516020016105d892919061174a565b60405160208183030381529060405280519060200120905061068b868680806020026020016040519081016040528093929190818152602001838360200280828437600081840152601f19601f82011690508083019250505050505050600160008c67ffffffffffffffff1667ffffffffffffffff16815260200190815260200160002060008b67ffffffffffffffff1667ffffffffffffffff1681526020019081526020016000206000015483610ee8565b6106c1576040517f09bde33900000000000000000000000000000000000000000000000000000000815260040160405180910390fd5b6106d5826002610eff90919063ffffffff16565b7f000000000000000000000000000000000000000000000000000000000000000073ffffffffffffffffffffffffffffffffffffffff1663a9059cbb33896040518363ffffffff1660e01b8152600401610730929190611776565b6020604051808303816000875af115801561074f573d6000803e3d6000fd5b505050506040513d601f19601f82011682018060405250810190610773919061179f565b508867ffffffffffffffff163373ffffffffffffffffffffffffffffffffffffffff167f30151f66f186c3a0dc83b32c72a421d86d6c0729c667fa3cba7ab9e8e48c64f98a8a6040516107c79291906117db565b60405180910390a3505050505050505050565b7f000000000000000000000000000000000000000000000000000000000000000081565b7f68e79a7bf1e0bc45d0a330c573bc367f9cf464fd326078812f301165fbda4ef161082881610c74565b6000801b600160008967ffffffffffffffff1667ffffffffffffffff16815260200190815260200160002060008867ffffffffffffffff1667ffffffffffffffff16815260200190815260200160002060000154146108b3576040517fd15f973b00000000000000000000000000000000000000000000000000000000815260040160405180910390fd5b604051806060016040528086815260200185815260200184848080601f016020809104026020016040519081016040528093929190818152602001838380828437600081840152601f19601f82011690508083019250505050505050815250600160008967ffffffffffffffff1667ffffffffffffffff16815260200190815260200160002060008867ffffffffffffffff1667ffffffffffffffff168152602001908152602001600020600082015181600001556020820151816001015560408201518160020190816109879190611a35565b509050507f000000000000000000000000000000000000000000000000000000000000000073ffffffffffffffffffffffffffffffffffffffff166340c10f1930866040518363ffffffff1660e01b81526004016109e6929190611776565b600060405180830381600087803b158015610a0057600080fd5b505af1158015610a14573d6000803e3d6000fd5b505050508567ffffffffffffffff168767ffffffffffffffff167f5c790b6a3a95c2c258b5cc8dac4e9d8fa478070df6cf374f2bd34210660f79888787604051610a5f929190611b07565b60405180910390a350505050505050565b600080600084815260200190815260200160002060000160008373ffffffffffffffffffffffffffffffffffffffff1673ffffffffffffffffffffffffffffffffffffffff16815260200190815260200160002060009054906101000a900460ff16905092915050565b6000801b81565b600160205281600052604060002060205280600052604060002060009150915050806000015490806001015490806002018054610b1d90611862565b80601f0160208091040260200160405190810160405280929190818152602001828054610b4990611862565b8015610b965780601f10610b6b57610100808354040283529160200191610b96565b820191906000526020600020905b815481529060010190602001808311610b7957829003601f168201915b5050505050905083565b610ba982610371565b610bb281610c74565b610bbc8383610d81565b50505050565b7f000000000000000000000000000000000000000000000000000000000000000081565b7f241ecf16d79d0f8dbfb92cbc07fe17840425976cf0667f022fe9877caa831b0881565b60007f01ffc9a7000000000000000000000000000000000000000000000000000000007bffffffffffffffffffffffffffffffffffffffffffffffffffffffff1916827bffffffffffffffffffffffffffffffffffffffffffffffffffffffff1916149050919050565b610c8581610c80610d79565b610f3d565b50565b6000610c948383610a70565b610d6e57600160008085815260200190815260200160002060000160008473ffffffffffffffffffffffffffffffffffffffff1673ffffffffffffffffffffffffffffffffffffffff16815260200190815260200160002060006101000a81548160ff021916908315150217905550610d0b610d79565b73ffffffffffffffffffffffffffffffffffffffff168273ffffffffffffffffffffffffffffffffffffffff16847f2f8788117e7eff1d82e926ec794901d17c78024a50270940304540a733656f0d60405160405180910390a460019050610d73565b600090505b92915050565b600033905090565b6000610d8d8383610a70565b15610e6857600080600085815260200190815260200160002060000160008473ffffffffffffffffffffffffffffffffffffffff1673ffffffffffffffffffffffffffffffffffffffff16815260200190815260200160002060006101000a81548160ff021916908315150217905550610e05610d79565b73ffffffffffffffffffffffffffffffffffffffff168273ffffffffffffffffffffffffffffffffffffffff16847ff6391f5c32d9c69d2a47ea670b442974b53935d1edc7fd64eb21e047a839171b60405160405180910390a460019050610e6d565b600090505b92915050565b6000838383604051602001610e8a93929190611b66565b6040516020818303038152906040528051906020012060001c90509392505050565b600080600883901c9050600060ff84166001901b9050600081866000016000858152602001908152602001600020541614159250505092915050565b600082610ef58584610f8e565b1490509392505050565b6000600882901c9050600060ff83166001901b9050808460000160008481526020019081526020016000206000828254179250508190555050505050565b610f478282610a70565b610f8a5780826040517fe2517d3f000000000000000000000000000000000000000000000000000000008152600401610f81929190611ba3565b60405180910390fd5b5050565b60008082905060005b8451811015610fd357610fc482868381518110610fb757610fb6611bcc565b5b6020026020010151610fde565b91508080600101915050610f97565b508091505092915050565b6000818310610ff657610ff18284611009565b611001565b6110008383611009565b5b905092915050565b600082600052816020526040600020905092915050565b600080fd5b600080fd5b60007fffffffff0000000000000000000000000000000000000000000000000000000082169050919050565b61105f8161102a565b811461106a57600080fd5b50565b60008135905061107c81611056565b92915050565b60006020828403121561109857611097611020565b5b60006110a68482850161106d565b91505092915050565b60008115159050919050565b6110c4816110af565b82525050565b60006020820190506110df60008301846110bb565b92915050565b6000819050919050565b6110f8816110e5565b82525050565b600060208201905061111360008301846110ef565b92915050565b611122816110e5565b811461112d57600080fd5b50565b60008135905061113f81611119565b92915050565b60006020828403121561115b5761115a611020565b5b600061116984828501611130565b91505092915050565b600073ffffffffffffffffffffffffffffffffffffffff82169050919050565b600061119d82611172565b9050919050565b6111ad81611192565b81146111b857600080fd5b50565b6000813590506111ca816111a4565b92915050565b600080604083850312156111e7576111e6611020565b5b60006111f585828601611130565b9250506020611206858286016111bb565b9150509250929050565b600067ffffffffffffffff82169050919050565b61122d81611210565b811461123857600080fd5b50565b60008135905061124a81611224565b92915050565b6000819050919050565b61126381611250565b811461126e57600080fd5b50565b6000813590506112808161125a565b92915050565b600080fd5b600080fd5b600080fd5b60008083601f8401126112ab576112aa611286565b5b8235905067ffffffffffffffff8111156112c8576112c761128b565b5b6020830191508360208202830111156112e4576112e3611290565b5b9250929050565b60008060008060006080868803121561130757611306611020565b5b60006113158882890161123b565b95505060206113268882890161123b565b945050604061133788828901611271565b935050606086013567ffffffffffffffff81111561135857611357611025565b5b61136488828901611295565b92509250509295509295909350565b6000819050919050565b600061139861139361138e84611172565b611373565b611172565b9050919050565b60006113aa8261137d565b9050919050565b60006113bc8261139f565b9050919050565b6113cc816113b1565b82525050565b60006020820190506113e760008301846113c3565b92915050565b60008083601f84011261140357611402611286565b5b8235905067ffffffffffffffff8111156114205761141f61128b565b5b60208301915083600182028301111561143c5761143b611290565b5b9250929050565b60008060008060008060a087890312156114605761145f611020565b5b600061146e89828a0161123b565b965050602061147f89828a0161123b565b955050604061149089828a01611130565b94505060606114a189828a01611271565b935050608087013567ffffffffffffffff8111156114c2576114c1611025565b5b6114ce89828a016113ed565b92509250509295509295509295565b600080604083850312156114f4576114f3611020565b5b60006115028582860161123b565b92505060206115138582860161123b565b9150509250929050565b61152681611250565b82525050565b600081519050919050565b600082825260208201905092915050565b60005b8381101561156657808201518184015260208101905061154b565b60008484015250505050565b6000601f19601f8301169050919050565b600061158e8261152c565b6115988185611537565b93506115a8818560208601611548565b6115b181611572565b840191505092915050565b60006060820190506115d160008301866110ef565b6115de602083018561151d565b81810360408301526115f08184611583565b9050949350505050565b60006116058261139f565b9050919050565b611615816115fa565b82525050565b6000602082019050611630600083018461160c565b92915050565b61163f81611192565b82525050565b600060208201905061165a6000830184611636565b92915050565b60008151905061166f816111a4565b92915050565b61167e816110af565b811461168957600080fd5b50565b60008151905061169b81611675565b92915050565b600080604083850312156116b8576116b7611020565b5b60006116c685828601611660565b92505060206116d78582860161168c565b9150509250929050565b60008160601b9050919050565b60006116f9826116e1565b9050919050565b600061170b826116ee565b9050919050565b61172361171e82611192565b611700565b82525050565b6000819050919050565b61174461173f82611250565b611729565b82525050565b60006117568285611712565b6014820191506117668284611733565b6020820191508190509392505050565b600060408201905061178b6000830185611636565b611798602083018461151d565b9392505050565b6000602082840312156117b5576117b4611020565b5b60006117c38482850161168c565b91505092915050565b6117d581611210565b82525050565b60006040820190506117f060008301856117cc565b6117fd602083018461151d565b9392505050565b7f4e487b7100000000000000000000000000000000000000000000000000000000600052604160045260246000fd5b7f4e487b7100000000000000000000000000000000000000000000000000000000600052602260045260246000fd5b6000600282049050600182168061187a57607f821691505b60208210810361188d5761188c611833565b5b50919050565b60008190508160005260206000209050919050565b60006020601f8301049050919050565b600082821b905092915050565b6000600883026118f57fffffffffffffffffffffffffffffffffffffffffffffffffffffffffffffffff826118b8565b6118ff86836118b8565b95508019841693508086168417925050509392505050565b600061193261192d61192884611250565b611373565b611250565b9050919050565b6000819050919050565b61194c83611917565b61196061195882611939565b8484546118c5565b825550505050565b600090565b611975611968565b611980818484611943565b505050565b5b818110156119a45761199960008261196d565b600181019050611986565b5050565b601f8211156119e9576119ba81611893565b6119c3846118a8565b810160208510156119d2578190505b6119e66119de856118a8565b830182611985565b50505b505050565b600082821c905092915050565b6000611a0c600019846008026119ee565b1980831691505092915050565b6000611a2583836119fb565b9150826002028217905092915050565b611a3e8261152c565b67ffffffffffffffff811115611a5757611a56611804565b5b611a618254611862565b611a6c8282856119a8565b600060209050601f831160018114611a9f5760008415611a8d578287015190505b611a978582611a19565b865550611aff565b601f198416611aad86611893565b60005b82811015611ad557848901518255600182019150602085019450602081019050611ab0565b86831015611af25784890151611aee601f8916826119fb565b8355505b6001600288020188555050505b505050505050565b6000604082019050611b1c60008301856110ef565b611b29602083018461151d565b9392505050565b60008160c01b9050919050565b6000611b4882611b30565b9050919050565b611b60611b5b82611210565b611b3d565b82525050565b6000611b728286611b4f565b600882019150611b828285611b4f565b600882019150611b928284611712565b601482019150819050949350505050565b6000604082019050611bb86000830185611636565b611bc560208301846110ef565b9392505050565b7f4e487b7100000000000000000000000000000000000000000000000000000000600052603260045260246000fdfea2646970667358221220883ed86d052da00dee6a1f7a04bc4b76c5157802c40e836cc093d9b0a08f683364736f6c63430008180033",
  "linkReferences": {},
  "deployedLinkReferences": {}
}